:10FC000001C0BEC0112484B790E8909361001092A7
:10FC10006100882361F0982F9A70923041F081FF43
:10FC200002C097EF94BF282E80E0D4D0E9C185B1FF
:10FC3000876085B984B1876084B988B18C6C88B9D4
:10FC400087B1846487B987B1877787B988B18C6CAD
:10FC500088B98091C10087748093C1001BB81AB81D
:10FC60008CE0B8D0ADD08C3A09F4FFCF813491F458
:10FC7000A7D0C82FB5D0C23811F480E007C088E003
:10FC8000C13821F084E0C23D09F083E089D080E1F1
:10FC900087D0E8CF823419F484E1AAD0F8CF853434
:10FCA00011F485E0FACF853541F48AD0082F88D049
:10FCB000182F000F111F94D0EACF863519F484E075
:10FCC00097D0DBCF843609F039C07AD0C82FD0E086
:10FCD000DC2FCC2775D0C82B73D0D82E5E01B394FF
:10FCE000E12CFF24F3944701EFEF8E1A9E0A68D0AF
:10FCF000F701808374018A149B04A9F771D0F5E49D
:10FD0000DF1201C0FFCF50E040E063E0C80138D00F
:10FD10007801C12CDD24D394F601419151916F01FA
:10FD200061E0C7012DD0F2E0EF0EF11C2297A1F7A0
:10FD300050E040E065E0C80123D0A9CF843789F4C2
:10FD40003FD0C82FD0E0DC2FCC273AD0C82B38D0FA
:10FD500047D07801F70185917F0122D02197D1F713
:10FD600096CF853739F43CD08EE11AD086E918D089
:10FD70008AE08CCF813509F09ECF88E02BD09BCFD5
:10FD8000FC010A0167BFE895112407B600FCFDCF0E
:10FD9000667029F0452B19F481E187BFE895089535
:10FDA0003799FECF9FEF9AB98BB98BB94698469891
:10FDB000469846984698469A1BB81AB8A89508954A
:10FDC0003399FECF4298429842984298429889B11E
:10FDD000429A0895E0E6F0E098E1908380830895E8
:10FDE000EFDF803219F088E0F5DFFFCF84E1D8CF74
:0EFDF000CF93C82FE5DFC150E9F7CF91F1CFD7
:02FFFE000008F9
:040000030000FC00FD
:00000001FF
