:107E000001C0B0C0112484B790E890936100109233
:107E10006100882361F0982F9A70923041F081FFC1
:107E200002C097EF94BF282E80E0C6D0E9C097E04B
:107E300095B984B1876084B995B988B18F6088B9E4
:107E400087B1856087B987B1857F87B988B18F6031
:107E500088B98091C10087748093C1001BB81AB89B
:107E60008CE0AAD09FD08C3A09F4FFCF813479F40A
:107E700099D0182FA7D0123811F480E004C088E000
:107E8000113809F083E07ED080E17CD0EBCF8234E2
:107E900019F484E19FD0F8CF853411F485E0FACF4E
:107EA000853541F47FD0C82F7DD0D82FCC0FDD1F72
:107EB00089D0EACF863519F484E08CD0DECF8436C1
:107EC00091F570D06FD0F82E6DD0D82E00E011E073
:107ED00058018FEFA81AB80A65D0F8018083850190
:107EE000FA10F6CF6FD0F5E4DF1201C0FFCF50E0FB
:107EF00040E063E0CE0136D08E01E0E0F1E06F01BA
:107F000082E0C80ED11C4081518161E0C8012AD0B5
:107F10000E5F1F4FF601FC10F2CF50E040E065E02D
:107F2000CE0120D0B1CF843771F43CD03BD0F82EB5
:107F300039D048D08E01F80185918F0123D0FA9471
:107F4000F110F9CFA1CF853739F43CD08EE11AD0AA
:107F500085E918D08FE097CF813509F0A9CF88E067
:107F60002BD0A6CFFC010A0167BFE895112407B604
:107F700000FCFDCF667029F0452B19F481E187BF25
:107F8000E89508953199FECF9FEF9AB98BB98BB9D7
:107F900040984098409840984098409A1BB81AB82A
:107FA000A89508953399FECF4298429842984298F6
:107FB000429889B1429A0895E0E6F0E098E1908312
:107FC00080830895EFDF803219F088E0F5DFFFCF7E
:107FD00084E1D8CFCF93C82FE5DFC150E9F7CF9127
:027FE000F1CFDF
:027FFE00000879
:0400000300007E007B
:00000001FF
