:020000040000FA
:100000000C946C030C9494030C9494030C9494033C
:100010000C9494030C9494030C9494030C94940304
:100020000C9494030C9494030C9494030C949403F4
:100030000C9494030C9494030C9494030C949403E4
:100040000C94E82F0C9494030C9494030C94940354
:100050000C9494030C9494030C9494030C949403C4
:100060000C9494030C949403EAA92085F0A960856C
:10007000F3A5434A4A4A4A290709C085F2A00084E9
:10008000F188B1F185F1A90285F9E646E645E64534
:1000900020F000900620E2FB4CBAFAC6F9D0EB2023
:1000A00093FE2089FE20A50920AF08205F0B20C405
:1000B00008205E0820A60820460B20750B20EE08BD
:1000C00020420B4C6B0CA90085FBA904852520223E
:1000D000FCA5FB85F5098085F620460BA90020E4E8
:1000E00009A9FF8532A54309808543A5FB098085C1
:1000F000FBA91420E409A9FF85324A25438543E67C
:1001000025E6FBA5FB297F85FBC91090C160A5F7FB
:1001100085F5A5F885F660A0008424A00384252039
:1001200022FC201E0BA01484244C190BA91520FDC1
:100130000A20270BA914852420220BA90185FA2067
:10014000B709C6FA10F960205B0C20A60820C40885
:100150006868184C6B0CA90085FAA940203E0A205B
:10016000B709200CFD48A901203E0A68A6FAB4F59B
:10017000C98DD00EA900203E0AA5FA490185FAD002
:10018000D960C99BF0C1C9A1D005A9FF85F560C997
:10019000ACF004C98BD013980A0838E902291E284C
:1001A0006AA898298F95F54CF208C9A0F004C98A6D
:1001B000D003C8D0EDC988F004C995D0079849800C
:1001C00095F51031C9E1900338E920C9C19009C9FA
:1001D000C7B00538E907D008C9B09015C9BAB01141
:1001E000290F85F998298005F995F520B7094C0C58
:1001F00009C9C9F0034CF20820A50920750B4CA7CA
:100200000BC9FFF0034CE3FDA9A14CEDFD2058FC08
:10021000A93F20060BA91720FD0AA9234C060BA213
:100220000BA5FAF002A21F8624A01584252022FC2B
:10023000A4FAB9F50048A0010A9001C898209909CC
:10024000A424C8842468209909C624608524A5FBB9
:1002500048297F20E3FDA9BA20EDFDE62468C5F713
:10026000F004C5F8D004A93F853220350BB032AD7B
:100270000510302DAD0410AA29F0C9F0D0238A2929
:100280000FF01E85F9A200BD0510098020EDFDE8E4
:10029000E4F9D0F3E00FD00160A9A020EDFDE8D093
:1002A000F3A2004C290BA6FAC901D00AA980A4F533
:1002B000C4F6D002A90085F9B5F53004A003D00238
:1002C000A0178424290F18690485252022FCA42462
:1002D000A20EB128293F05F99128C8CA10F460ADD3
:1002E000ADADA0A0A0A0A0A0A0A0A0A0A0A000C470
:1002F000D2C9D6C5A0B1BAA0D3C4BFAF00D3C4B1D0
:10030000BA0020200110100C0520090920060F1248
:100310000516051221202016332E332E300004013D
:100320000E20090920160F0C150D052013050C05CC
:1003300003140F1200A0CFCBA100C5D2D2CFD2A1FF
:1003400087878700C6D4D0AFC9D0BAA000CEC5D7A2
:10035000A0C9D0BAA0A0A0A0AEA0A0A0AEA0A0A00E
:10036000AEA0A0A0008525A90085244C22FC48A2AF
:1003700026A92020EDFDCA10F868AAA9088524D076
:1003800010A9B28D970AA21ED007A9B28D8D0AA21C
:1003900010BD770AF00620EDFDE8D0F560A00084DE
:1003A00047C88442C884464C540BA907D002A9060A
:1003B0008542A5F58546A5F649808547A90085446F
:1003C000A91085454CF000A905854220540BAD00CD
:1003D0001085F7AD0110498085F84CA608A92120A9
:1003E000480BB0B8AD1010F0B3A90120FD0AA20966
:1003F0008624A26520290BAD0610204F0CAD0710F6
:10040000204F0CAD0810204F0CAD09104CA80CA5C6
:100410004348A90A20FD0AA26E20290BA9088524B9
:1004200020EF0BB0ED8544E62420EF0BB0E48545CA
:10043000E62420EF0BB0DB8546E62420EF0BB0D29C
:1004400085478543A920854220F00018AA68854386
:10045000CAF001384C790CA90085F9A2038A48201A
:100460002E0CB017C9FFF017A8201F0CB00D98650F
:10047000F985F9B00668AACAD0E34868A5F96068AA
:10048000186524852490F5A20AA9001865F9B0051D
:10049000CAD0F985F960200CFDC9A0D004A9FF18C5
:1004A00060C98DF0F8C9AEF0F4C9B030E9C9BAB08E
:1004B000E520EDFD290F6020A80CA9AE4CEDFDA9AB
:1004C00000F002A98048A20086FA203E0A68E6FAF7
:1004D0004C3E0A0820570CA91620FD0AA9118524B4
:1004E00028A2569002A25B20290BA206A9FF20A8F1
:1004F000FCCAD0F82058FCA908488545A9004885C1
:100500004485468547A2018144A90A85426CF100D1
:10051000C90A901EA26486F920CD0CE000F00648BE
:100520008A20E3FD68A20A86F920CD0C488A20E3E0
:10053000FD684CE3FDA200C5F99006E838E5F9B086
:10054000F6604F6B004661696C656400426164202F
:1005500066696C656E616D650046696C6520746FD7
:100560006F206C61726765004E6F20737563682041
:1005700066696C652F666F6C64657200492F4F2049
:100580006572726F72004279652E0057656C636FF9
:100590006D6520746F2044414E5D5B2C2076332EB8
:1005A000332E302E204170706C65205D5B20466FCD
:1005B0007265766572210044414E5D5B002D727755
:1005C0002D2D2D2D2D2D2D203120766F6C756D65E7
:1005D0003A202D2D2D2020202020202020202020DA
:1005E00020203132333435363738204A756E203189
:1005F00030203139373720564F4C30312E504F0D87
:100600000A00647277782D2D2D2D2D2D2031204458
:10061000414E5D5B204641542031204A756E2031A9
:10062000302031393737205344310D0A0032353705
:1006300020222F534431220032323720456E746518
:1006400072696E672050617373697665204D6F64BF
:100650006520280055534552504153535359535424
:1006600043574420545950455155495450415356CD
:100670004C495354434455505245545253544F528D
:10068000505744000000000008000201000003046D
:100690000700000000000000000000000025002806
:1006A000002B0000000000240027002A000404049E
:1006B000040404040402020202020203030303030B
:1006C00003010204081020408001020408102001E8
:1006D000020408102000323011241FBECFEFD8E0F2
:1006E000DEBFCDBF11E0A0E0B1E0EEE1F6E602C072
:1006F00005900D92A03AB107D9F724E0A0EAB1E045
:1007000001C01D92A638B207E1F713E0CCE6D3E0B2
:1007100004C02197FE010E94C532CB36D107C9F72C
:100720000E9483300C940D330C94000090E0FC0187
:10073000EF53F94F24918355994FFC0184918823FD
:1007400099F090E0880F991FFC01ED55F94FA591A4
:10075000B491FC01E756F94F859194918FB7F894C5
:10076000EC91E22BEC938FBF08958CBD9DBD089555
:1007700090E0FC01EB57F94F2491FC01EF53F94F46
:100780003491FC01E355F94FE491EE23C9F02223A3
:1007900039F0233001F1A8F4213019F1223029F188
:1007A000F0E0EE0FFF1FE756F94FA591B4918FB718
:1007B000F894EC91611126C030953E233C938FBF95
:1007C00008952730A9F02830C9F0243049F78091E6
:1007D00080008F7D03C0809180008F7780938000A0
:1007E000DFCF84B58F7784BDDBCF84B58F7DFBCF22
:1007F0008091B0008F778093B000D2CF8091B0000D
:100800008F7DF9CF3E2BDACF3FB7F8948091F80374
:100810009091F903A091FA03B091FB0326B5A89B30
:1008200005C02F3F19F00196A11DB11D3FBFBA2F82
:10083000A92F982F8827BC01CD01620F711D811D42
:10084000911D42E0660F771F881F991F4A95D1F7C7
:1008500008958F929F92AF92BF92CF92DF92EF92C4
:10086000FF924B015C010E9404046B017C010E9419
:1008700004046C197D098E099F09683E7340810547
:100880009105A8F321E0821A9108A108B10888EE29
:10089000C80E83E0D81EE11CF11C81149104A10450
:1008A000B10429F7FF90EF90DF90CF90BF90AF9009
:1008B0009F908F9008952FB7F8946091F4037091F2
:1008C000F5038091F6039091F7032FBF08958EBD35
:1008D0000DB407FEFDCF0895FF920F931F93CF93A2
:1008E000DF93082FF62E142FCBE7D4E060E0888149
:1008F0000E94B80380E00E9467048F2D0E94670465
:10090000802F84600E946704812F0E94670461E049
:100910008881DF91CF911F910F91FF900C94B803C4
:100920001F93CF93DF93EC01162F472FBC0188E074
:100930000E946C04BE016F5F7F4F412F88E0DF9102
:10094000CF911F910C946C04DF92EF92FF920F9362
:100950001F93CF93DF93F82EE62ED72EEA0189015D
:1009600060E080917B040E94B8038D2D0E94670493
:100970008E2D0E9467048F2D84600E94670420974B
:1009800049F00C0F1D1FC017D107B1F089910E94CB
:100990006704F9CFD0E0C0E0C017D10769F0339900
:1009A000FECF4298429842984298429889B1429A22
:1009B0000E9467042196F0CF61E080917B04DF9173
:1009C000CF911F910F91FF90EF90DF900C94B8039F
:1009D0001EBC0DB407FEFDCF8EB508950F931F9377
:1009E000CF93DF93182F062FCBE7D4E060E0888108
:1009F0000E94B80380E00E946704802F0E94670471
:100A0000812F0E9467040E94E804182F61E088810A
:100A10000E94B803812FDF91CF911F910F9108950C
:100A20000F931F93CF938C01BC0188E00E94EE04CA
:100A3000C82FB8016F5F7F4F88E00E94EE042C2F13
:100A400030E0322F2227820F932F911DCF911F91DB
:100A50000F910895482F61E070E088E00E946C04D7
:100A600061E070E088E00E94EE048111F9CF089502
:100A7000CF92DF92EF92FF920F931F93CF93DF936A
:100A8000EC018B0188E290E00E9410057C0160E09F
:100A900080917B040E94B8038F2D0E9467048E2DE5
:100AA0000E94670488E10E9467046E01C00ED11E97
:100AB000209759F58FEF8AB9D0E0C0E0C017D10771
:100AC00071F00E94E8043199FECF8BB98BB9409840
:100AD0004098409840984098409A2196EFCF1BB894
:100AE0001AB861E080917B040E94B803B8016E0DD2
:100AF0007F1D88E290E0DF91CF911F910F91FF90D1
:100B0000EF90DF90CF900C949004CC16DD0649F363
:100B10000E94E8048993F9CF2FEF2AB93199FECFCB
:100B20008BB98BB940984098409840984098409A2B
:100B30003199FECF9BB99BB9409840984098409816
:100B40004098409A1BB81AB808958EBD0DB407FEA0
:100B5000FDCF8EB508950F931F93CF930E945B0432
:100B60008C018FEF0E94A505C82F8F3F39F00E949E
:100B70005B04801B910B843F914098F381E0CF3F51
:100B800009F480E080934A0481E090E0CF3F11F0C7
:100B900090E080E0CF911F910F910895CF939C0139
:100BA0003E5FFC0140814EBD0DB407FEFDCFFC0150
:100BB00041814EBD0DB407FEFDCF0296821793070B
:100BC00081F78FEF0E94A5058FEF0E94A5058FEF9B
:100BD0000E94A505C82F8FEF0E94A50591E08F3FC9
:100BE00009F490E090934A04CF7181E090E0C53021
:100BF00011F090E080E0CF91089585B1876085B9CC
:100C00008FEF0C94A505CF93DF9385B190912704C6
:100C1000911111C09BEF892385B98FEF0E94A50523
:100C20000E94AB05EC01892B41F40E94FD05CE0129
:100C3000DF91CF9108959DEFEECFC1E0D0E0F7CFE7
:100C4000FF920F931F93CF93DF93C82FD42F152FAD
:100C5000062FF72E87FF09C040E050E0BA0187E376
:100C60000E942006823048F5CF77CC3061F58C2F7A
:100C700080640E94A5058F2D0E94A505802F0E94EB
:100C8000A505812F0E94A5058D2F0E94A50585E948
:100C9000CC2321F087E8C83009F081E00E94A50547
:100CA000CC3019F48FEF0E94A505CAE08FEF0E94A7
:100CB000A50587FF02C0C150C9F7DF91CF911F91F1
:100CC0000F91FF9008950E94FD050E940306892B55
:100CD00071F68FEFF2CF80914A04882331F00E94A1
:100CE0000306892B11F00C94FD0508950F931F93B3
:100CF000CF938C01E0912804F0912904309759F4A6
:100D000089E090E030E020E0F80131832083CF914A
:100D10001F910F9108958081882391F320912A04D7
:100D200030912B04858196812817390749F7C181B5
:100D300080912704C8130E946B06C0932704EC2FF0
:100D4000F0E0EF5DFE4F808180FDDACF2091280436
:100D50003091290490E080E0D7CFCF93DF93EC016E
:100D6000E881F981309779F0DF019D012F5F3F4FD6
:100D70008C918132E0F0D9018A33B9F7208180ED7E
:100D8000820F8A3018F08FEF9FEF0EC03296AE17A9
:100D9000BF07C9F7022E000C330BC901C097823080
:100DA00091058CF7B983A883DF91CF91089590E0E6
:100DB00080E0FACF0F931F93FC019A01AB01225000
:100DC00031094109510983899489A589B689029716
:100DD000A109B109281739074A075B0778F4A185EB
:100DE000B2850E94CB3207A110A521A532A5600FC4
:100DF000711F821F931F1F910F91089560E070E093
:100E0000CB01F9CFFC016281738190E080E0982FE3
:100E1000872F762F66272181622B982F872F762F99
:100E200066272081622B0895BF92CF92DF92EF92C6
:100E3000FF920F931F93CF93DF93C82FB62ED72F18
:100E400069017A01809127048C130E946B06C0937C
:100E500027040115110509F472C0EC2FF0E0EF5DD5
:100E6000FE4F808180FD6EC080E58CBDE09127043F
:100E7000F0E0EB5DFB4F808184FD07C089E0CC0C86
:100E8000DD1CEE1CFF1C8A95D1F7C1E10130110574
:100E900009F0C2E1B701A6018C2F0E942006811142
:100EA00019C0DD24DA940E945B047C018FEF0E945C
:100EB000A5058F3F01F50E945B048E199F09883CB0
:100EC0009105A4F3C23131F440E050E0BA018CE066
:100ED0000E9420060E94FD0581E090E0012B09F4AC
:100EE00080E0DF91CF911F910F91FF90EF90DF9005
:100EF000CF90BF9008958E3F29F7EB2DFD2F7F01F6
:100F00008EEFF81ADEBC0DB407FEFDCF8EB58083E0
:100F1000DEBC0DB407FEFDCF8EB581833296EE1692
:100F2000FF0681F78FEF0E94A5058FEF0E94A505B0
:100F3000BE2CDF2D0150110909F0B5CFC3CF84E0DD
:100F400090E0CFCF83E0FCCFFC0120812EBD9B0140
:100F50002150310941F051810DB407FEFDCF4EB54E
:100F60005EBD4193F5CF61507109860F971F0DB497
:100F700007FEFDCF2EB5FC01208308952F923F92EE
:100F80004F925F926F927F928F929F92AF92BF9299
:100F9000CF92DF92EF92FF920F931F93CF93DF9345
:100FA0006C01D42FF52E762E672E4801590110E0E2
:100FB000C0E08AE0282E312C412C512C6D2F7F2D42
:100FC000872D962DA50194010E94A332F601EC0F06
:100FD000F11D211133C0111106C031E083169104B7
:100FE000A104B10479F5CF5F205D2083D62FF72EC1
:100FF000782E692E11E0C501B401A20191010E9471
:10100000A33249015A0181149104A104B104B1F63B
:10101000C6018C0F911DDF91CF911F910F91FF9011
:10102000EF90DF90CF90BF90AF909F908F907F9088
:101030006F905F904F903F902F9008952A3098F2D4
:1010400029E0D1CFEE20B9F2CF5FE082D4CFDC012E
:101050002A2F281BFB0194919D936F5F7F4F911165
:10106000F7CF822F0895DC01FB012D91919122236E
:1010700021F02917D1F380E00895911102C081E099
:10108000089582E00895FC019485FB0184859813FE
:1010900003C081E0943008F080E00895CF93DF939F
:1010A0001F92CDB7DEB76983DC01ED91FC91028020
:1010B000F381E02D41E050E0BE016F5F7F4F099565
:1010C0000F90DF91CF91089590E080E00895CF9345
:1010D000DF931F92CDB7DEB76983DC01ED91FC9100
:1010E0000280F381E02D41E050E0BE016F5F7F4F51
:1010F00009950F90DF91CF910895E091A501F091AE
:10110000A60180819091A401892B80830895E091AC
:10111000A501F091A60190818091A4018095892379
:1011200080830895CF92DF92EF92FF920F931F93E7
:10113000CF93DF93CDB7DEB728970FB6F894DEBF15
:101140000FBECDBF8C017B016A010E9487080F3F53
:10115000110509F028F419820A8384E08B830CC0FE
:1011600017FD1AC019820A8333E0169507953A9540
:10117000E1F7007E0C600B8387010C0D1D1D86E0DE
:10118000C816D10490F5F701DE0114960E171F075B
:1011900099F081918D93FACFC80126E096958795B5
:1011A0002A95E1F7807E19830A830115104C10F40B
:1011B0008461D4CF8C61D2CFB6016D5F7F4FCE01F9
:1011C00001960E94A4070E947D08C60128960FB6CA
:1011D000F894DEBF0FBECDBFDF91CF911F910F916D
:1011E000FF90EF90DF90CF90089563E070E0CE0124
:1011F00001960E94A407F70181918EBD00000DB4F5
:1012000007FEFDCF8EB5E017F107B1F7DCCF90E018
:101210002091FC03233339F40C96982F990F990FE2
:10122000990F80E008954896F8CFDA01E091A70180
:10123000F0E0FE2FEE27E60FF71F90E0982F8827AB
:10124000A901BD018E0F9F1F0C949208CF93DF93CD
:101250001F92CDB7DEB7698341E050E0BE016F5FFA
:101260007F4F0E9492080F90DF91CF9108952091B7
:10127000A70130E0322F2227260F371F90E0982F4A
:101280008827642F820F931F0C9426090895FC0170
:10129000768765870895DC01ED91FC9102A0F3A1AA
:1012A000E02D099591E089270895862F089581E022
:1012B0008627089521E0FC018485843008F020E031
:1012C000822F089508952FEF2AB93199FECF1BB8C8
:1012D0001BB840984098409840984098409A019791
:1012E000A1F71BB81AB808958091A20190E0BC0143
:1012F000660F672F661F770B462F613069F42091C8
:10130000EB0320583091EA03321306C08FEF80932D
:10131000EE038093EF030895FB01E651FC4F20811B
:10132000322F331F3327331F36273093EE032F77A7
:101330002093EF0324E0959587952A95E1F7877030
:101340009091E903981739F32091EA039091EB0308
:1013500030E8390F2317D1F29095411101C0922F37
:101360009078892B4130C9F08093EF038091EF038F
:10137000281711F0381303C088788093EF03809109
:10138000EF03281719F2381709F2982F991F992798
:10139000991F9093EE038F70BCCF922F932797FDE8
:1013A000E3CF8860E1CF3399FECF429842984298CC
:1013B0004298429889B1429A0895CF930E94D309E6
:1013C0008093A2010E94D309C82F0E94D309982FAD
:1013D0008C2F9093A1018093A0010E94D309C82F64
:1013E0000E94D309982F8C2F9093F1038093F003E0
:1013F000CF9108953199FECF9FEF9AB98BB98BB9F0
:1014000040984098409840984098409A1BB81AB825
:101410000895089590E080E00895CF92DF92EF92D2
:10142000FF920F931F93CF93DF9300D000D0CDB7DF
:10143000DEB78C016B017A010E9487080F3F11050E
:1014400009F030F519820A831B8263E070E0CE0157
:1014500001960E94A407A70170E060E0C6010E9407
:10146000FB32E114F10421F0B701C6010E94A40788
:101470000E947D08C7010F900F900F900F90DF9191
:10148000CF911F910F91FF90EF90DF90CF90089533
:1014900017FD0BC019820A8333E0169507953A951C
:1014A000E1F7007E08600B83D0CFC80126E0969557
:1014B00087952A95E1F7807E19830A830115104CE0
:1014C00018F480618B83C1CF8861FCCFCF93DF9309
:1014D0001F92CDB7DEB72091A70130E0322F22272F
:1014E000260F371F90E0982F882741E050E0BE017B
:1014F0006F5F7F4F820F931F0E940D0A89810F90AB
:10150000DF91CF910895CF93C82F80E591E00E949D
:10151000B50363E070E08C2FCF910C94660ACF93F3
:10152000DF93EC018C858430D0F40E94830A8431EF
:1015300089F0882379F0883169F021E08C3159F401
:10154000E881F9810084F185E02DCE01099521E043
:10155000892B09F420E0822FDF91CF91089580E05C
:10156000FBCFEF92FF920F931F93CF937C0109E182
:1015700014E0C0E0F801219131918F01F7018481DD
:1015800095812817390729F0CF5FC43099F780E09B
:1015900006C08C2F0E94830A8431B1F781E0CF917D
:1015A0001F910F91FF90EF900895CF93C82F462F72
:1015B00061E070E00E94370961E070E08C2F0E94CA
:1015C000660A8111F9CFCF910895CF93C82F80E596
:1015D00091E00E94B50368E070E08C2FCF910C94ED
:1015E000D50ACF93C82F80E591E00E94B50360E152
:1015F00070E08C2FCF910C94D50ACF92DF92EF92AE
:10160000FF92CF93DF93EC018C85843068F40E94C5
:10161000E50A0E945B046B017C018C850E94830AB1
:10162000811109C084E08C87DF91CF91FF90EF900A
:10163000DF90CF90089561E070E080E090E00E943C
:1016400029040E945B04AB01BC014C195D096E09C1
:101650007F098D859E85B0E0A0E0481759076A078D
:101660007B07D8F28C850E94F10ADCCF0F931F9381
:10167000CF93DF931F92CDB7DEB7DC011C962C9180
:10168000243040F08FEF9FEF0F90DF91CF911F91AB
:101690000F9108958C01DC01ED91FC910084F1859E
:1016A000E02D0995892B71F3F801148580E591E00F
:1016B0000E94B503812F0E94070927E0129FF001C5
:1016C0001124E350FC4F22813381377041E050E018
:1016D000BE016F5F7F4F820F931F0E940D0A8981A9
:1016E00090E0D2CFDA01E091A701F0E0FE2FEE27E3
:1016F000E60FF71F90E0982F8827A901BD018E0FF4
:101700009F1F0C940D0AAF92BF92CF92DF92EF927F
:10171000FF921F93CF93DF9300D000D000D0CDB7BE
:10172000DEB77C0180E591E00E94B5039E012F5F4A
:101730003F4F6901590110E063E070E0812F0E9482
:10174000660AF50181935F01882339F11F5F143028
:1017500099F710E0F60181916F018D31C9F0883160
:10176000B9F08A518230A0F01F5F143099F7812FB1
:1017700026960FB6F894DEBF0FBECDBFDF91CF9196
:101780001F91FF90EF90DF90CF90BF90AF900895A2
:1017900060E170E0812F0E94D50AC12ED12CF601A4
:1017A000EE0FFF1FE75EFB4F1182108283EE93E086
:1017B0000197F1F741E270E060E0812F0E94370964
:1017C0004FEF62E070E0812F0E943709E114F104CD
:1017D000A1F1FD82EE8222E030E0AE014B5F5F4F6F
:1017E00064E070E0812F0E94150961E070E0812FB4
:1017F0000E94D50A27E02C9DC0012D9D900D11243B
:101800009C0123503C4F7901F9011182108222E0A2
:1018100030E0AE014B5F5F4F68E270E0812F0E94C5
:10182000720B8D819E81982789279827F7019383D2
:1018300082831682158214829ACF80911101909131
:10184000120101968115F0EC9F0758F09093120158
:101850008093110180911101909112019D838E83DB
:10186000BACF80E090ECF2CFBF92CF92DF92EF92AE
:10187000FF920F931F93CF93DF9300D0CDB7DEB7C6
:101880008C016B01E42EB52EFC018485843058F464
:101890000E94830A882321F0F80184850E94E50ACA
:1018A00084E0F8018487F60182819381A481B58167
:1018B0000097A105B10571F490E080E00F900F90C2
:1018C000DF91CF911F910F91FF90EF90DF90CF901C
:1018D000BF9008958F3F9F4FAF4FBF4F69F38091E7
:1018E000FC03811104C084E0F8018487E5CF90E017
:1018F00080E00E94830BF82EF8018487F3E0F8174C
:10190000D8F280E591E00E94B503A6014E5F5F4FDB
:1019100024E030E06CE070E08F2D0E941509B98260
:10192000EA8222E030E0AE014F5F5F4F60E170E09D
:101930008F2D0E94150964E070E08F2D0E94D50A5A
:101940000E945B046B017C01F80184850E94830A7C
:10195000873111F18C3101F1882309F4ADCF0E9458
:101960005B04AB01BC014C195D096E097F09F801EC
:1019700085859685B0E0A0E084179507A607B70790
:1019800038F061E070E080E090E00E942904DCCF54
:1019900084850E94F10AA7CF81E090E08FCF0F935A
:1019A0001F93CF932091FC03222351F18C01FC0162
:1019B000848195810E94830BC82F843008F580E5CF
:1019C00091E00E94B50363E070E08C2F0E94660AEC
:1019D000833131F08C2FCF911F910F910C94E50A38
:1019E00062E070E08C2F0E94D50AF8018481958115
:1019F000EC2FF0E0EE0FFF1FE75EFB4F918380833B
:101A0000CF911F910F910895BF92CF92DF92EF92E5
:101A1000FF920F931F93CF93DF93EC016B018091A3
:101A2000FC0381111FC01B821A8288EE93E0A0E0A4
:101A3000B0E08C839D83AE83BF8382E391E0998382
:101A4000888384E08C8788EE93E09E878D87CE0123
:101A5000DF91CF911F910F91FF90EF90DF90CF908A
:101A6000BF90089589E1E82E84E0F82EB12C04E0BF
:101A700010E0F701219131917F01F6018481958178
:101A80002817390771F4812F0E94830A043009F561
:101A9000873111F08C31E9F4F7013297118210820D
:101AA000012F1F5F143029F7B11003C0C6010E9437
:101AB000CF0C1B821A8288EE93E0A0E0B0E08C830A
:101AC0009D83AE83BF8382E391E0998388830C87F3
:101AD000BACF843139F08111E4CFF7013297118206
:101AE0001082DFCFBB24B394DCCFCF92DF92EF9292
:101AF000FF921F93CF93DF93CDB7DEB72F970FB62B
:101B0000F894DEBF0FBECDBF182F98EBC92E9BE017
:101B1000D92E882319F08AE0C82ED12CF12CE12C83
:101B200069E674E0CE0101960E94040D8B819C81D0
:101B300090934E0480934D048D819E81AF81B88532
:101B400080934F0490935004A0935104B093520497
:101B500089859A85AB85BC85809353049093540402
:101B6000A0935504B09356048D85809357048E85B9
:101B70009F8590935904809358048BE494E00E94CD
:101B80008F0A8823E9F0112399F08BE494E00E94F6
:101B9000FD0A812F2F960FB6F894DEBF0FBECDBF82
:101BA000DF91CF911F91FF90EF90DF90CF9008953C
:101BB00088E893E1909359048093580411E0E9CFA9
:101BC00061E070E080E090E00E9429048FEFE81A65
:101BD000F80ACE14DF0409F0A3CF10E0DACFEF92B9
:101BE000FF921F93CF93DF9300D0CDB7DEB7182FAE
:101BF00022E030E0AE014F5F5F4F60E270E00E9494
:101C0000720BE980FA80FE24EF24FE2422E030E00B
:101C1000AE014F5F5F4F60E270E0812F0E94720B58
:101C200089819A81982789279827E816F90689F4E7
:101C300087E0189FF0011124E350FC4FF582E48205
:101C4000C7010F900F90DF91CF911F91FF90EF9000
:101C500008957C01DBCF1F93CF93DF93182F80E58E
:101C600091E00E94B503812F0E94EF0DEC0163E02B
:101C700070E0812F0E94660A873121F08C3111F0CB
:101C8000D0E0C0E0CE01DF91CF911F910895CF93B6
:101C9000DF93EC018C85843060F40E94830A8731E5
:101CA00011F08C3131F48C850E942B0E81159840F7
:101CB00088F3DF91CF910895FC018485843010F47E
:101CC0000C942B0E90E080E008957F928F929F926B
:101CD000AF92BF92CF92DF92EF92FF920F931F933A
:101CE000CF93DF9300D0CDB7DEB7782E4B018A01BA
:101CF0004130584010F000E018E080E591E00E948B
:101D0000B503872D0E94EF0D7C0163E070E0872D05
:101D10000E94660A873119F08C3109F06CC0E01618
:101D2000F10658F380E591E00E94B50322E030E02F
:101D3000AE014F5F5F4F64E270E0872D0E94720B2F
:101D4000C980DA80DC24CD24DC24960137704091F0
:101D5000FC03E72CF12C433309F050C088E0E80E77
:101D6000F11CFE2CEE24FF0CFF0CFF0CC9018E0DA4
:101D70009F1D473309F446C0A801420F531F41304D
:101D8000584008F43FC060E078E05B01A21AB30A53
:101D9000A501B4010E949208A8014A195B09B40187
:101DA0006A0D7B1DC7010E949208C00ED11ED98208
:101DB000CA8222E030E0AE014F5F5F4F64E270E024
:101DC000872D0E94150960E270E0872D0E94D50AD8
:101DD00062E070E0872D0E94660A84FD16C063E011
:101DE00070E0872D0E94660A882331F180E591E03A
:101DF0000E94B503EDCF10E000E094CF60E1E60E65
:101E0000F11CAFCFA801B401CECF40E162E070E099
:101E1000872D0E943709C8010F900F90DF91CF9155
:101E20001F910F91FF90EF90DF90CF90BF90AF90F8
:101E30009F908F907F90089510E000E0ECCF0F937B
:101E40001F93CF93DF938C01EA01FC0184858430DA
:101E500048F40E94650E892B39F481E090E0F80186
:101E600093838283D0E0C0E0CE01DF91CF911F91B8
:101E70000F9108950C941F0FFC01E60FF71F2DE042
:101E800020832AE02183AB014E5F5F4FBC018AE5CE
:101E900094E00C943A0FCF92DF92EF920F931F933E
:101EA000CF93DF936C01EB01AB0170E060E080E366
:101EB000E82E04E610E020E030E0C6010E94BE07F4
:101EC00080E2F60183836CE775E0C33CF1E0DF0755
:101ED00019F180F46BE875E0CC3DD105E9F066E8D6
:101EE00075E0CD3DD105C1F0C73DD10531F567EBBA
:101EF00075E012C069E575E0C832E2E0DE0761F026
:101F00006CE475E0C932F2E0DF0731F0C63282E0FE
:101F1000D80799F468E675E0C60104960E94270880
:101F20008C5F682F70E0C601DF91CF911F910F91F8
:101F3000EF90DF90CF900C943C0F65E475E0C039D2
:101F4000D14050F762E475E0E7CFFF920F931F9303
:101F5000CF93DF9300D0CDB7DEB7F82E22E030E08C
:101F6000AE014F5F5F4F66E270E00E94720B098125
:101F70001A8110270127102722E030E0AE014F5FC1
:101F80005F4F66E270E08F2D0E94720B89819A810B
:101F90009827892798270817190749F4C8010F902F
:101FA0000F90DF91CF911F910F91FF9008958C01B9
:101FB000E3CF1F93CF93DF93182F87E0189FE001A3
:101FC0001124C350DC4F88819981009761F480E52A
:101FD00091E00E94B503812F0E94A50F2E81821BE4
:101FE000910999838883DF91CF911F910895FC0116
:101FF0008485843010F40C94D90F90E080E008952B
:102000007F928F929F92AF92BF92CF92DF92EF9288
:10201000FF920F931F93CF93DF938C015B017A01A3
:102020008091FC03882309F465C089E1C82E84E00F
:10203000D82E4601712CC0E0D4012D913D914D0167
:10204000F801848195812817390799F48C2F0E9413
:10205000830AD82F873119F08C3109F03FC08C2FBB
:102060000E94D90F892B29F4DC3119F48C2F0E949E
:10207000E50ACF5FC43001F7711008C0D801ED91B7
:10208000FC910084F185E02DC8010995C0E0F601BE
:10209000219131916F01D80114968D919C9128174F
:1020A000390751F48C2F0E94830A873129F4A70144
:1020B000B5018C2F0E94650ECF5FC43041F7C70178
:1020C000DF91CF911F910F91FF90EF90DF90CF9014
:1020D000BF90AF909F908F907F900895843139F09A
:1020E0008111C7CFF401329711821082C2CF7724B9
:1020F0007394BFCFF12CE12CE2CF4F925F927F928D
:102100008F929F92AF92BF92CF92DF92EF92FF9207
:102110000F931F93CF93DF9300D0CDB7DEB7782E08
:102120006B014A01A82EB12C27E0829FC001112427
:10213000FC01E350FC4F7F010081118180E591E0BB
:102140000E94B5030815190554F4872D0E94A50FA8
:10215000F70126818C01021B1109118300830115EF
:10216000110529F563E070E0872D0E94660A84312D
:1021700059F0882349F001E010E08C3111F410E0AF
:1021800000E0119501951109C8010F900F90DF91A2
:10219000CF911F910F91FF90EF90DF90CF90BF9064
:1021A000AF909F908F907F905F904F900895801692
:1021B00091060CF4840187E08A9DF0018B9DF00D5F
:1021C0001124E350FC4FE280F380C114D10451F19B
:1021D0002701F7E05F22872D0E940709840D951DD6
:1021E0002091FC03273309F453C09801240D351DB9
:1021F0002130384008F44CC020E038E04901841810
:102200009508A401B6010E940D0A2601480C591C2C
:102210006801C818D908872D0E940709A601B201D4
:102220000E940D0AE00EF11E87E08A9DF0018B9D51
:10223000F00D1124E350FC4FF382E28220813181C2
:10224000201B310B318320838681800F912F911DBC
:102250008A3F910510F4232BF1F487E08A9DF00169
:102260008B9DF00D1124E350FC4F1682F982EA8217
:1022700022E030E0AE014F5F5F4F68E270E0872DF3
:102280000E94150960E470E0872D0E94D50A7CCF7A
:10229000A801B601C5CF868377CFCF93DF931F9276
:1022A000CDB7DEB741E050E0BE016F5F7F4FFC016C
:1022B00084850E947D101816190634F4898190E0F7
:1022C0000F90DF91CF9108958FEF9FEFF9CFFC0131
:1022D0008485843010F40C947D1090E080E00895A3
:1022E0000F931F93CF93DF9300D0CDB7DEB7FC01E0
:1022F00024852430E0F48C0180E591E00E94B50350
:1023000022E030E0AE014F5F5F4F60E170E0F80126
:1023100084850E94720B89819A8198278927982742
:102320000F900F90DF91CF911F910F91089590E042
:1023300080E0F6CF0F931F93CF93DF9300D0CDB7FC
:10234000DEB7FC0124852430E0F48C0180E591E0C7
:102350000E94B50322E030E0AE014F5F5F4F64E0C2
:1023600070E0F80184850E94720B89819A81982718
:10237000892798270F900F90DF91CF911F910F9190
:10238000089590E080E0F6CFCF93DF931F92CDB712
:10239000DEB741E050E0BE016F5F7F4F90E080E02C
:1023A0000E940D0A89810F90DF91CF9108958F923D
:1023B0009F92AF92BF92EF92FF920F931F93CF9392
:1023C000C82F7B0149015A01809127048C130E9478
:1023D0006B06C09327040115110509F473C0EC2F97
:1023E000F0E0EF5DFE4F808180FD6FC0808182FD57
:1023F0006EC080E58CBDE0912704F0E0EB5DFB4F03
:10240000808184FD07C099E0880C991CAA1CBB1C24
:102410009A95D1F70130110561F5B501A40188E164
:102420000E942006882399F001E010E00E94FD053B
:1024300081E090E0012B09F480E0CF911F910F9192
:10244000FF90EF90BF90AF909F908F9008950E9463
:10245000AB05892B49F38EEF0E94A505C7010E94A9
:10246000CE0531E020E0892B09F030E0032F122F58
:10247000DDCF8C7031F0A80170E060E087E90E9448
:102480002006B501A40189E10E9420068111CECF6A
:102490000E94AB05892B69F08CEF0E94A505C7014E
:1024A0000E94CE05892B29F08EEFF81A01501109F0
:1024B00079F70E94AB05892B09F4B6CF8DEF0E9406
:1024C000A505B4CF84E090E0B8CF83E0FCCF82E0F4
:1024D000FACF8F929F92AF92BF92EF92FF920F939B
:1024E0001F93CF93DF93EC017C014FE2E40EF11CCC
:1024F0002BA53CA54DA55EA501E010E0B7018981A3
:102500000E94D711892B61F51B820BA51CA52DA557
:102510003EA58F89988DA98DBA8D8F8C98A0A9A082
:10252000BAA0B901A801481959096A097B094A01E9
:102530005B0188169906AA06BB0678F46A816230A8
:1025400061F4A9019801280F391F4A1F5B1F01E0A0
:1025500010E0B70189810E94D71190E080E002C0AD
:1025600081E090E0DF91CF911F910F91FF90EF906C
:10257000BF90AF909F908F900895FC01238121110F
:102580000C94691290E080E008958F929F92AF9230
:10259000BF92EF92FF920F931F93CF93DF93EC01C3
:1025A0004A015B018BA59CA5ADA5BEA5F12CE12C34
:1025B00088159905AA05BB05E9F0CE010E94BD1258
:1025C0007C01892BB9F401E010E0A5019401BE0162
:1025D000615D7F4F89810E941407892B39F0EE24B9
:1025E000E394F12C88248A94982C54018BA69CA601
:1025F000ADA6BEA6C701DF91CF911F910F91FF90AD
:10260000EF90BF90AF909F908F900895AF92BF9240
:10261000CF92DF92EF92FF920F931F93CF93DF93AE
:10262000423051056105710508F4A9C0FC01038918
:10263000148925893689401751076207730708F006
:102640009EC06A017B01EC018081823009F457C091
:10265000833009F471C0813009F091C08A01169568
:102660000795040F151FC801892F99278695478D57
:1026700050A161A172A1480F591F611D711DCF01A9
:102680000E94C512892B71F06FEF7FEFCB01DF91B4
:10269000CF911F910F91FF90EF90DF90CF90BF905F
:1026A000AF9008955801FFEFAF1ABF0A1170FE01F5
:1026B000E00FF11F17A5C501892F992786954F8D2A
:1026C00058A169A17AA1480F591F611D711DCE0142
:1026D0000E94C512892BC1F681E0B822CA0DDB1D0C
:1026E0006FA5762F612FC0FE08C0E4E07695679550
:1026F000EA95E1F790E080E0CACF7F70FBCF7727C3
:102700006F2D5E2D4D2D878D90A1A1A1B2A1480FF7
:10271000591F6A1F7B1FCF010E94C512892B09F028
:10272000B3CFCC0CDD1CE894C0F8E1E0DE22CC0D88
:10273000DD1D6FA578A9DECF878D90A1A1A1B2A1E3
:1027400037E076956795579547953A95D1F7480FB5
:10275000591F6A1F7B1FCF010E94C512892B09F0E8
:1027600093CFAF96C601880F991F880F991F8C7F52
:1027700091708C0F9D1F0E9402079F7088CF61E0AF
:1027800070E080E090E083CF8F929F92AF92BF92F3
:10279000CF92DF92EF92FF920F931F93CF93DF932D
:1027A0008C01FC01C081D18116861786108A118A9E
:1027B000C680D780E084F184C114D104E104F1041F
:1027C000D1F58881833040F08BA19CA1ADA1BEA141
:1027D0000097A105B10589F58F819885892B79F43A
:1027E00082E090E0DF91CF911F910F91FF90EF90E9
:1027F000DF90CF90BF90AF909F908F9008958BA166
:102800009CA1ADA1BEA1F801868B978BA08FB18F43
:10281000F801C28AD38AE48AF58A86899789A08DCD
:10282000B18D892B8A2B8B2BD9F2AF96D38FC28F88
:1028300090E080E0D7CFD701C60189849A84B12C7B
:10284000A12C29E0880C991CAA1CBB1C2A95D1F745
:102850006C017D01B701A60181149104A104B104AA
:1028600049F0CE010E94DA06F801668B778B808FE3
:10287000918FCECFF801808191810E9406136B0168
:102880007C01FFEFCF16DF06EF06FF0689F082E03E
:10289000C816D104E104F10408F4A2CF8B899C8905
:1028A000AD89BE89C816D906EA06FB0698F298CF0C
:1028B00081E090E097CF2F923F924F925F926F927C
:1028C0007F928F929F92AF92BF92CF92DF92EF92C0
:1028D000FF920F931F93CF93DF9300D000D000D0CF
:1028E000CDB7DEB79E838D836A017B012801390154
:1028F000DC018C91823009F497C0833009F4B6C0B2
:10290000813009F0F4C08A0116950795040F151F50
:10291000C801892F992786955F964D915D916D919C
:102920007C919297480F591F611D711DCD010E9426
:10293000C5125C01892B09F056C02D803E80BFE294
:102940002B0E311C4801EFEF8E1A9E0A1170F10117
:10295000E00FF11F842DA701960121703327442732
:10296000552729833A834B835C83C0FE07C080814F
:102970008F7040E1449E90011124822B808381E07E
:10298000AD81BE8113968C9313975F964D915D91A7
:102990006D917C919297C401892F99278695480F54
:1029A000591F611D711DCD010E94C5125C01892B4B
:1029B000D1F4B1E09B22F101E80DF91D29813A81A2
:1029C0004B815C81232B242B252B39F164E07694F9
:1029D0006794579447946A95D1F7408281E0AD811E
:1029E000BE8113968C93C50126960FB6F894DEBF70
:1029F0000FBECDBFDF91CF911F910F91FF90EF9050
:102A0000DF90CF90BF90AF909F908F907F906F900E
:102A10005F904F903F902F9008958081807F352D5B
:102A20003F70432E482AD9CF77276F2D5E2D4D2D2D
:102A3000ED81FE81878D90A1A1A1B2A1480F591F00
:102A40006A1F7B1FCF010E94C5125C01892B59F6BA
:102A5000ED81FE81BF96CC0CDD1CE894C0F821E02E
:102A6000D222EC0DFD1D00835182B8CFED81FE8195
:102A7000878D90A1A1A1B2A137E076956795579572
:102A800047953A95D1F7480F591F6A1F7B1FCF0111
:102A90000E94C5125C01892B09F0A5CFFFE07F22BF
:102AA0008D819E818F96CC0CDD1CCC0CDD1C2CEF17
:102AB000C22221E0D222C80ED91EC6010E940207FE
:102AC000662777278827907F462A572A682A792AF7
:102AD000D6014C9211965C92119712966C921297B5
:102AE00013967C9281E0ED81FE8183837CCF82E02E
:102AF000A82EB12C78CF4F925F926F927F928F92D7
:102B00009F92AF92BF92CF92DF92EF92FF920F937C
:102B10001F93CF93DF938C012A013B01FC01C081FD
:102B2000D181411451046104710409F58B849C84A2
:102B3000AD84BE8481149104A104B10409F44DC094
:102B40008B899C89AD89BE8988169906AA06BB0621
:102B500008F043C08F859889A989BA89892B8A2B67
:102B60008B2B09F03FC0C12CD12C760116C0CE01B1
:102B70000E9406136B017C01F2E0CF16D104E10440
:102B8000F10408F40CC12FEFC216D206E206F206D9
:102B9000B9F4CC24CA94DC2C7601C701B601DF91CC
:102BA000CF911F910F91FF90EF90DF90CF90BF904A
:102BB000AF909F908F907F906F905F904F9008950F
:102BC0008B899C89AD89BE8953014201C816D906FB
:102BD000EA06FB0608F0BECFE0CF812C912C540111
:102BE0008394B8CF84149504A604B70409F041C0B7
:102BF000750164018FEFC81AD80AE80AF80A8B89B0
:102C00009C89AD89BE89C816D906EA06FB0628F05C
:102C100022E0C22ED12CE12CF12CB701A601F80143
:102C2000808191810E9406136130710581059105B3
:102C300009F4B5C06F3FFFEF7F078F079F0709F4C7
:102C4000A8CF672B682B692B09F44DC08B859C8519
:102C5000AD85BE8582309105A105B10550F04B8947
:102C60005C896D897E8984179507A607B70708F4E4
:102C700078C0750164012FEFC21AD20AE20AF20A83
:102C80008B899C89AD89BE89C816D906EA06FB06E0
:102C900060F082E088169104A104B10408F463CFC7
:102CA00092E0C92ED12CE12CF12CB701A601F8013C
:102CB000808191810E94061361157105810591053E
:102CC000B9F0613071058105910509F468C06F3F65
:102CD0007F4F8F4F9F4F09F45CCFC814D904EA048B
:102CE000FB0449F640CFC114D104E104F10409F218
:102CF00022E0C216D104E104F10408F450C08B892B
:102D00009C89AD89BE89C816D906EA06FB0608F07B
:102D100046C00FEF1FEF9801B701A601CE010E9438
:102D20005B140097C9F54114510461047104E1F486
:102D3000CB86DC86ED86FE868F859889A989BA893F
:102D40004B895C896D897E894250510961097109FD
:102D5000481759076A077B0738F58C8181608C8397
:102D60001CCF4C015D0185CF82E0481651046104FF
:102D70007104A8F08B899C89AD89BE8948165906D3
:102D80006A067B0660F497018601B301A201CE01B9
:102D90000E945B14009761F2019709F4FACEC12CEE
:102DA000D12C7601C394F9CE0197A109B1098F877F
:102DB000988BA98BBA8BD1CF4F925F926F927F92F3
:102DC0008F929F92AF92BF92CF92DF92EF92FF923B
:102DD0000F931F93CF93DF9300D000D000D0CDB7D7
:102DE000DEB76B017C01CE0101960E9476068C0154
:102DF000892B09F0F4C00091370410E0011511058A
:102E000009F0EDC08091320490913304A091340414
:102E1000B09135048C159D05AE05BF0530F42091A9
:102E2000360421FD02C06C017D01409038045090B1
:102E3000390460903A0470903B0410923804109268
:102E4000390410923A0410923B04C114D104E104F5
:102E5000F10439F480E090E0DC01C12CD12C760142
:102E600080C0E981FA8181849284B12CA12C39E05F
:102E7000880C991CAA1CBB1C3A95D1F7411451042B
:102E80006104710409F48AC081E0481A510861089C
:102E90007108C701B6016150710981099109A50145
:102EA00094010E94A3322B833C834D835E83C30134
:102EB000B201A50194010E94A3328B819C81AD8156
:102EC000BE8182179307A407B50708F467C0882757
:102ED0009927DC0188199909AA09BB098421952140
:102EE000A621B7218093380490933904A0933A0423
:102EF000B0933B04C81AD90AEA0AFB0A40913C0481
:102F000050913D0460913E0470913F04411551057C
:102F10006105710509F0E4C0C12CD12C76018091C6
:102F2000380490913904A0913A04B0913B04409147
:102F30003204509133046091340470913504481781
:102F400059076A077B0768F480933204909333042F
:102F5000A0933404B0933504209136042064209368
:102F600036049170AA27BB27892B8A2B8B2BB9F1AA
:102F70008091400490914104A0914204B091430497
:102F80008C159D05AE05BF0551F1C0924004D0924D
:102F90004104E0924204F092430421C040912E0487
:102FA00050912F0460913004709131044115510506
:102FB0006105710509F03FC040E050E0BA0188E2C8
:102FC00094E00E947B15AB01BC01413051056105C5
:102FD0007105E9F482E08093370402E010E0C80153
:102FE00026960FB6F894DEBF0FBECDBFDF91CF910E
:102FF0001F910F91FF90EF90DF90CF90BF90AF9017
:103000009F908F907F906F905F904F9008954F3F6B
:103010009FEF59076907790731F481E080933704FE
:1030200001E010E0DCCF40932E0450932F04609316
:1030300030047093310440933C0450933D046093FA
:103040003E0470933F0462CFC818D908EA08FB0811
:10305000880D991DAA1DBB1D8093380490933904D7
:10306000A0933A04B0933B048091360481FF0FC0D3
:1030700088E294E00E947B15AB01BC01411551052B
:103080006105710561F4C12CD12C760137C08091A6
:103090002804909129040E940613AB01BC014F3F04
:1030A000AFEF5A076A077A0709F4B7CF42305105E4
:1030B0006105710508F48ECFE981FA8183899489CD
:1030C000A589B689481759076A077B0708F082CF98
:1030D00040933C0450933D0460933E0470933F043E
:1030E0008091380490913904A0913A04B0913B0446
:1030F0008C149D04AE04BF0408F4A6CF809138045C
:1031000090913904A0913A04B0913B048C0D9D1D1F
:10311000AE1DBF1D8093380490933904A0933A04E8
:10312000B0933B04D701C6019170AA27BB27892B16
:103130008A2B8B2B09F4F0CE89819A810E94DA06C2
:10314000611571058105910509F444CF29E0F694D4
:10315000E794D794C7942A95D1F7C60ED71EE81ED8
:10316000F91EDDCEEF92FF920F931F93CF93DF9363
:1031700000D0CDB7DEB7CE0101960E9476068C0155
:10318000892B09F0F5C08091360486FFE6C0409196
:10319000440450914504609146047091470489812C
:1031A0009A810E94C5128C01892B09F0E1C0E0913F
:1031B0004804F091490483858062838740912E04FE
:1031C00050912F04609130047091310420912804B3
:1031D00030912904428F538FD9012C91233029F447
:1031E000CB01AA27BB27848B958B30913204209189
:1031F00033049091340480913504348F258F968F59
:10320000878F168A178A81E2808F80E5818F128AE4
:10321000138AE980FA8081E0F7018383C7010E9465
:1032200069128C01892B09F090C0D7018C918330F1
:1032300009F06BC014968C911497813009F065C029
:1032400011968C91119720E032E0B701615D7F4FBC
:10325000FB01A901119241505040E1F795E5F701BA
:10326000E35DFD4F90839AEA3196908392E59F96B5
:103270009C939F97D0969C93D09791E6D1969C93E0
:10328000D19721E4D2962C93D29732E77B97308363
:10329000319630833196208331969083F7014785AC
:1032A000308921899289E95EFD4F408331963083D0
:1032B00031962083319690831B964C911B971C96D8
:1032C0003C911C971D962C911D971E969C911E97C4
:1032D00031964083319630833196208331969083A6
:1032E000F701238D348D458D568D2F5F3F4F4F4F06
:1032F0005F4F9B962D933D934D935C939E9701E07A
:1033000010E00E94D711F7011482D70111961C9189
:103310008091270418130E946B0610932704E12F55
:10332000F0E0EF5DFE4F808101E010E080FD0DC018
:1033300080E58CBD0E94030631E020E0892B09F076
:1033400030E0032F122F0E94FD05809136048F7B01
:10335000809336040115110559F4CE0101960E949F
:1033600076068C01892B21F41092290410922804EE
:10337000C8010F900F90DF91CF911F910F91FF9097
:10338000EF9008952F923F924F925F926F927F92AB
:103390008F929F92AF92BF92CF92DF92EF92FF9265
:1033A0000F931F93CF93DF9300D000D000D0CDB701
:1033B000DEB7FC01208131813E832D83C684D78412
:1033C000E088F18830E2C30ED11CE11CF11CC1146D
:1033D000D10480E2E806F10420F0168A178A108EE4
:1033E000118E86899789A08DB18D0097A105B105B1
:1033F000B1F13B011F01B701A60151706627772784
:10340000452B462B472B09F0E4C00196A11DB11DA9
:10341000868B978BA08FB18F428953896489758978
:10342000ED81FE814115510561057105D9F4878152
:103430009085B0E0A0E0B701A60135E076956795EC
:10344000579547953A95D1F7481759076A077B076B
:1034500008F4BFC0F101168A178A108E118E84E01D
:1034600090E024C0818592850197B0E0A0E04601FC
:10347000570129E0B694A794979487942A95D1F799
:1034800088219921AA21BB21892B8A2B8B2B09F01A
:10349000A0C0CF010E9406134B015C01F2E08F1621
:1034A0009104A104B104D8F482E090E026960FB60E
:1034B000F894DEBF0FBECDBFDF91CF911F910F916A
:1034C000FF90EF90DF90CF90BF90AF909F908F9044
:1034D0007F906F905F904F903F902F9008952FEFC7
:1034E00082169206A206B20619F481E090E0DECFC1
:1034F000ED81FE8183899489A589B689881699060C
:10350000AA06BB0608F455C0672809F4A3CFF10149
:103510004289538964897589C1010E947B154B01D9
:103520005C0187E090E081149104A104B10409F4E6
:10353000BDCFF1E08F169104A104B10409F4B4CF1A
:103540002FEF82169206A206B20679F28D819E8135
:103550000E94BD12892B49F6B501A4018D819E817F
:103560000E94DA062B013C01ED81FE8143A654A6A0
:1035700065A676A6BF96FC83EB8380E092E09C0173
:10358000119221503040E1F71A821982ED81FE81BB
:103590008185928529813A812817390758F1ED8173
:1035A000FE818185928529813A812817390709F0A2
:1035B0009CCFF101828A938AA48AB58AB501A401BD
:1035C0008D819E810E94DA06F101668B778B808F58
:1035D000918FF101C686D786E08AF18A8D819E811E
:1035E0008F9696013170280F391F338F228F90E00C
:1035F00080E05CCF01E010E0A301920189819A8113
:10360000280F391F411D511D6B817C81ED81FE8189
:1036100081810E94D711892B11F689819A810196A7
:103620009A838983B3CF8F929F92AF92BF92EF928A
:10363000FF920F931F93CF93DF93CDB7DEB7A19780
:103640000FB6F894DEBF0FBECDBF7C01FA01CB01EF
:1036500019A2223008F42AE08E010F5D1F4F822E3E
:10366000912CB12CA12CBF01A50194010E94A33281
:10367000F901CA016A3074F5605DD8016E938D015D
:10368000232B242B252B79F790E080E0109789F0ED
:10369000FD0101900020E9F73197AF014A1B5B0B58
:1036A000D701ED91FC910280F381E02DB801C701B3
:1036B0000995A1960FB6F894DEBF0FBECDBFDF917E
:1036C000CF911F910F91FF90EF90BF90AF909F907F
:1036D0008F900895695CD1CF8F929F92AF92BF92E5
:1036E000CF92DF92EF92FF920F931F93CF93DF93CE
:1036F0007C01EB016C0182E0C80ED11C4701E5E0C2
:103700008E0E911C10E000E0F60141916F0150E037
:1037100070E060E02AE0CE010E94131B5C01E881AA
:10372000F9810190F081E02D6EE2CE0109958A0DBC
:103730009B1D080F191FC814D90431F7F7014581E3
:1037400050E070E060E02AE0CE010E94131B800F81
:10375000911FDF91CF911F910F91FF90EF90DF901C
:10376000CF90BF90AF909F908F9008950F931F932D
:10377000CF93DF93EC01FC01E35DFD4F00811181EC
:103780009FA59B3E21F0985E923008F04DC0053514
:103790002AEA120761F448E050E066E771E0CE01E2
:1037A0008F579F4F0E94E532892B09F447C08AAD9D
:1037B0009BAD9C012150310928233923232BA1F5EE
:1037C0008115924089F58CAD882371F190E09C01C0
:1037D0002150310982239323892B31F58DAD9EAD84
:1037E000892B11F18FAD8150990B0297E8F4FE01FE
:1037F000E05CFF4F80819181892BB1F0329680810E
:1038000091818038910550F4CE01815B9F4F0E94D9
:103810000207611571058140910530F0CB5BDF4FE8
:1038200088819981892B51F405351A4A51F083E03A
:1038300090E0DF91CF911F910F91089590E080E08B
:10384000F8CF82E090E0F5CF2F923F924F925F92B7
:103850006F927F928F929F92AF92BF92CF92DF92A0
:10386000EF92FF920F931F93CF93DF93CDB7DEB705
:10387000A0970FB6F894DEBF0FBECDBF6B01742EBC
:10388000DB011D921C920E94AD067C013BE0232EC1
:10389000312C97FD2EC0FC01EE0FFF1FEF5DFB4F9B
:1038A000008111812CE0222E312C0115110509F126
:1038B000F60111830083E89470F8D8018C91882375
:1038C00091F11196DC9080912704D8120E946B062A
:1038D000D0922704ED2DF0E0EF5DFE4F808180FD5A
:1038E00022C0772009F44DC382FF4BC35AE0252E36
:1038F000312CC101A0960FB6F894DEBF0FBECDBF2C
:10390000DF91CF911F910F91FF90EF90DF90CF90BB
:10391000BF90AF909F908F907F906F905F904F90EF
:103920003F902F900895F8011082E1828091270442
:103930008E110E946B06E0922704F701FF27EF5DCE
:10394000FE4F808180FD29C1808193E0292E312C9A
:1039500080FDCFCF772011F082FDC8CFD80113961C
:103960001C928FEF9FEFDC01F80183A794A7A5A716
:10397000B6A740E050E0BA01C8010E94C5121C0180
:10398000892B09F0EAC1C8010E94B61B823091055B
:1039900009F0E7C16801FBE0CF1AFEEFDF0A9E01E4
:1039A0002F5F3F4F790148013BEC831A3DEF930AAB
:1039B0005701C6010E940207D5016D937D938D9337
:1039C0009D935D01B0E1CB0ED11CC814D90489F7D9
:1039D0006701E0E1CE0ED11C88248A94982C540112
:1039E000D7014D915D916D917D917D0183E090E0D6
:1039F000411551056105710509F4A9C1F80113824A
:103A000083A694A6A5A6B6A6C8010E94C512892BB6
:103A100009F09BC1C8010E94B61B8230910508F0D5
:103A200096C1F80182AD93AD8115924009F09FC116
:103A3000F801EB5BFF4F80809180B12CA12C8114A9
:103A4000910439F4C8018D5A9F4F0E9402074B011F
:103A50005C01D8019B962D913D914D915C919E9773
:103A60002D8B3E8B4F8B588FF801878A908EA18EBD
:103A7000B28E77AC72828FEF870D823008F077C1FB
:103A8000F4ADF98B8F2F90E01A969C938E93199733
:103A9000009709F46CC19C012150310982239323C2
:103AA000892B09F064C1F801E05CFF4F208131816E
:103AB0003C8B2B8B18963C932E931797C9018F70D4
:103AC0009927892B09F053C13296C080D180F12CFF
:103AD000E12CC114D10439F4C801815B9F4F0E94CD
:103AE00002076B017C01D801DD96ED91FC913097C6
:103AF00009F43DC1A72DB0E0A50194010E94CB328D
:103B00006D8F7E8F8F8F98A39F0150E040E0298FAB
:103B10003A8F4B8F5C8F8B899C89E4E096958795D3
:103B2000EA95E1F729013A01480E591E611C711C02
:103B30008D8D9E8DAF8DB8A1480E591E6A1E7B1EBD
:103B4000C414D504E604F70408F411C1C701B60192
:103B50006419750986099709A9892A2F30E050E070
:103B600040E00E94A332211531054105510509F4B9
:103B7000FEC0263FBFEF3B074B07BFE05B0708F0E7
:103B8000F6C0263F9FEF39074105510508F4FCC1F7
:103B9000A3E0B0E0BA8BA98BF2C0808181FDD4CEC6
:103BA000F89485B1876085B984B1876084B980E570
:103BB0008CBD81E08DBD84B18F6284B9249885B1BC
:103BC0008F6285B92C9A78948CB583608CBD4AE05D
:103BD000F42E8FEF0E94A505FA94F110FACF35E08C
:103BE000F32E40E050E0BA0180E00E942006C82E8B
:103BF000811105C0FA94F110F4CFD12C87C0F1E007
:103C00008F13FBCF0E945B047C014AEA51E060E025
:103C100070E088E00E942006813009F049C09E01D2
:103C20002F5F3F4F59014E0135E0830E911C650116
:103C30008FEF0E94A505D6018D936D01A815B905DA
:103C4000B9F78B818130C9F68C818A3AB1F60E942E
:103C50005B048E199F09883E93404CF440E050E08D
:103C600060E070E489EA0E9420068111F0CF0E9492
:103C70005B048E199F09883E93400CF0BECF40E054
:103C800050E0BA018AE30E9420068111B6CF8FEF7F
:103C90000E94A505D5018D935D01AC15BD05B9F751
:103CA000898128E1D22E86FD31C0B8E0DB2E2EC0FE
:103CB00040E050E0BA0189EA0E942006DD24D39456
:103CC000823020F484E0D82E99EAC92E0E945B0449
:103CD0008E199F09883E934044F440E050E0BA01B9
:103CE0008C2D0E9420068111F1CF0E945B048E1959
:103CF0009F09883E93400CF080CF40E052E060E0A6
:103D000070E080E10E942006811177CFE0912704C6
:103D1000EE2EF12CF701EB5DFB4FD0820E94FD05EA
:103D2000F701EF5DFE4F8081DD2061F08E7F8083A3
:103D30008CB58C7F8CBD2C98E0912704F0E0EF5D72
:103D4000FE4F02CE81608083F6CF84E090E0EC14D9
:103D5000FD0409F045CE049751F422242394312C1C
:103D6000C8CD84309105C9F3029708F45ACEFDE01E
:103D70002F2E312CBECDE1E0F0E0FA8BE98B69010A
:103D80007A01F2E0CF0ED11CE11CF11CD801539650
:103D9000CD92DD92ED92FC9256972D893E894F8906
:103DA000588D5B962D933D934D935C935E97898DD3
:103DB0009A8DAB8DBC8D820F931FA41FB51FF80188
:103DC000878F90A3A1A3B2A3420E531E641E751E3B
:103DD00047A250A661A672A629893A8923303105E7
:103DE00009F09FC0E75AFF4F80819181892B09F02C
:103DF000BECF4B895C89452B09F0B9CFC801855AE4
:103E00009F4F0E940207D80193966D937D938D93E7
:103E10009C93969772E0CC0CDD1CEE1CFF1C7A95EF
:103E2000D1F74FEFC40E41E0D41EE11CF11C49E074
:103E3000F694E794D794C7944A95D1F78C149D04CF
:103E4000AE04BF0408F493CF8FEF9FEFDC01F801BD
:103E50008787908BA18BB28B83879487A587B68742
:103E600080E8848329893A892330310509F048C0E4
:103E7000E15AFF4F80819181019709F041C04D893E
:103E80005E896F89788D4F5F5F4F6F4F7F4FC8019D
:103E90000E94C512892BA1F5D80114961C92F80135
:103EA000E35DFD4F8081918185359A4A49F5C801CE
:103EB0008F960E940207623572458146914401F552
:103EC000C8018D5E9D4F0E94020762377247814490
:103ED0009146B1F4C801895E9D4F0E940207D80146
:103EE0001F966D937D938D939C935297C801855E29
:103EF0009D4F0E940207F801638774878587968724
:103F0000E989D801EC938091E5039091E60301964D
:103F10009093E6038093E50316969C938E931597F2
:103F2000E8CCEB89FC89EF2B09F421CF2D8D3E8D58
:103F30004F8D58A1820F931FA41FB51FF80183A3B3
:103F400094A3A5A3B6A329893A892230310529F47F
:103F5000CC0CDD1CEE1CFF1C64CFA3E0B0E0A7017D
:103F600096010E94CB32969587957795679531E0BB
:103F7000C322DD24EE24FF24C60ED71EE81EF91E40
:103F800050CF312C212CB5CC263FFFE03F07410517
:103F9000510508F4F0CE82E090E09A8B898BEFCE49
:103FA0001F93CF93DF9300D000D000D0CDB7DEB702
:103FB0009E838D83162F83E191E09C838B839A836C
:103FC0008983CE0101960E94AD0697FD2BC0880F14
:103FD000991FFC01EF5DFB4F0190F081E02D3097C0
:103FE00009F01082ED81FE81309709F010828F5D1B
:103FF0009B4FDC01ED93FC9390E080E0112341F0B6
:1040000040E0BE016B5F7F4FCE0103960E94241CEF
:1040100026960FB6F894DEBF0FBECDBFDF91CF91CD
:104020001F9108958BE090E0F3CFCF93C091EE0302
:10403000C05D809113018C1303C081E0CF9108957E
:10404000883569F08091280490912904892B11F01A
:104050000E94B21860E090E080E00E94D01F8EEFD6
:1040600080930401C093130161E086EB91E00E940C
:10407000D01F892B11F388E58093130180E0DECFF8
:10408000EF92FF920F931F93CF93DF9300D000D056
:10409000CDB7DEB78C017B01FB0184858430A8F0AD
:1040A00084E691E0F8019183808312821382148266
:1040B0001582C8010F900F900F900F90DF91CF9154
:1040C0001F910F91FF90EF90089580E591E00E947D
:1040D000B50324E030E0AE014F5F5F4F6CE070E06D
:1040E000F70184850E94720B84E691E0F8019183C8
:1040F000808389819A81AB81BC8182839383A483ED
:10410000B583D7CF2F923F924F925F926F927F925B
:104110008F929F92AF92BF92CF92DF92EF92FF92D7
:104120000F931F93CF93DF93CDB7DEB7AE970FB644
:10413000F894DEBF0FBECDBFE091EE03E23010F089
:10414000512C08C0F0E0E451FC4F80818230E1F452
:1041500055245394852DAE960FB6F894DEBF0FBE4E
:10416000CDBFDF91CF911F910F91FF90EF90DF9026
:10417000CF90BF90AF909F908F907F906F905F9007
:104180004F903F902F9008951816D4F60E94152056
:10419000582E8823A9F21091EF038091040118177B
:1041A000B9F28091280490912904892B29F00E946A
:1041B000B2188EEF80930401812F90E064E0959512
:1041C00087956A95E1F78A3008F042C0805D60907B
:1041D0000301712CF301ED5EFE4F80831F701A30D6
:1041E000C8F5105D118383E191E09AA789A743E0A8
:1041F000BE01655D7F4FCE0189960E94241C892BEC
:1042000011F58BA49CA49A828982E9A5FAA58F0155
:1042100081918F32E1F38C35D1F31F821886198694
:104220001A86D8018C911401BFE22B0E311C80320A
:1042300008F05BC080E888A7CE0101960E94C413F5
:10424000892B09F4D3C0109229041092280478CF46
:10425000895CBDCF195CC6CF8EE2481609F42EC129
:10426000EA14FB0480F7642D70E08FE791E00E9470
:104270000233892B41F78FE9840D8A3110F490EED7
:10428000490EEDE1F0E0EC0FFD1FEE0DFF1D408249
:10429000D70111967D013AC084E068C044E0E42E65
:1042A000F12C88A5EF2879F682FDA0C08D8184FFCE
:1042B000CACFEF85F889F170E20DF31D428D538D61
:1042C00070E060E0D4018C91833059F48489958941
:1042D000B0E0A0E0DC0199278827482B592B6A2BF6
:1042E0007B2B4F83588769877A874BE050E060E2E9
:1042F00070E0CE014D960E94FB321EA70DA7F12C57
:10430000E12CD12CC12C58E0A52EB12CEFEFCE1A08
:10431000DE0AADA5BEA58D91BEA7ADA7482EB0E221
:10432000B81788F4EFE28E1719F0FCE58F1394CFDD
:10433000F801EC0DFD1D6F01C01AD10A91919F3259
:10434000D1F39C35C1F3EF2809F47DCF9D8D953EC7
:1043500011F4B5E0BD8F0C0D1D1D813208F49CCF0A
:10436000F801808181320CF497CF80E088A7A98082
:10437000BA80CE0101960E94C4137C01892B09F0FA
:1043800090CF4F89588D698D7A8DC5010E94C512D5
:104390007C01892B09F085CFCB8CDC8CD6018C91EC
:1043A000882309F47BCF1B968C91982F9F739D8354
:1043B00083FD15C0A301BE01635E7F4FC6010E944D
:1043C000E532892B61F443E050E0BE016B5D7F4F25
:1043D000C60108960E94E532892B09F462CF70E08D
:1043E00060E0CE0101960E94C219C7CF88A587FD63
:1043F0002ACF8D81817109F026CF0BA51CA5F8016C
:1044000083A594A5A5A5B6A58093440490934504DF
:10441000A0934604B0934704EB8DFC8DF0934904C0
:10442000E0934804428D538D70E060E0D8018C9198
:10443000833059F4C488D588F12CE12C7601DD2431
:10444000CC244C295D296E297F2940932E0450935A
:104450002F046093300470933104CF014C960E9476
:104460000207609332047093330480933404909372
:1044700035041093290400932804F801858196815E
:1044800090932B0480932A0483E080933604109247
:10449000370410924004109241041092420410928A
:1044A0004304109238041092390410923A04109286
:1044B0003B048091EF03809304014CCEBBE0AB162C
:1044C000B10409F4C0CE88E0E82EF12C9BE0A92EBF
:1044D000B12C1CCF2F923F924F925F926F927F929E
:1044E0008F929F92AF92BF92CF92DF92EF92FF9204
:1044F0000F931F93CF93DF9300D0CDB7DEB75C014E
:104500000E948220882309F419C28091EE03409111
:10451000F0035091F10370E060E0E82FF0E0E45127
:10452000FC4F2081223089F42091EF037A018B0126
:10453000022BA801970101E010E0B5010E94D711FC
:10454000892B09F485C187E284C1CB01BA01F9E066
:10455000660F771F881F991FFA95D1F76B017C01B1
:1045600002E0D00EE11CF11C0091320410913304E2
:1045700020913404309135040C151D052E053F059E
:1045800010F3009138041091390420913A043091CD
:104590003B04601771078207930719F5CE01019656
:1045A0000E947606892B79F6809137048111CBCF52
:1045B0008091360481FFC7CFC0903804D090390471
:1045C000E0903A04F0903B04C1141EEFD1061FEFB7
:1045D000E106F10608F4AEC1C094D094312C212C30
:1045E000E2C00E94DC16892BC9F2ADCF40913C0499
:1045F00050913D0460913E0470913F0415C16130BB
:1046000071058105910521F482E0809337049BCFE9
:104610006F3F3FEF73078307930711F481E0F5CFF6
:1046200060933C0470933D0480933E0490933F0458
:1046300040902E0450902F0460903004709031040C
:1046400045284628472841F460932E0470932F0490
:10465000809330049093310489819A81FC0143A4B2
:1046600054A465A476A44091400450914104609103
:10467000420470914304441655066606770621F4F9
:104680000E94BD12892B51F689809A8040913C048A
:1046900050913D0460913E0470913F04C4010E941A
:1046A000DA06611571058105910509F4ADCF2B017D
:1046B0003C01400E511E611C711C7601EF2CFF2441
:1046C000E694E114F10409F4D9C0F40181859285DE
:1046D00098012E0D3F1D8217930718F47C01E01AF4
:1046E000F10A8701A3019201B501F40181810E94C1
:1046F000D711892B09F092CF89819A81FC0143A5BA
:1047000054A565A576A5441955096609770930E0D1
:1047100020E0401751076207730788F4DC019F9679
:10472000FA01FE2FEE27FF0FEA0DFB1D20E032E01D
:1047300001900D9221503040D9F7FC011382FE2CDC
:10474000EE24FF0CCE18DF082E0C3F1CAE0CBF1C55
:104750008091380490913904A0913A04B0913B04BF
:104760008E0D9F1DA11DB11D8093380490933904B7
:10477000A0933A04B0933B04409132045091330427
:104780006091340470913504481759076A077B0714
:1047900010F4AC01BD014093320450933304609394
:1047A000340470933504C114D10409F447C08091D6
:1047B000380490913904A0913A04B0913B04AC01C3
:1047C000BD01517066277727452B462B472B09F0F3
:1047D0007EC0E981FA810185128501501109AC0181
:1047E000BD01E9E07695679557954795EA95D1F72C
:1047F000042315230115110509F02ECF892B8A2BCF
:104800008B2B09F0F3CE60912E0470912F048091D0
:10481000300490913104611571058105910509F00D
:10482000EECE40E050E0BA0188E294E00E947B15B1
:10483000611571058105910509F0E1CE809136047D
:10484000806480933604211422E0320609F07BCE86
:1048500080E00F900F90DF91CF911F910F91FF900B
:10486000EF90DF90CF90BF90AF909F908F907F9010
:104870006F905F904F903F902F9008954091380433
:104880005091390460913A0470913B048091320454
:1048900090913304A0913404B0913504481759071E
:1048A0006A077B0760F0C4010E94BD12892B09F0E2
:1048B000B5CEE981FA8143A654A665A676A64092B4
:1048C00040045092410460924204709243048091EB
:1048D0003804909139049170E12C22E0F22EE81A0C
:1048E000F90AC70176018C159D0508F47C014091F9
:1048F00040045091410460914204709143048981C5
:104900009A810E94C512892B09F088CE29813A81AB
:10491000215D3F4F80913804909139049170A70137
:10492000B501820F931F0E94F232E981FA8101E002
:10493000038308CFC12C82E0D82E50CE88E289CFE5
:104940000F931F93CF93DF93CDB7DEB7D2500FB63F
:10495000F894DEBF0FBECDBFFE013196CE018F5F52
:104960009D4F8F013399FECF4298429842984298CA
:10497000429829B12193429AE817F90799F70E94C2
:104980007409C8010E946A22DE5F0FB6F894DEBF88
:104990000FBECDBFDF91CF911F910F9108952F9240
:1049A0003F924F925F926F927F928F929F92AF92BF
:1049B000BF92CF92DF92EF92FF920F931F93CF930C
:1049C000DF9300D0CDB7DEB75C010E948220882340
:1049D00009F493C18091EE034091F0035091F103EB
:1049E00070E060E0E82FF0E0E451FC4F20812230DD
:1049F00029F52091EF037A018B01022BA801970181
:104A000001E010E0B5010E941407892B09F436C1BA
:104A100087E20F900F90DF91CF911F910F91FF9040
:104A2000EF90DF90CF90BF90AF909F908F907F904E
:104A30006F905F904F903F902F900895CB01BA01F7
:104A4000F9E0660F771F881F991FFA95D1F700913B
:104A500038041091390420913A0430913B046017D6
:104A600071078207930761F5CE0101960E947606D1
:104A7000892B71F6809137048111CACF8091360459
:104A800080FFC6CFC0903204D0903304E09034044D
:104A9000F09035048091380490913904A0913A0443
:104AA000B0913B04C81AD90AEA0AFB0AC11402E011
:104AB000D006E104F10408F01AC1912C812CD5C074
:104AC0000E94DC16892B81F2A3CF8091380490914B
:104AD0003904A0913A04B0913B04AC01BD0151707E
:104AE00066277727452B462B472B09F0D1C0E98154
:104AF000FA810185128501501109AC01BD01E9E07F
:104B00007695679557954795EA95D1F70423152330
:104B100001151105A1F5892B8A2B8B2B89F4609146
:104B20002E0470912F0480913004909131046230F2
:104B300071058105910598F482E08093370468CF70
:104B400040913C0450913D0460913E0470913F04BB
:104B500080912804909129040E940613E8CF6F3FAA
:104B60002FEF72078207920711F481E0E6CF60937E
:104B70003C0470933D0480933E0490933F0429804D
:104B80003A8040913C0450913D0460913E04709104
:104B90003F04C1010E94DA06611571058105910586
:104BA00059F22B013C01400E511E611C711C760113
:104BB000EF2CFF24E694E114F10409F461C0F10143
:104BC0008185928598012E0D3F1D8217930718F459
:104BD0007C01E01AF10A8701A3019201B501F101FC
:104BE00081810E941407892B09F0BFCFE981FA81E6
:104BF00083818823E9F083A594A5A5A5B6A584198A
:104C00009509A609B709A70170E060E08417950728
:104C1000A607B70768F4DC01BA2FAA27BB0FAA0DB5
:104C2000BB1DBF9680E092E001900D920197E1F7E5
:104C3000FE2CEE24FF0CCE18DF088E0C9F1CAE0C51
:104C4000BF1C8091380490913904A0913A04B0912E
:104C50003B048E0D9F1DA11DB11D809338049093C0
:104C60003904A0933A04B0933B04C114D10409F071
:104C70002CCF811402E0900609F0CACE80E0C9CEA4
:104C80004092400450924104609242047092430466
:104C900080913804909139049170E12C22E0F22E39
:104CA000E81AF90AC70176018C159D0508F47C0104
:104CB000409140045091410460914204709143043A
:104CC00089819A810E94C512892B09F04ECF698192
:104CD0007A81615D7F4F80913804909139049170A1
:104CE000680F791FA701C5010E94F232A4CFC12C21
:104CF00082E0D82EE12CF12CE0CE88E28ACE0F9310
:104D00001F93CF93DF93CDB7DEB7D2500FB6F89491
:104D1000DEBF0FBECDBF082F0E94DD090230C0F0FC
:104D20009091EC03913009F046C081E0913009F494
:104D300080E08093EE0383EA033009F08FEF8093E5
:104D4000EF03CE0101960E94CF24811139C00BC020
:104D50000E947409CE0101960E94CF24182F0130C1
:104D600019F48111DDCF10E0812F0E94FA09111191
:104D700017C08FEF8AB9FE0131969E012F5F3D4F1C
:104D80003199FECF81918BB98BB94098409840986A
:104D900040984098409AE217F30791F71BB81AB869
:104DA000DE5F0FB6F894DEBF0FBECDBFDF91CF91AF
:104DB0001F910F9108958091ED03813009F4B5CFD3
:104DC000033011F418E2D0CF8091A20190E024E0EA
:104DD000959587952A95E1F787708093E90320914F
:104DE000F00380E0922F990FB0E0A0E09E012F5FCA
:104DF0003F4FAE014F5F5D4F6FEF8A3D74E0970705
:104E0000A105B10578F4FC01E859FF4F7491F9014F
:104E100070830196A11DB11D2F5F3F4F24173507E9
:104E200061F7A1CFF9016083F4CFFF920F931F9335
:104E3000CF93DF93F090EE03CF2DD0E0C451DC4F41
:104E40008881811130C00E941520882391F181E072
:104E50008883909103019B3031F598E09093030192
:104E60008093EF030E94822081111DC086E59FE49C
:104E7000ACE4B8E58093150190931601A093170157
:104E8000B093180188E59EE2A0E5BFE48093190184
:104E900090931A01A0931B01B0931C0110921D0165
:104EA00085E080930301DF91CF911F910F91FF90D7
:104EB00008958FEF88838FEF9FEFDC018093E101EE
:104EC0009093E201A093E301B093E40101E010E0CC
:104ED00022E030E040E050E065EE71E08F2D0E946E
:104EE0001407892B01F78091E901813F38F4809103
:104EF00008029091090287329D40A9F682E08883DA
:104F0000D2CF0F931F93CF93C091AC01C23029F43D
:104F100080E0CF911F910F9108958B01C093EE0314
:104F20008093EF030E948220882391F3EC2FF0E01E
:104F3000E451FC4F90819230A9F04091320450919D
:104F40003304609134047091350499E07695679547
:104F5000579547959A95D1F74130510591E06907EA
:104F6000710520F040E050E061E070E0F80140831E
:104F7000518362837383CDCF2F923F924F925F9282
:104F80006F927F928F929F92AF92BF92CF92DF9259
:104F9000EF92FF920F931F93CF93DF93CDB7DEB7BE
:104FA00065970FB6F894DEBF0FBECDBF6C01F62E2D
:104FB0008A012BE0261798F0E62F660FFF0BED51C4
:104FC000F84D0C94C532B42AEF27B12AF627AE2A41
:104FD000AB2A24287028042870287028942A06EF09
:104FE00011E0B801C6010E944B0F5EC0BA018EE805
:104FF00091E00E943308813039F0B80181E991E0F5
:105000000E943308813011F482E01BC0D8018C91DA
:105010008F3211F40F5F1F4FB80183E991E00E94B6
:105020003308813029F41092AC010AEF10E0D9CF97
:10503000B80187E991E00E94330806E212E081306E
:1050400081F68093AC01F1CF81E00E94750D811152
:10505000FBCF68E376E0C6010E9427088C0D9D2DEA
:10506000911D3BE0A32E31E0B32EF12C4CE2942EA7
:10507000F50141915F0150E070E060E0E12C04E651
:1050800010E020E030E00E94BE07FC01F394BC0178
:105090006F5F7F4F26E0F21220C089E280836C1997
:1050A0007D09C6010E943C0F65960FB6F894DEBFDD
:1050B0000FBECDBFDF91CF911F910F91FF90EF9069
:1050C000DF90CF90BF90AF909F908F907F906F9028
:1050D0005F904F903F902F900895CB019082C8CF62
:1050E00066E970E00E944B0F80E00E94750D8823F6
:1050F00009F43DC287E0F812EAC08091AC01823029
:1051000009F03FC062E076E0C6010E94270862E035
:1051100076E0C6018A960E9427088091EC0340E061
:1051200018161CF4823001F14AE28091ED03181642
:1051300094F4823049F482E5F601E40FF11D838B8B
:1051400081E4848B87E5858B465DF601E40FF11DD4
:10515000339782E3808350E0B6018BE494E00E94B1
:105160003A0F02EE10E030C182E5D60153968C93DF
:10517000539781E454968C93549787E555968C9376
:10518000D3CFF12C5E01B1E1AB0EB11C4601E5E1DC
:105190008E0E911C3601F5E26F0E711CB5018F2D3C
:1051A0000E948127882309F480C08E010F5F1F4F62
:1051B000F801E02E1D8B20E22193AE16BF06D9F731
:1051C00029883A884B885C8882E090E09093F103CC
:1051D0008093F003C6010E94CF2481116DC0D601D7
:1051E00093962D913C9127323D4019F5F60124818B
:1051F000F0EF2F272031E8F4F601359691918217D0
:1052000008F058C030EE390F3B3508F053C0D801D4
:105210009D938D018F5F8F3089F7F60181A592A54F
:10522000B0E0A0E082159305A405B50510F41C01BB
:105230002D01298A3A8A4B8A5C8A89818823A9F1BF
:105240006DEB75E0C6010E942708E0E3D601DD960C
:10525000EC93F9E080E3FF1508F487E38F0DD601A6
:10526000DE968C938FE0EE2DFD89D40101900D9296
:105270008A95E1F749895A896B897C8999E0440FBD
:10528000551F661F771F9A95D1F720E2E22E00E89E
:1052900016E928E930E0C3010E94BE0744E450E06B
:1052A000B6018BE494E00E943A0FF394B0E1FB1254
:1052B00075CF57CF90E2ABCFE091EE03F0E0E45131
:1052C000FC4F8081813009F0B4CF1982B2CFB80190
:1052D0008BE991E00E943308823009F022C1F80185
:1052E000938180ED890F8A3038F08FEB890F8630FB
:1052F00008F017C189EC890FD80114962C9182957A
:10530000807F90ED920F9A3038F09FEB920F96309D
:1053100008F007C199EC920F892B803108F001C188
:10532000BE016F5F7F4F0E94812706E212E0882353
:1053300009F448C0B9E0FB1264C089809A80AB8050
:10534000BC8082E090E09093F1038093F003C6016B
:105350000E94CF2481111AC0F60183A194A1873243
:105360009D40A1F4D60114968C91149790EF892753
:10537000803160F499968D919C91B0E0A0E0881501
:105380009905AA05BB0510F44C015D0189829A823A
:10539000AB82BC82812C912C540189819A81AB8192
:1053A000BC8188169906AA06BB0608F076C09092C2
:1053B000F1038092F003C6010E94CF24882379F084
:1053C00003EC11E00E946B066AE070E080E090E080
:1053D0000E9429048BE494E00E94FD0A02CEBFEFF4
:1053E0008B1A9B0AAB0ABB0A40E052E0B6018BE481
:1053F00094E00E943A0F8115924079F20AEA11E096
:10540000E1CF10E000E0412C512C3201812C912C95
:105410005401212C82E0382E0E946B068BE494E02C
:105420000E94F70F7C01892B09F04DC08BE494E0BA
:105430000E948F0A8823E1F081149104A104B10431
:1054400079F40E945B044B015C01A8E88A0EA3E199
:105450009A1EA11CB11C81149104A104B104E1F2B3
:105460000E945B04681979098A099B0997FDD4CFCA
:10547000012B99F089819A81AB81BC81481659062C
:105480006A067B0608F046C05092F1034092F00392
:10549000C6010E946A22811193CF02EE10E092CFE2
:1054A0005092F1034092F003C6010E946A228111DA
:1054B00087CF8FEF481A580A680A780A10E000E090
:1054C000E114F10451F10E946B06C8018E0D9F1D7D
:1054D000A101401B510B8130924008F4A701B60195
:1054E000600F711F8BE494E00E9467111816190673
:1054F00054F7080F191FE81AF90A011522E01207DC
:10550000F8F289819A81AB81BC81481659066A06F6
:105510007B0630F208E212E055CF812C912C540129
:105520008BCF09E212E050CF6DE276E00E942708AF
:105530008091AC01823031F482E2F601868367E02B
:1055400070E0AFCD813021F482E3D60118968C93C0
:105550006AE070E0A6CD0DED10E043CD08EC10E060
:1055600040CD07ED10E03DCD06EE10E03ACD09EA62
:1055700011E037CD4F925F926F927F928F929F9200
:10558000AF92BF92FF920F931F93CF93DF93CDB74C
:10559000DEB7C651D2400FB6F894DEBF0FBECDBF06
:1055A0000E946B068091B501811107C080910B01AB
:1055B000811181C08FEF8093B501FF24F39402E045
:1055C0008091B501813009F04FC16FE674E0CE01E2
:1055D0008F5F9D4F0E94040DCD5FDD4F88819981C3
:1055E000C350D24090935D0480935C04CB5FDD4F49
:1055F00088819981AA81BB81C550D24080935E0485
:1056000090935F04A0936004B0936104C75FDD4F83
:1056100088819981AA81BB81C950D240809362045C
:1056200090936304A0936404B0936504C35FDD4F5B
:105630008881CD50D24080936604C25FDD4F88815F
:105640009981CE50D24090936804809367048AE594
:1056500094E00E948F0A882361F00093B5016CEDFD
:1056600070E0CE0101960E944B0F1092A9010093A9
:10567000AC018091B501823009F4A2CF0E945B0495
:105680006C597F4F7093020160930101CA5EDD4F38
:105690000FB6F894DEBF0FBECDBFDF91CF911F9143
:1056A0000F91FF90BF90AF909F908F907F906F90E1
:1056B0005F904F90089598E09093000160910E01E3
:1056C00040910D0150910C0124E631E0C05FDD4FA7
:1056D00039832883C051D2409FEFCE5EDD4F98833F
:1056E000C251D240CD5EDD4F9883C351D240CC5ED3
:1056F000DD4F9883C451D240CB5EDD4F1882C55137
:10570000D240CF5FDD4F39832883C150D240CD5F77
:10571000DD4F8883C350D240CC5FDD4F5883C450E7
:10572000D240CB5FDD4F4883C550D24091E0CA5F85
:10573000DD4F9883C650D2403A8329838B835C83A4
:105740004D836E838091A80181116FC11FB7F894BA
:105750008091A301811124C0E7EBF6E08491EBEC8A
:10576000F6E09491E82FF0E0EE0FFF1FED55F94FB2
:10577000A591B491EC91E92321F461E08AE00E94C3
:10578000B8038AE00E9496038CB580618CBD8CB50D
:1057900080648CBD8DE00E9496038BE00E9496038E
:1057A0008091A3018F5F8093A3011FBF80910001AF
:1057B000282F30E0F901E355F94FE491F0E0EE0FC6
:1057C000FF1FE756F94F459154915093A60140931E
:1057D000A501F901EF53F94FE491E093A4010E9470
:1057E00096030E947D0880E591E00E94B50387E35F
:1057F0008093FC0360E890E080E00E94260904E1C9
:1058000010E041E050E0BE016A5E7D4F90E080E034
:105810000E940D0ACA5EDD4F8881C651D24088239E
:1058200009F4BFC061E070E080E090E00E942904CC
:105830000150110931F71092FC03E091FC03E3538E
:10584000E53008F0B7CEF0E0E75DFE4F80818823B9
:1058500009F4B0CE8FE694E00E94CF0C89E694E084
:105860000E94CF0C81E0A7CE823009F007CF8AE5F5
:1058700094E00E948F0A81110DC06AE070E080E020
:1058800090E00E9429048AE594E00E94FD0AF092CB
:10589000B501EFCE8AE594E00E94F70F892B09F459
:1058A000E8CE8AE594E00E944D119FE9980F10EE32
:1058B000180F9A3120F0182F8D3009F4DACEE091CC
:1058C000A901E43008F051C0912F1A3009F490E09A
:1058D00081E08E0F8093A901F0E0E755FE4F94839D
:1058E000E82FF0E0E755FE4F14821A3011F08430B3
:1058F000A9F58090AD019090AE01A090AF01B0905D
:10590000B00164E576E0CE0101960E94270880E0B0
:10591000682F082E000C770BE1E0F0E0EC0FFD1F84
:10592000E60FF71F90819923F1F04080518062804B
:10593000738084149504A604B70499F4759567954B
:10594000759567956093AB011A3041F44EE751E0CD
:10595000CE0101960E94BC271092A9011092AA01C3
:1059600088CE8C5FD5CF6FEFEDCF103209F481CEAA
:10597000E091AA011A3049F4F0E0E755FE4F148295
:105980004DEA51E06091AB01E3CFE73008F071CE12
:1059900081E08E0F8093AA01F0E0E755FE4F14835B
:1059A00068CE68E090E080E00E9426090E94C41161
:1059B000883009F040CF60E190E080E00E94260945
:1059C0000E94C411182F803109F035CF60E090E0BB
:1059D00080E00E9426090E94C41181112CCF41E071
:1059E00050E0BE016A5E7D4F89E390E00E940D0A9F
:1059F000CA5EDD4F8881C651D240843009F01BCF8A
:105A000068E38EE290E00E94260961E070E080E0A9
:105A100090E00E94290468EB8EE290E00E94260943
:105A20001093A70181E08093A80180E591E00E9496
:105A3000B50346E050E065E071E089E090E00E9447
:105A4000920844E050E0BE016D5F7F4F8FE090E030
:105A50000E94920861E072E06C0F7D1F6E5F7F4FC5
:105A600044E050E081E090E00E94920860E172E042
:105A70006C0F7D1F6E5F7F4F44E050E085E090E04B
:105A80000E949208DACECF93DF938091B50187FD13
:105A900010C0C0910101D0910201209721F4DF9143
:105AA000CF910C94BA2A0E945B046C1B7D0B77FF8C
:105AB000F6CFDF91CF910895CF930E94DD090E9428
:105AC00074090E948220C7E28111C0E08C2F0E94DD
:105AD000FA098C2FCF9108950C9495320C948D3245
