:020000040000FA
:100000000C946A030C9492030C9492030C94920344
:100010000C9492030C9492030C9492030C9492030C
:100020000C9492030C9492030C9492030C949203FC
:100030000C9492030C9492030C9492030C949203EC
:100040000C9474370C9492030C9492030C949203C6
:100050000C9492030C9492030C9492030C949203CC
:100060000C9492030C949203EAA92085F0A9608570
:10007000F3A5434A4A4A4A290709C085F2A00084E9
:10008000F188B1F185F1A90285F9E646E645E64534
:1000900020F000900620E2FB4CBAFAC6F9D0EB2023
:1000A00093FE2089FE20A50920AF08205F0B20C405
:1000B00008205E0820A60820460B20750B20EE08BD
:1000C00020420B4C6B0CA90085FBA904852520223E
:1000D000FCA5FB85F5098085F620460BA90020E4E8
:1000E00009A9FF8532A54309808543A5FB098085C1
:1000F000FBA91420E409A9FF85324A25438543E67C
:1001000025E6FBA5FB297F85FBC91090C160A5F7FB
:1001100085F5A5F885F660A0008424A00384252039
:1001200022FC201E0BA01484244C190BA91520FDC1
:100130000A20270BA914852420220BA90185FA2067
:10014000B709C6FA10F960205B0C20A60820C40885
:100150006868184C6B0CA90085FAA940203E0A205B
:10016000B709200CFD48A901203E0A68A6FAB4F59B
:10017000C98DD00EA900203E0AA5FA490185FAD002
:10018000D960C99BF0C1C9A1D005A9FF85F560C997
:10019000ACF004C98BD013980A0838E902291E284C
:1001A0006AA898298F95F54CF208C9A0F004C98A6D
:1001B000D003C8D0EDC988F004C995D0079849800C
:1001C00095F51031C9E1900338E920C9C19009C9FA
:1001D000C7B00538E907D008C9B09015C9BAB01141
:1001E000290F85F998298005F995F520B7094C0C58
:1001F00009C9C9F0034CF20820A50920750B4CA7CA
:100200000BC9FFF0034CE3FDA9A14CEDFD2058FC08
:10021000A93F20060BA91720FD0AA9234C060BA213
:100220000BA5FAF002A21F8624A01584252022FC2B
:10023000A4FAB9F50048A0010A9001C898209909CC
:10024000A424C8842468209909C624608524A5FBB9
:1002500048297F20E3FDA9BA20EDFDE62468C5F713
:10026000F004C5F8D004A93F853220350BB032AD7B
:100270000510302DAD0410AA29F0C9F0D0238A2929
:100280000FF01E85F9A200BD0510098020EDFDE8E4
:10029000E4F9D0F3E00FD00160A9A020EDFDE8D093
:1002A000F3A2004C290BA6FAC901D00AA980A4F533
:1002B000C4F6D002A90085F9B5F53004A003D00238
:1002C000A0178424290F18690485252022FCA42462
:1002D000A20EB128293F05F99128C8CA10F460ADD3
:1002E000ADADA0A0A0A0A0A0A0A0A0A0A0A000C470
:1002F000D2C9D6C5A0B1BAA0D3C4BFAF00D3C4B1D0
:10030000BA0020200110100C0520090920060F1248
:100310000516051221202016332E312E310004013E
:100320000E20090920160F0C150D052013050C05CC
:1003300003140F1200A0CFCBA100C5D2D2CFD2A1FF
:1003400087878700C6D4D0AFC9D0BAA000CEC5D7A2
:10035000A0C9D0BAA0A0A0A0AEA0A0A0AEA0A0A00E
:10036000AEA0A0A0008525A90085244C22FC48A2AF
:1003700026A92020EDFDCA10F868AAA9088524D076
:1003800010A9B28D970AA21ED007A9B28D8D0AA21C
:1003900010BD770AF00620EDFDE8D0F560A00084DE
:1003A00047C88442C884464C540BA907D002A9060A
:1003B0008542A5F58546A5F649808547A90085446F
:1003C000A91085454CF000A905854220540BAD00CD
:1003D0001085F7AD0110498085F84CA608A92120A9
:1003E000480BB0B8AD1010F0B3A90120FD0AA20966
:1003F0008624A26520290BAD0610204F0CAD0710F6
:10040000204F0CAD0810204F0CAD09104CA80CA5C6
:100410004348A90A20FD0AA26E20290BA9088524B9
:1004200020EF0BB0ED8544E62420EF0BB0E48545CA
:10043000E62420EF0BB0DB8546E62420EF0BB0D29C
:1004400085478543A920854220F00018AA68854386
:10045000CAF001384C790CA90085F9A2038A48201A
:100460002E0CB017C9FFF017A8201F0CB00D98650F
:10047000F985F9B00668AACAD0E34868A5F96068AA
:10048000186524852490F5A20AA9001865F9B0051D
:10049000CAD0F985F960200CFDC9A0D004A9FF18C5
:1004A00060C98DF0F8C9AEF0F4C9B030E9C9BAB08E
:1004B000E520EDFD290F6020A80CA9AE4CEDFDA9AB
:1004C00000F002A98048A20086FA203E0A68E6FAF7
:1004D0004C3E0A0820570CA91620FD0AA9118524B4
:1004E00028A2569002A25B20290BA206A9FF20A8F1
:1004F000FCCAD0F82058FCA908488545A9004885C1
:100500004485468547A2018144A90A85426CF100D1
:10051000C90A901EA26486F920CD0CE000F00648BE
:100520008A20E3FD68A20A86F920CD0C488A20E3E0
:10053000FD684CE3FDA200C5F99006E838E5F9B086
:10054000F6604F6B004661696C656400426164202F
:1005500066696C656E616D650046696C6520746FD7
:100560006F206C61726765004E6F20737563682041
:1005700066696C652F666F6C64657200492F4F2049
:100580006572726F72004279652E0057656C636FF9
:100590006D6520746F2044414E5D5B2C2076332EB8
:1005A000312E312E204170706C65205D5B20466FCE
:1005B0007265766572210044414E5D5B002D727755
:1005C0002D2D2D2D2D2D2D203120766F6C756D65E7
:1005D0003A202D2D2D2020202020202020202020DA
:1005E00020203132333435363738204A756E203189
:1005F00030203139373720564F4C30312E504F0D87
:100600000A00647277782D2D2D2D2D2D2031204458
:10061000414E5D5B204641542031204A756E2031A9
:10062000302031393737205344310D0A0032353705
:1006300020222F534431220032323720456E746518
:1006400072696E672050617373697665204D6F64BF
:10065000652028005553455253595354435744205D
:100660005459504551554954504153564C4953548F
:10067000434455505245545253544F5250574400DE
:100680000000000008000201000003040700000051
:10069000000000000000000000250028002B0000E2
:1006A000000000240027002A0004040404040404B9
:1006B0000402020202020203030303030301020411
:1006C00008102040800102040810200102040810D4
:1006D0002000BE3711241FBECFEFD8E0DEBFCDBF54
:1006E00011E0A0E0B1E0E0EDF5E702C005900D9269
:1006F000A03DB107D9F724E0A0EDB1E001C01D9203
:10070000AE3EB207E1F713E0CAE6D3E004C021979A
:10071000FE010E94B83AC936D107C9F70E9457387E
:100720000C94E63A0C9400008CBD9DBD089590E0B9
:10073000FC01E354F94F24918755994FFC018491B2
:10074000882399F090E0880F991FFC01E156F94F3A
:10075000A591B491FC01EB56F94F859194918FB717
:10076000F894EC91E22BEC938FBF0895FC01818DFE
:10077000928D0895089590E0FC01EF57F94F249170
:10078000FC01E354F94F3491FC01E755F94FE49132
:10079000EE23C9F0222339F0233001F1A8F42130EF
:1007A00019F1223029F1F0E0EE0FFF1FEB56F94F5F
:1007B000A591B4918FB7F894EC91611126C0309552
:1007C0003E233C938FBF08952730A9F02830C9F00D
:1007D000243049F7809180008F7D03C08091800094
:1007E0008F7780938000DFCF84B58F7784BDDBCF98
:1007F00084B58F7DFBCF8091B0008F778093B00060
:10080000D2CF8091B0008F7DF9CF3E2BDACF3FB7AA
:10081000F8948091240490912504A0912604B0912D
:10082000270426B5A89B05C02F3F19F00196A11DEE
:10083000B11D3FBFBA2FA92F982F8827BC01CD012A
:10084000620F711D811D911D42E0660F771F881F89
:10085000991F4A95D1F708958F929F92AF92BF92B8
:10086000CF92DF92EF92FF924B015C010E9407044E
:100870006B017C010E9407046C197D098E099F0998
:10088000683E734081059105A8F321E0821A910822
:10089000A108B10888EEC80E83E0D81EE11CF11C47
:1008A00081149104A104B10429F7FF90EF90DF9027
:1008B000CF90BF90AF909F908F9008952FB7F894EE
:1008C000609120047091210480912204909123046E
:1008D0002FBF0895FC0120812EBD9B0121503109BD
:1008E00041F051810DB407FEFDCF4EB55EBD419381
:1008F000F5CF61507109860F971F0DB407FEFDCF2C
:100900002EB5FC0120830895E0917704F0917804DE
:10091000808190917604892B80830895E0917704FB
:10092000F09178049081809176048095892380836A
:1009300008958EBD00000DB407FEFDCF8EB508955D
:10094000AF92BF92CF92DF92EF92FF920F931F93DD
:10095000CF93DF93CDB7DEB728970FB6F894DEBFFD
:100960000FBECDBF8C017B016A0180917A04833375
:10097000E1F45801A40EB51EA016B10609F46FC02B
:100980000E948E0480EF0E949904812F0E94990496
:10099000802F0E9499040F5F1F4FF70181917F0103
:1009A0000E9499040E948404E7CF5B01A40EB51E47
:1009B0008433C1F40E948E0419830A838D2D8068CC
:1009C0008B83CC8264E070E0CE0101960E946A04C1
:1009D000AE14BF0409F441C0F70181917F010E9468
:1009E0009904F6CF0E948E040F3F110509F028F4F8
:1009F00019820A8384E08B830CC017FD17C019820B
:100A00000A8333E0169507953A95E1F7007E0C606E
:100A10000B8386E0C816D104A0F5F701DE01149619
:100A2000EA15FB0599F081918D93FACFC80126E074
:100A3000969587952A95E1F7807E19830A8301159B
:100A4000104C10F48461D7CF8C61D5CFB6016D5FA7
:100A50007F4FCE0101960E946A040E948404C60161
:100A600028960FB6F894DEBF0FBECDBFDF91CF91B1
:100A70001F910F91FF90EF90DF90CF90BF90AF90BC
:100A8000089563E070E0CE0101960E946A04F701C8
:100A900081917F010E949904AE14BF04C1F7DDCF9C
:100AA000CF93DF931F92CDB7DEB7898341E050E04B
:100AB000BE016F5F7F4F90E080E00E94A0040F9026
:100AC000DF91CF91089590E020917A04233339F497
:100AD0000C96982F990F990F990F80E008954896DA
:100AE000F8CFDA01E0917B04F0E0FE2FEE27E60F6D
:100AF000F71F90E0982F8827A901BD018E0F9F1F37
:100B00000C94A004CF93DF9300D0CDB7DEB77983E8
:100B10006A8322E030E0AE014F5F5F4F60E170E03A
:100B20000E9471050F900F90DF91CF910895CF93A0
:100B3000DF9300D0CDB7DEB779836A8322E030E05F
:100B4000AE014F5F5F4F64E070E00E9471050F904F
:100B50000F90DF91CF910895CF93DF931F92CDB780
:100B6000DEB720917B0430E0322F2227260F371F7B
:100B700090E0982F8827498341E050E0BE016F5FE5
:100B80007F4F820F931F0E94A0040F90DF91CF919F
:100B90000895CF93DF931F92CDB7DEB76983DC0151
:100BA000ED91FC910280F381E02D41E050E0BE0127
:100BB0006F5F7F4F09950F90DF91CF910895CF938D
:100BC000DF931F92CDB7DEB76983DC01ED91FC9115
:100BD0000280F381E02D41E050E0BE016F5F7F4F66
:100BE00009950F90DF91CF910895FC019485FB0149
:100BF0008485981303C081E0943008F080E0089564
:100C0000CF93DF931F92CDB7DEB76983DC01ED91FF
:100C1000FC910280F381E02D41E050E0BE016F5F66
:100C20007F4F09950F90DF91CF9108950895FF921E
:100C30000F931F93CF93DF93EB01FC01178A168A62
:100C40002A81211109C02B81211106C02C8121117B
:100C500003C02D81222301F141155105E9F08A01DC
:100C6000FC01F08C80E591E00E949403AE014E5FA0
:100C70005F4F24E030E06CE070E08F2D0E94710542
:100C8000B8018F2D0E94820581E090E0DF91CF9125
:100C90001F910F91FF90089580E0F7CFFC018485AC
:100CA00095850895FC0184899589089524E931E0AA
:100CB000FC0131832083FB0140895189628973895A
:100CC000FC0142835383648375830895DC01ED91B5
:100CD000FC91048CF58DE02D09948EBD0DB407FEBA
:100CE000FDCF0895FF920F931F93CF93DF93082FAB
:100CF000F62E142FC3EED4E060E088810E94BB037F
:100D000080E00E946D068F2D0E946D06802F84600A
:100D10000E946D06812F0E946D0661E08881DF913F
:100D2000CF911F910F91FF900C94BB031F93CF9312
:100D3000DF93EC01162F472FBC0188E00E9472065A
:100D4000BE016F5F7F4F412F88E0DF91CF911F91F0
:100D50000C947206DF92EF92FF920F931F93CF9342
:100D6000DF93F82EE62ED72EEA01890160E080910C
:100D7000E3040E94BB038D2D0E946D068E2D0E9400
:100D80006D068F2D84600E946D06209749F00C0F30
:100D90001D1FC017D107B1F089910E946D06F9CFD0
:100DA000D0E0C0E0C017D10769F03399FECF429878
:100DB000429842984298429889B1429A0E946D06A0
:100DC0002196F0CF61E08091E304DF91CF911F91F4
:100DD0000F91FF90EF90DF900C94BB031EBC0DB4FD
:100DE00007FEFDCF8EB508950F931F93CF93DF932A
:100DF000182F062FC3EED4E060E088810E94BB0369
:100E000080E00E946D06802F0E946D06812F0E9457
:100E10006D060E94EE06182F61E088810E94BB03D8
:100E2000812FDF91CF911F910F9108950F931F9301
:100E3000CF938C01BC0188E00E94F406C82FB80152
:100E40006F5F7F4F88E00E94F4062C2F30E0322F36
:100E50002227820F932F911DCF911F910F910895FB
:100E6000482F61E070E088E00E94720661E070E067
:100E700088E00E94F4068111F9CF0895CF92DF92A5
:100E8000EF92FF920F931F93CF93DF93EC018B01AF
:100E900088E290E00E9416077C0160E08091E30404
:100EA0000E94BB038F2D0E946D068E2D0E946D0641
:100EB00088E10E946D066E01C00ED11E209759F583
:100EC0008FEF8AB9D0E0C0E0C017D10771F00E945F
:100ED000EE063199FECF8BB98BB940984098409877
:100EE00040984098409A2196EFCF1BB81AB861E01D
:100EF0008091E3040E94BB03B8016E0D7F1D88E260
:100F000090E0DF91CF911F910F91FF90EF90DF90D4
:100F1000CF900C949606CC16DD0649F30E94EE069F
:100F20008993F9CF2FEF2AB93199FECF8BB98BB9BD
:100F300040984098409840984098409A3199FECF08
:100F40009BB99BB940984098409840984098409AE7
:100F50001BB81AB808958EBD0DB407FEFDCF8EB52F
:100F600008950F931F93CF930E945E048B018FEF20
:100F70000E94AB07C82F8F3F39F00E945E04601BB0
:100F8000710B643F714098F381E0CF3F09F480E03A
:100F90008093750481E090E0CF3F11F090E080E015
:100FA000CF911F910F910895CF939C013E5FFC015B
:100FB00040814EBD0DB407FEFDCFFC0141814EBD09
:100FC0000DB407FEFDCF02968217930781F78FEFCE
:100FD0000E94AB078FEF0E94AB078FEF0E94AB0719
:100FE000C82F8FEF0E94AB0791E08F3F09F490E08C
:100FF00090937504CF7181E090E0C53011F090E0DE
:1010000080E0CF91089585B1876085B98FEF0C940A
:10101000AB07CF93DF9385B190915204911111C02A
:101020009BEF892385B98FEF0E94AB070E94B10720
:10103000EC01892B41F40E940308CE01DF91CF918E
:1010400008959DEFEECFC1E0D0E0F7CFFF920F9370
:101050001F93CF93DF93C82FD42F152F062FF72E72
:1010600087FF09C040E050E0BA0187E30E942608EC
:10107000823048F5CF77CC3061F58C2F80640E94A8
:10108000AB078F2D0E94AB07802F0E94AB07812FEB
:101090000E94AB078D2F0E94AB0785E9CC2321F07E
:1010A00087E8C83009F081E00E94AB07CC3019F422
:1010B0008FEF0E94AB07CAE08FEF0E94AB0787FF5C
:1010C00002C0C150C9F7DF91CF911F910F91FF90DE
:1010D00008950E9403080E940908892B71F68FEF7A
:1010E000F2CF80917504882331F00E940908892B82
:1010F00011F00C94030808950F931F93CF938C0164
:10110000E0915304F0915404309759F489E090E051
:1011100030E020E0F80131832083CF911F910F91BF
:1011200008958081882391F32091550430915604CD
:10113000858196812817390749F7C181809152042A
:10114000C8130E947108C0935204EC2FF0E0EC5ECB
:10115000FE4F808180FDDACF2091530430915404FA
:1011600090E080E0D7CFCF93DF93EC01E881F98165
:10117000309779F0DF019D012F5F3F4F8C918132D5
:10118000E0F0D9018A33B9F7208180ED820F8A30EF
:1011900018F08FEF9FEF0EC03296AE17BF07C9F75A
:1011A000022E000C330BC901C097823091058CF7D9
:1011B000B983A883DF91CF91089590E080E0FACFC2
:1011C0000F931F93FC019A01AB0122503109410991
:1011D000510983899489A589B6890297A109B10922
:1011E000281739074A075B0778F4A185B2850E9462
:1011F0007C3A07A110A521A532A5600F711F821F9F
:10120000931F1F910F91089560E070E0CB01F9CF1B
:10121000FC016281738190E080E0982F872F762F08
:1012200066272181622B982F872F762F66272081B2
:10123000622B0895BF92CF92DF92EF92FF920F93AD
:101240001F93CF93DF93C82FB62ED72F69017A0152
:10125000809152048C130E947108C09352040115AE
:10126000110509F472C0EC2FF0E0EC5EFE4F8081B6
:1012700080FD6EC080E58CBDE0915204F0E0E05B43
:10128000FB4F808184FD07C089E0CC0CDD1CEE1C87
:10129000FF1C8A95D1F7C1E10130110509F0C2E1C7
:1012A000B701A6018C2F0E942608811119C0DD24E8
:1012B000DA940E945E047B018FEF0E94AB078F3FA0
:1012C00001F50E945E046E197F09683C7105A4F364
:1012D000C23131F440E050E0BA018CE00E942608AF
:1012E0000E94030881E090E0012B09F480E0DF9187
:1012F000CF911F910F91FF90EF90DF90CF90BF9013
:1013000008958E3F29F7EB2DFD2F7F018EEFF81A00
:10131000DEBC0DB407FEFDCF8EB58083DEBC0DB400
:1013200007FEFDCF8EB581833296EE16FF0681F75C
:101330008FEF0E94AB078FEF0E94AB07BE2CDF2D13
:101340000150110909F0B5CFC3CF84E090E0CFCFB1
:1013500083E0FCCF2F923F924F925F926F927F92E9
:101360008F929F92AF92BF92CF92DF92EF92FF92B5
:101370000F931F93CF93DF936C01D42FF52E762E0E
:10138000672E4801590110E0C0E08AE0282E312C78
:10139000412C512C6D2F7F2D872D962DA501940169
:1013A0000E94873AF601EC0FF11D211133C0111193
:1013B00006C031E083169104A104B10479F5CF5F32
:1013C000205D2083D62FF72E782E692E11E0C501DF
:1013D000B401A20191010E94873A49015A01811486
:1013E0009104A104B104B1F6C6018C0F911DDF91E7
:1013F000CF911F910F91FF90EF90DF90CF90BF9012
:10140000AF909F908F907F906F905F904F903F90A4
:101410002F9008952A3098F229E0D1CFEE20B9F22A
:10142000CF5FE082D4CFDC012A2F281BFB019491EF
:101430009D936F5F7F4F9111F7CF822F0895DC014D
:10144000FB019D918191981304C09111FACF81E025
:10145000089580E00895FC01768765870895DC0192
:10146000ED91FC9102A0F3A1E02D099591E089276F
:101470000895862F089581E08627089521E0FC01D4
:101480008485843008F020E0822F089508952FEF9E
:101490002AB93199FECF1BB81BB8409840984098A4
:1014A00040984098409A0197A1F71BB81AB8089540
:1014B0008091D20190E0BC01660F672F661F770B09
:1014C000462F613069F4209117042058309116049A
:1014D000321306C08FEF80931A0480931B04089583
:1014E000FB01EA5EFB4F2081322F331F3327331F6E
:1014F000362730931A042F7720931B0424E0959508
:1015000087952A95E1F7877090911504981739F31C
:10151000209116049091170430E8390F2317D1F267
:101520009095411101C0922F9078892B4130C9F0DC
:1015300080931B0480911B04281711F0381303C0FB
:10154000887880931B0480911B04281719F23817A0
:1015500009F2982F991F9927991F90931A048F7059
:10156000BCCF922F932797FDE3CF8860E1CF3399CB
:10157000FECF4298429842984298429889B1429A46
:101580000895CF930E94B70A8093D2010E94B70AB0
:10159000C82F0E94B70A982F8C2F9093D101809367
:1015A000D0010E94B70AC82F0E94B70A982F8C2F2B
:1015B00090931D0480931C04CF9108953199FECF20
:1015C0009FEF9AB98BB98BB9409840984098409852
:1015D0004098409A1BB81AB80895089590E080E0AA
:1015E0000895AF92BF92CF92DF92EF92FF920F9346
:1015F0001F93CF93DF9300D000D0CDB7DEB78C011F
:101600006B017A0180917A048333E9F45B0168010C
:10161000C40ED51EC016D106A9F10E948E048FE01B
:101620000E949904812F0E949904802F0E9499049E
:101630000F5F1F4F80E00E949904F50181935F01C5
:101640000E948404E7CF843369F50E948E041983D5
:101650000A838F2D8F778B83EC8264E070E0CE015C
:1016600001960E946A04A70170E060E0C6010E9432
:10167000D43AE114F10421F0B701C6010E946A04D2
:101680000E948404C7010F900F900F900F90DF917C
:10169000CF911F910F91FF90EF90DF90CF90BF906F
:1016A000AF9008950E948E040F3F110509F030F4A9
:1016B00019820A831B8263E070E0D1CF17FD0BC053
:1016C00019820A8333E0169507953A95E1F7007E73
:1016D00008600B83F0CFC80126E0969587952A9580
:1016E000E1F7807E19830A830115104C18F480619C
:1016F0008B83E1CF8861FCCFCF93DF931F92CDB76F
:10170000DEB720917B0430E0322F2227260F371FCF
:1017100090E0982F882741E050E0BE016F5F7F4F37
:10172000820F931F0E94F10A89810F90DF91CF9160
:101730000895CF93C82F462F61E070E00E94AC055A
:1017400061E070E08C2F0E947C0B8111F9CFCF916A
:101750000895CF93C82F80E591E00E94940368E03C
:1017600070E08C2FCF910C94990BCF93C82F80E50C
:1017700091E00E94940360E170E08C2FCF910C9473
:10178000990BCF93DF93EC01888D843020F40E9475
:10179000B50B84E0888FDF91CF91089563E070E00E
:1017A0000C947C0BCF93C82F80E591E00E949403AA
:1017B0008C2FCF910C94CE0BEF92FF920F931F932F
:1017C000CF937C0104E414E0C0E0F8012191319151
:1017D0008F01F701848195812817390729F0CF5FA0
:1017E000C43099F780E006C08C2F0E94D20B843160
:1017F000B1F781E0CF911F910F91FF90EF90089585
:10180000CF93DF93EC018C858430D0F40E94D20B0F
:10181000843189F0882379F0883169F021E08C31B6
:1018200059F4E881F9810084F185E02DCE01099514
:1018300021E0892B09F420E0822FDF91CF910895D8
:1018400080E0FBCFCF92DF92EF92FF92CF93DF93B6
:10185000EC018C85843068F40E94A90B0E945E0420
:101860006B017C018C850E94D20B811109C084E040
:101870008C87DF91CF91FF90EF90DF90CF9008950C
:1018800061E070E080E090E00E942C040E945E0421
:10189000AB01BC014C195D096E097F098D859E85E0
:1018A000B0E0A0E0481759076A077B07D8F28C859B
:1018B0000E94B50BDCCFCF93FC01C08D80E591E099
:1018C0000E94940360E270E08C2F0E94990B62E00A
:1018D00070E08C2F0E947C0B84FD16C062E070E0EB
:1018E0008C2F0E947C0B83FF0AC048E162E070E00D
:1018F0008C2F0E94AC0580E090E0CF91089580E5A8
:1019000091E00E949403E3CF40E162E070E08C2F0D
:101910000E94AC0581E0F0CFCF93DF931F92CDB74B
:10192000DEB741E050E0BE016F5F7F4F90E080E0A6
:101930000E94F10A89810F90DF91CF910895CF9392
:10194000DF93C4E1D0E00E948C0C882361F061E059
:1019500070E080E090E00E942C042197A1F780E0E5
:10196000DF91CF91089581E0FBCFCF92DF92EF928C
:10197000FF920F931F93CF93DF93CDB7DEB7C4547D
:10198000D1090FB6F894DEBF0FBECDBFFC01828136
:101990009381A481B58123968CAF9DAFAEAFBFAFCD
:1019A000239721E023962FAF239723964CAD5DAD6F
:1019B0006EAD7FAD23974BAB5CAB6DAB7EAB89AFB0
:1019C0009AAFABAFBCAF8DA79EA7AFA7B8AB28AB04
:1019D0004DA55EA56FA578A94FA358A769A77AA7BB
:1019E0002EAB4BA95CA96DA97EA949A35AA36BA3F1
:1019F0007CA38B8F9C8FAD8FBE8F44E951E05C8BB5
:101A00004B8B3FEF3D8B3E8B3F8B188E5E874D8718
:101A10002AA7CFA0D8A4E9A4FAA4CF86D88AE98AB5
:101A2000FA8A2CA309A11AA12BA13CA109871A8724
:101A30002B873C875A8349838B839C83AD83BE83EA
:101A400080917C048111ADC060E372E080E090E0A1
:101A50000E942C041FB7F89480917904811124C04E
:101A6000E3EBF6E08491E7ECF6E09491E82FF0E008
:101A7000EE0FFF1FE156F94FA591B491EC91E923C8
:101A800021F461E08AE00E94BB038AE00E94970390
:101A90008CB580618CBD8CB580648CBD8DE00E945E
:101AA00097038BE00E949703809179048F5F809366
:101AB00079041FBF80911601282F30E0F901E75506
:101AC000F94FE491F0E0EE0FFF1FEB56F94F45910F
:101AD00054915093780440937704F901E354F94FFB
:101AE000E491E09376040E9497030E94840480E5C9
:101AF00091E00E94940384E380937A0480E80E943A
:101B000050050E949F0C882309F481C088E00E9440
:101B100050050E948C0C883009F079C080E10E9449
:101B200050050E948C0C803109F071C080E00E9449
:101B300050050E948C0C182F811169C041E050E0C3
:101B4000BE016D5B7F4F8FE190E00E94F10A249609
:101B50008FAD2497833009F05AC080E480937B04D2
:101B600042E06EE170E0812F0E94AC0542E06FE13F
:101B700070E0812F0E94AC051F5F143089F740E0B0
:101B80006EE170E0812F0E94AC0540E06FE170E0F3
:101B9000812F0E94AC051F5F183089F781E0809388
:101BA0007C0480E591E00E94940346E050E067E108
:101BB00071E089E090E00E94A00444E050E0BE01A2
:101BC0006D5F7F4F8FE090E00E94A00444E050E002
:101BD000BE01615F7F4F81E090E00E94A00444E07D
:101BE00050E0BE016B5E7F4F85E090E00E94A00454
:101BF00081E08C8789859A85AB85BC8580939D041F
:101C000090939E04A0939F04B093A0046FC087E3B9
:101C100080937A0480E80E9450050E949F0C8823DC
:101C200039F188E00E9450050E948C0C883001F543
:101C300080E10E9450050E948C0C182F8031C1F465
:101C400080E00E9450050E948C0C811111C041E07F
:101C500050E0BE016D5B7F4F89E390E00E94F10A86
:101C600024968FAD2497843019F410937B0496CF7B
:101C700083E380937A0480E80E9450050E949F0CC1
:101C8000882391F180E10E9450050E948C0C8031E4
:101C900059F582E10E9450050E948C0C823121F599
:101CA00080E00E9450050E948C0C81111DC084E0D0
:101CB00080937B0415E525961FAF259741E050E002
:101CC000BE016C5B7F4F8BE190E00E94A0042496E4
:101CD0001FAF249741E050E0BE016D5B7F4F8AE16A
:101CE00090E00E94A0045ACF10927A04CC5BDF4FA0
:101CF0000FB6F894DEBF0FBECDBFDF91CF911F911D
:101D00000F91FF90EF90DF90CF9008951F93CF93A6
:101D1000DF931F92CDB7DEB7182F80E591E00E94C8
:101D20009403812F0E94630527E0129FF001112484
:101D3000E85DFB4F22813381377041E050E0BE0106
:101D40006F5F7F4F820F931F0E94F10A89810F906E
:101D5000DF91CF911F910895FC01808D843040F474
:101D6000218D328D232B21F00E94860E90E0089564
:101D70008FEF9FEF0895CF93DF93FC0124852430EC
:101D800028F08FEF9FEFDF91CF910895EC01019044
:101D9000F081E02D0084F185E02D0995892B89F3F0
:101DA0008C850E94860E90E0EECFDA01E0917B04F4
:101DB000F0E0FE2FEE27E60FF71F90E0982F882720
:101DC000A901BD018E0F9F1F0C94F10A8F929F9263
:101DD000AF92BF92CF92DF92EF92FF921F93CF9379
:101DE000DF93CDB7DEB72C970FB6F894DEBF0FBEEA
:101DF000CDBF20917A0414E0222329F16B017C01EC
:101E000080E591E00E9494035E0127E0A20EB11CE0
:101E1000450110E0812F0E94CE0BF40181934F0108
:101E2000882349F11F5F1430A9F710E0F501819173
:101E30005F018D31D9F08831C9F08A518230B0F01C
:101E40001F5F143099F7812F2C960FB6F894DEBFE0
:101E50000FBECDBFDF91CF911F91FF90EF90DF902C
:101E6000CF90BF90AF909F908F90089560E170E009
:101E7000812F0E94990BA12EB12CF501EE0FFF1FAF
:101E8000EC5BFB4F1182108283EE93E00197F1F738
:101E900042E870E060E0812F0E94AC054FEF62E005
:101EA00070E0812F0E94AC05B601C114D10491F4F9
:101EB000809104019091050101968115F0EC9F0736
:101EC00008F45CC0909305018093040160910401C3
:101ED00070910501812F0E94970586E0E9E2F1E00B
:101EE000DE01119601900D928A95E1F7F701838149
:101EF0008F778C8384818D8385818E83A7014E5F4C
:101F00005F4F24E030E06CE070E0812F0E947105AB
:101F1000B601812F0E94820526E030E0AE014F5FBE
:101F20005F4F66E070E0812F0E94710561E070E014
:101F3000812F0E94990B27E02A9DC0012B9D900DB7
:101F400011249C01285D3B4F7901F9011182108217
:101F500022E030E0AE01455F5F4F68E270E0812F24
:101F60000E94D50E8B859C85982789279827F70195
:101F70009383828316821582148265CF80E090EC71
:101F8000A1CFCF92DF92EF92FF920F931F93CF9347
:101F9000DF9300D000D000D0CDB7DEB78C016B014D
:101FA0007A01FC01808D843010F40E94B50B84E925
:101FB00091E09A838983F60182819381A481B5811E
:101FC0008B839C83AD83BE83B701CE0101960E94B3
:101FD000E60EF801808F8430A0F4F586E486128E38
:101FE000118E81E026960FB6F894DEBF0FBECDBFEE
:101FF000DF91CF911F910F91FF90EF90DF90CF90E5
:10200000089580E0EFCFAF92BF92CF92DF92EF9230
:10201000FF920F931F93CF93DF9300D000D000D097
:10202000CDB7DEB7082F6B0180E591E00E949403E5
:102030009E012F5F3F4F7901590110E0812F0E94CF
:10204000CE0BF50181935F01882341F11F5F1430AE
:10205000A9F710E0F70181917F018D31D1F088312E
:10206000C1F08A518230A8F01F5F143099F7812F98
:1020700026960FB6F894DEBF0FBECDBFDF91CF918D
:102080001F910F91FF90EF90DF90CF90BF90AF9096
:10209000089560E170E0812F0E94990BE12EF12CF0
:1020A000F701EE0FFF1FEC5BFB4F1182108283EEF6
:1020B00093E00197F1F7402F70E060E0812F0E94DC
:1020C000AC054FEF62E070E0812F0E94AC05B601D5
:1020D000CD2889F480910401909105010196811524
:1020E000F0EC9F0798F190930501809304016091B3
:1020F000040170910501812F0E94970561E070E055
:10210000812F0E94990B27E02E9DC0012F9D900DDD
:1021100011249C01285D3B4F7901F9011182108245
:1021200022E030E0AE014B5F5F4F68E270E0812F4C
:102130000E94D50E8D819E81982789279827F701C7
:102140009383828316821582148291CF80E090EC73
:10215000CACFCF92DF92EF92FF921F93CF93DF937C
:10216000EC017B016A018C85843048F40E94D20B1B
:10217000882319F08C850E94A90B84E08C87F701D5
:1021800082819381A481B5810097A105B10551F4A5
:1021900090E080E0DF91CF911F91FF90EF90DF9072
:1021A000CF9008958F3F9F4FAF4FBF4F89F38091DE
:1021B0007A04811103C084E08C87EACF70E060E08C
:1021C00081E20E940310182F8C87843008F780E585
:1021D00091E00E949403A7014E5F5F4F24E030E03E
:1021E0006CE070E0812F0E947105B601812F0E9482
:1021F000820564E070E0812F0E94990B0E945E04CA
:102200006B017C018C850E94D20B873109F18C31E6
:10221000F9F0882309F4BCCF0E945E04AB01BC0135
:102220004C195D096E097F098D859E85B0E0A0E09F
:1022300084179507A607B70738F061E070E080E0E3
:1022400090E00E942C04DECF8C850E94B50BB3CFAA
:1022500081E090E09FCF0F931F93CF93DF93EC012A
:102260008B01888D843010F40E94B50B80917A0424
:10227000811107C094E0988FDF91CF911F910F914A
:102280000895B80182E00E940310888F843030F4F2
:102290001D870C871A8E198E81E0EECF80E0ECCF7F
:1022A0000F931F93CF9320917A04222349F18C013D
:1022B000FC016481758181E20E940310C82F843083
:1022C000F8F480E591E00E9494038C2F0E94CE0BDD
:1022D000833131F08C2FCF911F910F910C94A90B6A
:1022E00062E070E08C2F0E94990BF8018481958147
:1022F000EC2FF0E0EE0FFF1FEC5BFB4F9183808330
:10230000CF911F910F910895BF92CF92DF92EF92DC
:10231000FF920F931F93CF93DF93EC016B0180919A
:102320007A0481111FC01B821A8288EE93E0A0E01C
:10233000B0E08C839D83AE83BF8382E691E0998376
:10234000888384E08C8788EE93E09E878D87CE011A
:10235000DF91CF911F910F91FF90EF90DF90CF9081
:10236000BF90089584E4E82E84E0F82EB12C04E0B8
:1023700010E0F701219131917F01F601848195816F
:102380002817390771F4812F0E94D20B043009F508
:10239000873111F08C31E9F4F70132971182108204
:1023A000012F1F5F143029F7B11003C0C6010E942E
:1023B00050111B821A8288EE93E0A0E0B0E08C837B
:1023C0009D83AE83BF8382E691E0998388830C87E7
:1023D000BACF843139F08111E4CFF70132971182FD
:1023E0001082DFCFBB24B394DCCFCF92DF92EF9289
:1023F000FF921F93CF93DF93CDB7DEB72F970FB622
:10240000F894DEBF0FBECDBF182F98EBC92E9BE00E
:10241000D92E882319F08AE0C82ED12CF12CE12C7A
:1024200061ED74E0CE0101960E9484118B819C8144
:102430009093B6048093B5048D819E81AF81B88559
:102440008093B7049093B804A093B904B093BA04EE
:1024500089859A85AB85BC858093BB049093BC0429
:10246000A093BD04B093BE048D858093BF048E8578
:102470009F859093C1048093C00483EB94E00E94F5
:10248000000C8823E9F0112399F083EB94E00E947B
:10249000220C812F2F960FB6F894DEBF0FBECDBF52
:1024A000DF91CF911F91FF90EF90DF90CF90089533
:1024B00088E893E19093C1048093C00411E0E9CFD0
:1024C00061E070E080E090E00E942C048FEFE81A59
:1024D000F80ACE14DF0409F0A3CF10E0DACF7F9220
:1024E0008F929F92AF92BF92CF92DF92EF92FF9224
:1024F0000F931F93CF93DF9300D0CDB7DEB7782E25
:102500008B014A01590122E030E0AE014F5F5F4F7D
:1025100064E270E00E94D50EE980FA80FE24EF2488
:10252000FE24E00EF11E9701377040917A04072DCA
:1025300010E0433309F042C0085F1F4F102F0027FF
:10254000110F110F110FC901800F911F4733C9F1EE
:10255000A9014A0D5B1D4130584098F160E078E0D8
:102560006B01C21AD30AA601B4010E94A004A501FE
:102570004C195D09B4016C0D7D1DC8010E94A004B9
:10258000EA0CFB1CF982EA8222E030E0AE014F5FE8
:102590005F4F64E270E0872D0E9471050F900F90ED
:1025A000DF91CF911F910F91FF90EF90DF90CF902F
:1025B000BF90AF909F908F907F900895005F1F4FC6
:1025C000BDCFA501B401DACFEF92FF921F93CF9355
:1025D000DF9300D0CDB7DEB7182F22E030E0AE0198
:1025E0004F5F5F4F60E270E00E94D50EE980FA8095
:1025F000FE24EF24FE2422E030E0AE014F5F5F4F67
:1026000060E270E0812F0E94D50E89819A8198271F
:1026100089279827E816F90689F487E0189FF001C2
:102620001124E85DFB4FF582E482C7010F900F9003
:10263000DF91CF911F91FF90EF9008957C01DBCF48
:102640001F93CF93DF93182F80E591E00E949403AE
:10265000812F0E94E412EC01812F0E94CE0B873162
:1026600021F08C3111F0D0E0C0E0CE01DF91CF91AC
:102670001F910895CF93DF93EC018C85843060F433
:102680000E94D20B873111F08C3131F48C850E947D
:1026900020138115984088F3DF91CF910895FC01B4
:1026A0008485843010F40C94201390E080E0089529
:1026B000CF92DF92EF92FF921F93CF93DF93182F69
:1026C0007B01EA014130584010F0C0E0D8E080E5DD
:1026D00091E00E949403812F0E94E4126C01812FEB
:1026E0000E94CE0B873111F08C3121F5CC16DD061E
:1026F00070F380E591E00E9494039E01A70170E0D1
:1027000060E0812F0E946F1260E270E0812F0E94D2
:10271000990B62E070E0812F0E947C0B84FD0DC05C
:10272000812F0E94CE0B8823B9F080E591E00E94B2
:102730009403EFCFD0E0C0E0DCCF40E162E070E096
:10274000812F0E94AC05CE01DF91CF911F91FF90A8
:10275000EF90DF90CF900895D0E0C0E0F4CF0F93DA
:102760001F93CF93DF938C01EA01FC0184858430B1
:1027700048F40E945813892B39F481E090E0F80165
:1027800093838283D0E0C0E0CE01DF91CF911F918F
:102790000F9108950C94AF13FC01E60FF71F2DE085
:1027A00020832AE02183AB014E5F5F4FBC0182ECA6
:1027B00094E00C94CA13CF92DF92EF920F931F9381
:1027C000CF93DF936C01EB01AB0170E060E080E33D
:1027D000E82E04E610E020E030E0C6010E94AA09DD
:1027E00080E2F60183836CE775E0C33CF1E0DF072C
:1027F00019F180F46BE875E0CC3DD105E9F066E8AD
:1028000075E0CD3DD105C1F0C73DD10531F567EB90
:1028100075E012C069E575E0C832E2E0DE0761F0FC
:102820006CE475E0C932F2E0DF0731F0C63282E0D5
:10283000D80799F468E675E0C60104960E94130A69
:102840008C5F682F70E0C601DF91CF911F910F91CF
:10285000EF90DF90CF900C94CC1365E475E0C03915
:10286000D14050F762E475E0E7CF9F92AF92BF92FC
:10287000CF92DF92EF92FF920F931F93CF93DF934C
:102880008C015B01942EE52EFC01C688D788F08C64
:1028900080E591E00E9494038F2D0E94E412C92DDF
:1028A000DE2D8C179D0708F4EC019E01A501B601F1
:1028B0008F2D0E946F12F801868997898C0F9D1FBA
:1028C000978B868BCE01DF91CF911F910F91FF9057
:1028D000EF90DF90CF90BF90AF909F900895FF92C0
:1028E0000F931F93CF93DF9300D0CDB7DEB7F82EB1
:1028F00022E030E0AE014F5F5F4F66E270E00E9481
:10290000D50E09811A8110270127102722E030E017
:10291000AE014F5F5F4F66E270E08F2D0E94D50ED3
:1029200089819A819827892798270817190749F4D8
:10293000C8010F900F90DF91CF911F910F91FF90E1
:1029400008958C01E3CF1F93CF93DF93182F87E077
:10295000189FE0011124C85DDB4F888199810097A1
:1029600061F480E591E00E949403812F0E946F142E
:102970002E81821B910999838883DF91CF911F91CA
:1029800008957F928F929F92AF92BF92CF92DF92E3
:10299000EF92FF920F931F93CF93DF938C015B0114
:1029A0007A0180917A04882309F465C084E4C82EF2
:1029B00084E0D82E4601712CC0E0D4012D913D91C8
:1029C0004D01F801848195812817390799F48C2FDE
:1029D0000E94D20BD82F873119F08C3109F03FC0FB
:1029E0008C2F0E94A314892B29F4DC3119F48C2F2D
:1029F0000E94A90BCF5FC43001F7711008C0D80145
:102A0000ED91FC910084F185E02DC8010995C0E0AD
:102A1000F601219131916F01D80114968D919C910D
:102A20002817390751F48C2F0E94D20B873129F4D3
:102A3000A701B5018C2F0E945813CF5FC43041F716
:102A4000C701DF91CF911F910F91FF90EF90DF9021
:102A5000CF90BF90AF909F908F907F9008958431DA
:102A600039F08111C7CFF401329711821082C2CFA1
:102A700077247394BFCFF12CE12CE2CFFC01848545
:102A8000843010F40C94A31490E080E008954F92E9
:102A90005F927F928F929F92AF92BF92CF92DF927E
:102AA000EF92FF920F931F93CF93DF9300D0CDB798
:102AB000DEB7782E6B014A01A82EB12C27E0829F49
:102AC000C0011124FC01E85DFB4F7F0100811181F1
:102AD00080E591E00E9494030815190554F4872DB0
:102AE0000E946F14F70126818C01021B11091183CA
:102AF00000830115110519F5872D0E94CE0B843135
:102B000059F0882349F001E010E08C3111F410E015
:102B100000E0119501951109C8010F900F90DF9108
:102B2000CF911F910F91FF90EF90DF90CF90BF90CA
:102B3000AF909F908F907F905F904F9008958016F8
:102B400091060CF4840187E08A9DF0018B9DF00DC5
:102B50001124E85DFB4FE280F380C114D10451F1F0
:102B60002701F7E05F22872D0E946305840D951DE4
:102B700020917A04273309F453C09801240D351DA0
:102B80002130384008F44CC020E038E04901841876
:102B90009508A401B6010E94F10A2601480C591CAF
:102BA0006801C818D908872D0E946305A601B201E3
:102BB0000E94F10AE00EF11E87E08A9DF0018B9DD4
:102BC000F00D1124E85DFB4FF382E2822081318118
:102BD000201B310B318320838681800F912F911D23
:102BE0008A3F910510F4232BF1F487E08A9DF001D0
:102BF0008B9DF00D1124E85DFB4F1682F982EA826D
:102C000022E030E0AE014F5F5F4F68E270E0872D59
:102C10000E94710560E470E0872D0E94990B7CCFC3
:102C2000A801B601C5CF868377CFCF93DF93FC0190
:102C3000218D328D2115310529F48FEF9FEFDF9122
:102C4000CF910895EC01808D4217530708F0A90138
:102C50000E9447151816190684F7298D3A8D281BEE
:102C6000390B3A8F298FEBCF0F931F93CF93DF93BD
:102C70001F92CDB7DEB7FC01218D328D232B41F49D
:102C80008FEF9FEF0F90DF91CF911F910F910895DC
:102C90008C0141E050E0BE016F5F7F4FFC01808DF1
:102CA0000E944715181619065CF7F801818D928D60
:102CB0000197928F818F898190E0E4CFCF93DF934A
:102CC0001F92CDB7DEB741E050E0BE016F5F7F4F8E
:102CD000FC0184850E9447151816190634F4898171
:102CE00090E00F90DF91CF9108958FEF9FEFF9CF94
:102CF000FC018485843010F40C94471590E080E04A
:102D000008950F931F93CF93DF9300D0CDB7DEB715
:102D1000FC0124852430E0F48C0180E591E00E94E0
:102D2000940322E030E0AE014F5F5F4F60E170E05E
:102D3000F80184850E94D50E89819A819827892778
:102D400098270F900F90DF91CF911F910F910895C9
:102D500090E080E0F6CF0F931F93CF93DF9300D0E6
:102D6000CDB7DEB7FC0124852430E0F48C0180E58A
:102D700091E00E94940322E030E0AE014F5F5F4F8C
:102D800064E070E0F80184850E94D50E89819A8103
:102D90009827892798270F900F90DF91CF911F9147
:102DA0000F91089590E080E0F6CF8F929F92AF92BE
:102DB000BF92EF92FF920F931F93CF93C82F7B0187
:102DC00049015A01809152048C130E947108C093EA
:102DD00052040115110509F473C0EC2FF0E0EC5E0C
:102DE000FE4F808180FD6FC0808182FD6EC080E5D6
:102DF0008CBDE0915204F0E0E05BFB4F808184FDEC
:102E000007C099E0880C991CAA1CBB1C9A95D1F7A5
:102E10000130110561F5B501A40188E10E94260881
:102E2000882399F001E010E00E94030881E090E01F
:102E3000012B09F480E0CF911F910F91FF90EF904B
:102E4000BF90AF909F908F9008950E94B107892BFB
:102E500049F38EEF0E94AB07C7010E94D40731E00F
:102E600020E0892B09F030E0032F122FDDCF8C708A
:102E700031F0A80170E060E087E90E942608B50102
:102E8000A40189E10E9426088111CECF0E94B107DA
:102E9000892B69F08CEF0E94AB07C7010E94D40711
:102EA000892B29F08EEFF81A0150110979F70E9449
:102EB000B107892B09F4B6CF8DEF0E94AB07B4CFD1
:102EC00084E090E0B8CF83E0FCCF82E0FACF8F922D
:102ED0009F92AF92BF92EF92FF920F931F93CF9367
:102EE000DF93EC017C014FE2E40EF11C2BA53CA525
:102EF0004DA55EA501E010E0B70189810E94D516BD
:102F0000892B61F51B820BA51CA52DA53EA58F89DC
:102F1000988DA98DBA8D8F8C98A0A9A0BAA0B9015F
:102F2000A801481959096A097B094A015B018816F9
:102F30009906AA06BB0678F46A81623061F4A90199
:102F40009801280F391F4A1F5B1F01E010E0B701ED
:102F500089810E94D51690E080E002C081E090E077
:102F6000DF91CF911F910F91FF90EF90BF90AF90A5
:102F70009F908F900895FC01238121110C94671775
:102F800090E080E008958F929F92AF92BF92EF926F
:102F9000FF920F931F93CF93DF93EC014A015B01E4
:102FA0008BA59CA5ADA5BEA5F12CE12C8815990596
:102FB000AA05BB05E9F0CE010E94BB177C01892B55
:102FC000B9F401E010E0A5019401BE01615D7F4FFD
:102FD00089810E941A09892B39F0EE24E394F12C9F
:102FE00088248A94982C54018BA69CA6ADA6BEA6D4
:102FF000C701DF91CF911F910F91FF90EF90BF908C
:10300000AF909F908F900895AF92BF92CF92DF9232
:10301000EF92FF920F931F93CF93DF9342305105AE
:103020006105710508F4A9C0FC010389148925898B
:103030003689401751076207730708F09EC06A017E
:103040007B01EC018081823009F457C0833009F4A0
:1030500071C0813009F091C08A0116950795040F5F
:10306000151FC801892F99278695478D50A161A109
:1030700072A1480F591F611D711DCF010E94C31716
:10308000892B71F06FEF7FEFCB01DF91CF911F9113
:103090000F91FF90EF90DF90CF90BF90AF90089589
:1030A0005801FFEFAF1ABF0A1170FE01E00FF11FC8
:1030B00017A5C501892F992786954F8D58A169A11C
:1030C0007AA1480F591F611D711DCE010E94C317BF
:1030D000892BC1F681E0B822CA0DDB1D6FA5762FC2
:1030E000612FC0FE08C0E4E076956795EA95E1F7A8
:1030F00090E080E0CACF7F70FBCF77276F2D5E2DE9
:103100004D2D878D90A1A1A1B2A1480F591F6A1F13
:103110007B1FCF010E94C317892B09F0B3CFCC0CC2
:10312000DD1CE894C0F8E1E0DE22CC0DDD1D6FA5CA
:1031300078A9DECF878D90A1A1A1B2A137E07695C5
:103140006795579547953A95D1F7480F591F6A1FCC
:103150007B1FCF010E94C317892B09F093CFAF9635
:10316000C601880F991F880F991F8C7F91708C0F53
:103170009D1F0E9408099F7088CF61E070E080E089
:1031800090E083CF8F929F92AF92BF92CF92DF92C7
:10319000EF92FF920F931F93CF93DF938C01FC016B
:1031A000C081D18116861786108A118AC680D78081
:1031B000E084F184C114D104E104F104D1F58881E3
:1031C000833040F08BA19CA1ADA1BEA10097A105C9
:1031D000B10589F58F819885892B79F482E090E09B
:1031E000DF91CF911F910F91FF90EF90DF90CF90E3
:1031F000BF90AF909F908F9008958BA19CA1ADA19F
:10320000BEA1F801868B978BA08FB18FF801C28A7F
:10321000D38AE48AF58A86899789A08DB18D892B16
:103220008A2B8B2BD9F2AF96D38FC28F90E080E0A0
:10323000D7CFD701C60189849A84B12CA12C29E06B
:10324000880C991CAA1CBB1C2A95D1F76C017D0126
:10325000B701A60181149104A104B10449F0CE0183
:103260000E94E008F801668B778B808F918FCECF1C
:10327000F801808191810E9404186B017C01FFEFAD
:10328000CF16DF06EF06FF0689F082E0C816D104EC
:10329000E104F10408F4A2CF8B899C89AD89BE8931
:1032A000C816D906EA06FB0698F298CF81E090E0AE
:1032B00097CF2F923F924F925F926F927F928F9211
:1032C0009F92AF92BF92CF92DF92EF92FF920F93B5
:1032D0001F93CF93DF9300D000D000D0CDB7DEB7DF
:1032E0009E838D836A017B0128013901DC018C9169
:1032F000823009F497C0833009F4B6C0813009F0F8
:10330000F4C08A0116950795040F151FC801892F6F
:10331000992786955F964D915D916D917C919297DD
:10332000480F591F611D711DCD010E94C3175C011B
:10333000892B09F056C02D803E80BFE22B0E311C38
:103340004801EFEF8E1A9E0A1170F101E00FF11F94
:10335000842DA701960121703327442755272983FF
:103360003A834B835C83C0FE07C080818F7040E14D
:10337000449E90011124822B808381E0AD81BE8127
:1033800013968C9313975F964D915D916D917C91FF
:103390009297C401892F99278695480F591F611D5F
:1033A000711DCD010E94C3175C01892BD1F4B1E0DE
:1033B0009B22F101E80DF91D29813A814B815C8145
:1033C000232B242B252B39F164E0769467945794B2
:1033D00047946A95D1F7408281E0AD81BE81139612
:1033E0008C93C50126960FB6F894DEBF0FBECDBFF5
:1033F000DF91CF911F910F91FF90EF90DF90CF90D1
:10340000BF90AF909F908F907F906F905F904F9004
:103410003F902F9008958081807F352D3F70432EFF
:10342000482AD9CF77276F2D5E2D4D2DED81FE8156
:10343000878D90A1A1A1B2A1480F591F6A1F7B1FC0
:10344000CF010E94C3175C01892B59F6ED81FE81E3
:10345000BF96CC0CDD1CE894C0F821E0D222EC0D24
:10346000FD1D00835182B8CFED81FE81878D90A133
:10347000A1A1B2A137E076956795579547953A9502
:10348000D1F7480F591F6A1F7B1FCF010E94C31736
:103490005C01892B09F0A5CFFFE07F228D819E8101
:1034A0008F96CC0CDD1CCC0CDD1C2CEFC22221E055
:1034B000D222C80ED91EC6010E94080966277727A6
:1034C0008827907F462A572A682A792AD6014C9263
:1034D00011965C92119712966C92129713967C92A9
:1034E00081E0ED81FE8183837CCF82E0A82EB12C28
:1034F00078CF4F925F926F927F928F929F92AF920E
:10350000BF92CF92DF92EF92FF920F931F93CF93D0
:10351000DF938C012A013B01FC01C081D181411460
:1035200051046104710409F58B849C84AD84BE84CC
:1035300081149104A104B10409F44DC08B899C89C4
:10354000AD89BE8988169906AA06BB0608F043C055
:103550008F859889A989BA89892B8A2B8B2B09F0A9
:103560003FC0C12CD12C760116C0CE010E94041898
:103570006B017C01F2E0CF16D104E104F10408F400
:103580000CC12FEFC216D206E206F206B9F4CC2423
:10359000CA94DC2C7601C701B601DF91CF911F914F
:1035A0000F91FF90EF90DF90CF90BF90AF909F90E2
:1035B0008F907F906F905F904F9008958B899C893A
:1035C000AD89BE8953014201C816D906EA06FB0639
:1035D00008F0BECFE0CF812C912C54018394B8CF5A
:1035E00084149504A604B70409F041C07501640170
:1035F0008FEFC81AD80AE80AF80A8B899C89AD8926
:10360000BE89C816D906EA06FB0628F022E0C22EBB
:10361000D12CE12CF12CB701A601F8018081918118
:103620000E940418613071058105910509F4B5C047
:103630006F3FFFEF7F078F079F0709F4A8CF672B26
:10364000682B692B09F44DC08B859C85AD85BE85A3
:1036500082309105A105B10550F04B895C896D89D7
:103660007E8984179507A607B70708F478C0750107
:1036700064012FEFC21AD20AE20AF20A8B899C89EE
:10368000AD89BE89C816D906EA06FB0660F082E05D
:1036900088169104A104B10408F463CF92E0C92E06
:1036A000D12CE12CF12CB701A601F8018081918188
:1036B0000E9404186115710581059105B9F061300A
:1036C00071058105910509F468C06F3F7F4F8F4FE9
:1036D0009F4F09F45CCFC814D904EA04FB0449F6EF
:1036E00040CFC114D104E104F10409F222E0C21672
:1036F000D104E104F10408F450C08B899C89AD89A0
:10370000BE89C816D906EA06FB0608F046C00FEFC8
:103710001FEF9801B701A601CE010E945919009729
:10372000C9F54114510461047104E1F4CB86DC86CF
:10373000ED86FE868F859889A989BA894B895C892F
:103740006D897E89425051096109710948175907ED
:103750006A077B0738F58C8181608C831CCF4C0114
:103760005D0185CF82E04816510461047104A8F020
:103770008B899C89AD89BE89481659066A067B06E5
:1037800060F497018601B301A201CE010E9459198C
:10379000009761F2019709F4FACEC12CD12C760181
:1037A000C394F9CE0197A109B1098F87988BA98B92
:1037B000BA8BD1CF4F925F926F927F928F929F92EE
:1037C000AF92BF92CF92DF92EF92FF920F931F932F
:1037D000CF93DF9300D000D000D0CDB7DEB76B0120
:1037E0007C01CE0101960E947C088C01892B09F096
:1037F000F4C00091620410E00115110509F0EDC05C
:1038000080915D0490915E04A0915F04B09160048A
:103810008C159D05AE05BF0530F42091610421FD96
:1038200002C06C017D01409063045090640460907C
:103830006504709066041092630410926404109200
:10384000650410926604C114D104E104F10439F452
:1038500080E090E0DC01C12CD12C760180C0E981B0
:10386000FA8181849284B12CA12C39E0880C991CB6
:10387000AA1CBB1C3A95D1F7411451046104710490
:1038800009F48AC081E0481A510861087108C7012B
:10389000B6016150710981099109A50194010E9445
:1038A000873A2B833C834D835E83C301B201A5011C
:1038B00094010E94873A8B819C81AD81BE818217E1
:1038C0009307A407B50708F467C088279927DC0188
:1038D00088199909AA09BB0984219521A621B72134
:1038E0008093630490936404A0936504B09366048A
:1038F000C81AD90AEA0AFB0A409167045091680481
:103900006091690470916A04411551056105710562
:1039100009F0E4C0C12CD12C760180916304909110
:103920006404A0916504B091660440915D045091D7
:103930005E0460915F0470916004481759076A073C
:103940007B0768F480935D0490935E04A0935F040A
:10395000B09360042091610420642093610491700D
:10396000AA27BB27892B8A2B8B2BB9F180916B045B
:1039700090916C04A0916D04B0916E048C159D051E
:10398000AE05BF0551F1C0926B04D0926C04E09279
:103990006D04F0926E0421C04091590450915A0474
:1039A00060915B0470915C044115510561057105DE
:1039B00009F03FC040E050E0BA0183E594E00E9486
:1039C000791AAB01BC014130510561057105E9F47B
:1039D00082E08093620402E010E0C80126960FB6F0
:1039E000F894DEBF0FBECDBFDF91CF911F910F9135
:1039F000FF90EF90DF90CF90BF90AF909F908F900F
:103A00007F906F905F904F9008954F3F9FEF5907C1
:103A10006907790731F481E08093620401E010E0E6
:103A2000DCCF4093590450935A0460935B04709325
:103A30005C04409367045093680460936904709336
:103A40006A0462CFC818D908EA08FB08880D991DD6
:103A5000AA1DBB1D8093630490936404A093650426
:103A6000B09366048091610481FF0FC083E594E008
:103A70000E94791AAB01BC01411551056105710520
:103A800061F4C12CD12C760137C080915304909100
:103A900054040E940418AB01BC014F3FAFEF5A071A
:103AA0006A077A0709F4B7CF4230510561057105FD
:103AB00008F48ECFE981FA8183899489A589B68932
:103AC000481759076A077B0708F082CF40936704BD
:103AD000509368046093690470936A04809163044E
:103AE00090916404A0916504B09166048C149D04C7
:103AF000AE04BF0408F4A6CF8091630490916404DF
:103B0000A0916504B09166048C0D9D1DAE1DBF1D76
:103B10008093630490936404A0936504B093660457
:103B2000D701C6019170AA27BB27892B8A2B8B2B23
:103B300009F4F0CE89819A810E94E008611571052F
:103B40008105910509F444CF29E0F694E794D794D0
:103B5000C7942A95D1F7C60ED71EE81EF91EDDCEF2
:103B6000EF92FF920F931F93CF93DF9300D0CDB7C7
:103B7000DEB7CE0101960E947C088C01892B09F0EA
:103B8000F5C08091610486FFE6C040916F045091BA
:103B90007004609171047091720489819A810E940D
:103BA000C3178C01892B09F0E1C0E0917304F091F7
:103BB00074048385806283874091590450915A042C
:103BC00060915B0470915C04209153043091540423
:103BD000428F538FD9012C91233029F4CB01AA278E
:103BE000BB27848B958B30915D0420915E0490916E
:103BF0005F0480916004348F258F968F878F168A9B
:103C0000178A81E2808F80E5818F128A138AE9808A
:103C1000FA8081E0F7018383C7010E9467178C0156
:103C2000892B09F090C0D7018C91833009F06BC0CB
:103C300014968C911497813009F065C011968C917F
:103C4000119720E032E0B701615D7F4FFB01A901D0
:103C5000119241505040E1F795E5F701E35DFD4FCA
:103C600090839AEA3196908392E59F969C939F97D2
:103C7000D0969C93D09791E6D1969C93D19721E4CE
:103C8000D2962C93D29732E77B973083319630834C
:103C90003196208331969083F701478530892189B9
:103CA0009289E95EFD4F40833196308331962083BF
:103CB000319690831B964C911B971C963C911C97B8
:103CC0001D962C911D971E969C911E9731964083B0
:103CD000319630833196208331969083F701238D7E
:103CE000348D458D568D2F5F3F4F4F4F5F4F9B96C5
:103CF0002D933D934D935C939E9701E010E00E94BD
:103D0000D516F7011482D70111961C9180915204A7
:103D100018130E94710810935204E12FF0E0EC5E3A
:103D2000FE4F808101E010E080FD0DC080E58CBD7C
:103D30000E94090831E020E0892B09F030E0032FD0
:103D4000122F0E940308809161048F7B809361048D
:103D50000115110559F4CE0101960E947C088C01D1
:103D6000892B21F41092540410925304C8010F902F
:103D70000F90DF91CF911F910F91FF90EF900895D9
:103D80002F923F924F925F926F927F928F929F926B
:103D9000AF92BF92CF92DF92EF92FF920F931F9359
:103DA000CF93DF9300D000D000D0CDB7DEB7FC01B9
:103DB000208131813E832D83C684D784E088F188B9
:103DC00030E2C30ED11CE11CF11CC114D10480E20D
:103DD000E806F10420F0168A178A108E118E868963
:103DE0009789A08DB18D0097A105B105B1F13B0177
:103DF0001F01B701A601517066277727452B462B77
:103E0000472B09F0E4C00196A11DB11D868B978B4D
:103E1000A08FB18F4289538964897589ED81FE81B4
:103E20004115510561057105D9F487819085B0E090
:103E3000A0E0B701A60135E07695679557954795BF
:103E40003A95D1F7481759076A077B0708F4BFC0AE
:103E5000F101168A178A108E118E84E090E024C03A
:103E6000818592850197B0E0A0E04601570129E0E5
:103E7000B694A794979487942A95D1F7882199218D
:103E8000AA21BB21892B8A2B8B2B09F0A0C0CF0143
:103E90000E9404184B015C01F2E08F169104A1040A
:103EA000B104D8F482E090E026960FB6F894DEBF15
:103EB0000FBECDBFDF91CF911F910F91FF90EF907B
:103EC000DF90CF90BF90AF909F908F907F906F903A
:103ED0005F904F903F902F9008952FEF821692069B
:103EE000A206B20619F481E090E0DECFED81FE81FA
:103EF00083899489A589B68988169906AA06BB067E
:103F000008F455C0672809F4A3CFF1014289538909
:103F100064897589C1010E94791A4B015C0187E0AF
:103F200090E081149104A104B10409F4BDCFF1E043
:103F30008F169104A104B10409F4B4CF2FEF8216B7
:103F40009206A206B20679F28D819E810E94BB176D
:103F5000892B49F6B501A4018D819E810E94E0085C
:103F60002B013C01ED81FE8143A654A665A676A6F1
:103F7000BF96FC83EB8380E092E09C01119221507C
:103F80003040E1F71A821982ED81FE8181859285A8
:103F900029813A812817390758F1ED81FE81818501
:103FA000928529813A812817390709F09CCFF101C0
:103FB000828A938AA48AB58AB501A4018D819E81E3
:103FC0000E94E008F101668B778B808F918FF10161
:103FD000C686D786E08AF18A8D819E818F9696016A
:103FE0003170280F391F338F228F90E080E05CCF33
:103FF00001E010E0A301920189819A81280F391F05
:10400000411D511D6B817C81ED81FE8181810E946A
:10401000D516892B11F689819A8101969A83898315
:10402000B3CF8F929F92AF92BF92EF92FF920F9376
:104030001F93CF93DF93CDB7DEB7A1970FB6F89458
:10404000DEBF0FBECDBF7C01FA01CB0119A2223029
:1040500008F42AE08E010F5D1F4F822E912CB12CA7
:10406000A12CBF01A50194010E94873AF901CA0160
:104070006A3074F5605DD8016E938D01232B242B7B
:10408000252B79F790E080E0109789F0FD010190F1
:104090000020E9F73197AF014A1B5B0BD701ED9187
:1040A000FC910280F381E02DB801C7010995A1962A
:1040B0000FB6F894DEBF0FBECDBFDF91CF911F9139
:1040C0000F91FF90EF90BF90AF909F908F900895C9
:1040D000695CD1CF8F929F92AF92BF92CF92DF92C5
:1040E000EF92FF920F931F93CF93DF937C01EB012D
:1040F0006C0182E0C80ED11C4701E5E08E0E911CD8
:1041000010E000E0F60141916F0150E070E060E0E6
:104110002AE0CE010E9411205C01E881F981019022
:10412000F081E02D6EE2CE0109958A0D9B1D080FEE
:10413000191FC814D90431F7F701458150E070E028
:1041400060E02AE0CE010E941120800F911FDF91D4
:10415000CF911F910F91FF90EF90DF90CF90BF9084
:10416000AF909F908F9008950F931F93CF93DF93FD
:10417000CDB7DEB728970FB6F894DEBF0FBECDBF20
:104180008C01D80159964D915C915A974115510572
:1041900051F0ED91FC91048CF58DE02D70E060E024
:1041A000C8010995EECFF801808D0E94A314892BD8
:1041B000B1F148E050E0BE016F5F7F4FD8015896E3
:1041C0008C910E94471518161906F4F4D8015096E0
:1041D00084E0FE01319601900D928A95E1F78D8180
:1041E00090E0982F88272E81820F911DF801958BE2
:1041F000848B8F81282F30E0322F22278885820FF1
:10420000932F911D928F818F28960FB6F894DEBF61
:104210000FBECDBFDF91CF911F910F91089590E018
:1042200080E0F2CF4F925F926F927F928F929F9237
:10423000AF92BF92CF92DF92EF92FF920F931F93B4
:10424000CF93DF93CDB7DEB763970FB6F894DEBF99
:104250000FBECDBF7C016B013A01FB0120E090E075
:1042600080E06AE03191332309F461C040ED430FEF
:104270004A3008F04DC0689FA001699F500D11247D
:10428000CA01C097830F911D37FD9A958F3F910505
:1042900049F340F3F7014281538164817581809134
:1042A000A9049091AA04A091AB04B091AC04481762
:1042B00059076A077B0709F40DC28701085F1F4F82
:1042C0000E945E046F7077277C5FC8010E942B11EB
:1042D000813009F004C284E991E09A838983F7016F
:1042E00082819381A481B5818B839C83AD83BE83BE
:1042F00045E350E0BE016F5F7F4FC8010E94170683
:10430000892BA9F5D12CC12CC8010E94C10B17C063
:104310003E3209F0BFCF233009F4BCCFD301A20F46
:10432000B11D12968C932F5F90E080E09BCF2330DD
:1043300009F0B0CFF3018583CC24C394D12CC601FE
:1043400063960FB6F894DEBF0FBECDBFDF91CF915D
:104350001F910F91FF90EF90DF90CF90BF90AF90A3
:104360009F908F907F906F905F904F9008950E94E4
:104370005E04F7017783668342E050E0B7016A5F2D
:104380007F4FC8010E94351481E090E09A838983B1
:1043900042E050E0BE016F5F7F4FC8010E943514BC
:1043A00080E091E09A83898342E050E0BE016F5F34
:1043B0007F4FC8010E9435141A82198242E050E0F2
:1043C000BE016F5F7F4FC8010E94351442E050E08C
:1043D000BE016F5F7F4FC8010E94351442E050E07C
:1043E000BE016F5F7F4FC8010E9435145601F60170
:1043F0008081882301F16501F60181912F018823D5
:1044000011F08E32B1F446018A189B081814190471
:1044100074F48D8641E050E0BE01635F7F4FC801B8
:104420000E943514A401B501C8010E94351452013F
:10443000DECF6201E1CF1D8641E050E0BE01635F47
:104440007F4FC8010E943514C12CDD24D394DA8239
:10445000C98242E050E0BE016F5F7F4FC8010E94F9
:104460003514DA82C98242E050E0BE016F5F7F4FAF
:10447000C8010E943514C8010E945B0C892B09F405
:1044800041CFF3E0AF2EB12C230122E0420E511CAC
:10449000D4C0F7014281538164817581808D918DF3
:1044A000A28DB38D481759076A077B0709F008C129
:1044B000848D958DC59709F003C181A192A15DEF0F
:1044C000C52EDD24DA940C970CF4ADC04CE050E01E
:1044D000BE016F5F7F4FC8010E9415168B819C81C2
:1044E0009827892798279A8B898BF70146815781CE
:1044F00029813A814217530709F0E7C097FFE5C0C9
:104500008F7092703BEFC32EDD24DA94892B09F073
:104510008AC06F8078847624672476242AEFC22E9E
:10452000DD24DA946114710409F47DC0D12CC12C0E
:104530008D819E81982789279827C816D906F8F477
:1045400041E050E0BE01635F7F4FC8010E94151635
:104550004D85442331F050E070E060E0C8010E94D6
:1045600015168D858111ECCF44E050E070E060E0DD
:10457000C8010E941516FFEFCF1ADF0AD9CF912C80
:10458000812C41E050E0BE016D5E7F4FC8010E946A
:1045900015164B89842F807C09F06CC0442331F0C0
:1045A00050E070E060E0C8010E9415168B8981110F
:1045B000E8CF42E050E0BE01615F7F4FC8010E943A
:1045C000151642E050E0BE01635F7F4FC8010E94B4
:1045D000151644E050E070E060E0C8010E94151636
:1045E00042E050E0BE016F5E7F4FC8010E94151689
:1045F0008F85988949895A898115914009F043C06E
:10460000CD84DE84DC24CD24DC2481E0C816D104F2
:10461000D1F54115544009F04AC044E050E0B201E0
:10462000C8010E94151621E0A21AB10809F46CCE47
:10463000FFEFCF16DF0609F067CE0E945E043B0154
:104640004C01C8010E94B420181619060CF421CFA1
:104650000E945E04661977098809990969387341CF
:104660008105910548F562E370E080E090E00E94EA
:104670002C04E7CF41E050E070E060E0C8010E9408
:1046800015161B8A93CF54274527542770E060E006
:10469000C8010E941516FFEF8F1A9F0A681479044B
:1046A00009F06FCF96EFC92EDD24DA94BCCFE7EF87
:1046B000CE2EDD24DA94B7CFCC24CA94DC2CB3CF31
:1046C0006EEFC62EDD24DA94AECF4CEFC42EDD247F
:1046D000DA94A9CF8EEFC82EDD24DA9430CED12C17
:1046E000C12C2DCECF92DF92EF92FF920F931F93AA
:1046F000CF93DF93CDB7DEB7AF970FB6F894DEBF99
:104700000FBECDBF7C016A0104E911E01A83098361
:104710001C861B8688EE93E0A0E0B0E08D879E8724
:10472000AF87B88B88E391E09A878987188F0F8BC2
:10473000198E1A8E1B8E1C8E84E089A31BA70AA7D4
:104740001CA61DA61EA61FA680919D0490919E04E6
:10475000A0919F04B091A0048EA39FA3A8A7B9A77E
:104760008B839C83AD83BE8318861F82AE01465D1A
:104770005F4FCE0101960E94122181309105B1F464
:10478000D701ED91FC910488F589E02D1DA30CA3C0
:104790008CA59DA5AEA5BFA58EA39FA3A8A7B9A7CD
:1047A000A601BE016C5D7F4FC7010995AF960FB69C
:1047B000F894DEBF0FBECDBFDF91CF911F910F9157
:1047C000FF90EF90DF90CF900895CF92DF92EF921D
:1047D000FF920F931F93CF93DF93CDB7DEB7AF97C1
:1047E0000FB6F894DEBF0FBECDBF8C016B017A010E
:1047F00084E991E09A8389831B821C821D821E8238
:104800001C861B8648EE53E060E070E04D875E87B3
:104810006F87788B28E331E03A872987988F8F8BD1
:10482000198E1A8E1B8E1C8E24E029A39BA78AA7A3
:104830001CA61DA61EA61FA6D8011C968C9184300E
:1048400060F40E94D20B882321F0F80184850E9435
:10485000A90B84E0D8011C968C9380919D049091C3
:104860009E04A0919F04B091A0048EA39FA3A8A72B
:10487000B9A78B839C83AD83BE8318861F82AE014C
:10488000465D5F4FB601CE0101960E94122100974E
:10489000C1F0D801ED91FC910684F785E02D84E903
:1048A00091E09DA38CA38CA59DA5AEA5BFA58EA3CD
:1048B0009FA3A8A7B9A7A701BE016C5D7F4FC80140
:1048C0000995AF960FB6F894DEBF0FBECDBFDF914E
:1048D000CF911F910F91FF90EF90DF90CF900895AF
:1048E000EF92FF920F931F93CF93DF9300D000D0EE
:1048F000CDB7DEB78C017B01FB0184858430A8F045
:1049000084E991E0F80191838083128213821482FA
:104910001582C8010F900F900F900F90DF91CF91EB
:104920001F910F91FF90EF90089580E591E00E9414
:10493000940324E030E0AE014F5F5F4F6CE070E025
:10494000F70184850E94D50E84E991E0F8019183F6
:10495000808389819A81AB81BC8182839383A48384
:10496000B583D7CF0F931F93CF93DF93EC01FC0157
:10497000E35DFD4F008111819FA59B3E21F0985E74
:10498000923008F04DC005352AEA120761F448E07C
:1049900050E066EA71E0CE018F579F4F0E94BE3A09
:1049A000892B09F447C08AAD9BAD9C012150310988
:1049B00028233923232BA1F58115924089F58CAD4D
:1049C000882371F190E09C012150310982239323C7
:1049D000892B31F58DAD9EAD892B11F18FAD8150B5
:1049E000990B0297E8F4FE01E05CFF4F8081918112
:1049F000892BB1F03296808191818038910550F4F5
:104A0000CE01815B9F4F0E940809611571058140AD
:104A1000910530F0CB5BDF4F88819981892B51F470
:104A200005351A4A51F083E090E0DF91CF911F9154
:104A30000F91089590E080E0F8CF82E090E0F5CF0C
:104A40002F923F924F925F926F927F928F929F929E
:104A5000AF92BF92CF92DF92EF92FF920F931F938C
:104A6000CF93DF93CDB7DEB7A0970FB6F894DEBF34
:104A70000FBECDBF6B01342EDB011D921C920E9434
:104A8000B3087C0197FD6FC3FC01EE0FFF1FE45BD1
:104A9000FB4F008111810115110509F468C3F6016E
:104AA00011830083E89430F8D8018C91882391F128
:104AB0001196DC9080915204D8120E947108D09215
:104AC0005204ED2DF0E0EC5EFE4F808180FD22C0AF
:104AD000332009F450C382FF4EC35AE0252E312CF7
:104AE000C101A0960FB6F894DEBF0FBECDBFDF9117
:104AF000CF911F910F91FF90EF90DF90CF90BF90DB
:104B0000AF909F908F907F906F905F904F903F906D
:104B10002F900895F8011082E182809152048E1145
:104B20000E947108E0925204F701FF27EC5EFE4FED
:104B3000808180FD26C1808180FD20C3332011F05B
:104B400082FDCBCFD80113961C928FEF9FEFDC0133
:104B5000F80183A794A7A5A7B6A740E050E0BA0143
:104B6000C8010E94C3171C01892B09F0E8C1C801C4
:104B70000E94B2248230910509F0E5C16801FBE092
:104B8000CF1AFEEFDF0A9E012F5F3F4F79014801E8
:104B90003BEC831A3DEF930A5701C6010E940809B6
:104BA000D5016D937D938D939D935D01B0E1CB0E07
:104BB000D11CC814D90489F76701E0E1CE0ED11CDD
:104BC00088248A94982C5401D7014D915D916D9160
:104BD0007D917D0183E090E04115510561057105EE
:104BE00009F4A7C1F801138283A694A6A5A6B6A6C8
:104BF000C8010E94C317892B09F099C1C8010E94FE
:104C0000B2248230910508F094C1F80182AD93ADD1
:104C10008115924009F09DC1F801EB5BFF4F808048
:104C20009180B12CA12C8114910439F4C8018D5AC2
:104C30009F4F0E9408094B015C01D8019B962D9162
:104C40003D914D915C919E972D8B3E8B4F8B588F54
:104C5000F801878A908EA18EB28E77AC72828FEF28
:104C6000870D823008F075C1F4ADF98B8F2F90E07D
:104C70001A969C938E931997009709F46AC19C0128
:104C80002150310982239323892B09F062C1F80155
:104C9000E05CFF4F208131813C8B2B8B18963C933D
:104CA0002E931797C9018F709927892B09F051C14D
:104CB0003296C080D180F12CE12CC114D10439F49A
:104CC000C801815B9F4F0E9408096B017C01D801DC
:104CD000DD96ED91FC91309709F43BC1A72DB0E032
:104CE000A50194010E947C3A6D8F7E8F8F8F98A3CF
:104CF0009F0150E040E0298F3A8F4B8F5C8F8B896A
:104D00009C89E4E096958795EA95E1F729013A01B7
:104D1000480E591E611C711C8D8D9E8DAF8DB8A1E2
:104D2000480E591E6A1E7B1EC414D504E604F704FF
:104D300008F40FC1C701B6016419750986099709FE
:104D4000A9892A2F30E050E040E00E94873A2115DF
:104D500031054105510509F4FCC0263FBFEF3B0773
:104D60004B07BFE05B0708F0F4C0263F9FEF390711
:104D70004105510508F406C2A3E0B0E0BA8BA98B47
:104D8000F0C0808181FDD7CEF89497E095B984B1C9
:104D9000876084B995B980E58CBD81E08DBD84B113
:104DA0008F6284B98FE385B978948CB583608CBDAC
:104DB0004AE0F42E8FEF0E94AB07FA94F110FACF7D
:104DC00035E0E32E40E050E0BA0180E00E94260882
:104DD000F82E811105C0EA94E110F4CFD12C88C0DF
:104DE000F1E08F13FBCF0E945E042B015B014AEAC6
:104DF00051E060E070E088E00E942608813009F010
:104E000049C09E012F5F3F4F69014E0135E0830E7F
:104E1000911C76018FEF0E94AB07D7018D937D0126
:104E2000A815B905B9F78B818130C1F68C818A3A12
:104E3000A9F60E945E046A197B09683E73404CF42F
:104E400040E050E060E070E489EA0E9426088111A9
:104E5000F0CF0E945E0464197509683E73400CF03F
:104E6000BDCF40E050E0BA018AE30E9426088111DC
:104E7000B5CF8FEF0E94AB07D6018D936D01AE15B4
:104E8000BF05B9F7898128E1D22E86FD31C0B8E08F
:104E9000DB2E2EC040E050E0BA0189EA0E942608CD
:104EA000DD24D394823020F484E0D82E99EAF92EC0
:104EB0000E945E046A197B09683E734044F440E036
:104EC00050E0BA018F2D0E9426088111F1CF0E9477
:104ED0005E0464197509683E73400CF07FCF40E0B2
:104EE00052E060E070E080E10E942608811176CFF8
:104EF000E0915204EE2EF12CF701E05BFB4FD082E3
:104F00000E940308F701EC5EFE4F8081DD2061F016
:104F10008E7F80838CB58C7F8CBD2C98E091520461
:104F2000F0E0EC5EFE4F07CE81608083F6CF84E038
:104F300090E0EC14FD0409F047CE049751F42224CC
:104F40002394312CCDCD84309105C9F3029708F418
:104F50005CCEFDE02F2E312CC3CDE1E0F0E0FA8BEA
:104F6000E98B69017A01F2E0CF0ED11CE11CF11C42
:104F7000D8015396CD92DD92ED92FC9256972D89F1
:104F80003E894F89588D5B962D933D934D935C934D
:104F90005E97898D9A8DAB8DBC8D820F931FA41F58
:104FA000B51FF801878F90A3A1A3B2A3420E531E91
:104FB000641E751E47A250A661A672A629893A8969
:104FC0002330310509F09FC0E75AFF4F808191815E
:104FD000892B09F0BECF4B895C89452B09F0B9CFED
:104FE000C801855A9F4F0E940809D80193966D9376
:104FF0007D938D939C93969772E0CC0CDD1CEE1CF8
:10500000FF1C7A95D1F74FEFC40E41E0D41EE11C8E
:10501000F11C49E0F694E794D794C7944A95D1F7E8
:105020008C149D04AE04BF0408F493CF8FEF9FEF60
:10503000DC01F8018787908BA18BB28B83879487E3
:10504000A587B68780E8848329893A89233031058A
:1050500009F048C0E15AFF4F80819181019709F022
:1050600041C04D895E896F89788D4F5F5F4F6F4F6B
:105070007F4FC8010E94C317892BA1F5D801149650
:105080001C92F801E35DFD4F8081918185359A4A3C
:1050900049F5C8018F960E9408096235724581461C
:1050A000914401F5C8018D5E9D4F0E940809623749
:1050B000724781449146B1F4C801895E9D4F0E94B8
:1050C0000809D8011F966D937D938D939C935297F9
:1050D000C801855E9D4F0E940809F80163877487A7
:1050E00085879687E989D801EC9380911104909186
:1050F00012040196909312048093110416969C93C7
:105100008E931597EDCCEB89FC89EF2B09F421CF19
:105110002D8D3E8D4F8D58A1820F931FA41FB51F5B
:10512000F80183A394A3A5A3B6A329893A892230C1
:10513000310529F4CC0CDD1CEE1CFF1C64CFA3E070
:10514000B0E0A70196010E947C3A969587957795E5
:10515000679531E0C322DD24EE24FF24C60ED71E5E
:10516000E81EF91E50CF3BE0232E312CB9CC2CE0A9
:10517000222E312CB5CC312C212CB2CC93E0292E0F
:10518000312CAECC263FFFE03F074105510508F426
:10519000E4CE82E090E09A8B898BE3CE1F93CF938D
:1051A000DF9300D000D000D0CDB7DEB79E838D83D3
:1051B000162F86E091E09C838B839A838983CE01AE
:1051C00001960E94B30897FD2BC0880F991FFC0120
:1051D000E45BFB4F0190F081E02D309709F01082E5
:1051E000ED81FE81309709F01082845B9B4FDC01DA
:1051F000ED93FC9390E080E0112341F040E0BE018C
:105200006B5F7F4FCE0103960E94202526960FB636
:10521000F894DEBF0FBECDBFDF91CF911F910895EF
:105220008BE090E0F3CFCF93C0911A04C05D8091E2
:1052300006018C1303C081E0CF910895883569F091
:105240008091530490915404892B11F00E94B01D59
:1052500060E090E080E00E94CE288EEF8093030112
:10526000C093060161E082EE91E00E94CE28892B76
:1052700011F388E58093060180E0DECF2F923F9204
:105280004F925F926F927F928F929F92AF92BF9256
:10529000CF92DF92EF92FF920F931F93CF93DF9302
:1052A000CDB7DEB7AE970FB6F894DEBF0FBECDBF59
:1052B000E0911A04E23010F0512C08C0F0E0E85EF2
:1052C000FB4F80818230E1F455245394852DAE96B6
:1052D0000FB6F894DEBF0FBECDBFDF91CF911F9107
:1052E0000F91FF90EF90DF90CF90BF90AF909F9085
:1052F0008F907F906F905F904F903F902F90089588
:105300001816D4F60E941329582E8823A9F210915A
:105310001B04809103011817B9F2809153049091F6
:105320005404892B29F00E94B01D8EEF8093030155
:10533000812F90E064E0959587956A95E1F78A3032
:1053400008F042C0805D60900201712CF301EA5FB9
:10535000FE4F80831F701A30C8F5105D118386E000
:1053600091E09AA789A743E0BE01655D7F4FCE011A
:1053700089960E942025892B11F58BA49CA49A82E2
:105380008982E9A5FAA58F0181918F32E1F38C35ED
:10539000D1F31F82188619861A86D8018C911401C0
:1053A000BFE22B0E311C803208F05BC080E888A77A
:1053B000CE0101960E94C218892B09F4D3C0109225
:1053C00054041092530478CF895CBDCF195CC6CFCA
:1053D0008EE2481609F42EC1EA14FB0480F7642D0E
:1053E00070E08FEA91E00E94DB3A892B41F78FE968
:1053F000840D8A3110F490EE490EEDE1F0E0EC0FEF
:10540000FD1FEE0DFF1D4082D70111967D013AC0B0
:1054100084E068C044E0E42EF12C88A5EF2879F6FA
:1054200082FDA0C08D8184FFCACFEF85F889F1701D
:10543000E20DF31D428D538D70E060E0D4018C913C
:10544000833059F484899589B0E0A0E0DC01992784
:105450008827482B592B6A2B7B2B4F8358876987CA
:105460007A874BE050E060E270E0CE014D960E94FA
:10547000D43A1EA70DA7F12CE12CD12CC12C58E059
:10548000A52EB12CEFEFCE1ADE0AADA5BEA58D91EB
:10549000BEA7ADA7482EB0E2B81788F4EFE28E178A
:1054A00019F0FCE58F1394CFF801EC0DFD1D6F0191
:1054B000C01AD10A91919F32D1F39C35C1F3EF28E4
:1054C00009F47DCF9D8D953E11F4B5E0BD8F0C0D97
:1054D0001D1D813208F49CCFF801808181320CF4CB
:1054E00097CF80E088A7A980BA80CE0101960E945C
:1054F000C2187C01892B09F090CF4F89588D698D96
:105500007A8DC5010E94C3177C01892B09F085CFD4
:10551000CB8CDC8CD6018C91882309F47BCF1B9635
:105520008C91982F9F739D8383FD15C0A301BE01AD
:10553000635E7F4FC6010E94BE3A892B61F443E04F
:1055400050E0BE016B5D7F4FC60108960E94BE3AD7
:10555000892B09F462CF70E060E0CE0101960E94D1
:10556000C01EC7CF88A587FD2ACF8D81817109F024
:1055700026CF0BA51CA5F80183A594A5A5A5B6A5C6
:1055800080936F0490937004A0937104B09372049D
:10559000EB8DFC8DF0937404E0937304428D538D76
:1055A00070E060E0D8018C91833059F4C488D588CC
:1055B000F12CE12C7601DD24CC244C295D296E29C7
:1055C0007F294093590450935A0460935B0470936D
:1055D0005C04CF014C960E94080960935D047093AF
:1055E0005E0480935F0490936004109354040093CE
:1055F0005304F80185819681909356048093550455
:1056000083E0809361041092620410926B04109204
:105610006C0410926D0410926E0410926304109248
:105620006404109265041092660480911B048093B8
:1056300003014CCEBBE0AB16B10409F4C0CE88E048
:10564000E82EF12C9BE0A92EB12C1CCF2F923F927B
:105650004F925F926F927F928F929F92AF92BF9282
:10566000CF92DF92EF92FF920F931F93CF93DF932E
:1056700000D0CDB7DEB75C010E943E29882309F433
:1056800019C280911A0440911C0450911D0470E0CD
:1056900060E0E82FF0E0E85EFB4F2081223089F4E3
:1056A00020911B047A018B01022BA801970101E0D4
:1056B00010E0B5010E94D516892B09F485C187E257
:1056C00084C1CB01BA01F9E0660F771F881F991FCB
:1056D000FA95D1F76B017C0102E0D00EE11CF11CC0
:1056E00000915D0410915E0420915F04309160048C
:1056F0000C151D052E053F0510F300916304109154
:105700006404209165043091660460177107820774
:10571000930719F5CE0101960E947C08892B79F632
:10572000809162048111CBCF8091610481FFC7CF4A
:10573000C0906304D0906404E0906504F090660427
:10574000C1141EEFD1061FEFE106F10608F4AEC149
:10575000C094D094312C212CE2C00E94DA1B892BFA
:10576000C9F2ADCF4091670450916804609169041B
:1057700070916A0415C1613071058105910521F4AC
:1057800082E0809362049BCF6F3F3FEF73078307F4
:10579000930711F481E0F5CF609367047093680478
:1057A0008093690490936A044090590450905A047D
:1057B00060905B0470905C0445284628472841F4BB
:1057C0006093590470935A0480935B0490935C0433
:1057D00089819A81FC0143A454A465A476A44091D4
:1057E0006B0450916C0460916D0470916E044416CA
:1057F00055066606770621F40E94BB17892B51F6E1
:1058000089809A804091670450916804609169048E
:1058100070916A04C4010E94E00861157105810558
:10582000910509F4ADCF2B013C01400E511E611CC6
:10583000711C7601EF2CFF24E694E114F10409F4C5
:10584000D9C0F4018185928598012E0D3F1D8217E4
:10585000930718F47C01E01AF10A8701A301920171
:10586000B501F40181810E94D516892B09F092CFF0
:1058700089819A81FC0143A554A565A576A54419A3
:1058800055096609770930E020E0401751076207A3
:10589000730788F4DC019F96FA01FE2FEE27FF0FB5
:1058A000EA0DFB1D20E032E001900D9221503040C6
:1058B000D9F7FC011382FE2CEE24FF0CCE18DF0872
:1058C0002E0C3F1CAE0CBF1C8091630490916404AD
:1058D000A0916504B09166048E0D9F1DA11DB11DA0
:1058E0008093630490936404A0936504B09366046A
:1058F00040915D0450915E0460915F04709160047A
:10590000481759076A077B0710F4AC01BD014093A3
:105910005D0450935E0460935F0470936004C1144F
:10592000D10409F447C08091630490916404A0916C
:105930006504B0916604AC01BD01517066277727FC
:10594000452B462B472B09F07EC0E981FA81018562
:10595000128501501109AC01BD01E9E0769567950A
:1059600057954795EA95D1F704231523011511059D
:1059700009F02ECF892B8A2B8B2B09F0F3CE609167
:10598000590470915A0480915B0490915C046115F4
:1059900071058105910509F0EECE40E050E0BA01B5
:1059A00083E594E00E94791A6115710581059105DE
:1059B00009F0E1CE80916104806480936104211438
:1059C00022E0320609F07BCE80E00F900F90DF914D
:1059D000CF911F910F91FF90EF90DF90CF90BF90EC
:1059E000AF909F908F907F906F905F904F903F907F
:1059F0002F90089540916304509164046091650470
:105A00007091660480915D0490915E04A0915F04A2
:105A1000B0916004481759076A077B0760F0C4011A
:105A20000E94BB17892B09F0B5CEE981FA8143A604
:105A300054A665A676A640926B0450926C046092C0
:105A40006D0470926E04809163049091640491706F
:105A5000E12C22E0F22EE81AF90AC70176018C1532
:105A60009D0508F47C0140916B0450916C04609199
:105A70006D0470916E0489819A810E94C317892BED
:105A800009F088CE29813A81215D3F4F80916304DE
:105A9000909164049170A701B501820F931F0E9439
:105AA000CB3AE981FA8101E0038308CFC12C82E07F
:105AB000D82E50CE88E289CF0F931F93CF93DF93D8
:105AC000CDB7DEB7D2500FB6F894DEBF0FBECDBF54
:105AD000FE013196CE018F5F9D4F8F013399FECF2E
