:100000000C9462020C948A020C948A020C948A0268
:100010000C948A020C948A020C948A020C948A0230
:100020000C948A020C948A020C948A020C948A0220
:100030000C948A020C948A020C948A020C948A0210
:100040000C94151A0C948A020C94E3190C94BD19A3
:100050000C948A020C948A020C948A020C948A02F0
:100060000C948A020C948A02EAA92085F0A9608582
:10007000F3A5434A4A4A4A290709C085F2A00084E9
:10008000F188B1F185F1A90185F9E646E645E64535
:1000900020F000900620E2FB4CBAFAC6F9D0EBA99A
:1000A000008544A91085452093FE2089FE2058FC38
:1000B00020C30AA92C207D0AA91720740AA9182098
:1000C0007D0AA90085FBA90385252022FCA5FB85C7
:1000D000F585F620B40AA900A4F720A409A9FF8594
:1000E00032A54309808543A914A4F820A409A9FFD7
:1000F00085324A25438543E625E6FBA5FBC91090DA
:10010000C920AB0820B40A20B40820E40820B00AB3
:100110004CE70AA5F785F5A5F885F660A9152074C2
:100120000A20950AA90A8524A5F5207809A914852D
:100130002420900AA91E8524A5F64C780920D90A06
:1001400020AB0820B4086868184CE70AA90085FAB3
:10015000A6FAA94020FA09208409200CFD48A980AC
:10016000A6FAB4F520FA0968A6FAB4F5C98DD00547
:10017000A6FAF03660C99BF0C4C9A1D005A9FF85D5
:10018000F560C9ACF004C98BD00388300DC9A0F06C
:1001900004C98AD00BC8C01090064898290FA868D7
:1001A00094F5C988F004C995D00DA90020FA09A5D5
:1001B000FA490185FA1026C9E1900338E920C9C13E
:1001C0009009C9C7B00538E907D008C9B0900EC971
:1001D000BAB00A290F95F52084094C08094CE808A3
:1001E000C9FFF0034CE3FDA9A14CEDFDA6FAB4F55F
:1001F000A20AA5FAF002A21E8624A01584252022B8
:10020000FCA4FAB9F500207809C624608524A5FB72
:100210004820E3FDA9BA20EDFDE62484F968C5F97C
:10022000D004A93F853220A30AB032AD0510302D8D
:10023000AD0410AA29F0C9F0D0238A290FF01E8539
:10024000F9A200BD0510098020EDFDE8E4F9D0F326
:10025000E00FD00160A9A020EDFDE8D0F3A2004C92
:10026000970A85F98AF002A9141869038524B5F55F
:100270003017690385252022FCA424A20EB1282969
:100280003F05F99128C8CA10F460ADADADA0A0A09B
:10029000A0A0A0A0A0A0A0A0A000C3C1D2C4A0B153
:1002A000BA0020200110100C0520090920060F12A9
:1002B00005160512210004010E20090920160F0C55
:1002C000150D052013050C0503140F1200A0CFCB4C
:1002D000A100C5D2D2CFD2A1878787008525A900EA
:1002E00085244C22FC48A226A92020EDFDCA10F846
:1002F00068AAA9088524D007A9B28D370AA210BD23
:10030000220AF00620EDFDE8D0F560A0008447C881
:100310008442C884464CF000A907D002A906854251
:10032000A5F58546A5F685474CF000A90585422030
:10033000F000AD001085F7AD011085F860A900F060
:1003400002A98048A20020FA0968A2014CFA090813
:1003500020D50AA91620740AA911852428A2439041
:1003600002A24820970AA206A9FF20A8FCCAD0F83A
:100370002058FCA90085F16CF100FFFFFFFFFFFF93
:10038000FFFFFFFFFFFFFFFFFFFFFFFFFFFFFFFF7D
:10039000FFFFFFFFFFFFFFFFFFFFFFFFFFFFFFFF6D
:1003A000FFFFFFFFFFFFFFFFFFFFFFFFFFFFFFFF5D
:1003B000FFFFFFFFFFFFFFFFFFFFFFFFFFFFFFFF4D
:1003C000FFFFFFFFFFFFFFFFFFFFFFFFFFFFFFFF3D
:1003D000FFFFFFFFFFFFFFFFFFFFFFFFFFFFFFFF2D
:1003E000FFFFFFFFFFFFFFFFFFFFFFFFFFFFFFFF1D
:1003F000FFFFFFFFFFFFFFFFFFFFFFFFFFFFFFFF0D
:10040000FFFFFFFFFFFFFFFFFFFFFFFFFFFFFFFFFC
:10041000FFFFFFFFFFFFFFFFFFFFFFFFFFFFFFFFEC
:10042000FFFFFFFFFFFFFFFFFFFFFFFFFFFFFFFFDC
:10043000FFFFFFFFFFFFFFFFFFFFFFFFFFFFFFFFCC
:10044000FFFFFFFFFFFFFFFFFFFFFFFFFFFFFFFFBC
:10045000FFFFFFFFFFFFFFFFFFFFFFFFFFFFFFFFAC
:10046000FFFFFFFFFFFFFFFF000000090003020086
:10047000000405080000000000000000000000006B
:10048000000000250028002B0000000000240027A9
:10049000002A000404040404040404020202020208
:1004A00002030303030303020203010204081020F2
:1004B000408001020408102001020408102040803E
:1004C00040005C1C11241FBECFEFD8E0DEBFCDBFC3
:1004D00011E0A0E0B1E0ECE8FFE302C005900D926E
:1004E000A03DB107D9F724E0A0EDB1E001C01D9215
:1004F000A73EB207E1F712E0C2E6D2E004C02197BE
:10050000FE010E94871FC136D107C9F70E948C1CCB
:100510000C94C41F0C940000CF93DF93EC01E09186
:100520002104F0912204309749F489E090E0F0E052
:10053000E0E0F983E883DF91CF91089580818823FB
:10054000A1F32091230430912404858196812817FA
:10055000390759F7A181A0932004B0E0AD5DBE4FEB
:100560008C9180FDE2CF90E080E0E3CFAF92BF922C
:10057000CF92DF92EF92FF920F931F93CF93DF936F
:100580006C017B018B01040F151FEB015E01AE189E
:10059000BF08C017D10759F06991D601ED91FC91C0
:1005A0000190F081E02DC6010995892B79F7C501ED
:1005B000DF91CF911F910F91FF90EF90DF90CF903F
:1005C000BF90AF900895FC01538D448D252F30E0EE
:1005D000842F90E0821B930B541710F0CF96089550
:1005E00001970895FC01918D828D981761F0A28D7D
:1005F000AE0FBF2FB11D5D968C91928D9F5F9F7343
:10060000928F90E008958FEF9FEF0895FC01918DF8
:10061000828D981731F0828DE80FF11D858D90E065
:1006200008958FEF9FEF0895FC01918D228D892F02
:1006300090E0805C9F4F821B91098F7399270895EA
:1006400083E494E00E94140321E0892B09F420E064
:10065000822F089580E090E0892B29F00E942003EA
:1006600081110C9400000895FC01A48DA80FB92FEE
:10067000B11DA35ABF4F2C91848D90E001968F73CA
:100680009927848FA689B7892C93A089B1898C91E9
:1006900080648C93938D848D981306C00288F389AF
:1006A000E02D80818F7D80830895EF92FF920F93DC
:1006B0001F93CF93DF93EC0181E0888F9B8D8C8D0E
:1006C000981316C0E889F989808185FF11C0EE89E9
:1006D000FF896083E889F98980818064808381E073
:1006E00090E0DF91CF911F910F91FF90EF900895CF
:1006F000F62E0B8D10E00F5F1F4F0F731127E02EAA
:100700008C8D8E110CC00FB607FCFACFE889F989E1
:10071000808185FFF5CFCE010E943403F1CFEB8DB0
:10072000EC0FFD2FF11DE35AFF4FF0820B8FEA898A
:10073000FB8980818062D2CFCF93DF93EC01888DDB
:100740008823B9F0AA89BB89E889F9898C9185FD4C
:1007500003C0808186FD0DC00FB607FCF7CF8C91DA
:1007600085FFF2CF808185FFEDCFCE010E9434035B
:10077000E9CFDF91CF91089590E0FC01E859FB4F5C
:100780002491FC01E655FB4F3491FC01ED56FB4FE3
:10079000E491EE23C9F0222339F0243001F1A8F4CA
:1007A000223069F1233079F1F0E0EE0FFF1FE158BC
:1007B000FB4FA591B4918FB7F894EC91611126C0CD
:1007C00030953E233C938FBF0895283071F0293037
:1007D00091F0253049F7809180008F7D03C0809192
:1007E00080008F7780938000DFCF8091B0008F777B
:1007F0008093B000D9CF8091B0008F7DF9CF84B5C0
:100800008F7784BDD1CF84B58F7DFBCF3E2BDACFE0
:100810002FB7F89460911004709111048091120424
:10082000909113042FBF08958EBD0DB407FEFDCF28
:100830000895FF920F931F93CF93DF93082FF62E07
:10084000142FC0EED4E060E088810E94BC0380E0F9
:100850000E9414048F2D0E941404802F84600E9433
:100860001404812F0E94140461E08881DF91CF91EC
:100870001F910F91FF900C94BC031F93CF93DF93B4
:10088000EC01162F472FBC0188E00E941904BE011D
:100890006F5F7F4F412F88E0DF91CF911F910C94C4
:1008A0001904DF92EF92FF920F931F93CF93DF9380
:1008B000F82EE62ED72EEA01890160E08091E0044F
:1008C0000E94BC038D2D0E9414048E2D0E941404DE
:1008D0008F2D84600E941404209749F00C0F1D1F77
:1008E000C017D107B1F089910E941404F9CFD0E06C
:1008F000C0E0C017D10769F03399FECF4298429803
:1009000042984298429889B1429A0E9414042196D2
:10091000F0CF61E08091E004DF91CF911F910F91C2
:10092000FF90EF90DF900C94BC031EBC0DB407FE4B
:10093000FDCF8EB508950F931F93CF93DF93182F9C
:10094000062FC0EED4E060E088810E94BC0380E006
:100950000E941404802F0E941404812F0E9414040A
:100960000E949504182F61E088810E94BC03812FAA
:10097000DF91CF911F910F9108950F931F93CF9304
:100980008C01BC0188E00E949B04C82FB8016F5FF6
:100990007F4F88E00E949B042C2F30E0322F2227CB
:1009A000820F932F911DCF911F910F910895482F82
:1009B00061E070E088E00E94190461E070E088E086
:1009C0000E949B048111F9CF0895CF92DF92EF929C
:1009D000FF920F931F93CF93DF93EC018B0188E27B
:1009E00090E00E94BD047C0160E08091E0040E94E0
:1009F000BC038F2D0E9414048E2D0E94140488E1E4
:100A00000E9414046E01C00ED11E209759F58FEF7D
:100A10008AB9D0E0C0E0C017D10771F00E949504F8
:100A20003199FECF8BB98BB9409840984098409847
:100A30004098409A2196EFCF1BB81AB861E0809198
:100A4000E0040E94BC03B8016E0D7F1D88E290E0B7
:100A5000DF91CF911F910F91FF90EF90DF90CF909A
:100A60000C943D04CC16DD0649F30E94950489934D
:100A7000F9CF2FEF2AB93199FECF8BB98BB94098B6
:100A80004098409840984098409A3199FECF9BB941
:100A90009BB940984098409840984098409A1BB81D
:100AA0001AB808952FEF2AB93199FECF1BB81BB899
:100AB00040984098409840984098409A0197A1F7F4
:100AC0001BB81AB808958091140490911504B0E0F1
:100AD000A0E029E0880F991FAA1FBB1F2A95D1F714
:100AE0008093060490930704A0930804B09309042C
:100AF0000895823009F180E790911604892390E0EF
:100B0000B0E0A0E02CE0880F991FAA1FBB1F2A9518
:100B1000D1F7409114045091150470E060E0842BEB
:100B2000952BA62BB72B8093060490930704A093D4
:100B30000804B0930904089580EFDECF262F30E03B
:100B400044E0359527954A95E1F72A3050F4205D29
:100B5000FC0120876F706A3030F4605DFC016187B2
:100B60000895295CF5CF695CF9CF3399FECF42989F
:100B7000429842984298429889B1429A0895CF93F8
:100B80000E94B505809316040E94B505C82F0E94E7
:100B9000B505982F8C2F9093D1018093D0010E949E
:100BA000B505C82F0E94B505982F8C2F909315047A
:100BB00080931404CF9108953199FECF9FEF9AB995
:100BC0008BB98BB940984098409840984098409A8B
:100BD0001BB81AB8089580E00E94DC0580911404C7
:100BE00090911504029720F01092150410921404AD
:100BF00080911404880F10921404809315048FEFD1
:100C00008AB990E080E03199FECFE0911404F09130
:100C10001504E80FF91FE859FF4FE491EBB9EBB960
:100C200040984098409840984098409A0196811585
:100C300022E0920741F71BB81AB808958091160474
:100C400087FF09C080910A04811108C088E20E94D0
:100C5000DC0580E0089580910504F6CF81E00895D9
:100C60008EBD0DB407FEFDCF8EB508951F93CF93B3
:100C7000DF930E940804EB018FEF0E943006182FCB
:100C80008F3F39F00E9408046C1B7D0B643F71405C
:100C900098F381E090E01F3F11F090E080E0DF9159
:100CA000CF911F9108959C013E5FFC0140814EBD94
:100CB0000DB407FEFDCFFC0141814EBD0DB407FE12
:100CC000FDCF02968217930781F78FEF0E943006BF
:100CD0008FEF0E9430068FEF0E943006282F2F7171
:100CE00081E090E0253011F090E080E0089585B13A
:100CF000876085B98FEF0C943006CF93DF9385B171
:100D000090912004911111C09BEF892385B98FEF39
:100D10000E9430060E943606EC01892B41F40E94A5
:100D20007706CE01DF91CF9108959DEFEECFC1E020
:100D3000D0E0F7CFFF920F931F93CF93DF93C82F8D
:100D4000D42F152F062FF72E87FF09C040E050E063
:100D5000BA0187E30E949A06823048F5CF77CC30FB
:100D600061F58C2F80640E9430068F2D0E94300622
:100D7000802F0E943006812F0E9430068D2F0E9406
:100D8000300685E9CC2321F087E8C83009F081E0FE
:100D90000E943006CC3019F48FEF0E943006CAE072
:100DA0008FEF0E94300687FF02C0C150C9F7DF9164
:100DB000CF911F910F91FF9008950E9477060E9496
:100DC0007D06892B71F68FEFF2CFCF92DF92EF92F3
:100DD000FF920F931F93CF93DF93082FD92EE90132
:100DE0008091200490E0FC01ED5DFE4F208120FD0C
:100DF00063C08E529E4FFC01808184FD07C089E054
:100E0000440F551F661F771F8A95D1F711E1C23035
:100E1000D10508F012E1812F0E949A06811119C0B4
:100E2000CC24CA940E9408047B018FEF0E943006F4
:100E30008F3FF9F40E9408046E197F09683C710520
:100E4000A4F3123131F440E050E0BA018CE00E948A
:100E50009A060E94770681E090E0CD2B09F480E0AD
:100E6000DF91CF911F910F91FF90EF90DF90CF9086
:100E700008958E3F31F7E02FFD2D7F018EEFF81A98
:100E8000CEBC0DB407FEFDCF8EB58083CEBC0DB4B5
:100E900007FEFDCF8EB581833296EE16FF0681F7F1
:100EA0008FEF0E9430068FEF0E9430060E2DDF2C50
:100EB000219709F0B7CFC5CF83E090E0D1CF4F9213
:100EC0005F926F927F92AF92BF92CF92DF92EF923A
:100ED000FF920F931F93CF93DF9300D000D0CDB735
:100EE000DEB7E0912004F0E0ED5DFE4F808181FFF0
:100EF00014C080810F900F900F900F90DF91CF91D1
:100F00001F910F91FF90EF90DF90CF90BF90AF9027
:100F10007F906F905F904F900895F89497E095B907
:100F200084B1876084B995B980E58CBD81E08DBDC1
:100F300084B18F6284B98FE385B978948CB583606E
:100F40008CBD1AE08FEF0E9430061150D9F705E0F2
:100F500040E050E0BA0180E00E949A06182F81110B
:100F600004C00150A9F7F12C85C08130E1F70E943F
:100F700008042B016B014AEA51E060E070E088E070
:100F80000E949A06813009F048C08E010F5F1F4F02
:100F90005E0185E0A80EB11C78018FEF0E9430063B
:100FA000F70181937F01EA15FB05B9F78B81813049
:100FB000D1F68C818A3AB9F60E9408046C197D0931
:100FC000683E73404CF440E050E060E070E489EA31
:100FD0000E949A068111F0CF0E94080464197509D5
:100FE000683E73400CF0BFCF40E050E0BA018AE3A6
:100FF0000E949A068111B7CF8FEF0E943006F80148
:1010000081938F01EE16FF06B9F7898128E0F22E51
:1010100086FF30C088E1F82E2DC040E050E0BA01D4
:1010200089EA0E949A06FF24F394823018F494E02F
:10103000F92E19EA0E9408046C197D09683E734074
:1010400044F440E050E0BA01812F0E949A068111D9
:10105000F1CF0E94080464197509683E73400CF0D2
:1010600082CF40E052E060E070E080E10E949A06AA
:10107000811179CFE09120040E2F10E0F801EE529B
:10108000FE4FF0820E947706F801ED5DFE4F8081F1
:10109000FF2061F08E7F80838CB58C7F8CBD2C9877
:1010A000E0912004F0E0ED5DFE4F23CF816080836E
:1010B000F6CFCF93DF93EC01E881F981309779F097
:1010C000DF019D012F5F3F4F8C918132E0F0D9010C
:1010D0008A33B9F7208180ED820F8A3018F08FEFC4
:1010E0009FEF0EC03296AE17BF07C9F7022E000C55
:1010F000330BC901C097823091058CF7B983A8835F
:10110000DF91CF91089590E080E0FACF0F931F9385
:10111000FC019A01AB01225031094109510983892F
:101120009489A589B6890297A109B10928173907B9
:101130004A075B0778F4A185B2850E947C1F07A14E
:1011400010A521A532A5600F711F821F931F1F914B
:101150000F91089560E070E0CB01F9CFFC0162814E
:10116000738190E080E0982F872F762F662721816A
:10117000622B982F872F762F66272081622B089568
:101180000F931F93CF93DF9300D0CDB7DEB78C01C1
:101190007A836983CE0101960E94590897FD1EC08B
:1011A000880F991FFC01E45EFB4F0190F081E02D58
:1011B000309709F010820115110511F0F801108225
:1011C000845E9B4FFC011183008390E080E00F90D0
:1011D0000F90DF91CF911F910F9108958BE090E0D8
:1011E000F6CFCF92DF92EF92FF920F931F93CF93A0
:1011F000DF938C016A017B01E9018091200490E07A
:10120000FC01ED5DFE4F208120FD65C0208122FDA7
:1012100065C08E529E4FFC01808184FD07C099E01D
:10122000CC0CDD1CEE1CFF1C9A95D1F7C130D1050A
:1012300059F5B701A60188E10E949A06882391F02A
:10124000C1E0D0E00E94770681E090E0CD2B09F468
:1012500080E0DF91CF911F910F91FF90EF90DF9091
:10126000CF9008950E943606892B51F38EEF0E948D
:101270003006C8010E94530631E020E0892B09F0B6
:1012800030E0C32FD22FDECF8C7031F0AE0170E092
:1012900060E087E90E949A06B701A60189E10E94F1
:1012A0009A068111CFCF0E943606892B59F08CEF18
:1012B0000E943006C8010E945306892B19F01E5F58
:1012C000219789F70E943606892B09F4B9CF8DEF53
:1012D0000E943006B7CF83E090E0BBCF82E0FCCF26
:1012E0008F929F92AF92BF92CF92DF92EF92FF9236
:1012F0000F931F93CF93DF93EC014BA55CA56DA5D6
:101300007EA58C01015D1F4F89818093200421E01F
:1013100030E0C8010E94F108892B61F51B824BA5C2
:101320005CA56DA57EA58F89988DA98DBA8DCF8C72
:10133000D8A0E9A0FAA04A015B018C189D08AE086C
:10134000BF0875016401C816D906EA06FB0678F4E1
:101350002A81223061F4298120932004480F591FEB
:101360006A1F7B1F21E030E0C8010E94F10890E075
:1013700080E002C081E090E0DF91CF911F910F915A
:10138000FF90EF90DF90CF90BF90AF909F908F90A5
:101390000895FC01238121110C94700990E080E0F4
:1013A0000895CF92DF92EF92FF920F931F93CF9306
:1013B000DF93EC016A017B018BA59CA5ADA5BEA5C1
:1013C00010E000E08C159D05AE05BF05E9F0CE01EB
:1013D0000E94C9098C01892BB9F48981809320046A
:1013E00021E030E0B701A601CE018F960E94E5060C
:1013F000892B31F001E010E0CC24CA94DC2C76017A
:10140000CBA6DCA6EDA6FEA6C801DF91CF911F9169
:101410000F91FF90EF90DF90CF900895AF92BF9221
:10142000CF92DF92EF92FF920F931F93CF93DF93B0
:10143000423051056105710508F4A9C0FC0103891A
:10144000148925893689401751076207730708F008
:101450009EC06A017B01EC018081823009F457C093
:10146000833009F471C0813009F091C08A0116956A
:101470000795040F151FC801892F99278695478D59
:1014800050A161A172A1480F591F611D711DCF01AB
:101490000E94D109892B71F06FEF7FEFCB01DF91B3
:1014A000CF911F910F91FF90EF90DF90CF90BF9061
:1014B000AF9008955801FFEFAF1ABF0A1170FE01F7
:1014C000E00FF11F17A5C501892F992786954F8D2C
:1014D00058A169A17AA1480F591F611D711DCE0144
:1014E0000E94D109892BC1F681E0B822CA0DDB1D0B
:1014F0006FA5762F612FC0FE08C0E4E07695679552
:10150000EA95E1F790E080E0CACF7F70FBCF7727C4
:101510006F2D5E2D4D2D878D90A1A1A1B2A1480FF9
:10152000591F6A1F7B1FCF010E94D109892B09F027
:10153000B3CFCC0CDD1CE894C0F8E1E0DE22CC0D8A
:10154000DD1D6FA578A9DECF878D90A1A1A1B2A1E5
:1015500037E076956795579547953A95D1F7480FB7
:10156000591F6A1F7B1FCF010E94D109892B09F0E7
:1015700093CFAF96C601880F991F880F991F8C7F54
:1015800091708C0F9D1F0E94AE089F7088CF61E004
:1015900070E080E090E083CF8F929F92AF92BF92F5
:1015A000CF92DF92EF92FF920F931F93CF93DF932F
:1015B0008C01FC01C081D18116861786108A118AA0
:1015C000C680D780E084F184C114D104E104F10421
:1015D000D1F58881833040F08BA19CA1ADA1BEA143
:1015E0000097A105B10589F58F819885892B79F43C
:1015F00082E090E0DF91CF911F910F91FF90EF90EB
:10160000DF90CF90BF90AF909F908F9008958BA167
:101610009CA1ADA1BEA1F801868B978BA08FB18F45
:10162000F801C28AD38AE48AF58A86899789A08DCF
:10163000B18D892B8A2B8B2BD9F2AF96D38FC28F8A
:1016400090E080E0D7CFD701C60189849A84B12C7D
:10165000A12C29E0880C991CAA1CBB1C2A95D1F747
:101660006C017D01B701A60181149104A104B104AC
:1016700049F0CE010E948608F801668B778B808F37
:10168000918FCECFF801808191810E940E0A6B016B
:101690007C01FFEFCF16DF06EF06FF0689F082E040
:1016A000C816D104E104F10408F4A2CF8B899C8907
:1016B000AD89BE89C816D906EA06FB0698F298CF0E
:1016C00081E090E097CF2F923F924F925F926F927E
:1016D0007F928F929F92AF92BF92CF92DF92EF92C2
:1016E000FF920F931F93CF93DF9300D000D000D0D1
:1016F000CDB7DEB79E838D836A017B012801390156
:10170000DC018C91823009F497C0833009F4B6C0B3
:10171000813009F0F4C08A0116950795040F151F52
:10172000C801892F992786955F964D915D916D919E
:101730007C919297480F591F611D711DCD010E9428
:10174000D1095C01892B09F056C02D803E80BFE293
:101750002B0E311C4801EFEF8E1A9E0A1170F10119
:10176000E00FF11F842DA701960121703327442734
:10177000552729833A834B835C83C0FE07C0808151
:101780008F7040E1449E90011124822B808381E080
:10179000AD81BE8113968C9313975F964D915D91A9
:1017A0006D917C919297C401892F99278695480F56
:1017B000591F611D711DCD010E94D1095C01892B4A
:1017C000D1F4B1E09B22F101E80DF91D29813A81A4
:1017D0004B815C81232B242B252B39F164E07694FB
:1017E0006794579447946A95D1F7408281E0AD8120
:1017F000BE8113968C93C50126960FB6F894DEBF72
:101800000FBECDBFDF91CF911F910F91FF90EF9051
:10181000DF90CF90BF90AF909F908F907F906F9010
:101820005F904F903F902F9008958081807F352D5D
:101830003F70432E482AD9CF77276F2D5E2D4D2D2F
:10184000ED81FE81878D90A1A1A1B2A1480F591F02
:101850006A1F7B1FCF010E94D1095C01892B59F6B9
:10186000ED81FE81BF96CC0CDD1CE894C0F821E030
:10187000D222EC0DFD1D00835182B8CFED81FE8197
:10188000878D90A1A1A1B2A137E076956795579574
:1018900047953A95D1F7480F591F6A1F7B1FCF0113
:1018A0000E94D1095C01892B09F0A5CFFFE07F22BE
:1018B0008D819E818F96CC0CDD1CCC0CDD1C2CEF19
:1018C000C22221E0D222C80ED91EC6010E94AE0853
:1018D000662777278827907F462A572A682A792AF9
:1018E000D6014C9211965C92119712966C921297B7
:1018F00013967C9281E0ED81FE8183837CCF82E030
:10190000A82EB12C78CF4F925F926F927F928F92D8
:101910009F92AF92BF92CF92DF92EF92FF920F937E
:101920001F93CF93DF938C012A013B01FC01C081FF
:10193000D181411451046104710409F58B849C84A4
:10194000AD84BE8481149104A104B10409F44DC096
:101950008B899C89AD89BE8988169906AA06BB0623
:1019600008F043C08F859889A989BA89892B8A2B69
:101970008B2B09F03FC0C12CD12C760116C0CE01B3
:101980000E940E0A6B017C01F2E0CF16D104E10443
:10199000F10408F40CC12FEFC216D206E206F206DB
:1019A000B9F4CC24CA94DC2C7601C701B601DF91CE
:1019B000CF911F910F91FF90EF90DF90CF90BF904C
:1019C000AF909F908F907F906F905F904F90089511
:1019D0008B899C89AD89BE8953014201C816D906FD
:1019E000EA06FB0608F0BECFE0CF812C912C540113
:1019F0008394B8CF84149504A604B70409F041C0B9
:101A0000750164018FEFC81AD80AE80AF80A8B89B1
:101A10009C89AD89BE89C816D906EA06FB0628F05E
:101A200022E0C22ED12CE12CF12CB701A601F80145
:101A3000808191810E940E0A6130710581059105B6
:101A400009F4B5C06F3FFFEF7F078F079F0709F4C9
:101A5000A8CF672B682B692B09F44DC08B859C851B
:101A6000AD85BE8582309105A105B10550F04B8949
:101A70005C896D897E8984179507A607B70708F4E6
:101A800078C0750164012FEFC21AD20AE20AF20A85
:101A90008B899C89AD89BE89C816D906EA06FB06E2
:101AA00060F082E088169104A104B10408F463CFC9
:101AB00092E0C92ED12CE12CF12CB701A601F8013E
:101AC000808191810E940E0A611571058105910541
:101AD000B9F0613071058105910509F468C06F3F67
:101AE0007F4F8F4F9F4F09F45CCFC814D904EA048D
:101AF000FB0449F640CFC114D104E104F10409F21A
:101B000022E0C216D104E104F10408F450C08B892C
:101B10009C89AD89BE89C816D906EA06FB0608F07D
:101B200046C00FEF1FEF9801B701A601CE010E943A
:101B3000630B0097C9F54114510461047104E1F489
:101B4000CB86DC86ED86FE868F859889A989BA8941
:101B50004B895C896D897E894250510961097109FF
:101B6000481759076A077B0738F58C8181608C8399
:101B70001CCF4C015D0185CF82E048165104610401
:101B80007104A8F08B899C89AD89BE8948165906D5
:101B90006A067B0660F497018601B301A201CE01BB
:101BA0000E94630B009761F2019709F4FACEC12CF1
:101BB000D12C7601C394F9CE0197A109B1098F8781
:101BC000988BA98BBA8BD1CF4F925F926F927F92F5
:101BD0008F929F92AF92BF92CF92DF92EF92FF923D
:101BE0000F931F93CF93DF9300D000D000D0CDB7D9
:101BF000DEB76B017C01CE0101960E948C028C0144
:101C0000892B09F0F4C00091300410E00115110592
:101C100009F0EDC080912B0490912C04A0912D042B
:101C2000B0912E048C159D05AE05BF0530F42091B2
:101C30002F0421FD02C06C017D01409031045090C1
:101C40003204609033047090340410923104109286
:101C500032041092330410923404C114D104E1040C
:101C6000F10439F480E090E0DC01C12CD12C760144
:101C700080C0E981FA8181849284B12CA12C39E061
:101C8000880C991CAA1CBB1C3A95D1F7411451042D
:101C90006104710409F48AC081E0481A510861089E
:101CA0007108C701B6016150710981099109A50147
:101CB00094010E945A1F2B833C834D835E83C30192
:101CC000B201A50194010E945A1F8B819C81AD81B4
:101CD000BE8182179307A407B50708F467C0882759
:101CE0009927DC0188199909AA09BB098421952142
:101CF000A621B7218093310490933204A09333043A
:101D0000B0933404C81AD90AEA0AFB0A4091350490
:101D10005091360460913704709138044115510593
:101D20006105710509F0E4C0C12CD12C76018091C8
:101D3000310490913204A0913304B0913404409165
:101D40002B0450912C0460912D0470912E0448179F
:101D500059076A077B0768F480932B0490932C043F
:101D6000A0932D04B0932E0420912F04206420937F
:101D70002F049170AA27BB27892B8A2B8B2BB9F1B3
:101D80008091390490913A04A0913B04B0913C04B5
:101D90008C159D05AE05BF0551F1C0923904D09256
:101DA0003A04E0923B04F0923C0421C040912704A5
:101DB000509128046091290470912A04411551051D
:101DC0006105710509F03FC040E050E0BA0181E2D1
:101DD00094E00E94830CAB01BC01413051056105C8
:101DE0007105E9F482E08093300402E010E0C8015C
:101DF00026960FB6F894DEBF0FBECDBFDF91CF9110
:101E00001F910F91FF90EF90DF90CF90BF90AF9018
:101E10009F908F907F906F905F904F9008954F3F6D
:101E20009FEF59076907790731F481E08093300407
:101E300001E010E0DCCF4093270450932804609326
:101E4000290470932A044093350450933604609318
:101E500037047093380462CFC818D908EA08FB0821
:101E6000880D991DAA1DBB1D8093310490933204E7
:101E7000A0933304B093340480912F0481FF0FC0EA
:101E800081E294E00E94830CAB01BC014115510535
:101E90006105710561F4C12CD12C760137C08091A8
:101EA0002104909122040E940E0AAB01BC014F3F15
:101EB000AFEF5A076A077A0709F4B7CF42305105E6
:101EC0006105710508F48ECFE981FA8183899489CF
:101ED000A589B689481759076A077B0708F082CF9A
:101EE000409335045093360460933704709338045C
:101EF0008091310490913204A0913304B091340464
:101F00008C149D04AE04BF0408F4A6CF8091310464
:101F100090913204A0913304B09134048C0D9D1D36
:101F2000AE1DBF1D8093310490933204A0933304FF
:101F3000B0933404D701C6019170AA27BB27892B1F
:101F40008A2B8B2B09F4F0CE89819A810E94860816
:101F5000611571058105910509F444CF29E0F694D6
:101F6000E794D794C7942A95D1F7C60ED71EE81EDA
:101F7000F91EDDCE2F923F924F925F926F927F9229
:101F80008F929F92AF92BF92CF92DF92EF92FF9289
:101F90000F931F93CF93DF9300D000D0CDB7DEB760
:101FA0004C017C836B83FB0111821082CE01019670
:101FB0000E948C026C01892B09F014C1C09030047E
:101FC000D12CC114D10409F00DC180912F0480FFE0
:101FD0005BC180912B0490912C04A0912D04B091B1
:101FE0002E04409131045091320460913304709179
:101FF0003404841B950BA60BB70B8115F2E09F07E9
:10200000A105B10508F03BC17C01A7C04091350492
:102010005091360460913704709138048091210406
:10202000909122040E940E0AD1C06F3F3FEF7307C8
:102030008307930739F481E080933004CC24C39460
:10204000D12CD0C06093350470933604809337044C
:102050009093380429803A80409135045091360499
:102060006091370470913804C1010E94860861159F
:1020700071058105910509F4AFC02B013C014A0CA3
:102080005B1C611C711C8701012F1127069501152E
:10209000110509F4BFC0F101818592859501200FDA
:1020A000311F8217930718F48C010A191B09F101DB
:1020B0008181809320040115110509F4BCCF98019A
:1020C000B301A201C4010E94E506892B09F0B3CF38
:1020D000E981FA8183818823E9F083A594A5A5A5E8
:1020E000B6A584199509A609B709A80170E060E0B2
:1020F00084179507A607B70768F4DC01BA2FAA274B
:10210000BB0FA80DB91DBF9680E092E001900D9223
:102110000197E1F7102F0027110FE01AF10AEB8168
:10212000FC8180819181800F911F91838083800E3B
:10213000911E8091310490913204A0913304B091AA
:102140003404800F911FA11DB11D80933104909321
:102150003204A0933304B0933404E114F10409F47D
:1021600041C08091310490913204A0913304B09128
:102170003404AC01BD01517066277727452B462BEF
:10218000472B09F04FC0E981FA81A184B28421E094
:10219000A21AB108AC01BD01E9E0769567955795A3
:1021A0004795EA95D1F7A422B522A114B10409F00C
:1021B00051CF892B8A2B8B2B09F028CF60912704D4
:1021C000709128048091290490912A04623071054D
:1021D0008105910508F029CF82E08093300452E018
:1021E000C52ED12CC6010F900F900F900F90DF914C
:1021F000CF911F910F91FF90EF90DF90CF90BF9004
:10220000AF909F908F907F906F905F904F903F9096
:102210002F9008954092390450923A0460923B0402
:1022200070923C048091310490913204917020E0CE
:1022300032E0281B390B87012E153F0508F4890170
:102240004091390450913A0460913B0470913C04F0
:1022500089819A810E94D109892B09F0ECCE69818C
:102260007A81615D7F4F8091310490913204917049
:10227000680F791FA801C4010E94A91F4ECF80E0FA
:1022800092E0A0E0B0E0C0CE87E0C82ED12CAACF6B
:102290000C94441F0F931F93CF93DF93EC01FC0129
:1022A000E35DFD4F008111819FA59B3E21F0985E6B
:1022B000923008F04DC005352AEA120761F448E073
:1022C00050E067EB71E0CE018F579F4F0E949C1F3B
:1022D000892B09F447C08AAD9BAD9C01215031097F
:1022E00028233923232BA1F58115924089F58CAD44
:1022F000882371F190E09C012150310982239323BE
:10230000892B31F58DAD9EAD892B11F18FAD8150AB
:10231000990B0297E8F4FE01E05CFF4F8081918108
:10232000892BB1F03296808191818038910550F4EB
:10233000CE01815B9F4F0E94AE08611571058140FF
:10234000910530F0CB5BDF4F88819981892B51F467
:1023500005351A4A51F083E090E0DF91CF911F914B
:102360000F91089590E080E0F8CF82E090E0F5CF03
:102370002F923F924F925F926F927F928F929F9295
:10238000AF92BF92CF92DF92EF92FF920F931F9383
:10239000CF93DF9300D000D0CDB7DEB7FC01208112
:1023A00031813C832B83C684D784E088F18830E276
:1023B000C30ED11CE11CF11CC114D10480E2E8065B
:1023C000F10420F0168A178A108E118E868997895B
:1023D000A08DB18D0097A105B105B1F13B018F0131
:1023E000B701A601517066277727452B462B472B4F
:1023F00009F0DEC00196A11DB11D868B978BA08FC1
:10240000B18F4289538964897589EB81FC814115BB
:10241000510561057105D9F487819085B0E0A0E090
:10242000B701A60135E076956795579547953A959A
:10243000D1F7481759076A077B0708F4B9C0F801B4
:10244000168A178A108E118E84E090E024C0818550
:1024500092850197B0E0A0E04601570129E0B694CB
:10246000A794979487942A95D1F788219921AA2136
:10247000BB21892B8A2B8B2B09F09AC0CF010E949C
:102480000E0A4B015C01F2E08F169104A104B10425
:10249000C8F482E090E00F900F900F900F90DF91C2
:1024A000CF911F910F91FF90EF90DF90CF90BF9051
:1024B000AF909F908F907F906F905F904F903F90E4
:1024C0002F9008952FEF82169206A206B20619F4F5
:1024D00081E090E0E0CFEB81FC8183899489A5893C
:1024E000B68988169906AA06BB0608F451C0672863
:1024F00009F4A5CFF8014289538964897589C80117
:102500000E94830C4B015C0187E090E081149104F0
:10251000A104B10409F4BFCFF1E08F169104A10426
:10252000B10409F4B6CF2FEF82169206A206B206C6
:1025300079F28B819C810E94C909892B49F6B501EA
:10254000A4018B819C810E9486082B013C01EB81B8
:10255000FC8143A654A665A676A6BF96FA83E983B6
:1025600080E092E09C01119221503040E1F7312C43
:10257000212CEB81FC81818592852816390648F152
:10258000EB81FC81818592852816390609F0A0CF60
:10259000F801828A938AA48AB58AB501A4018B8145
:1025A0009C810E948608F801668B778B808F918FC3
:1025B000F801C686D786E08AF18A8B819C818F9646
:1025C00096013170280F391F338F228F90E080E001
:1025D00062CFEB81FC8181818093200421E030E097
:1025E000B301A201420D531D611D711D89819A81A4
:1025F0000E94F108892B21F63FEF231A330AB9CF45
:102600002F923F924F925F926F927F928F929F9202
:10261000AF92BF92CF92DF92EF92FF920F931F93F0
:10262000CF93DF93CDB7DEB7EC970FB6F894DEBF4C
:102630000FBECDBFF0900601F81609F4C7C3282ECF
:1026400021E02F1508F4EFC0CE0101960E948C0204
:10265000892B09F0DEC080912F0486FFD0C0409105
:102660003D0450913E0460913F0470914004898183
:102670009A810E94D109892B09F0CBC0E0914104D5
:10268000F0914204838580628387409127045091B2
:1026900028046091290470912A042091210430912A
:1026A0002204428F538FD9012C91233029F4CB017E
:1026B000AA27BB27848B958B30912B0420912C0467
:1026C00090912D0480912E04348F258F968F878FC3
:1026D000168A178A81E2808F80E5818F128A138A99
:1026E00009811A8181E0F8018383C8010E94700981
:1026F0006C01892B09F07CC0D8018C91833009F0E2
:102700005EC014968C911497813009F058C01196D0
:10271000AC9120E032E0C8018F96FC01A901119232
:1027200041505040E1F725E5F801E35DFD4F20837E
:102730002AEA3196208322E5F80127A720AB21E67B
:1027400021AB31E432AB42E7ED5EFD4F4083319681
:1027500040833196308331962083F8015785408934
:1027600031892289E95EFD4F50833196408331964D
:10277000308331962083F80153854485358526853D
:10278000E55EFD4F5083319640833196308331961C
:102790002083F801438D548D658D768D4F5F5F4F9B
:1027A0006F4F7F4F43A754A765A776A7A093200438
:1027B00021E030E00E94F108D80114961C92D80163
:1027C0001196EC91E0932004F0E0ED5DFE4F8081E6
:1027D000CC24C394D12C80FD0BC00E947D0631E037
:1027E00020E0892B09F030E0C32ED22E0E9477061C
:1027F00080912F048F7B80932F04CD2851F4CE013C
:1028000001960E948C02892B21F4109222041092CE
:10281000210463E071E0FF2011F060E071E090E0DE
:1028200080E00E94C0088FEF80930601B1E0B215EE
:1028300008F4CAC2211040C0E3E0F1E0F8ABEFA712
:102840006FA578A986ED91E00E94C008892B91F5CB
:1028500087E091E0222011F085E191E09AA789A715
:10286000CE0189960E94590897FD1AC0FC01EE0F0F
:10287000FF1FE45EFB4F408051804114510481F002
:10288000D2012C912223E9F01196EC91E0932004DF
:10289000F0E0ED5DFE4F208120FD13C022FF13C24A
:1028A00010922204109221046FA578A990E080E094
:1028B0000E94C00880E08BC220E031E038AB2FA737
:1028C000BFCFF20110828183809320040E945F07B2
:1028D000857031F7D20113961C928FEF9FEFDC01C8
:1028E000F20183A794A7A5A7B6A740E050E0BA01DC
:1028F000C2010E94D109892B99F6C2010E944A1196
:102900008230910509F044C05201FBE0AF1AFEEF9E
:10291000BF0A8E010F5F1F4F62012BECC21A2DEF11
:10292000D20A7801C5010E94AE08D7016D937D934C
:102930008D939D937D01B0E1AB0EB11CAC14BD0431
:1029400089F77801E0E1EE0EF11C88248A94982C36
:102950005401D8014D915D916D917D918D0141158D
:1029600051056105710581F0F201138283A694A6D9
:10297000A5A6B6A6C2010E94D109892B29F4C201DD
:102980000E944A11029738F00E151F0511F788CFE3
:10299000029708F085CFF20182AD93AD8115924088
:1029A00009F07ECFF201EB5BFF4F80809180B12C6C
:1029B000A12C8114910439F4C2018D5A9F4F0E94B9
:1029C000AE084B015C01D2019B962D913D914D913A
:1029D0005C919E972BA73CA74DA75EA7F201878A23
:1029E000908EA18EB28E07AD02838FEF800F823062
:1029F00008F056CF14AD812F90E092878187009721
:102A000009F44ECF9C012150310982239323892B55
:102A100009F046CFE05CFF4F6080718018967C9291
:102A20006E921797C3018F709927892B09F038CFC1
:102A30003296C080D180F12CE12CC114D10439F43C
:102A4000C201815B9F4F0E94AE086B017C01D201E5
:102A5000DD96ED91FC91309709F422CFA02FB0E0E4
:102A6000A50194010E947C1F6DAB7EAB8FAB98AF2C
:102A70009F0150E040E029AF3AAF4BAF5CAFC301DC
:102A8000B4E096958795BA95E1F7280F391F411D57
:102A9000511DDA01C9012DA93EA94FA958AD280F32
:102AA000391F4A1F5B1F29AB3AAB4BAB5CABC2165D
:102AB000D306E406F50608F4F3CEC701B601621B9F
:102AC000730B840B950B212F30E050E040E00E9407
:102AD0005A1F211531054105510509F4E1CE263F64
:102AE0008FEF380748078FE0580708F0D9CE03E08A
:102AF00010E0263FBFEF3B074105510550F402E0CF
:102B000010E0263FFFE03F074105510510F401E0CA
:102B100010E069017A0192E0C90ED11CE11CF11CA0
:102B2000D2015396CD92DD92ED92FC9256972BA551
:102B30003CA54DA55EA55B962D933D934D935C936F
:102B40005E9789AD9AADABADBCAD280F391F4A1F5A
:102B50005B1F29AF3AAF4BAF5CAFD2015F962D93AD
:102B60003D934D935C9392974BA55CA56DA57EA577
:102B700089A99AA9ABA9BCA9480F591F6A1F7B1F35
:102B8000D20197964D935D936D937C939A97033002
:102B9000110509F035C1F201E75AFF4F808191819B
:102BA000892B09F07DCE672809F07ACEC201855ABB
:102BB0009F4F0E94AE08F20163A374A385A396A35E
:102BC000A2E0CC0CDD1CEE1CFF1CAA95D1F72FEF68
:102BD000C20E21E0D21EE11CF11C59E0F694E794EC
:102BE000D794C7945A95D1F78C149D04AE04BF04B2
:102BF00008F456CE8FEF9FEFDC01F2018787908BB0
:102C0000A18BB28B83879487A587B68780E884835E
:102C10000330110509F048C0E15AFF4F80819181CE
:102C2000019709F041C04BA55CA56DA57EA54F5F3E
:102C30005F4F6F4F7F4FC2010E94D109892BA1F5D1
:102C4000D20114961C92F201E35DFD4F80819181C7
:102C500085359A4A49F5C2018F960E94AE086235C1
:102C600072458146914401F5C2018D5E9D4F0E94DF
:102C7000AE086237724781449146B1F4C201895E61
:102C80009D4F0E94AE08D2011F966D937D938D9348
:102C90009C935297C201855E9D4F0E94AE08F2013F
:102CA0006387748785879687D2010C938091D401BE
:102CB0009091D50101969093D5018093D4011696F9
:102CC0009C938E9315975A824982E9A5FAA58F01A4
:102CD00081918F32E1F38C35D1F31F8218861986EA
:102CE0001A86F80180814201FFE28F0E911C80322A
:102CF00008F00BC180E888A7CE0101960E94CC0A9B
:102D0000892B09F0CDCD88A587FDCACD8D81817134
:102D100009F0C6CDF20183A594A5A5A5B6A580931B
:102D20003D0490933E04A0933F04B0934004EB8D88
:102D3000FC8DF0934204E0934104428D538D70E08A
:102D400060E0D2018C91833059F40489158930E018
:102D500020E0980111270027402B512B622B732B69
:102D600040932704509328046093290470932A0405
:102D7000CF014C960E94AE0860932B0470932C04F4
:102D800080932D0490932E045092220440922104AB
:102D9000F20185819681909324048093230483E03B
:102DA00080932F04109230041092390410923A0448
:102DB00010923B0410923C041092310410923204A1
:102DC00010923304109234042092060181E0EC96B4
:102DD0000FB6F894DEBF0FBECDBFDF91CF911F912C
:102DE0000F91FF90EF90DF90CF90BF90AF909F90AA
:102DF0008F907F906F905F904F903F902F900895AD
:102E0000672809F44DCD89AD9AADABADBCAD2DA908
:102E10003EA94FA958AD820F931FA41FB51FF20101
:102E200083A394A3A5A3B6A30230110529F4CC0C67
:102E3000DD1CEE1CFF1CCBCEA3E0B0E0A701960189
:102E40000E947C1F9695879577956795F1E0CF2234
:102E5000DD24EE24FF24C60ED71EE81EF91EB7CED1
:102E60002EE2821709F4C2C0EA14FB0408F018CD60
:102E700087FF06C0E82FEF77F0E0EB5DFE4F308074
:102E8000632D70E080EC91E00E94B91F892B09F05E
:102E900007CD8FE9830D8A3110F430EE330EEDE16A
:102EA000F0E0EC0FFD1FEE0DFF1D3082A7014F5F1C
:102EB0005F4F7A013AC080E065C034E0C32ED12C68
:102EC00088A5CD2809F0ECCC82FD1DCF8D8184FF33
:102ED000E7CCEF85F889F170E80DF91D428D538D2F
:102EE00070E060E0D2018C91833059F48489958937
:102EF000B0E0A0E0DC0199278827482B592B6A2BEA
:102F00007B2B4F83588769877A874BE050E060E2DC
:102F100070E0CE014D960E94B21F3801F12CE12CD9
:102F2000D12CC12C48E0A42EB12C2FEFC21AD20A0A
:102F3000D3018D913D01382EB0E2B81788F4EFE24D
:102F40008E1719F0FCE58F138BCFF801EC0DFD1DEA
:102F50006F01C01AD10A91919F32D1F39C35C1F310
:102F6000EF2809F49DCC9D8D953E11F455E05D8FC1
:102F70000C0D1D1D813228F0D8018C9181320CF08E
:102F80009ACF84E088A7E980FA80CE0101960E945A
:102F9000CC0A6C01892B09F093CF4F89588D698D2C
:102FA0007A8DC7010E94D1096C01892B09F088CF65
:102FB0008B8D9C8DFC012081222309F47ECF2385FB
:102FC000322F3F733D8323FD0AC04BE050E0BE012A
:102FD000635E7F4F0E949C1F892B09F471CF70E0C4
:102FE00060E0CE0101960E94B811D3CFEBE0AE169F
:102FF000B10409F455CC88E0E82EF12C9BE0A92E11
:10300000B12C93CFCF92DF92FF920F931F93CF9368
:10301000DF93CDB7DEB7C250D2400FB6F894DEBF13
:103020000FBECDBF80E00E94DC05FE0131966E012F
:103030008FEFC81A8DEFD80A0E2FFF2E3399FECFCF
:103040004298429842984298429889B18193429A14
:10305000EC15FD0599F78091160487FF30C010919B
:103060000A04113028F0133090F081E0133081F120
:10307000CE5FDD4F0FB6F894DEBF0FBECDBFDF9140
:10308000CF911F910F91FF90DF90CF900895812FE6
:103090000E9479054091060450910704609108044C
:1030A0007091090481E0113009F080E080932004E0
:1030B00021E030E0802F9F2D0E94F108D9CF809130
:1030C00005048130A8F28330E0F0833089F680E097
:1030D0000E940013882361F20E9463056091060438
:1030E0007091070480910804909109040E94E40DF6
:1030F000892B09F0BDCFB601802F9F2D0E945F1A4A
:10310000B7CF0E9479054091060450910704609161
:1031100008047091090410922004CACF1F93CF9322
:10312000DF93CDB7DEB7C250D2400FB6F894DEBF02
:103130000FBECDBF182F0E94BF051123C1F0809193
:10314000160487FF11C080910A04811110C00E94EB
:10315000EB05CE5FDD4F0FB6F894DEBF0FBECDBFDF
:10316000DF91CF911F91089580910504EECF0E94C9
:103170001E06882371F38091160487FF42C01091C8
:103180000A04113030F01330F8F081E0133009F404
:1031900042C080E00E94DC058FEF8AB9FE013196C3
:1031A0009E012F5F3D4F3199FECF81918BB98BB935
:1031B00040984098409840984098409AE217F3070A
:1031C00091F71BB81AB8C5CF812F0E94790540919D
:1031D000060450910704609108047091090481E08D
:1031E000113009F080E08093200421E030E0CE012E
:1031F00001960E94E506892B61F287E20E94DC05B8
:10320000A8CF80910504813020F2833048F18330CB
:1032100009F0BFCF80E00E940013882371F30E9461
:1032200063056091060470910704809108049091F1
:1032300009040E94E40D892B01F7BE016F5F7D4FE9
:10324000CE0101960E94BA0F892BB9F6CF5FDD4FF0
:1032500088819981C150D2408115924071F699CFF1
:103260000E9479054091060450910704609108047A
:103270007091090410922004B8CF8091160487FF42
:103280000FC080910A048130C8F0833030F0833061
:1032900009F008958FEF0E94001310920A04089518
:1032A00080910504813050F0833030F0833009F094
:1032B00008958FEF0E940013109205040895CF9394
:1032C0008091160487FF36C080910A0481111FC0C7
:1032D000C0911704CF3F81F480910504811117C07C
:1032E000109220040E945F07811111C082E0809338
:1032F0000A04809305040BC0C1110BC0C1E0C09348
:1033000020040E945F07811102C0C0930A04CF917C
:1033100008958FEF0E9400136C2F85E191E00E94C9
:103320009E0581E00E940013882389F383E0809347
:103330000A04EDCF809105048111E9CFC0911804F2
:1033400080910A04CF3F51F2C11108C010922004AD
:103350000E945F078111DBCF81E0CBCF8FEF0E940E
:1033600000136C2F87E091E00E949E0580E00E9490
:103370000013882361F283E0BCCF1F920F920FB637
:103380000F9211242F933F934F935F936F937F93EB
:103390008F939F93AF93BF93EF93FF9383E494E056
:1033A0000E943403FF91EF91BF91AF919F918F9154
:1033B0007F916F915F914F913F912F910F900FBE31
:1033C0000F901F9018951F920F920FB60F92112415
:1033D0002F938F939F93EF93FF93E0915304F0917A
:1033E00054048081E0915904F0915A0482FD1BC07D
:1033F000908180915C048F5F8F7320915D048217B0
:1034000041F0E0915C04F0E0ED5BFB4F958F809321
:103410005C04FF91EF919F918F912F910F900FBEC0
:103420000F901F9018958081F4CF1F920F920FB6C6
:103430000F9211242F933F938F939F93AF93BF933A
:103440008091100490911104A0911204B091130482
:1034500030910F0423E0230F2D3768F126E8230F66
:103460000296A11DB11D20930F0480931004909328
:103470001104A0931204B093130480910B04909153
:103480000C04A0910D04B0910E040196A11DB11D74
:1034900080930B0490930C04A0930D04B0930E043E
:1034A000BF91AF919F918F913F912F910F900FBE40
:1034B0000F901F9018950196A11DB11DD4CF2F928A
:1034C0003F924F925F926F927F928F929F92AF92B4
:1034D000BF92CF92DF92EF92FF920F931F93CF9301
:1034E000DF9300D000D0CDB7DEB75C017C836B8367
:1034F000FB0111821082CE0101960E948C026C01A8
:10350000892B09F063C1C0903004D12CC114D104BF
:1035100009F05CC180912F0481FFCAC18091310400
:1035200090913204A0913304B09134047C01E09472
:10353000F09481159E4FAF4FBF4F08F0F6C0E12CBD
:1035400092E0F92EF2C0409135045091360460911A
:103550003704709138042BC16130710581059105E4
:1035600039F482E08093300462E0C62ED12C2EC163
:103570006F3F3FEF73078307930739F481E0809330
:103580003004CC24C394D12C21C1609335047093B2
:1035900036048093370490933804009127041091E7
:1035A00028042091290430912A04012B022B032B9B
:1035B00041F4609327047093280480932904909326
:1035C0002A0489819A81FC0103A514A525A536A5A5
:1035D0004091390450913A0460913B0470913C044D
:1035E000041715072607370721F40E94C909892BFC
:1035F00029F689809A804091350450913604609173
:10360000370470913804C4010E9486086115710561
:103610008105910509F4A5CF2B013C01420C531CF7
:10362000611C711C8701012F1127069501151105D9
:1036300009F4E4C0F401818592859101200F311FC6
:103640008217930718F48C0102191309F401818180
:10365000809320040115110509F490CF9801B3015E
:10366000A201C5010E94F108892B09F087CF898149
:103670009A81FC0143A554A565A576A54419550971
:10368000660977092801712C612C441555056605DA
:10369000770588F4DC019F96FA01FE2FEE27FF0FD5
:1036A000EA0DFB1D20E032E001900D9221503040E8
:1036B000D9F7FC011382102F0027110FE01AF10A2D
:1036C000EB81FC8180819181800F911F91838083A8
:1036D000A00EB11E8091310490913204A091330468
:1036E000B0913404800F911FA11DB11D809331044E
:1036F00090933204A0933304B093340440912B048C
:1037000050912C0460912D0470912E044817590794
:103710006A077B0710F4AC01BD0140932B04509362
:103720002C0460932D0470932E04E114F10409F429
:1037300048C08091310490913204A0913304B0913B
:103740003404AC01BD01517066277727452B462B09
:10375000472B09F07CC0E981FA812184328421E081
:10376000221A3108AC01BD01E9E0769567955795BD
:103770004795EA95D1F7242235222114310409F026
:1037800020CF892B8A2B8B2B09F0DDCE609127046B
:10379000709128048091290490912A046115710583
:1037A0008105910509F0D8CE40E050E0BA0181E2F0
:1037B00094E00E94830C611571058105910509F063
:1037C000CBCE80912F04806480932F04C6010F908C
:1037D0000F900F900F90DF91CF911F910F91FF905D
:1037E000EF90DF90CF90BF90AF909F908F907F90A1
:1037F0006F905F904F903F902F90089540913104CB
:1038000050913204609133047091340480912B0400
:1038100090912C04A0912D04B0912E0448175907C3
:103820006A077B0760F0C4010E94C909892B09F06F
:10383000A5CEE981FA8143A654A665A676A6409254
:10384000390450923A0460923B0470923C04809197
:10385000310490913204917020E032E0281B390B42
:1038600087012E153F0508F48901409139045091D4
:103870003A0460913B0470913C0489819A810E94D2
:10388000D109892B09F07ACE29813A81215D3F4FF8
:1038900080913104909132049170A801B501820F9A
:1038A000931F0E94A91FE981FA8131E0338306CF7B
:1038B00087E0C82ED12C8ACFE3E4F4E01382128291
:1038C00088EE93E0A0E0B0E084839583A683B7837D
:1038D00089EA91E09183808385EC90E095878487E5
:1038E00084EC90E09787868780EC90E0918B808BCA
:1038F00081EC90E0938B828B82EC90E0958B848BB3
:1039000086EC90E0978B868B118E128E138E148E20
:1039100088E08093E0040895CF93DF93CDB7DEB7BE
:1039200028970FB6F894DEBF0FBECDBF789484B54C
:10393000836084BD85B5836085BD80916E008160A4
:1039400080936E0082E0809381008091810081608D
:1039500080938100809180008160809380008091BD
:10396000B10084608093B1008091B0008160809349
:10397000B00087E880937A001092C10088B18F6010
:1039800088B987B1856087B987B1857F87B988B1E4
:103990008F6088B98091C10087748093C1001BB883
:1039A0001AB883E494E00E949C03E0915504F091DE
:1039B000560480818774808380915D0480935C04C9
:1039C0008091C10087748093C10090E080E00E94E4
:1039D00048118F3F09F447C081E090E00E944811F0
:1039E0008093180482E090E00E94481180931704AD
:1039F0008091180480931A0480911704809319040D
:103A0000109216040E945F1980E8809316040E94A9
:103A10005F191BB81AB86E0187E0C80ED11C47E0C9
:103A2000542E50E5752E6FE3662E70E0A72E70E0E1
:103A3000B72E0E94B5058C3A09F03CC10E94B5052D
:103A4000182F893060F5863008F040C1823009F4C3
:103A50002AC168F4882309F41EC180E0113009F4FA
:103A600094C187E2BEC081E080931804BFCF843048
:103A700009F42CC108F40FC10E94BF0580E00E9428
:103A8000DC05153009F079C180911A040E94DC052B
:103A9000809119040E94DC058EEF91E06BC18131A9
:103AA00009F479C108F0A0C08A3009F46DC120F38F
:103AB0008031B9F68E010F5F1F4F78010E94B50566
:103AC000F80181938F01CE16DF06C1F780911B04A8
:103AD000882381F080E10E94D7044FE162E070E02A
:103AE00088E00E94190463E070E088E00E949B0473
:103AF0008111F9CF86E0F701A1EEB4E001900D92BB
:103B00008A95E1F78091E00490E0FC01E655FB4FD7
:103B100024918D569B4FFC018491882399F090E06D
:103B2000880F991FFC01E757FB4FA591B491FC0149
:103B3000E158FB4F859194918FB7F894EC912E2B1F
:103B40002C938FBF61E08091E0040E94BC03F89445
:103B500084B1876084B955B87CBC11E01DBD84B1C7
:103B60008F6284B965B8789440E870E060E080E0E6
:103B70000E94190470E060E080E00E949B0426E04F
:103B800030E041EE54E069E070E080E00E945104D2
:103B900040E16EE170E088E00E94190440E16FE1CD
:103BA00070E088E00E94190426E030E041EE54E025
:103BB00069E070E080E00E94510444E070E060E061
:103BC00088E00E94190481E00E94D70463E070E05D
:103BD00088E00E949B04823409F4DAC010921B042E
:103BE00081E00E94DC0566C08D3809F433C1803A5B
:103BF00009F430C1823109F034CF80911B0488234D
:103C000009F44FC00E94B505082F10E00E94B505C9
:103C1000182B912C812C80E290E00E94BD047C0145
:103C2000892B29F080E290E00E94BD044C01E81449
:103C3000F90489F763E070E088E00E949B04882320
:103C400081F1E016F10628F30115110599F084E2DF
:103C500090E00E94BD047C01980150E040E0BC016E
:103C600080E10E945104B8016E0D7F1D84E290E056
:103C70000E943D0480E20E94D70462E070E088E088
:103C80000E949B0484FFE2C040E162E070E088E0B3
:103C90000E94190406C00E94BF050E941E068823C8
:103CA00049F080E09ECF0E94BF050E941E06811150
:103CB0000E940218A114B10409F4BBCE0E94200393
:103CC000882309F4B6CE0E940000B3CE0E94BF053F
:103CD00000E8009316040E943D19109216040E94F9
:103CE0003D19F090140480911504F09218041830D6
:103CF00009F4C1C080931704163009F4B0C081E004
:103D000090E00E944811F81629F06F2D81E090E0B4
:103D10000E944C1F82E090E00E94481160911704BD
:103D2000861721F082E090E00E944C1F90E080E036
:103D30000E9448118F3F29F460E090E080E00E94EB
:103D40004C1F8091180480931A048091170480936B
:103D5000190480E8809316040E945F1910921604DB
:103D60000E945F1980E00E94DC05143009F4A2CFA4
:103D700080E092E00E9452059DCF809118040E943D
:103D8000DC058091170486CE81E00E948E1892CFC8
:103D900010931B0486CF80911B04882309F452C022
:103DA0000E94B505882E0E94B505982EF12CE12CB5
:103DB00086E290E00E94BD048C01892B29F086E206
:103DC00090E00E94BD047C010E151F0589F7012BB0
:103DD000A1F162E070E0C6010E94E50480E40E9467
:103DE000D7040F81802F90E0982F882708850250F4
:103DF000110B080F191F8016910698F490E080E0CF
:103E00000E94390588E290E00E94BD04B801680F65
:103E1000791F88E290E00E943D0480E40E94D7046C
:103E200049CFC8010E94390501151105B1F3B80148
:103E300090E080E00E94E504F0CF90E080E00E94F6
:103E4000390538CF80E00E94DC052BCF83FF15CFEA
:103E500048E01BCF0E94BF050E94EB052BCF0093CB
:103E600016040E945F19109216040E945F1980E0E8
:103E70000E94DC057DCF009316040E945F1910920A
:103E800016040E945F190DCFF999FECF92BD81BD36
:103E9000F89A992780B50895262FF999FECF1FBA71
:103EA00092BD81BD20BD0FB6F894FA9AF99A0FBE63
:103EB00001960895A1E21A2EAA1BBB1BFD010DC09D
:103EC000AA1FBB1FEE1FFF1FA217B307E407F507CA
:103ED00020F0A21BB30BE40BF50B661F771F881FA6
:103EE000991F1A9469F760957095809590959B013C
:103EF000AC01BD01CF0108950E948D1FA59F900DBB
:103F0000B49F900DA49F800D911D11240895EE0F74
:103F1000FF1F0590F491E02D0994A29FB001B39F7B
:103F2000C001A39F700D811D1124911DB29F700DC2
:103F3000811D1124911D0895FB01DC0104C08D91A8
:103F40000190801921F441505040C8F7881B990B0B
:103F50000895FB01DC0102C001900D9241505040D8
:103F6000D8F70895DC0101C06D9341505040E0F74F
:103F70000895FC018191861721F08823D9F79927AC
:0C3F800008953197CF010895F894FFCF09
:103F8C00313A00303A00FF303A424C4B44455658D7
:103F9C00582E504F00313A424C4B44455658582EEF
:103FAC00504F000101809A45418E418F8045454517
:103FBC004949498E8F9092924F994F555559999ADC
:103FCC009B9C9D9E9F41494F55A5A5A6A7A8A9AA14
:103FDC00ABACADAEAFB0B1B2B3B4B5B6B7B8B9BAAD
:103FEC00BBBCBDBEBFC0C1C2C3C4C5C6C7C8C9CA9D
:103FFC00CBCCCDCECFD0D1D2D3D4D5D6D7D8D9DA8D
:10400C00DBDCDDDEDFE0E1E2E3E4E5E6E7E8E9EA7C
:10401C00EBECEDEEEFF0F1F2F3F4F5F6F7F8F9FA6C
:10402C00FBFCFDFEFF000000005503B602E3029C02
:10403C00031403F2020603464154333220202000BD
:10404C002A2B2C3A3B3C3D3E5B5D7C223F7F0000A3
:00000001FF
