:020000040000FA
:100000000C94F9030C9421040C9421040C94210405
:100010000C9421040C9421040C9421040C942104CC
:100020000C9421040C9421040C9421040C942104BC
:100030000C9421040C9421040C9421040C942104AC
:100040000C94ED350C9421040C9421040C9421049F
:100050000C9421040C9421040C9421040C9421048C
:100060000C9421040C942104EAA92085F0A9608550
:10007000F3A5434A4A4A4A290709C085F2A00084E9
:10008000F188B1F185F1A90285F9E646E645E64534
:1000900020F000900620E2FB4CBAFAC6F9D0EB2023
:1000A00093FE2089FE207D0920FF0AA90085FBA977
:1000B0000385252022FCA5FB85F585F620E80AA905
:1000C00000A4F720AF09A9FF8532A5430980854325
:1000D000A914A4F820AF09A9FF85324A2543854316
:1000E000E625E6FBA5FBC91090C920970820E80A81
:1000F00020A00820110B20D00820E40A4CFF0BA5FB
:10010000F785F5A5F885F660A91520A80A20C90A83
:10011000A90A8524A5F5207109A914852420C40AFB
:10012000A91E8524A5F64C710920F10B2097082003
:10013000A0086868184CFF0BA90085FAA6FAA94028
:1001400020050A208F09200CFD48A980A6FAB4F5E5
:1001500020050A68A6FAB4F5C98DD005A6FAF036CE
:1001600060C99BF0C4C9A1D005A9FF85F560C9ACE1
:10017000F004C98BD00388300DC9A0F004C98AD01F
:100180000BC8C01090064898290FA86894F5C98834
:10019000F004C995D00DA90020050AA5FA490185EA
:1001A000FA102AC9E1900338E920C9C19009C9C7EA
:1001B000B00538E907D008C9B0900EC9BAB00A290D
:1001C0000F95F5208F094CF408C9C9F0034CD408E9
:1001D000207D0920110B4C430BC9FFF0034CE3FDBC
:1001E000A9A14CEDFD2058FCA93420B10AA9172083
:1001F000A80AA9184CB10AA6FAB4F5A20AA5FAF001
:1002000002A21E8624A01584252022FCA4FAB9F59A
:1002100000207109C624608524A5FB4820E3FDA9C0
:10022000BA20EDFDE62484F968C5F9D004A93F851C
:100230003220D70AB032AD0510302DAD0410AA29F6
:10024000F0C9F0D0238A290FF01E85F9A200BD0560
:1002500010098020EDFDE8E4F9D0F3E00FD0016053
:10026000A9A020EDFDE8D0F3A2004CCB0A85F98AC5
:10027000F002A9141869038524B5F53017690385C0
:10028000252022FCA424A20EB128293F05F991289B
:10029000C8CA10F460ADADADA0A0A0A0A0A0A0A061
:1002A000A0A0A0A000C3C1D2C4A0B1BA0020200168
:1002B00010100C0520090920060F12051605122141
:1002C000202016322E312E300004010E2009092084
:1002D000160F0C150D052013050C0503140F120045
:1002E000A0CFCBA100C5D2D2CFD2A187878700C62D
:1002F000D4D0AFC9D0BAA000CEC5D7A0C9D0BAA0BB
:10030000A0A0A0AEA0A0A0AEA0A0A0AEA0A0A00063
:100310008525A90085244C22FC48A226A92020ED91
:10032000FDCA10F868AAA9088524D007A9B28D4291
:100330000AA210BD2D0AF00620EDFDE8D0F560A060
:10034000008447C88442C884464CF40AA907D002F6
:10035000A9068542A5F58546A5F68547A9008544E9
:10036000A91085454CF000A905854220F40AAD008E
:100370001085F7AD011085F860A92120EA0AB0F8D0
:10038000AD1010F0F3A90220A80AA2098624A25AEF
:1003900020CB0AAD061020E50BAD071020E50BAD14
:1003A000081020E50BAD09104C2A0CA90A20A80A58
:1003B000A26320CB0AA908852420850BB0ED8544D3
:1003C000E62420850BB0E48545E62420850BB0DBD0
:1003D0008546E62420850BB0D285478543A9208534
:1003E0004220F00018AACAF001384C0D0CA9008573
:1003F000F9A2038A4820C40BB017C9FFF017A82040
:10040000B50BB00D9865F985F9B00668AACAD0E3B6
:100410004868A5F96068186524852490F5A20AA9A2
:10042000001865F9B005CAD0F985F960200CFDC93E
:10043000A0D004A9FF1860C98DF0F8C9AEF0F4C9C6
:10044000B030E9C9BAB0E520EDFD290F60202A0CD3
:10045000A9AE4CEDFDA900F002A98048A20020053C
:100460000A68A2014C050A0820ED0BA91620A80A6B
:10047000A911852428A24B9002A25020CB0AA206E3
:10048000A9FF20A8FCCAD0F82058FCA90085F16C6F
:10049000F100C90A901EA26486F9204F0CE000F01A
:1004A00006488A20E3FD68A20A86F9204F0C488A94
:1004B00020E3FD684CE3FDA200C5F99006E838E5AD
:1004C000F9B0F660FFFFFFFFFFFFFFFFFFFFFFFF39
:1004D000FFFFFFFFFFFFFFFFFFFFFFFFFFFFFFFF2C
:1004E000FFFFFFFFFFFFFFFFFFFFFFFFFFFFFFFF1C
:1004F000FFFFFFFFFFFFFFFFFFFFFFFFFFFFFFFF0C
:10050000FFFFFFFFFFFFFFFFFFFFFFFFFFFFFFFFFB
:10051000FFFFFFFFFFFFFFFFFFFFFFFFFFFFFFFFEB
:10052000FFFFFFFFFFFFFFFFFFFFFFFFFFFFFFFFDB
:10053000FFFFFFFFFFFFFFFFFFFFFFFFFFFFFFFFCB
:10054000FFFFFFFFFFFFFFFFFFFFFFFFFFFFFFFFBB
:10055000FFFFFFFFFFFFFFFFFFFFFFFFFFFFFFFFAB
:10056000FFFFFFFFFFFFFFFFFFFFFFFFFFFFFFFF9B
:10057000FFFFFFFFFFFFFFFFFFFFFFFFFFFFFFFF8B
:10058000FFFFFFFFFFFFFFFFFFFFFFFFFFFFFFFF7B
:10059000FFFFFFFFFFFFFFFFFFFFFFFFFFFFFFFF6B
:1005A000FFFFFFFFFFFFFFFFFFFFFFFFFFFFFFFF5B
:1005B000FFFFFFFFFFFFFFFFFFFFFFFFFFFFFFFF4B
:1005C000FFFFFFFFFFFFFFFFFFFFFFFFFFFFFFFF3B
:1005D000FFFFFFFFFFFFFFFFFFFFFFFFFFFFFFFF2B
:1005E000FFFFFFFFFFFFFFFFFFFFFFFFFFFFFFFF1B
:1005F000FFFFFFFFFFFFFFFFFFFFFFFFFFFFFFFF0B
:10060000FFFFFFFFFFFFFFFFFFFFFFFFFFFFFFFFFA
:10061000FFFFFFFFFFFFFFFFFFFFFFFFFFFFFFFFEA
:10062000FFFFFFFFFFFFFFFFFFFFFFFFFFFFFFFFDA
:10063000FFFFFFFFFFFFFFFFFFFFFFFFFFFFFFFFCA
:10064000FFFFFFFFFFFFFFFFFFFFFFFFFFFFFFFFBA
:10065000FFFFFFFFFFFFFFFFFFFFFFFFFFFFFFFFAA
:10066000FFFFFFFFFFFFFFFF4F6B004661696C65F7
:1006700064004261642066696C656E616D65004668
:10068000696C6520746F6F206C61726765004E6FD6
:1006900020737563682066696C652F666F6C64658E
:1006A00072004279652E0057656C636F6D6520742A
:1006B0006F2044414E5D5B2C2076322E312E302E41
:1006C000204170706C65205D5B20466F72657665B9
:1006D00072210044414E5D5B002D72772D2D2D2D32
:1006E0002D2D2D203120766F6C756D653A202D2DC6
:1006F0002D202020202020202020202020203132CA
:10070000333435363738204A756E20313020313950
:10071000373720424C4B44455630312E504F0D0A4E
:1007200000647277782D2D2D2D2D2D203120444100
:100730004E5D5B204641542031204A756E20313099
:100740002031393737205344310D0A0032353720F4
:10075000222F534431220032323720456E746572A5
:10076000696E672050617373697665204D6F6465AB
:10077000202800555345525359535443574420544D
:1007800059504551554954504153564C495354437F
:100790004455505245545253544F52505744000000
:1007A0000000000800020100000304070000000030
:1007B0000000000000000000250028002B000000C1
:1007C0000000240027002A00040404040404040494
:1007D00002020202020203030303030301020408EC
:1007E000102040800102040810200102040810209B
:1007F000373611241FBECFEFD8E0DEBFCDBF11E0EA
:10080000A0E0B1E0E0E4F7E702C005900D92A43D5E
:10081000B107D9F724E0A4EDB1E001C01D92AA3FD1
:10082000B207E1F713E0C9EFD3E004C02197FE015E
:100830000E94703BC83FD107C9F70E94D0360C9484
:100840009E3B0C9400008CBD9DBD089590E0FC0182
:10085000E452F84F24918853984FFC0184918823E7
:1008600099F090E0880F991FFC01E254F84FA59190
:10087000B491FC01EC54F84F859194918FB7F894A2
:10088000EC91E22BEC938FBF0895FC01818D928D4A
:100890000895089590E0FC01E056F84F2491FC0182
:1008A000E452F84F3491FC01E853F84FE491EE2301
:1008B000C9F0222339F0233001F1A8F4213019F1D5
:1008C000223029F1F0E0EE0FFF1FEC54F84FA59114
:1008D000B4918FB7F894EC91611126C030953E2306
:1008E0003C938FBF08952730A9F02830C9F02430F9
:1008F00049F7809180008F7D03C0809180008F77C1
:1009000080938000DFCF84B58F7784BDDBCF84B543
:100910008F7DFBCF8091B0008F778093B000D2CFD6
:100920008091B0008F7DF9CF3E2BDACF3FB7F8949E
:100930008091320490913304A0913404B091350435
:1009400026B5A89B05C02F3F19F00196A11DB11D2A
:100950003FBFBA2FA92F982F8827BC01CD01620F66
:10096000711D811D911D42E0660F771F881F991F21
:100970004A95D1F708958F929F92AF92BF92CF92EE
:10098000DF92EF92FF924B015C010E9496046B0193
:100990007C010E9496046C197D098E099F09683EAE
:1009A000734081059105A8F321E0821A9108A108FE
:1009B000B10888EEC80E83E0D81EE11CF11C81143A
:1009C0009104A104B10429F7FF90EF90DF90CF903C
:1009D000BF90AF909F908F9008952FB7F89460913B
:1009E0002E0470912F0480913004909131042FBF18
:1009F0000895FC0120812EBD9B012150310941F059
:100A000051810DB407FEFDCF4EB55EBD4193F5CFCC
:100A100061507109860F971F0DB407FEFDCF2EB5EB
:100A2000FC0120830895E0918304F0918404808187
:100A300090918204892B80830895E0918304F09142
:100A40008404908180918204809589238083089515
:100A50008EBD00000DB407FEFDCF8EB50895AF9298
:100A6000BF92CF92DF92EF92FF920F931F93CF939B
:100A7000DF93CDB7DEB728970FB6F894DEBF0FBE71
:100A8000CDBF8C017B016A01809186048333E1F440
:100A90005801A40EB51EA016B10609F46FC00E943D
:100AA0001D0580EF0E942805812F0E942805802FB8
:100AB0000E9428050F5F1F4FF70181917F010E945F
:100AC00028050E941305E7CF5B01A40EB51E8433F1
:100AD000C1F40E941D0519830A838D2D80688B83C4
:100AE000CC8264E070E0CE0101960E94F904AE145D
:100AF000BF0409F441C0F70181917F010E942805DC
:100B0000F6CF0E941D050F3F110509F028F4198248
:100B10000A8384E08B830CC017FD17C019820A83F7
:100B200033E0169507953A95E1F7007E0C600B834C
:100B300086E0C816D104A0F5F701DE011496EA1587
:100B4000FB0599F081918D93FACFC80126E0969527
:100B500087952A95E1F7807E19830A830115104C49
:100B600010F48461D7CF8C61D5CFB6016D5F7F4F14
:100B7000CE0101960E94F9040E941305C601289631
:100B80000FB6F894DEBF0FBECDBFDF91CF911F919E
:100B90000F91FF90EF90DF90CF90BF90AF900895AE
:100BA00063E070E0CE0101960E94F904F7018191A3
:100BB0007F010E942805AE14BF04C1F7DDCFCF939B
:100BC000DF931F92CDB7DEB7898341E050E0BE01CD
:100BD0006F5F7F4F90E080E00E942F050F90DF91C4
:100BE000CF91089590E020918604233339F40C9638
:100BF000982F990F990F990F80E008954896F8CF94
:100C0000DA01E0918704F0E0FE2FEE27E60FF71FF0
:100C100090E0982F8827A901BD018E0F9F1F0C948B
:100C20002F05CF93DF9300D0CDB7DEB779836A83EA
:100C300022E030E0AE014F5F5F4F60E170E00E9464
:100C400000060F900F90DF91CF910895CF93DF931F
:100C500000D0CDB7DEB779836A8322E030E0AE0101
:100C60004F5F5F4F64E070E00E9400060F900F90AE
:100C7000DF91CF910895CF93DF931F92CDB7DEB769
:100C80002091870430E0322F2227260F371F90E073
:100C9000982F8827498341E050E0BE016F5F7F4F66
:100CA000820F931F0E942F050F90DF91CF9108951F
:100CB000CF93DF931F92CDB7DEB76983DC01ED914F
:100CC000FC910280F381E02D41E050E0BE016F5FB6
:100CD0007F4F09950F90DF91CF910895CF93DF93C8
:100CE0001F92CDB7DEB76983DC01ED91FC910280E4
:100CF000F381E02D41E050E0BE016F5F7F4F099529
:100D00000F90DF91CF910895FC019485FB018485BC
:100D1000981303C081E0943008F080E00895CF93E9
:100D2000DF931F92CDB7DEB76983DC01ED91FC91B3
:100D30000280F381E02D41E050E0BE016F5F7F4F04
:100D400009950F90DF91CF9108950895FF920F9329
:100D50001F93CF93DF93EB01FC01178A168A2A8138
:100D6000211109C02B81211106C02C81211103C042
:100D70002D81222301F141155105E9F08A01FC0181
:100D8000F08C80E591E00E942304AE014E5F5F4F3E
:100D900024E030E06CE070E08F2D0E940006B80186
:100DA0008F2D0E94110681E090E0DF91CF911F917D
:100DB0000F91FF90089580E0F7CFFC018485958521
:100DC0000895FC0184899589089526E931E0FC01A4
:100DD00031832083FB014089518962897389FC0139
:100DE00042835383648375830895DC01ED91FC9104
:100DF000048CF58DE02D09948EBD0DB407FEFDCF5A
:100E00000895FF920F931F93CF93DF93082FF62E31
:100E1000142FCFEED4E060E088810E944A0480E085
:100E20000E94FC068F2D0E94FC06802F84600E9489
:100E3000FC06812F0E94FC0661E08881DF91CF9142
:100E40001F910F91FF900C944A041F93CF93DF934F
:100E5000EC01162F472FBC0188E00E940107BE015C
:100E60006F5F7F4F412F88E0DF91CF911F910C94EE
:100E70000107DF92EF92FF920F931F93CF93DF93BF
:100E8000F82EE62ED72EEA01890160E08091EF046A
:100E90000E944A048D2D0E94FC068E2D0E94FC06A5
:100EA0008F2D84600E94FC06209749F00C0F1D1FB7
:100EB000C017D107B1F089910E94FC06F9CFD0E0AC
:100EC000C0E0C017D10769F03399FECF429842982D
:100ED00042984298429889B1429A0E94FC06219613
:100EE000F0CF61E08091EF04DF91CF911F910F91DE
:100EF000FF90EF90DF900C944A041EBC0DB407FEE7
:100F0000FDCF8EB508950F931F93CF93DF93182FC6
:100F1000062FCFEED4E060E088810E944A0480E092
:100F20000E94FC06802F0E94FC06812F0E94FC0676
:100F30000E947D07182F61E088810E944A04812F5A
:100F4000DF91CF911F910F9108950F931F93CF932E
:100F50008C01BC0188E00E948307C82FB8016F5F35
:100F60007F4F88E00E9483072C2F30E0322F22270A
:100F7000820F932F911DCF911F910F910895482FAC
:100F800061E070E088E00E94010761E070E088E0C5
:100F90000E9483078111F9CF0895CF92DF92EF92DB
:100FA000FF920F931F93CF93DF93EC018B0188E2A5
:100FB00090E00E94A5077C0160E08091EF040E9410
:100FC0004A048F2D0E94FC068E2D0E94FC0688E1AB
:100FD0000E94FC066E01C00ED11E209759F58FEFBE
:100FE0008AB9D0E0C0E0C017D10771F00E947D0738
:100FF0003199FECF8BB98BB9409840984098409872
:101000004098409A2196EFCF1BB81AB861E08091C2
:10101000EF040E944A04B8016E0D7F1D88E290E043
:10102000DF91CF911F910F91FF90EF90DF90CF90C4
:101030000C942507CC16DD0649F30E947D078993A1
:10104000F9CF2FEF2AB93199FECF8BB98BB94098E0
:101050004098409840984098409A3199FECF9BB96B
:101060009BB940984098409840984098409A1BB847
:101070001AB808958EBD0DB407FEFDCF8EB5089544
:101080000F931F93CF930E94ED048B018FEF0E946B
:101090003A08C82F8F3F39F00E94ED04601B710B96
:1010A000643F714098F381E0CF3F09F480E0809382
:1010B000810481E090E0CF3F11F090E080E0CF919B
:1010C0001F910F910895CF939C013E5FFC014081D9
:1010D0004EBD0DB407FEFDCFFC0141814EBD0DB4E8
:1010E00007FEFDCF02968217930781F78FEF0E94CC
:1010F0003A088FEF0E943A088FEF0E943A08C82FF3
:101100008FEF0E943A0891E08F3F09F490E09093AE
:101110008104CF7181E090E0C53011F090E080E073
:10112000CF91089585B1876085B98FEF0C943A0807
:10113000CF93DF9385B190915A04911111C09BEF29
:10114000892385B98FEF0E943A080E944008EC017C
:10115000892B41F40E949208CE01DF91CF9108952E
:101160009DEFEECFC1E0D0E0F7CFFF920F931F933A
:10117000CF93DF93C82FD42F152F062FF72E87FF7D
:1011800009C040E050E0BA0187E30E94B508823010
:1011900048F5CF77CC3061F58C2F80640E943A08F7
:1011A0008F2D0E943A08802F0E943A08812F0E94BA
:1011B0003A088D2F0E943A0885E9CC2321F087E870
:1011C000C83009F081E00E943A08CC3019F48FEF62
:1011D0000E943A08CAE08FEF0E943A0887FF02C0D7
:1011E000C150C9F7DF91CF911F910F91FF900895E2
:1011F0000E9492080E949808892B71F68FEFF2CF17
:1012000080918104882331F00E949808892B11F085
:101210000C94920808950F931F93CF938C01E09143
:101220005B04F0915C04309759F489E090E030E081
:1012300020E0F80131832083CF911F910F91089511
:101240008081882391F320915D0430915E04858133
:1012500096812817390749F7C18180915A04C8132C
:101260000E940009C0935A04EC2FF0E0ED5EFE4F9F
:10127000808180FDDACF20915B0430915C0490E0A6
:1012800080E0D7CFCF93DF93EC01E881F9813097ED
:1012900079F0DF019D012F5F3F4F8C918132E0F0AB
:1012A000D9018A33B9F7208180ED820F8A3018F096
:1012B0008FEF9FEF0EC03296AE17BF07C9F7022E11
:1012C000000C330BC901C097823091058CF7B983AC
:1012D000A883DF91CF91089590E080E0FACF0F933B
:1012E0001F93FC019A01AB012250310941095109B8
:1012F00083899489A589B6890297A109B10928171C
:1013000039074A075B0778F4A185B2850E94343B10
:1013100007A110A521A532A5600F711F821F931F81
:101320001F910F91089560E070E0CB01F9CFFC01AF
:101330006281738190E080E0982F872F762F662757
:101340002181622B982F872F762F66272081622B91
:101350000895BF92CF92DF92EF92FF920F931F9367
:10136000CF93DF93C82FB62ED72F69017A018091D2
:101370005A048C130E940009C0935A0401151105E8
:1013800009F472C0EC2FF0E0ED5EFE4F808180FD2D
:101390006EC080E58CBDE0915A04F0E0E35EFB4F47
:1013A000808184FD07C089E0CC0CDD1CEE1CFF1C95
:1013B0008A95D1F7C1E10130110509F0C2E1B70109
:1013C000A6018C2F0E94B508811119C0DD24DA9482
:1013D0000E94ED047B018FEF0E943A088F3F01F5D8
:1013E0000E94ED046E197F09683C7105A4F3C231B7
:1013F00031F440E050E0BA018CE00E94B5080E9450
:10140000920881E090E0012B09F480E0DF91CF9118
:101410001F910F91FF90EF90DF90CF90BF900895B4
:101420008E3F29F7EB2DFD2F7F018EEFF81ADEBCE2
:101430000DB407FEFDCF8EB58083DEBC0DB407FE74
:10144000FDCF8EB581833296EE16FF0681F78FEFC2
:101450000E943A088FEF0E943A08BE2CDF2D0150FF
:10146000110909F0B5CFC3CF84E090E0CFCF83E07E
:10147000FCCF4F925F926F927F92AF92BF92CF92CA
:10148000DF92EF92FF920F931F93CF93DF9300D0E1
:1014900000D0CDB7DEB7182F80915A0481130E9477
:1014A000000910935A04E12FF0E0ED5EFE4F8081B9
:1014B00080FD14C080810F900F900F900F90DF91EE
:1014C000CF911F910F91FF90EF90DF90CF90BF9041
:1014D000AF907F906F905F904F900895808181FDD5
:1014E000E9CFF89497E095B984B1876084B995B94C
:1014F00080E58CBD81E08DBD84B18F6284B98FE3BE
:1015000085B978948CB583608CBD1AE08FEF0E940A
:101510003A081150D9F705E040E050E0BA0180E008
:101520000E94B508182F811104C00150A9F7F12CB1
:1015300085C08130E1F70E94ED042B016B014AEA7E
:1015400051E060E070E088E00E94B508813009F069
:1015500048C0CE0101967C015E0195E0A90EB11C48
:1015600087018FEF0E943A08F80181938F01AE1630
:10157000BF06B9F78B818130D1F68C818A3AB9F6F2
:101580000E94ED046C197D09683E73404CF440E004
:1015900050E060E070E489EA0E94B5088111F0CF64
:1015A0000E94ED0464197509683E73400CF0BFCFCA
:1015B00040E050E0BA018AE30E94B5088111B7CF3C
:1015C0008FEF0E943A08F70181937F01E017F1073E
:1015D000B9F7898128E0F22E86FF30C088E1F82E25
:1015E0002DC040E050E0BA0189EA0E94B508FF240E
:1015F000F394823018F494E0F92E19EA0E94ED0475
:101600006C197D09683E734044F440E050E0BA0133
:10161000812F0E94B5088111F1CF0E94ED04641959
:101620007509683E73400CF082CF40E052E060E004
:1016300070E080E10E94B508811179CFE0915A04F1
:101640000E2F10E0F801E35EFB4FF0820E9492083B
:10165000F801ED5EFE4F8081FF2061F08E7F808378
:101660008CB58C7F8CBD2C98E0915A04F0E0ED5E37
:10167000FE4F20CF81608083F6CF0F931F93D90157
:10168000E0912A04F0E0EE0FEF2FEE1FFF0BE75F73
:10169000FB4F9081923051F58A019B0199E036957C
:1016A0002795179507959A95D1F7282B0093030452
:1016B00010930404209305043093060400E01EEF09
:1016C0002FEF31E0109729F00D931D932D933C934C
:1016D00013975E5F6F4F7F4F81E004171507260752
:1016E000370708F080E01F910F910895409303049D
:1016F00050930404609305047093060400916504FC
:10170000109166042091670430916804DBCF2F921A
:101710003F924F925F926F927F928F929F92AF9281
:10172000BF92CF92DF92EF92FF920F931F93CF93CE
:10173000DF936C01D42FF52E762E672E48015901C8
:1017400010E0C0E08AE0282E312C412C512C6D2F66
:101750007F2D872D962DA50194010E943F3BF60118
:10176000EC0FF11D211133C0111106C031E08316B9
:101770009104A104B10479F5CF5F205D2083D62FB9
:10178000F72E782E692E11E0C501B401A201910156
:101790000E943F3B49015A0181149104A104B10404
:1017A000B1F6C6018C0F911DDF91CF911F910F9162
:1017B000FF90EF90DF90CF90BF90AF909F908F9071
:1017C0007F906F905F904F903F902F9008952A30B8
:1017D00098F229E0D1CFEE20B9F2CF5FE082D4CFEA
:1017E000DC012A2F281BFB0194919D936F5F7F4F93
:1017F0009111F7CF822F0895DC01FB019D9181911A
:10180000981304C09111FACF81E0089580E0089503
:10181000FC01768765870895DC01ED91FC9102A0BB
:10182000F3A1E02D099591E089270895862F089569
:1018300081E08627089521E0FC018485843008F04A
:1018400020E0822F089508952FEF2AB93199FECF15
:101850001BB81BB840984098409840984098409AD0
:101860000197A1F71BB81AB8089520912A04E22F16
:10187000F0E0EE0FEF2FEE1FFF0B4091260450918A
:10188000270470E060E0DF01A75FBB4F8C918230DE
:1018900069F580910704922F907F823069F0EE5DA8
:1018A000FB4F90819295907F207780912104821741
:1018B00019F0921319C09068892F90E0B0E0A0E071
:1018C0002CE0880F991FAA1FBB1F2A95D1F7842BE4
:1018D000952BA62BB72B8093030490930404A0931D
:1018E0000504B09306040895922FE6CF89E0440FD3
:1018F000551F661F771F8A95D1F7409303045093B5
:101900000404609305047093060408953399FECF90
:101910004298429842984298429889B1429A0895D2
:10192000CF930E94860C80932A040E94860CC82FB5
:101930000E94860C982F8C2F909329048093280462
:101940000E94860CC82F0E94860C982F8C2F909393
:10195000270480932604CF9108953199FECF9FEFFD
:101960009AB98BB98BB94098409840984098409864
:10197000409A1BB81AB80895CF930E94900CE0913A
:101980002A04F0E0EE0FEF2FEE1FFF0BE95FFB4F95
:101990008081C8E28111C0E08C2F0E94AD0C8C2F99
:1019A000CF910895089590E080E008950C94263B2F
:1019B0008F929F92AF92BF92EF92FF920F931F93DD
:1019C000CF93DF93CDB7DEB7A1970FB6F894DEBF04
:1019D0000FBECDBF7C01FA01CB0119A2223008F461
:1019E0002AE08E010F5D1F4F822E912CB12CA12C6D
:1019F000BF01A50194010E943F3BF901CA016A3071
:101A000074F5605DD8016E938D01232B242B252B5B
:101A100079F790E080E0109789F0FD0101900020B7
:101A2000E9F73197AF014A1B5B0BD701ED91FC91B0
:101A30000280F381E02DB801C7010995A1960FB688
:101A4000F894DEBF0FBECDBFDF91CF911F910F91F4
:101A5000FF90EF90BF90AF909F908F900895695C3A
:101A6000D1CF8F929F92AF92BF92CF92DF92EF929F
:101A7000FF920F931F93CF93DF937C01EB016C01D7
:101A800082E0C80ED11C4701E5E08E0E911C10E0EB
:101A900000E0F60141916F0150E070E060E02AE063
:101AA000CE010E94D80C5C01E881F9810190F0819F
:101AB000E02D6EE2CE0109958A0D9B1D080F191FBE
:101AC000C814D90431F7F701458150E070E060E0B7
:101AD0002AE0CE010E94D80C800F911FDF91CF9198
:101AE0001F910F91FF90EF90DF90CF90BF90AF903C
:101AF0009F908F9008958F929F92AF92BF92EF9296
:101B0000FF920F931F93CF93C82F7B0149015A0176
:101B100080915A048C130E940009C0935A04011545
:101B2000110509F473C0EC2FF0E0ED5EFE4F8081EB
:101B300080FD6FC0808182FD6EC080E58CBDE0912C
:101B40005A04F0E0E35EFB4F808184FD07C099E01A
:101B5000880C991CAA1CBB1C9A95D1F70130110561
:101B600061F5B501A40188E10E94B508882399F0C8
:101B700001E010E00E94920881E090E0012B09F45E
:101B800080E0CF911F910F91FF90EF90BF90AF90A9
:101B90009F908F9008950E944008892B49F38EEF03
:101BA0000E943A08C7010E94630831E020E0892BB7
:101BB00009F030E0032F122FDDCF8C7031F0A80137
:101BC00070E060E087E90E94B508B501A40189E1F1
:101BD0000E94B5088111CECF0E944008892B69F080
:101BE0008CEF0E943A08C7010E946308892B29F0F4
:101BF0008EEFF81A0150110979F70E944008892BDD
:101C000009F4B6CF8DEF0E943A08B4CF84E090E09B
:101C1000B8CF83E0FCCF82E0FACF8F929F92AF9251
:101C2000BF92EF92FF920F931F93CF93DF93EC013C
:101C30007C014FE2E40EF11C2BA53CA54DA55EA551
:101C400001E010E0B70189810E947B0D892B61F5CD
:101C50001B820BA51CA52DA53EA58F89988DA98D4E
:101C6000BA8D8F8C98A0A9A0BAA0B901A801481973
:101C700059096A097B094A015B0188169906AA0677
:101C8000BB0678F46A81623061F4A9019801280FDB
:101C9000391F4A1F5B1F01E010E0B70189810E94D4
:101CA0007B0D90E080E002C081E090E0DF91CF9179
:101CB0001F910F91FF90EF90BF90AF909F908F90EA
:101CC0000895FC01238121110C940D0E90E080E019
:101CD00008958F929F92AF92BF92EF92FF920F93CF
:101CE0001F93CF93DF93EC014A015B018BA59CA569
:101CF000ADA5BEA5F12CE12C88159905AA05BB055B
:101D0000E9F0CE010E94610E7C01892BB9F401E05B
:101D100010E0A5019401BE01615D7F4F89810E94A1
:101D2000A909892B39F0EE24E394F12C88248A94B4
:101D3000982C54018BA69CA6ADA6BEA6C701DF9128
:101D4000CF911F910F91FF90EF90BF90AF909F9018
:101D50008F900895AF92BF92CF92DF92EF92FF9251
:101D60000F931F93CF93DF934230510561057105A7
:101D700008F4A9C0FC010389148925893689401714
:101D800051076207730708F09EC06A017B01EC01EE
:101D90008081823009F457C0833009F471C08130EA
:101DA00009F091C08A0116950795040F151FC80107
:101DB000892F99278695478D50A161A172A1480F5F
:101DC000591F611D711DCF010E94690E892B71F091
:101DD0006FEF7FEFCB01DF91CF911F910F91FF90BC
:101DE000EF90DF90CF90BF90AF9008955801FFEF34
:101DF000AF1ABF0A1170FE01E00FF11F17A5C50150
:101E0000892F992786954F8D58A169A17AA1480FEE
:101E1000591F611D711DCE010E94690E892BC1F6EB
:101E200081E0B822CA0DDB1D6FA5762F612FC0FEA1
:101E300008C0E4E076956795EA95E1F790E080E0E8
:101E4000CACF7F70FBCF77276F2D5E2D4D2D878DED
:101E500090A1A1A1B2A1480F591F6A1F7B1FCF01FA
:101E60000E94690E892B09F0B3CFCC0CDD1CE894DD
:101E7000C0F8E1E0DE22CC0DDD1D6FA578A9DECF34
:101E8000878D90A1A1A1B2A137E07695679557956E
:101E900047953A95D1F7480F591F6A1F7B1FCF010D
:101EA0000E94690E892B09F093CFAF96C601880F67
:101EB000991F880F991F8C7F91708C0F9D1F0E9416
:101EC00097099F7088CF61E070E080E090E083CF59
:101ED0008F929F92AF92BF92CF92DF92EF92FF923A
:101EE0000F931F93CF93DF938C01FC01C081D181AD
:101EF00016861786108A118AC680D780E084F184FE
:101F0000C114D104E104F104D1F58881833040F09B
:101F10008BA19CA1ADA1BEA10097A105B10589F53A
:101F20008F819885892B79F482E090E0DF91CF91C1
:101F30001F910F91FF90EF90DF90CF90BF90AF90E7
:101F40009F908F9008958BA19CA1ADA1BEA1F80197
:101F5000868B978BA08FB18FF801C28AD38AE48ACF
:101F6000F58A86899789A08DB18D892B8A2B8B2B39
:101F7000D9F2AF96D38FC28F90E080E0D7CFD70150
:101F8000C60189849A84B12CA12C29E0880C991C63
:101F9000AA1CBB1C2A95D1F76C017D01B701A601D3
:101FA00081149104A104B10449F0CE010E946F098B
:101FB000F801668B778B808F918FCECFF80180816F
:101FC00091810E94AA0E6B017C01FFEFCF16DF0604
:101FD000EF06FF0689F082E0C816D104E104F1049F
:101FE00008F4A2CF8B899C89AD89BE89C816D90611
:101FF000EA06FB0698F298CF81E090E097CF2F9207
:102000003F924F925F926F927F928F929F92AF9288
:10201000BF92CF92DF92EF92FF920F931F93CF93D5
:10202000DF9300D000D000D0CDB7DEB79E838D8384
:102030006A017B0128013901DC018C91823009F4AD
:1020400097C0833009F4B6C0813009F0F4C08A012A
:1020500016950795040F151FC801892F9927869596
:102060005F964D915D916D917C919297480F591FAC
:10207000611D711DCD010E94690E5C01892B09F063
:1020800056C02D803E80BFE22B0E311C4801EFEF81
:102090008E1A9E0A1170F101E00FF11F842DA70125
:1020A0009601217033274427552729833A834B8390
:1020B0005C83C0FE07C080818F7040E1449E900128
:1020C0001124822B808381E0AD81BE8113968C9395
:1020D00013975F964D915D916D917C919297C4019C
:1020E000892F99278695480F591F611D711DCD01B4
:1020F0000E94690E5C01892BD1F4B1E09B22F101B1
:10210000E80DF91D29813A814B815C81232B242B19
:10211000252B39F164E076946794579447946A9537
:10212000D1F7408281E0AD81BE8113968C93C501C9
:1021300026960FB6F894DEBF0FBECDBFDF91CF91CC
:102140001F910F91FF90EF90DF90CF90BF90AF90D5
:102150009F908F907F906F905F904F903F902F90C7
:1021600008958081807F352D3F70432E482AD9CF36
:1021700077276F2D5E2D4D2DED81FE81878D90A1EE
:10218000A1A1B2A1480F591F6A1F7B1FCF010E9456
:10219000690E5C01892B59F6ED81FE81BF96CC0C4E
:1021A000DD1CE894C0F821E0D222EC0DFD1D008377
:1021B0005182B8CFED81FE81878D90A1A1A1B2A1FE
:1021C00037E076956795579547953A95D1F7480F3B
:1021D000591F6A1F7B1FCF010E94690E5C01892B6A
:1021E00009F0A5CFFFE07F228D819E818F96CC0CD8
:1021F000DD1CCC0CDD1C2CEFC22221E0D222C80E4B
:10220000D91EC6010E949709662777278827907FE5
:10221000462A572A682A792AD6014C9211965C924E
:10222000119712966C92129713967C9281E0ED8131
:10223000FE8183837CCF82E0A82EB12C78CF4F9291
:102240005F926F927F928F929F92AF92BF92CF9246
:10225000DF92EF92FF920F931F93CF93DF938C0146
:102260002A013B01FC01C081D18141145104610468
:10227000710409F58B849C84AD84BE84811491041F
:10228000A104B10409F44DC08B899C89AD89BE8934
:1022900088169906AA06BB0608F043C08F85988960
:1022A000A989BA89892B8A2B8B2B09F03FC0C12CB5
:1022B000D12C760116C0CE010E94AA0E6B017C01C2
:1022C000F2E0CF16D104E104F10408F40CC12FEFC1
:1022D000C216D206E206F206B9F4CC24CA94DC2C6B
:1022E0007601C701B601DF91CF911F910F91FF9049
:1022F000EF90DF90CF90BF90AF909F908F907F90A6
:102300006F905F904F9008958B899C89AD89BE89AD
:1023100053014201C816D906EA06FB0608F0BECFF3
:10232000E0CF812C912C54018394B8CF8414950470
:10233000A604B70409F041C0750164018FEFC81A03
:10234000D80AE80AF80A8B899C89AD89BE89C81623
:10235000D906EA06FB0628F022E0C22ED12CE12C99
:10236000F12CB701A601F801808191810E94AA0E8B
:10237000613071058105910509F4B5C06F3FFFEF2C
:102380007F078F079F0709F4A8CF672B682B692B5E
:1023900009F44DC08B859C85AD85BE858230910545
:1023A000A105B10550F04B895C896D897E89841740
:1023B0009507A607B70708F478C0750164012FEFE9
:1023C000C21AD20AE20AF20A8B899C89AD89BE89B7
:1023D000C816D906EA06FB0660F082E0881691046A
:1023E000A104B10408F463CF92E0C92ED12CE12CF2
:1023F000F12CB701A601F801808191810E94AA0EFB
:102400006115710581059105B9F06130710581058E
:10241000910509F468C06F3F7F4F8F4F9F4F09F4BC
:102420005CCFC814D904EA04FB0449F640CFC114B8
:10243000D104E104F10409F222E0C216D104E1045E
:10244000F10408F450C08B899C89AD89BE89C816F7
:10245000D906EA06FB0608F046C00FEF1FEF980109
:10246000B701A601CE010E94FF0F0097C9F54114E4
:10247000510461047104E1F4CB86DC86ED86FE86AE
:102480008F859889A989BA894B895C896D897E89EC
:102490004250510961097109481759076A077B07BA
:1024A00038F58C8181608C831CCF4C015D0185CF18
:1024B00082E04816510461047104A8F08B899C895C
:1024C000AD89BE89481659066A067B0660F49701F5
:1024D0008601B301A201CE010E94FF0F009761F2B5
:1024E000019709F4FACEC12CD12C7601C394F9CE10
:1024F0000197A109B1098F87988BA98BBA8BD1CF8E
:102500004F925F926F927F928F929F92AF92BF9203
:10251000CF92DF92EF92FF920F931F93CF93DF93AF
:1025200000D000D000D0CDB7DEB76B017C01CE016A
:1025300001960E940B098C01892B09F0F4C00091CF
:102540006A0410E00115110509F0EDC080916504E1
:1025500090916604A0916704B09168048C159D0564
:10256000AE05BF0530F42091690421FD02C06C0165
:102570007D0140906B0450906C0460906D047090ED
:102580006E0410926B0410926C0410926D04109201
:102590006E04C114D104E104F10439F480E090E048
:1025A000DC01C12CD12C760180C0E981FA818184C3
:1025B0009284B12CA12C39E0880C991CAA1CBB1C5C
:1025C0003A95D1F7411451046104710409F48AC0A9
:1025D00081E0481A510861087108C701B6016150CD
:1025E000710981099109A50194010E943F3B2B8348
:1025F0003C834D835E83C301B201A50194010E9417
:102600003F3B8B819C81AD81BE8182179307A407DC
:10261000B50708F467C088279927DC01881999094C
:10262000AA09BB0984219521A621B72180936B04B7
:1026300090936C04A0936D04B0936E04C81AD90AE9
:10264000EA0AFB0A40916F04509170046091710492
:1026500070917204411551056105710509F0E4C0DE
:10266000C12CD12C760180916B0490916C04A091C7
:102670006D04B0916E0440916504509166046091C0
:10268000670470916804481759076A077B0768F464
:102690008093650490936604A0936704B0936804E4
:1026A000209169042064209369049170AA27BB27B4
:1026B000892B8A2B8B2BB9F1809173049091740430
:1026C000A0917504B09176048C159D05AE05BF05EB
:1026D00051F1C0927304D0927404E0927504F092A8
:1026E000760421C0409161045091620460916304BA
:1026F00070916404411551056105710509F03FC0F1
:1027000040E050E0BA018BE594E00E941F11AB015C
:10271000BC014130510561057105E9F482E0809307
:102720006A0402E010E0C80126960FB6F894DEBFF6
:102730000FBECDBFDF91CF911F910F91FF90EF9012
:10274000DF90CF90BF90AF909F908F907F906F90D1
:102750005F904F9008954F3F9FEF590769077907A2
:1027600031F481E080936A0401E010E0DCCF409313
:102770006104509362046093630470936404409313
:102780006F0450937004609371047093720462CF6D
:10279000C818D908EA08FB08880D991DAA1DBB1D99
:1027A00080936B0490936C04A0936D04B0936E04BB
:1027B0008091690481FF0FC08BE594E00E941F1196
:1027C000AB01BC01411551056105710561F4C12CD6
:1027D000D12C760137C080915B0490915C040E94FB
:1027E000AA0EAB01BC014F3FAFEF5A076A077A0749
:1027F00009F4B7CF423051056105710508F48ECF59
:10280000E981FA8183899489A589B689481759078E
:102810006A077B0708F082CF40936F0450937004DF
:10282000609371047093720480916B0490916C04B6
:10283000A0916D04B0916E048C149D04AE04BF048D
:1028400008F4A6CF80916B0490916C04A0916D0464
:10285000B0916E048C0D9D1DAE1DBF1D80936B0449
:1028600090936C04A0936D04B0936E04D701C601DD
:102870009170AA27BB27892B8A2B8B2B09F4F0CECA
:1028800089819A810E946F09611571058105910501
:1028900009F444CF29E0F694E794D794C7942A9595
:1028A000D1F7C60ED71EE81EF91EDDCEAF92BF923D
:1028B000CF92DF92EF92FF920F931F93CF93DF930C
:1028C00000D000D0CDB7DEB78C016B017A018091CA
:1028D00086048333E9F45B016801C40ED51EC0167B
:1028E000D106A9F10E941D058FE00E942805812FC5
:1028F0000E942805802F0E9428050F5F1F4F80E04F
:102900000E942805F50181935F010E941305E7CF1E
:10291000843369F50E941D0519830A838F2D8F77F3
:102920008B83EC8264E070E0CE0101960E94F90492
:10293000A70170E060E0C6010E948C3BE114F10445
:1029400021F0B701C6010E94F9040E941305C701D6
:102950000F900F900F900F90DF91CF911F910F91DB
:10296000FF90EF90DF90CF90BF90AF9008950E94BE
:102970001D050F3F110509F030F419820A831B82EF
:1029800063E070E0D1CF17FD0BC019820A8333E0FA
:10299000169507953A95E1F7007E08600B83F0CF16
:1029A000C80126E0969587952A95E1F7807E1983E0
:1029B0000A830115104C18F480618B83E1CF886184
:1029C000FCCFCF93DF931F92CDB7DEB72091870462
:1029D00030E0322F2227260F371F90E0982F8827CC
:1029E00041E050E0BE016F5F7F4F820F931F0E9456
:1029F000561489810F90DF91CF910895CF93C82FFE
:102A0000462F61E070E00E943B0661E070E08C2F91
:102A10000E94E1148111F9CFCF910895CF93C82F6F
:102A200080E591E00E94230468E070E08C2FCF9154
:102A30000C94FE14CF93C82F80E591E00E942304EC
:102A400060E170E08C2FCF910C94FE14CF93DF9354
:102A5000EC01888D843020F40E941A1584E0888F60
:102A6000DF91CF91089563E070E00C94E114CF936F
:102A7000C82F80E591E00E9423048C2FCF910C9405
:102A80003315EF92FF920F931F93CF937C0102E5D2
:102A900014E0C0E0F801219131918F01F7018481A8
:102AA00095812817390729F0CF5FC43099F780E066
:102AB00006C08C2F0E9437158431B1F781E0CF9189
:102AC0001F910F91FF90EF900895CF93DF93EC014A
:102AD0008C858430D0F40E943715843189F08823A6
:102AE00079F0883169F021E08C3159F4E881F9817D
:102AF0000084F185E02DCE01099521E0892B09F4B0
:102B000020E0822FDF91CF91089580E0FBCFCF921C
:102B1000DF92EF92FF92CF93DF93EC018C858430AC
:102B200068F40E940E150E94ED046B017C018C85F7
:102B30000E943715811109C084E08C87DF91CF9105
:102B4000FF90EF90DF90CF90089561E070E080E01B
:102B500090E00E94BB040E94ED04AB01BC014C1943
:102B60005D096E097F098D859E85B0E0A0E048175C
:102B700059076A077B07D8F28C850E941A15DCCFAB
:102B8000CF93FC01C08D80E591E00E94230460E2B8
:102B900070E08C2F0E94FE1462E070E08C2F0E9487
:102BA000E11484FD16C062E070E08C2F0E94E114F5
:102BB00083FF0AC048E162E070E08C2F0E943B0670
:102BC00080E090E0CF91089580E591E00E94230499
:102BD000E3CF40E162E070E08C2F0E943B0681E091
:102BE000F0CFCF93DF931F92CDB7DEB741E050E037
:102BF000BE016F5F7F4F90E080E00E945614898194
:102C00000F90DF91CF910895CF93DF93C4E1D0E08F
:102C10000E94F115882361F061E070E080E090E0AF
:102C20000E94BB042197A1F780E0DF91CF91089526
:102C300081E0FBCFCF92DF92EF92FF920F931F9331
:102C4000CF93DF93CDB7DEB7C454D1090FB6F89454
:102C5000DEBF0FBECDBFFC0182819381A481B5810F
:102C600023968CAF9DAFAEAFBFAF239721E02396E5
:102C70002FAF239723964CAD5DAD6EAD7FAD2397FF
:102C80004BAB5CAB6DAB7EAB89AF9AAFABAFBCAFC0
:102C90008DA79EA7AFA7B8AB28AB4DA55EA56FA526
:102CA00078A94FA358A769A77AA72EAB4BA95CA90F
:102CB0006DA97EA949A35AA36BA37CA38B8F9C8F7C
:102CC000AD8FBE8F46E951E05C8B4B8B3FEF3D8B68
:102CD0003E8B3F8B188E5E874D872AA7CFA0D8A446
:102CE000E9A4FAA4CF86D88AE98AFA8A2CA309A192
:102CF0001AA12BA13CA109871A872B873C875A83ED
:102D000049838B839C83AD83BE838091880481112A
:102D1000ADC060E372E080E090E00E94BB041FB7AA
:102D2000F89480918504811124C0E2EDF7E084914C
:102D3000E6EEF7E09491E82FF0E0EE0FFF1FE2548B
:102D4000F84FA591B491EC91E92321F461E08AE078
:102D50000E944A048AE00E9426048CB580618CBDE2
:102D60008CB580648CBD8DE00E9426048BE00E94AF
:102D70002604809185048F5F809385041FBF809116
:102D80001801282F30E0F901E853F84FE491F0E002
:102D9000EE0FFF1FEC54F84F45915491509384046B
:102DA00040938304F901E452F84FE491E0938204E4
:102DB0000E9426040E94130580E591E00E942304EE
:102DC00084E38093860480E80E94DF050E94041655
:102DD000882309F481C088E00E94DF050E94F11574
:102DE000883009F079C080E10E94DF050E94F1156A
:102DF000803109F071C080E00E94DF050E94F1156A
:102E0000182F811169C041E050E0BE016D5B7F4F1A
:102E10008FE190E00E94561424968FAD2497833062
:102E200009F05AC080E48093870442E06EE170E0CC
:102E3000812F0E943B0642E06FE170E0812F0E94EB
:102E40003B061F5F143089F740E06EE170E0812F90
:102E50000E943B0640E06FE170E0812F0E943B063C
:102E60001F5F183089F781E08093880480E591E046
:102E70000E94230446E050E069E171E089E090E0BF
:102E80000E942F0544E050E0BE016D5F7F4F8FE050
:102E900090E00E942F0544E050E0BE01615F7F4F4B
:102EA00081E090E00E942F0544E050E0BE016B5E9F
:102EB0007F4F85E090E00E942F0581E08C87898517
:102EC0009A85AB85BC858093A9049093AA04A093AE
:102ED000AB04B093AC046FC087E38093860480E8B2
:102EE0000E94DF050E940416882339F188E00E94C1
:102EF000DF050E94F115883001F580E10E94DF05B1
:102F00000E94F115182F8031C1F480E00E94DF0586
:102F10000E94F115811111C041E050E0BE016D5BCE
:102F20007F4F89E390E00E94561424968FAD24973A
:102F3000843019F41093870496CF83E3809386043A
:102F400080E80E94DF050E940416882391F180E149
:102F50000E94DF050E94F115803159F582E10E943F
:102F6000DF050E94F115823121F580E00E94DF0526
:102F70000E94F11581111DC084E08093870415E53E
:102F800025961FAF259741E050E0BE016C5B7F4F57
:102F90008BE190E00E942F0524961FAF249741E01B
:102FA00050E0BE016D5B7F4F8AE190E00E942F05EB
:102FB0005ACF10928604CC5BDF4F0FB6F894DEBF79
:102FC0000FBECDBFDF91CF911F910F91FF90EF907A
:102FD000DF90CF9008951F93CF93DF931F92CDB7CB
:102FE000DEB7182F80E591E00E942304812F0E9414
:102FF000F20527E0129FF0011124EA5CFB4F2281C9
:103000003381377041E050E0BE016F5F7F4F820F28
:10301000931F0E94561489810F90DF91CF911F91C9
:103020000895FC01808D843040F4218D328D232B56
:1030300021F00E94EB1790E008958FEF9FEF089525
:10304000CF93DF93FC012485243028F08FEF9FEF8E
:10305000DF91CF910895EC010190F081E02D008483
:10306000F185E02D0995892B89F38C850E94EB175A
:1030700090E0EECFDA01E0918704F0E0FE2FEE273A
:10308000E60FF71F90E0982F8827A901BD018E0F4A
:103090009F1F0C9456148F929F92AF92BF92CF9223
:1030A000DF92EF92FF921F93CF93DF93CDB7DEB7FE
:1030B0002C970FB6F894DEBF0FBECDBF20918604CB
:1030C00014E0222329F16B017C0180E591E00E944C
:1030D00023045E0127E0A20EB11C450110E0812F00
:1030E0000E943315F40181934F01882349F11F5F3A
:1030F0001430A9F710E0F50181915F018D31D9F00D
:103100008831C9F08A518230B0F01F5F143099F7CE
:10311000812F2C960FB6F894DEBF0FBECDBFDF9186
:10312000CF911F91FF90EF90DF90CF90BF90AF9025
:103130009F908F90089560E170E0812F0E94FE14AF
:10314000A12EB12CF501EE0FFF1FEE5AFB4F11829D
:10315000108283EE93E00197F1F742E870E060E0BF
:10316000812F0E943B064FEF62E070E0812F0E94AA
:103170003B06B601C114D10491F4809111019091E4
:10318000120101968115F0EC9F0708F45CC0909342
:103190001201809311016091110170911201812F30
:1031A0000E94260686E0EBE2F1E0DE011196019036
:1031B0000D928A95E1F7F70183818F778C83848163
:1031C0008D8385818E83A7014E5F5F4F24E030E0C1
:1031D0006CE070E0812F0E940006B601812F0E94F2
:1031E000110626E030E0AE014F5F5F4F66E070E011
:1031F000812F0E94000661E070E0812F0E94FE1482
:1032000027E02A9DC0012B9D900D11249C012A5C72
:103210003B4F7901F9011182108222E030E0AE01CA
:10322000455F5F4F68E270E0812F0E943A188B85FE
:103230009C85982789279827F70193838283168294
:103240001582148265CF80E090ECA1CFCF92DF92FF
:10325000EF92FF920F931F93CF93DF9300D000D094
:1032600000D0CDB7DEB78C016B017A01FC01808DF7
:10327000843010F40E941A1586E991E09A838983BC
:10328000F60182819381A481B5818B839C83AD8378
:10329000BE83B701CE0101960E944B18F801808FC2
:1032A0008430A0F4F586E486128E118E81E0269695
:1032B0000FB6F894DEBF0FBECDBFDF91CF911F9147
:1032C0000F91FF90EF90DF90CF90089580E0EFCFC7
:1032D000AF92BF92CF92DF92EF92FF920F931F9324
:1032E000CF93DF9300D000D000D0CDB7DEB7082F4A
:1032F0006B0180E591E00E9423049E012F5F3F4F08
:103300007901590110E0812F0E943315F501819355
:103310005F01882341F11F5F1430A9F710E0F70126
:1033200081917F018D31D1F08831C1F08A51823095
:10333000A8F01F5F143099F7812F26960FB6F894E6
:10334000DEBF0FBECDBFDF91CF911F910F91FF90D8
:10335000EF90DF90CF90BF90AF90089560E170E064
:10336000812F0E94FE14E12EF12CF701EE0FFF1FBA
:10337000EE5AFB4F1182108283EE93E00197F1F732
:10338000402F70E060E0812F0E943B064FEF62E02B
:1033900070E0812F0E943B06B601CD2889F4809110
:1033A00011019091120101968115F0EC9F0798F19F
:1033B000909312018093110160911101709112019B
:1033C000812F0E94260661E070E0812F0E94FE148A
:1033D00027E02E9DC0012F9D900D11249C012A5C99
:1033E0003B4F7901F9011182108222E030E0AE01F9
:1033F0004B5F5F4F68E270E0812F0E943A188D8129
:103400009E81982789279827F701938382831682C4
:103410001582148291CF80E090ECCACFCF92DF92D8
:10342000EF92FF921F93CF93DF93EC017B016A0130
:103430008C85843048F40E943715882319F08C85D8
:103440000E940E1584E08C87F70182819381A4810C
:10345000B5810097A105B10551F490E080E0DF91BE
:10346000CF911F91FF90EF90DF90CF9008958F3F05
:103470009F4FAF4FBF4F89F380918604811103C0E6
:1034800084E08C87EACF70E060E081E20E946819F6
:10349000182F8C87843008F780E591E00E94230480
:1034A000A7014E5F5F4F24E030E06CE070E0812FB9
:1034B0000E940006B601812F0E94110664E070E0B0
:1034C000812F0E94FE140E94ED046B017C018C850B
:1034D0000E943715873109F18C31F9F0882309F4FE
:1034E000BCCF0E94ED04AB01BC014C195D096E0913
:1034F0007F098D859E85B0E0A0E084179507A6071B
:10350000B70738F061E070E080E090E00E94BB0413
:10351000DECF8C850E941A15B3CF81E090E09FCF5B
:103520000F931F93CF93DF93EC018B01888D843031
:1035300010F40E941A1580918604811107C094E04E
:10354000988FDF91CF911F910F910895B80182E07C
:103550000E946819888F843030F41D870C871A8E7A
:10356000198E81E0EECF80E0ECCF0F931F93CF93C5
:1035700020918604222349F18C01FC01648175812C
:1035800081E20E946819C82F8430F8F480E591E048
:103590000E9423048C2F0E943315833131F08C2F2D
:1035A000CF911F910F910C940E1562E070E08C2F5B
:1035B0000E94FE14F80184819581EC2FF0E0EE0F5B
:1035C000FF1FEE5AFB4F91838083CF911F910F9184
:1035D0000895BF92CF92DF92EF92FF920F931F93C5
:1035E000CF93DF93EC016B018091860481111FC0A2
:1035F0001B821A8288EE93E0A0E0B0E08C839D836A
:10360000AE83BF8384E691E09983888384E08C87CE
:1036100088EE93E09E878D87CE01DF91CF911F9139
:103620000F91FF90EF90DF90CF90BF90089582E5CB
:10363000E82E84E0F82EB12C04E010E0F70121918F
:1036400031917F01F601848195812817390771F442
:10365000812F0E943715043009F5873111F08C3124
:10366000E9F4F701329711821082012F1F5F1430A5
:1036700029F7B11003C0C6010E94B51A1B821A8235
:1036800088EE93E0A0E0B0E08C839D83AE83BF839F
:1036900084E691E0998388830C87BACF843139F02E
:1036A0008111E4CFF701329711821082DFCFBB2462
:1036B000B394DCCFCF92DF92EF92FF921F93CF9320
:1036C000DF93CDB7DEB72F970FB6F894DEBF0FBEEE
:1036D000CDBF182F98EBC92E9BE0D92E882319F067
:1036E0008AE0C82ED12CF12CE12C6DED74E0CE01D6
:1036F00001960E94E91A8B819C819093C204809369
:10370000C1048D819E81AF81B8858093C30490935D
:10371000C404A093C504B093C60489859A85AB857B
:10372000BC858093C7049093C804A093C904B09348
:10373000CA048D858093CB048E859F859093CD049C
:103740008093CC048FEB94E00E9465158823E9F008
:10375000112399F08FEB94E00E948715812F2F960B
:103760000FB6F894DEBF0FBECDBFDF91CF911F9192
:10377000FF90EF90DF90CF90089588E893E19093C9
:10378000CD048093CC0411E0E9CF61E070E080E0EB
:1037900090E00E94BB048FEFE81AF80ACE14DF0411
:1037A00009F0A3CF10E0DACF7F928F929F92AF9271
:1037B000BF92CF92DF92EF92FF920F931F93CF931E
:1037C000DF9300D0CDB7DEB7782E8B014A015901C7
:1037D00022E030E0AE014F5F5F4F64E270E00E9494
:1037E0003A18E980FA80FE24EF24FE24E00EF11E50
:1037F0009701377040918604072D10E0433309F09C
:1038000042C0085F1F4F102F0027110F110F110F1B
:10381000C901800F911F4733C9F1A9014A0D5B1DF2
:103820004130584098F160E078E06B01C21AD30A49
:10383000A601B4010E942F05A5014C195D09B40130
:103840006C0D7D1DC8010E942F05EA0CFB1CF9823E
:10385000EA8222E030E0AE014F5F5F4F64E270E049
:10386000872D0E9400060F900F90DF91CF911F913E
:103870000F91FF90EF90DF90CF90BF90AF909F900F
:103880008F907F900895005F1F4FBDCFA501B401B9
:10389000DACFEF92FF921F93CF93DF9300D0CDB793
:1038A000DEB7182F22E030E0AE014F5F5F4F60E2DD
:1038B00070E00E943A18E980FA80FE24EF24FE248A
:1038C00022E030E0AE014F5F5F4F60E270E0812F99
:1038D0000E943A1889819A81982789279827E816A3
:1038E000F90689F487E0189FF0011124EA5CFB4F88
:1038F000F582E482C7010F900F90DF91CF911F9165
:10390000FF90EF9008957C01DBCF1F93CF93DF935F
:10391000182F80E591E00E942304812F0E94491C0A
:10392000EC01812F0E943315873121F08C3111F089
:10393000D0E0C0E0CE01DF91CF911F910895CF93E9
:10394000DF93EC018C85843060F40E943715873159
:1039500011F08C3131F48C850E94851C81159840C2
:1039600088F3DF91CF910895FC018485843010F4B1
:103970000C94851C90E080E00895CF92DF92EF9246
:10398000FF921F93CF93DF93182F7B01EA01413001
:10399000584010F0C0E0D8E080E591E00E94230498
:1039A000812F0E94491C6C01812F0E9433158731A1
:1039B00011F08C3121F5CC16DD0670F380E591E035
:1039C0000E9423049E01A70170E060E0812F0E9405
:1039D000D41B60E270E0812F0E94FE1462E070E070
:1039E000812F0E94E11484FD0DC0812F0E943315A8
:1039F0008823B9F080E591E00E942304EFCFD0E066
:103A0000C0E0DCCF40E162E070E0812F0E943B0625
:103A1000CE01DF91CF911F91FF90EF90DF90CF907B
:103A20000895D0E0C0E0F4CF0F931F93CF93DF93BE
:103A30008C01EA01FC018485843048F40E94BD1C9D
:103A4000892B39F481E090E0F80193838283D0E000
:103A5000C0E0CE01DF91CF911F910F9108950C949A
:103A6000141DFC01E60FF71F2DE020832AE02183BF
:103A7000AB014E5F5F4FBC018EEC94E00C942F1DA8
:103A8000CF92DF92EF920F931F93CF93DF936C014E
:103A9000EB01AB0170E060E080E3E82E04E610E0AB
:103AA00020E030E0C6010E94870B80E2F6018383AC
:103AB00062EA76E0CD3DD10529F190F463ED76E040
:103AC000C73DD105F9F067EA76E0CC3DD105D1F0EC
:103AD0006BE676E0C039D140A8F468E676E012C023
:103AE0006FE776E0C832F2E0DF0761F062E776E088
:103AF000C93282E0D80731F0C632E2E0DE0741F792
:103B00006EE876E0C60104960E94F00B8C5F682F89
:103B100070E0C601DF91CF911F910F91EF90DF9080
:103B2000CF900C94311D9F92AF92BF92CF92DF92B3
:103B3000EF92FF920F931F93CF93DF938C015B0162
:103B4000942EE52EFC01C688D788F08C80E591E0A4
:103B50000E9423048F2D0E94491CC92DDE2D8C1735
:103B60009D0708F4EC019E01A501B6018F2D0E946E
:103B7000D41BF801868997898C0F9D1F978B868BA4
:103B8000CE01DF91CF911F910F91FF90EF90DF90C9
:103B9000CF90BF90AF909F900895FF920F931F9387
:103BA000CF93DF9300D0CDB7DEB7F82E22E030E020
:103BB000AE014F5F5F4F66E270E00E943A180981E4
:103BC0001A8110270127102722E030E0AE014F5F55
:103BD0005F4F66E270E08F2D0E943A1889819A81CA
:103BE0009827892798270817190749F4C8010F90C3
:103BF0000F90DF91CF911F910F91FF9008958C014D
:103C0000E3CF1F93CF93DF93182F87E0189FE00136
:103C10001124CA5CDB4F88819981009761F480E5AB
:103C200091E00E942304812F0E94CD1D2E81821BD2
:103C3000910999838883DF91CF911F9108957F9295
:103C40008F929F92AF92BF92CF92DF92EF92FF92AC
:103C50000F931F93CF93DF938C015B017A018091C7
:103C60008604882309F465C082E5C82E84E0D82E36
:103C70004601712CC0E0D4012D913D914D01F80118
:103C8000848195812817390799F48C2F0E94371564
:103C9000D82F873119F08C3109F03FC08C2F0E944A
:103CA000011E892B29F4DC3119F48C2F0E940E158A
:103CB000CF5FC43001F7711008C0D801ED91FC91BD
:103CC0000084F185E02DC8010995C0E0F60121913D
:103CD00031916F01D80114968D919C912817390765
:103CE00051F48C2F0E943715873129F4A701B501B3
:103CF0008C2F0E94BD1CCF5FC43041F7C701DF91FC
:103D0000CF911F910F91FF90EF90DF90CF90BF90D8
:103D1000AF909F908F907F900895843139F08111FA
:103D2000C7CFF401329711821082C2CF77247394E7
:103D3000BFCFF12CE12CE2CFFC018485843010F45C
:103D40000C94011E90E080E008954F925F927F9264
:103D50008F929F92AF92BF92CF92DF92EF92FF929B
:103D60000F931F93CF93DF9300D0CDB7DEB7782E9C
:103D70006B014A01A82EB12C27E0829FC0011124BB
:103D8000FC01EA5CFB4F7F010081118180E591E03D
:103D90000E9423040815190554F4872D0E94CD1D97
:103DA000F70126818C01021B110911830083011583
:103DB000110519F5872D0E943315843159F0882398
:103DC00049F001E010E08C3111F410E000E01195B1
:103DD00001951109C8010F900F90DF91CF911F91AC
:103DE0000F91FF90EF90DF90CF90BF90AF909F909A
:103DF0008F907F905F904F900895801691060CF4FD
:103E0000840187E08A9DF0018B9DF00D1124EA5C0E
:103E1000FB4FE280F380C114D10451F12701F7E098
:103E20005F22872D0E94F205840D951D2091860446
:103E3000273309F453C09801240D351D2130384033
:103E400008F44CC020E038E0490184189508A4012A
:103E5000B6010E9456142601480C591C6801C81866
:103E6000D908872D0E94F205A601B2010E945614BE
:103E7000E00EF11E87E08A9DF0018B9DF00D11246C
:103E8000EA5CFB4FF382E28220813181201B310BFF
:103E9000318320838681800F912F911D8A3F910568
:103EA00010F4232BF1F487E08A9DF0018B9DF00D37
:103EB0001124EA5CFB4F1682F982EA8222E030E0AC
:103EC000AE014F5F5F4F68E270E0872D0E940006F1
:103ED00060E470E0872D0E94FE147CCFA801B6013B
:103EE000C5CF868377CFCF93DF93FC01218D328DB1
:103EF0002115310529F48FEF9FEFDF91CF910895C0
:103F0000EC01808D4217530708F0A9010E94A51EFD
:103F10001816190684F7298D3A8D281B390B3A8F0C
:103F2000298FEBCF0F931F93CF93DF931F92CDB7C2
:103F3000DEB7FC01218D328D232B41F48FEF9FEFF3
:103F40000F90DF91CF911F910F9108958C0141E067
:103F500050E0BE016F5F7F4FFC01808D0E94A51E67
:103F6000181619065CF7F801818D928D0197928FD2
:103F7000818F898190E0E4CF0F931F93CF93DF93DC
:103F8000CDB7DEB728970FB6F894DEBF0FBECDBF12
:103F90008C01D80159964D915C915A974115510564
:103FA00051F0ED91FC91048CF58DE02D70E060E016
:103FB000C8010995EECFF801808D0E94011E892B62
:103FC000B1F148E050E0BE016F5F7F4FD8015896D5
:103FD0008C910E94A51E18161906F4F4D80150966B
:103FE00084E0FE01319601900D928A95E1F78D8172
:103FF00090E0982F88272E81820F911DF801958BD4
:10400000848B8F81282F30E0322F22278885820FE2
:10401000932F911D928F818F28960FB6F894DEBF53
:104020000FBECDBFDF91CF911F910F91089590E00A
:1040300080E0F2CF4F925F926F927F928F929F9229
:10404000AF92BF92CF92DF92EF92FF920F931F93A6
:10405000CF93DF93CDB7DEB763970FB6F894DEBF8B
:104060000FBECDBF7C016B013A01FB0120E090E067
:1040700080E06AE03191332309F461C040ED430FE1
:104080004A3008F04DC0689FA001699F500D11246F
:10409000CA01C097830F911D37FD9A958F3F9105F7
:1040A00049F340F3F7014281538164817581809126
:1040B000B5049091B604A091B704B091B804481724
:1040C00059076A077B0709F40DC28701085F1F4F74
:1040D0000E94ED046F7077277C5FC8010E94901AE0
:1040E000813009F004C286E991E09A838983F7015F
:1040F00082819381A481B5818B839C83AD83BE83B0
:1041000045E350E0BE016F5F7F4FC8010E94A606E5
:10411000892BA9F5D12CC12CC8010E94261517C0E6
:104120003E3209F0BFCF233009F4BCCFD301A20F38
:10413000B11D12968C932F5F90E080E09BCF2330CF
:1041400009F0B0CFF3018583CC24C394D12CC601F0
:1041500063960FB6F894DEBF0FBECDBFDF91CF914F
:104160001F910F91FF90EF90DF90CF90BF90AF9095
:104170009F908F907F906F905F904F9008950E94D6
:10418000ED04F7017783668342E050E0B7016A5F90
:104190007F4FC8010E94931D81E090E09A8389833C
:1041A00042E050E0BE016F5F7F4FC8010E94931D47
:1041B00080E091E09A83898342E050E0BE016F5F26
:1041C0007F4FC8010E94931D1A82198242E050E07D
:1041D000BE016F5F7F4FC8010E94931D42E050E017
:1041E000BE016F5F7F4FC8010E94931D42E050E007
:1041F000BE016F5F7F4FC8010E94931D5601F601FB
:104200008081882301F16501F60181912F018823C6
:1042100011F08E32B1F446018A189B081814190463
:1042200074F48D8641E050E0BE01635F7F4FC801AA
:104230000E94931DA401B501C8010E94931D520163
:10424000DECF6201E1CF1D8641E050E0BE01635F39
:104250007F4FC8010E94931DC12CDD24D394DA82C4
:10426000C98242E050E0BE016F5F7F4FC8010E94EB
:10427000931DDA82C98242E050E0BE016F5F7F4F3A
:10428000C8010E94931DC8010E94C015892B09F422
:1042900041CFF3E0AF2EB12C230122E0420E511C9E
:1042A000D4C0F7014281538164817581808D918DE5
:1042B000A28DB38D481759076A077B0709F008C11B
:1042C000848D958DC59709F003C181A192A15DEF01
:1042D000C52EDD24DA940C970CF4ADC04CE050E010
:1042E000BE016F5F7F4FC8010E94731F8B819C814D
:1042F0009827892798279A8B898BF70146815781C0
:1043000029813A814217530709F0E7C097FFE5C0BA
:104310008F7092703BEFC32EDD24DA94892B09F065
:104320008AC06F8078847624672476242AEFC22E90
:10433000DD24DA946114710409F47DC0D12CC12C00
:104340008D819E81982789279827C816D906F8F469
:1043500041E050E0BE01635F7F4FC8010E94731FC0
:104360004D85442331F050E070E060E0C8010E94C8
:10437000731F8D858111ECCF44E050E070E060E068
:10438000C8010E94731FFFEFCF1ADF0AD9CF912C0B
:10439000812C41E050E0BE016D5E7F4FC8010E945C
:1043A000731F4B89842F807C09F06CC0442331F04B
:1043B00050E070E060E0C8010E94731F8B8981119A
:1043C000E8CF42E050E0BE01615F7F4FC8010E942C
:1043D000731F42E050E0BE01635F7F4FC8010E943F
:1043E000731F44E050E070E060E0C8010E94731F5A
:1043F00042E050E0BE016F5E7F4FC8010E94731F14
:104400008F85988949895A898115914009F043C05F
:10441000CD84DE84DC24CD24DC2481E0C816D104E4
:10442000D1F54115544009F04AC044E050E0B201D2
:10443000C8010E94731F21E0A21AB10809F46CCED2
:10444000FFEFCF16DF0609F067CE0E94ED043B01B7
:104450004C01C8010E94BC1F181619060CF421CF8C
:104460000E94ED0466197709880999096938734132
:104470008105910548F562E370E080E090E00E94DC
:10448000BB04E7CF41E050E070E060E0C8010E946B
:10449000731F1B8A93CF54274527542770E060E091
:1044A000C8010E94731FFFEF8F1A9F0A68147904D6
:1044B00009F06FCF96EFC92EDD24DA94BCCFE7EF79
:1044C000CE2EDD24DA94B7CFCC24CA94DC2CB3CF23
:1044D0006EEFC62EDD24DA94AECF4CEFC42EDD2471
:1044E000DA94A9CF8EEFC82EDD24DA9430CED12C09
:1044F000C12C2DCECF92DF92EF92FF920F931F939C
:10450000CF93DF93CDB7DEB7AF970FB6F894DEBF8A
:104510000FBECDBF7C016A0106E911E01A83098351
:104520001C861B8688EE93E0A0E0B0E08D879E8716
:10453000AF87B88B8AE391E09A878987188F0F8BB2
:10454000198E1A8E1B8E1C8E84E089A31BA70AA7C6
:104550001CA61DA61EA61FA68091A9049091AA04C0
:10456000A091AB04B091AC048EA39FA3A8A7B9A758
:104570008B839C83AD83BE8318861F82AE01465D0C
:104580005F4FCE0101960E941A2081309105B1F44F
:10459000D701ED91FC910488F589E02D1DA30CA3B2
:1045A0008CA59DA5AEA5BFA58EA39FA3A8A7B9A7BF
:1045B000A601BE016C5D7F4FC7010995AF960FB68E
:1045C000F894DEBF0FBECDBFDF91CF911F910F9149
:1045D000FF90EF90DF90CF900895CF92DF92EF920F
:1045E000FF920F931F93CF93DF93CDB7DEB7AF97B3
:1045F0000FB6F894DEBF0FBECDBF8C016B017A0100
:1046000086E991E09A8389831B821C821D821E8227
:104610001C861B8648EE53E060E070E04D875E87A5
:104620006F87788B2AE331E03A872987988F8F8BC1
:10463000198E1A8E1B8E1C8E24E029A39BA78AA795
:104640001CA61DA61EA61FA6D8011C968C91843000
:1046500060F40E943715882321F0F80184850E94B8
:104660000E1584E0D8011C968C938091A90490913A
:10467000AA04A091AB04B091AC048EA39FA3A8A7F9
:10468000B9A78B839C83AD83BE8318861F82AE013E
:10469000465D5F4FB601CE0101960E941A20009739
:1046A000C1F0D801ED91FC910684F785E02D86E9F3
:1046B00091E09DA38CA38CA59DA5AEA5BFA58EA3BF
:1046C0009FA3A8A7B9A7A701BE016C5D7F4FC80132
:1046D0000995AF960FB6F894DEBF0FBECDBFDF9140
:1046E000CF911F910F91FF90EF90DF90CF900895A1
:1046F000CF93DF931F92CDB7DEB741E050E0BE010C
:104700006F5F7F4FFC0184850E94A51E1816190655
:1047100034F4898190E00F90DF91CF9108958FEF6D
:104720009FEFF9CFFC018485843010F40C94A51E12
:1047300090E080E008950F931F93CF93DF9300D014
:10474000CDB7DEB7FC0124852430E0F48C0180E590
:1047500091E00E94230422E030E0AE014F5F5F4F02
:1047600060E170E0F80184850E943A1889819A819D
:104770009827892798270F900F90DF91CF911F914D
:104780000F91089590E080E0F6CFEF92FF920F93A3
:104790001F93CF93DF9300D000D0CDB7DEB78C014D
:1047A0007B01FB0184858430A8F086E991E0F80163
:1047B000918380831282138214821582C8010F9024
:1047C0000F900F900F90DF91CF911F910F91FF905D
:1047D000EF90089580E591E00E94230424E030E00A
:1047E000AE014F5F5F4F6CE070E0F70184850E947F
:1047F0003A1886E991E0F8019183808389819A8152
:10480000AB81BC8182839383A483B583D7CF0F937D
:104810001F93CF93DF9300D0CDB7DEB7FC01248583
:104820002430E0F48C0180E591E00E94230422E032
:1048300030E0AE014F5F5F4F64E070E0F8018485C7
:104840000E943A1889819A819827892798270F9082
:104850000F90DF91CF911F910F91089590E080E02C
:10486000F6CF2F923F924F925F926F927F928F92EC
:104870009F92AF92BF92CF92DF92EF92FF920F93EF
:104880001F93CF93DF9300D000D000D0CDB7DEB719
:10489000FC01208131813E832D83C684D784E0884A
:1048A000F18830E2C30ED11CE11CF11CC114D1040B
:1048B00080E2E806F10420F0168A178A108E118E25
:1048C00086899789A08DB18D0097A105B105B1F1B9
:1048D0003B011F01B701A601517066277727452BC1
:1048E000462B472B09F0E4C00196A11DB11D868B14
:1048F000978BA08FB18F4289538964897589ED8127
:10490000FE814115510561057105D9F487819085B6
:10491000B0E0A0E0B701A60135E076956795579520
:1049200047953A95D1F7481759076A077B0708F466
:10493000BFC0F101168A178A108E118E84E090E0B4
:1049400024C0818592850197B0E0A0E0460157011F
:1049500029E0B694A794979487942A95D1F7882153
:104960009921AA21BB21892B8A2B8B2B09F0A0C06E
:10497000CF010E94AA0E4B015C01F2E08F16910458
:10498000A104B104D8F482E090E026960FB6F89422
:10499000DEBF0FBECDBFDF91CF911F910F91FF9072
:1049A000EF90DF90CF90BF90AF909F908F907F90CF
:1049B0006F905F904F903F902F9008952FEF821649
:1049C0009206A206B20619F481E090E0DECFED81F6
:1049D000FE8183899489A589B68988169906AA06D5
:1049E000BB0608F455C0672809F4A3CFF10142893A
:1049F000538964897589C1010E941F114B015C01B3
:104A000087E090E081149104A104B10409F4BDCFC2
:104A1000F1E08F169104A104B10409F4B4CF2FEF93
:104A200082169206A206B20679F28D819E810E94BC
:104A3000610E892B49F6B501A4018D819E810E94EA
:104A40006F092B013C01ED81FE8143A654A665A6AA
:104A500076A6BF96FC83EB8380E092E09C011192E6
:104A600021503040E1F71A821982ED81FE81818563
:104A7000928529813A812817390758F1ED81FE8105
:104A80008185928529813A812817390709F09CCFC1
:104A9000F101828A938AA48AB58AB501A4018D8125
:104AA0009E810E946F09F101668B778B808F918FB9
:104AB000F101C686D786E08AF18A8D819E818F9624
:104AC00096013170280F391F338F228F90E080E0DC
:104AD0005CCF01E010E0A301920189819A81280F47
:104AE000391F411D511D6B817C81ED81FE818181CA
:104AF0000E947B0D892B11F689819A8101969A83F8
:104B00008983B3CF0F931F93CF93DF93EC01FC0105
:104B1000E35DFD4F008111819FA59B3E21F0985ED2
:104B2000923008F04DC005352AEA120761F448E0DA
:104B300050E068EA71E0CE018F579F4F0E94763BAC
:104B4000892B09F447C08AAD9BAD9C0121503109E6
:104B500028233923232BA1F58115924089F58CADAB
:104B6000882371F190E09C01215031098223932325
:104B7000892B31F58DAD9EAD892B11F18FAD815013
:104B8000990B0297E8F4FE01E05CFF4F8081918170
:104B9000892BB1F03296808191818038910550F453
:104BA000CE01815B9F4F0E9497096115710581407D
:104BB000910530F0CB5BDF4F88819981892B51F4CF
:104BC00005351A4A51F083E090E0DF91CF911F91B3
:104BD0000F91089590E080E0F8CF82E090E0F5CF6B
:104BE0002F923F924F925F926F927F928F929F92FD
:104BF000AF92BF92CF92DF92EF92FF920F931F93EB
:104C0000CF93DF93CDB7DEB7A0970FB6F894DEBF92
:104C10000FBECDBF5B01E42EDB011D921C920E94F2
:104C200042096C013BE0232E312C97FD2EC0FC0184
:104C3000EE0FFF1FE358FB4F008111812CE0222E65
:104C4000312C0115110509F1F50111830083E89458
:104C5000E0F8D8018C91882391F11196FC90809115
:104C60005A04F8120E940009F0925A04EF2DF0E065
:104C7000ED5EFE4F808180FD22C0EE2009F466C209
:104C800082FF64C2BAE02B2E312CC101A0960FB670
:104C9000F894DEBF0FBECDBFDF91CF911F910F9172
:104CA000FF90EF90DF90CF90BF90AF909F908F904C
:104CB0007F906F905F904F903F902F900895F801F4
:104CC0001082C1828C2D0E94390A93E0292E312C4A
:104CD00080FDDBCFEE2011F082FDD4CFD8011396FA
:104CE0001C928FEF9FEFDC01F80183A794A7A5A783
:104CF000B6A740E050E0BA01C8010E94690E1C014D
:104D0000892B09F00FC1C8010E94822582309105CC
:104D100009F00CC16801FBE0CF1AFEEFDF0A9E012B
:104D20002F5F3F4F790148013BEC831A3DEF930A17
:104D30005701C6010E949709D5016D937D938D930C
:104D40009D935D01B0E1CB0ED11CC814D90489F745
:104D50006701E0E1CE0ED11C88248A94982C54017E
:104D6000D7014D915D916D917D917D0183E090E042
:104D7000411551056105710509F4CEC0F801138292
:104D800083A694A6A5A6B6A6C8010E94690E892B83
:104D900009F0C0C0C8010E9482258230910508F048
:104DA000BBC0F80182AD93AD8115924009F0C4C03B
:104DB000F801EB5BFF4F80809180B12CA12C811416
:104DC000910439F4C8018D5A9F4F0E9497094B01F5
:104DD0005C01D8019B962D913D914D915C919E97E0
:104DE0002D8B3E8B4F8B588FF801878A908EA18E2A
:104DF000B28E77AC72828FEF870D823008F09CC044
:104E0000F4ADF98B8F2F90E01A969C938E9319979F
:104E1000009709F491C09C0121503109822393230A
:104E2000892B09F089C0F801E05CFF4F20813181B6
:104E30003C8B2B8B18963C932E931797C9018F7040
:104E40009927892B09F078C03296C080D180F12C47
:104E5000E12CC114D10439F4C801815B9F4F0E9439
:104E600097096B017C01D801DD96ED91FC9130979B
:104E700009F462C0A72DB0E0A50194010E94343B63
:104E80006D8F7E8F8F8F98A39F0150E040E0298F18
:104E90003A8F4B8F5C8F8B899C89E4E09695879540
:104EA000EA95E1F729013A01480E591E611C711C6F
:104EB0008D8D9E8DAF8DB8A1480E591E6A1E7B1E2A
:104EC000C414D504E604F704B8F1C701B6016419A7
:104ED000750986099709A9892A2F30E050E040E03A
:104EE0000E943F3B211531054105510529F1263F1F
:104EF000BFEF3B074B07BFE05B07F0F4263F9FEF98
:104F000039074105510508F424C1A3E0B0E0BA8B8C
:104F1000A98B1AC084E090E0CE14DF0409F020CF02
:104F2000049751F422242394312CAFCE8430910580
:104F3000C9F3029708F435CFFDE02F2E312CA5CE12
:104F4000E1E0F0E0FA8BE98B69017A01F2E0CF0E43
:104F5000D11CE11CF11CD8015396CD92DD92ED924B
:104F6000FC9256972D893E894F89588D5B962D93DB
:104F70003D934D935C935E97898D9A8DAB8DBC8DDF
:104F8000820F931FA41FB51FF801878F90A3A1A3C1
:104F9000B2A3420E531E641E751E47A250A661A600
:104FA00072A629893A892330310509F09FC0E75A52
:104FB000FF4F80819181892B09F0BECF4B895C899D
:104FC000452B09F0B9CFC801855A9F4F0E94970918
:104FD000D80193966D937D938D939C93969772E0F1
:104FE000CC0CDD1CEE1CFF1C7A95D1F74FEFC40EE4
:104FF00041E0D41EE11CF11C49E0F694E794D794FB
:10500000C7944A95D1F78C149D04AE04BF0408F4EC
:1050100093CF8FEF9FEFDC01F8018787908BA18BF7
:10502000B28B83879487A587B68780E88483298994
:105030003A892330310509F048C0E15AFF4F808199
:105040009181019709F041C04D895E896F89788D02
:105050004F5F5F4F6F4F7F4FC8010E94690E892BD2
:10506000A1F5D80114961C92F801E35DFD4F8081F3
:10507000918185359A4A49F5C8018F960E94970912
:10508000623572458146914401F5C8018D5E9D4FA0
:105090000E9497096237724781449146B1F4C80172
:1050A000895E9D4F0E949709D8011F966D937D934D
:1050B0008D939C935297C801855E9D4F0E949709DE
:1050C000F8016387748785879687E989D801EC930F
:1050D00080911F0490912004019690932004809366
:1050E0001F0416969C938E931597CFCDEB89FC8960
:1050F000EF2B09F421CF2D8D3E8D4F8D58A1820FBE
:10510000931FA41FB51FF80183A394A3A5A3B6A35F
:1051100029893A892230310529F4CC0CDD1CEE1C9A
:10512000FF1C64CFA3E0B0E0A70196010E94343BCE
:10513000969587957795679531E0C322DD24EE2417
:10514000FF24C60ED71EE81EF91E50CF312C212C8D
:105150009CCD263FFFE03F074105510508F4F0CE06
:1051600082E090E09A8B898BEFCE1F93CF93DF93F1
:1051700000D000D000D0CDB7DEB79E838D83162F30
:1051800085E191E09C838B839A838983CE0101968C
:105190000E94420997FD2BC0880F991FFC01E3581C
:1051A000FB4F0190F081E02D309709F01082ED81E6
:1051B000FE81309709F0108283589B4FDC01ED93FC
:1051C000FC9390E080E0112341F040E0BE016B5F72
:1051D0007F4FCE0103960E94F02526960FB6F894D5
:1051E000DEBF0FBECDBFDF91CF911F9108958BE041
:1051F00090E0F3CF0C941E3B0C94953A2F923F9283
:105200004F925F926F927F928F929F92AF92BF92D6
:10521000CF92DF92EF92FF920F931F93CF93DF9382
:10522000CDB7DEB7AC970FB6F894DEBF0FBECDBFDB
:1052300090910E01981709F49BC2382E923008F015
:1052400003C1CE0101960E940B09892B09F0F2C01F
:105250008091690486FFE4C04091770450917804FE
:105260006091790470917A0489819A810E94690E13
:10527000892B09F0DFC0E0917B04F0917C048385E9
:10528000806283874091610450916204609163045D
:105290007091640420915B0430915C04428F538FC1
:1052A000D9012C91233029F4CB01AA27BB27848B69
:1052B000958B3091650420916604909167048091EC
:1052C0006804348F258F968F878F168A178A81E21C
:1052D000808F80E5818F128A138AE980FA8081E0CD
:1052E000F7018383C7010E940D0E8C01892B09F001
:1052F00090C0D7018C91833009F06BC014968C91CB
:105300001497813009F065C011968C91119720E0B7
:1053100032E0B701615D7F4FFB01A901119241505D
:105320005040E1F795E5F701E35DFD4F90839AEA80
:105330003196908392E59F969C939F97D0969C93ED
:10534000D09791E6D1969C93D19721E4D2962C9355
:10535000D29732E77B973083319630833196208322
:1053600031969083F7014785308921899289E95EDA
:10537000FD4F408331963083319620833196908360
:105380001B964C911B971C963C911C971D962C913B
:105390001D971E969C911E973196408331963083BF
:1053A0003196208331969083F701238D348D458D7E
:1053B000568D2F5F3F4F4F4F5F4F9B962D933D93E1
:1053C0004D935C939E9701E010E00E947B0DF701E6
:1053D0001482D70111961C9180915A0418130E94CF
:1053E000000910935A04E12FF0E0ED5EFE4F80813A
:1053F00001E010E080FD0DC080E58CBD0E949808A2
:1054000031E020E0892B09F030E0032F122F0E94B9
:105410009208809169048F7B80936904012B51F479
:10542000CE0101960E940B09892B21F410925C0495
:1054300010925B0480910E01805D8093150160E005
:1054400090E080E00E94B5288FEF80930E01B1E0DC
:10545000B31508F48BC110E3130D1093150161E02F
:1054600084ED91E00E94B528892B09F057C0E32D07
:10547000F0E0EE5DFB4F80818F3F09F480E01093F8
:105480000001282F30E044E0359527954A95E1F753
:105490002A3008F045C0205D209308018F708A30C3
:1054A00008F040C0805D8093090180E091E09AA7F8
:1054B00089A743E0BE01655D7F4FCE0189960E94BA
:1054C000F025892B11F58BA49CA49A828982E9A5E9
:1054D000FAA58F0181918F32E1F38C35D1F31F82D0
:1054E000188619861A86F80180813401FFE26F0E52
:1054F000711C803208F065C080E888A7CE01019653
:105500000E94680F892B09F4CDC010925C041092A0
:105510005B0460E090E080E00E94B52880E029C153
:10552000295CBACF895CBFCF4EE2841709F43AC137
:10553000EA14FB0450F7682F70E081EB91E00E94C1
:10554000933B892B11F78FE9820D8A3110F450EECD
:10555000250EEDE1F0E0EC0FFD1FEE0DFF1D2082AA
:10556000C70101967C013DC080E068C034E0C32ED5
:10557000D12C88A5CD2849F682FD94C08D8184FF69
:10558000C4CFEF85F889F170AF01460D571DDA01E0
:105590005A968D919C91B0E0A0E0F40120812330D7
:1055A00061F4FA014489558970E060E0BA01552739
:1055B0004427842B952BA62BB72B8F839887A987FD
:1055C000BA874BE050E060E270E0CE014D960E9459
:1055D0008C3B2801F12CE12CD12CC12C48E0A42ECD
:1055E000B12C4FEFC41AD40AD2018D912D01282E6F
:1055F000B0E2B81788F4EFE28E1719F0FCE58F13CC
:1056000093CFF801EC0DFD1D6F01C01AD10A9191E5
:105610009F32D1F39C35C1F3EF2809F476CF9D8DED
:10562000953E11F495E09D8F0C0D1D1D813228F0E3
:10563000D8018C9181320CF097CF84E088A7E98063
:10564000FA80CE0101960E94680F6C01892B09F047
:1056500090CF4F89588D698D7A8DC7010E94690E50
:105660006C01892B09F085CF8B8D9C8DFC012081ED
:10567000222309F47BCF2385322F3F733D8323FD03
:105680000AC04BE050E0BE01635E7F4F0E94763B54
:10569000892B09F46ECF70E060E0CE0101960E9484
:1056A0003124D3CF88A587FD30CF8D81817109F05A
:1056B0002CCF0BA51CA5F80183A594A5A5A5B6A57F
:1056C0008093770490937804A0937904B0937A043C
:1056D000EB8DFC8DF0937C04E0937B04428D538D25
:1056E00070E060E0D8018C91833059F4C488D5888B
:1056F000F12CE12C7601DD24CC244C295D296E2986
:105700007F29409361045093620460936304709313
:105710006404CF014C960E949709609365047093CE
:105720006604809367049093680410935C0400936C
:105730005B04D80115968D919C9190935E048093A3
:105740005D0483E08093690410926A0410927304EC
:1057500010927404109275041092760410926B04E7
:1057600010926C0410926D0410926E0430920E012F
:1057700081E0AC960FB6F894DEBF0FBECDBFDF91CF
:10578000CF911F910F91FF90EF90DF90CF90BF903E
:10579000AF909F908F907F906F905F904F903F90D1
:1057A0002F900895BBE0AB16B10409F4AECE88E0AB
:1057B000E82EF12C9BE0A92EB12C13CF2F923F9213
:1057C0004F925F926F927F928F929F92AF92BF9211
:1057D000CF92DF92EF92FF920F931F93CF93DF93BD
:1057E00000D0CDB7DEB75C0180912A049091070408
:1057F000881F8827881F923009F480E0E82FF0E0A6
:10580000E75FFB4F9081923031F520910304309196
:105810000404409105045091060401E010E0B50134
:105820000E94A909892B09F439C187E20F900F90D2
:10583000DF91CF911F910F91FF90EF90DF90CF906C
:10584000BF90AF909F908F907F906F905F904F90A0
:105850003F902F9008950E94FE28882331F3609195
:105860000304709104048091050490910604009152
:105870006B0410916C0420916D0430916E04061736
:1058800017072807390761F5CE0101960E940B0919
:10589000892B59F680916A048111C7CF80916904E0
:1058A00080FFC3CFC0906504D0906604E090670489
:1058B000F090680480916B0490916C04A0916D0449
:1058C000B0916E04C81AD90AEA0AFB0AC11422E090
:1058D000D206E104F10408F018C1912C812CD5C046
:1058E0000E948012892B81F2A0CF80916B0490914D
:1058F0006C04A0916D04B0916E04AC01BD015170B7
:1059000066277727452B462B472B09F0D1C0E98125
:10591000FA810185128501501109AC01BD01E9E050
:105920007695679557954795EA95D1F70423152302
:1059300001151105A1F5892B8A2B8B2B89F4609118
:1059400061047091620480916304909164046230F8
:1059500071058105910598F482E080936A0465CF12
:1059600040916F04509170046091710470917204C1
:1059700080915B0490915C040E94AA0EE8CF6F3F77
:105980003FEF73078307930711F481E0E6CF60933D
:105990006F04709370048093710490937204298053
:1059A0003A8040916F04509170046091710470913D
:1059B0007204C1010E946F0961157105810591058D
:1059C00059F22B013C01400E511E611C711C7601E5
:1059D000EF2CFF24E694E114F10409F461C0F10115
:1059E0008185928598012E0D3F1D8217930718F42B
:1059F0007C01E01AF10A8701A3019201B501F101CE
:105A000081810E94A909892B09F0BFCFE981FA8120
:105A100083818823E9F083A594A5A5A5B6A584195B
:105A20009509A609B709A70170E060E084179507FA
:105A3000A607B70768F4DC01BA2FAA27BB0FAA0D87
:105A4000BB1DBF9680E092E001900D920197E1F7B7
:105A5000FE2CEE24FF0CCE18DF088E0C9F1CAE0C23
:105A6000BF1C80916B0490916C04A0916D04B09167
:105A70006E048E0D9F1DA11DB11D80936B0490932C
:105A80006C04A0936D04B0936E04C114D10409F0AA
:105A90002CCF811432E0930609F0C7CE80E0C6CE49
:105AA000409273045092740460927504709276046C
:105AB00080916B0490916C04917020E032E0281B7F
:105AC000390B76012C153D0508F4790140917304DA
:105AD00050917404609175047091760489819A8163
