:100000000C94FB020C9423030C9423030C94230301
:100010000C9423030C9423030C9423030C942303C8
:100020000C9423030C9423030C9423030C942303B8
:100030000C9423030C9423030C9423030C942303A8
:100040000C9484320C9423030C9423030C94230308
:100050000C9423030C9423030C9423030C94230388
:100060000C9423030C942303EAA92085F0A960854E
:10007000F3A5434A4A4A4A290709C085F2A00084E9
:10008000F188B1F185F1A90185F9E646E645E64535
:1000900020F000900620E2FB4CBAFAC6F9D0EBA99A
:1000A000008544A91085452093FE2089FE2058FC38
:1000B00020C30AA92C207D0AA91720740AA9182098
:1000C0007D0AA90085FBA90385252022FCA5FB85C7
:1000D000F585F620B40AA900A4F720A409A9FF8594
:1000E00032A54309808543A914A4F820A409A9FFD7
:1000F00085324A25438543E625E6FBA5FBC91090DA
:10010000C920AB0820B40A20B40820E40820B00AB3
:100110004CE70AA5F785F5A5F885F660A9152074C2
:100120000A20950AA90A8524A5F5207809A914852D
:100130002420900AA91E8524A5F64C780920D90A06
:1001400020AB0820B4086868184CE70AA90085FAB3
:10015000A6FAA94020FA09208409200CFD48A980AC
:10016000A6FAB4F520FA0968A6FAB4F5C98DD00547
:10017000A6FAF03660C99BF0C4C9A1D005A9FF85D5
:10018000F560C9ACF004C98BD00388300DC9A0F06C
:1001900004C98AD00BC8C01090064898290FA868D7
:1001A00094F5C988F004C995D00DA90020FA09A5D5
:1001B000FA490185FA1026C9E1900338E920C9C13E
:1001C0009009C9C7B00538E907D008C9B0900EC971
:1001D000BAB00A290F95F52084094C08094CE808A3
:1001E000C9FFF0034CE3FDA9A14CEDFDA6FAB4F55F
:1001F000A20AA5FAF002A21E8624A01584252022B8
:10020000FCA4FAB9F500207809C624608524A5FB72
:100210004820E3FDA9BA20EDFDE62484F968C5F97C
:10022000D004A93F853220A30AB032AD0510302D8D
:10023000AD0410AA29F0C9F0D0238A290FF01E8539
:10024000F9A200BD0510098020EDFDE8E4F9D0F326
:10025000E00FD00160A9A020EDFDE8D0F3A2004C92
:10026000970A85F98AF002A9141869038524B5F55F
:100270003017690385252022FCA424A20EB1282969
:100280003F05F99128C8CA10F460ADADADA0A0A09B
:10029000A0A0A0A0A0A0A0A0A000C3C1D2C4A0B153
:1002A000BA0020200110100C0520090920060F12A9
:1002B00005160512210004010E20090920160F0C55
:1002C000150D052013050C0503140F1200A0CFCB4C
:1002D000A100C5D2D2CFD2A1878787008525A900EA
:1002E00085244C22FC48A226A92020EDFDCA10F846
:1002F00068AAA9088524D007A9B28D370AA210BD23
:10030000220AF00620EDFDE8D0F560A0008447C881
:100310008442C884464CF000A907D002A906854251
:10032000A5F58546A5F685474CF000A90585422030
:10033000F000AD001085F7AD011085F860A900F060
:1003400002A98048A20020FA0968A2014CFA090813
:1003500020D50AA91620740AA911852428A2439041
:1003600002A24820970AA206A9FF20A8FCCAD0F83A
:100370002058FCA90085F16CF100FFFFFFFFFFFF93
:10038000FFFFFFFFFFFFFFFFFFFFFFFFFFFFFFFF7D
:10039000FFFFFFFFFFFFFFFFFFFFFFFFFFFFFFFF6D
:1003A000FFFFFFFFFFFFFFFFFFFFFFFFFFFFFFFF5D
:1003B000FFFFFFFFFFFFFFFFFFFFFFFFFFFFFFFF4D
:1003C000FFFFFFFFFFFFFFFFFFFFFFFFFFFFFFFF3D
:1003D000FFFFFFFFFFFFFFFFFFFFFFFFFFFFFFFF2D
:1003E000FFFFFFFFFFFFFFFFFFFFFFFFFFFFFFFF1D
:1003F000FFFFFFFFFFFFFFFFFFFFFFFFFFFFFFFF0D
:10040000FFFFFFFFFFFFFFFFFFFFFFFFFFFFFFFFFC
:10041000FFFFFFFFFFFFFFFFFFFFFFFFFFFFFFFFEC
:10042000FFFFFFFFFFFFFFFFFFFFFFFFFFFFFFFFDC
:10043000FFFFFFFFFFFFFFFFFFFFFFFFFFFFFFFFCC
:10044000FFFFFFFFFFFFFFFFFFFFFFFFFFFFFFFFBC
:10045000FFFFFFFFFFFFFFFFFFFFFFFFFFFFFFFFAC
:10046000FFFFFFFFFFFFFFFF4F6B004661696C65F9
:1004700064004261642066696C656E616D6500466A
:10048000696C6520746F6F206C61726765004E6FD8
:1004900020737563682066696C652F666F6C646590
:1004A00072004279652E0057656C636F6D6520742C
:1004B0006F2044414E5D5B2C2076322E302E322E42
:1004C000204170706C65205D5B20466F72657665BB
:1004D00072210044414E5D5B002D72772D2D2D2D34
:1004E0002D2D2D203120766F6C756D653A202D2DC8
:1004F0002D202020202020202020202020203132CC
:10050000333435363738204A756E20313020313952
:10051000373720424C4B44455630312E504F0D0A50
:1005200000647277782D2D2D2D2D2D2031204461E2
:100530006E4949204170706C6549492031204A75E7
:100540006E2031302031393737205344310D0A00C5
:1005500032353720222F53443122003232372045A2
:100560006E746572696E6720506173736976652079
:100570004D6F6465202800555345525359535443D9
:100580005744205459504551554954504153564CA5
:10059000495354434455505245545253544F52506A
:1005A0005744000000000008000201000003040797
:1005B00000000000000000000000000025002800EE
:1005C0002B0000000000240027002A00040404047B
:1005D00004040404020202020202030303030303ED
:1005E00001020408102040800102040810200102CA
:1005F00004081020CE3211241FBECFEFD8E0DEBF9A
:10060000CDBF11E0A0E0B1E0ECE4F0E702C005905E
:100610000D92A43DB107D9F724E0A4EDB1E001C0EB
:100620001D92A73FB207E1F712E0CBEFD2E004C082
:100630002197FE010E94F637CA3FD107C9F70E94F1
:100640006E330C9424380C940000CF93DF93EC01AC
:10065000E0915104F0915204309749F489E090E020
:10066000F0E0E0E0F983E883DF91CF9108958081A5
:100670008823A1F3209153043091540485819681FD
:100680002817390759F7A181A0935004B0E0AD5D58
:10069000BE4F8C9180FDE2CF90E080E0E3CF8CBD37
:1006A0009DBD089590E0FC01E052FA4F24918453DF
:1006B0009A4FFC018491882399F090E0880F991F4C
:1006C000FC01EE53FA4FA591B491FC01E854FA4FA6
:1006D000859194918FB7F894EC91E22BEC938FBFB6
:1006E0000895FC01818D928D0895089590E0FC019C
:1006F000EC55FA4F2491FC01E052FA4F3491FC0181
:10070000E453FA4FE491EE23C9F0222339F0233069
:1007100001F1A8F4213019F1223029F1F0E0EE0FB7
:10072000FF1FE854FA4FA591B4918FB7F894EC915C
:10073000611126C030953E233C938FBF089527302A
:10074000A9F02830C9F0243049F7809180008F7DCE
:1007500003C0809180008F7780938000DFCF84B5C5
:100760008F7784BDDBCF84B58F7DFBCF8091B000C8
:100770008F778093B000D2CF8091B0008F7DF9CF7A
:100780003E2BDACF3FB7F894809115049091160470
:10079000A0911704B091180426B5A89B05C02F3F5F
:1007A00019F00196A11DB11D3FBFBA2FA92F982F97
:1007B0008827BC01CD01620F711D811D911D42E092
:1007C000660F771F881F991F4A95D1F708958F925A
:1007D0009F92AF92BF92CF92DF92EF92FF924B0126
:1007E0005C010E94C2036B017C010E94C2036C1970
:1007F0007D098E099F09683E734081059105A8F324
:1008000021E0821A9108A108B10888EEC80E83E0A1
:10081000D81EE11CF11C81149104A104B10429F734
:10082000FF90EF90DF90CF90BF90AF909F908F9010
:1008300008952FB7F894609111047091120480917B
:100840001304909114042FBF0895FC0120812EBD44
:100850009B012150310941F051810DB407FEFDCFBC
:100860004EB55EBD4193F5CF61507109860F971F5C
:100870000DB407FEFDCF2EB5FC0120830895E09155
:100880004604F0914704808190914504892B808330
:100890000895E0914604F0914704908180914504C9
:1008A00080958923808308958EBD00000DB407FED6
:1008B000FDCF8EB50895AF92BF92CF92DF92EF92A7
:1008C000FF920F931F93CF93DF93CDB7DEB7289797
:1008D0000FB6F894DEBF0FBECDBF8C017B016A015D
:1008E000809149048333E1F45801A40EB51EA0168B
:1008F000B10609F46FC00E94490480EF0E945404BD
:10090000812F0E945404802F0E9454040F5F1F4FB8
:10091000F70181917F010E9454040E943F04E7CFB8
:100920005B01A40EB51E8433C1F40E9449041983EF
:100930000A838D2D80688B83CC8264E070E0CE01C9
:1009400001960E942504AE14BF0409F441C0F701CA
:1009500081917F010E945404F6CF0E9449040F3F09
:10096000110509F028F419820A8384E08B830CC0F6
:1009700017FD17C019820A8333E0169507953A953B
:10098000E1F7007E0C600B8386E0C816D104A0F569
:10099000F701DE011496EA15FB0599F081918D931C
:1009A000FACFC80126E0969587952A95E1F7807ED3
:1009B00019830A830115104C10F48461D7CF8C6120
:1009C000D5CFB6016D5F7F4FCE0101960E94250401
:1009D0000E943F04C60128960FB6F894DEBF0FBEF2
:1009E000CDBFDF91CF911F910F91FF90EF90DF90DE
:1009F000CF90BF90AF90089563E070E0CE01019674
:100A00000E942504F70181917F010E945404AE14D5
:100A1000BF04C1F7DDCFCF93DF931F92CDB7DEB711
:100A2000898341E050E0BE016F5F7F4F90E080E03E
:100A30000E945B040F90DF91CF91089590E0209188
:100A40004904233339F40C96982F990F990F990F75
:100A500080E008954896F8CFDA01E0914A04F0E08A
:100A6000FE2FEE27E60FF71F90E0982F8827A901A9
:100A7000BD018E0F9F1F0C945B04CF93DF9300D0BA
:100A8000CDB7DEB779836A8322E030E0AE014F5FF5
:100A90005F4F60E170E00E942C050F900F90DF9196
:100AA000CF910895CF93DF9300D0CDB7DEB7798390
:100AB0006A8322E030E0AE014F5F5F4F64E070E098
:100AC0000E942C050F900F90DF91CF910895CF9346
:100AD000DF931F92CDB7DEB720914A0430E0322F6A
:100AE0002227260F371F90E0982F8827498341E05F
:100AF00050E0BE016F5F7F4F820F931F0E945B0427
:100B00000F90DF91CF910895CF93DF931F92CDB7D0
:100B1000DEB76983DC01ED91FC910280F381E02D69
:100B200041E050E0BE016F5F7F4F09950F90DF916C
:100B3000CF910895CF93DF931F92CDB7DEB769832E
:100B4000DC01ED91FC910280F381E02D41E050E069
:100B5000BE016F5F7F4F09950F90DF91CF91089590
:100B6000FC019485FB018485981303C081E09430D7
:100B700008F080E00895CF93DF931F92CDB7DEB7E2
:100B80006983DC01ED91FC910280F381E02D41E06D
:100B900050E0BE016F5F7F4F09950F90DF91CF91BD
:100BA00008950895FF920F931F93CF93DF93EB0166
:100BB000FC01178A168A2A81211109C02B81211173
:100BC00006C02C81211103C02D81222301F1411582
:100BD0005105E9F08A01FC01F08C80E591E00E946A
:100BE0004F03AE014E5F5F4F24E030E06CE070E0F9
:100BF0008F2D0E942C05B8018F2D0E943D0581E0AC
:100C000090E0DF91CF911F910F91FF90089580E0C8
:100C1000F7CFFC01848595850895FC018489958929
:100C2000089526E931E0FC0131832083FB014089EE
:100C3000518962897389FC0142835383648375837C
:100C40000895DC01ED91FC91048CF58DE02D099463
:100C50008EBD0DB407FEFDCF0895FF920F931F9335
:100C6000CF93DF93082FF62E142FCCEED4E060E064
:100C700088810E94760380E00E9428068F2D0E94C2
:100C80002806802F84600E942806812F0E94280653
:100C900061E08881DF91CF911F910F91FF900C94BB
:100CA00076031F93CF93DF93EC01162F472FBC01E0
:100CB00088E00E942D06BE016F5F7F4F412F88E0C4
:100CC000DF91CF911F910C942D06DF92EF92FF924E
:100CD0000F931F93CF93DF93F82EE62ED72EEA01C2
:100CE000890160E08091EC040E9476038D2D0E94C2
:100CF00028068E2D0E9428068F2D84600E942806CB
:100D0000209749F00C0F1D1FC017D107B1F0899132
:100D10000E942806F9CFD0E0C0E0C017D10769F0E3
:100D20003399FECF4298429842984298429889B1AE
:100D3000429A0E9428062196F0CF61E08091EC044F
:100D4000DF91CF911F910F91FF90EF90DF900C9466
:100D500076031EBC0DB407FEFDCF8EB508950F932C
:100D60001F93CF93DF93182F062FCCEED4E060E0D3
:100D700088810E94760380E00E942806802F0E94CE
:100D80002806812F0E9428060E94A906182F61E0DC
:100D900088810E947603812FDF91CF911F910F915F
:100DA00008950F931F93CF938C01BC0188E00E949C
:100DB000AF06C82FB8016F5F7F4F88E00E94AF0673
:100DC0002C2F30E0322F2227820F932F911DCF91AD
:100DD0001F910F910895482F61E070E088E00E9414
:100DE0002D0661E070E088E00E94AF068111F9CF26
:100DF0000895CF92DF92EF92FF920F931F93CF93BC
:100E0000DF93EC018B0188E290E00E94D1067C0127
:100E100060E08091EC040E9476038F2D0E942806EA
:100E20008E2D0E94280688E10E9428066E01C00EC1
:100E3000D11E209759F58FEF8AB9D0E0C0E0C017D6
:100E4000D10771F00E94A9063199FECF8BB98BB9F9
:100E500040984098409840984098409A2196EFCF0B
:100E60001BB81AB861E08091EC040E947603B801C7
:100E70006E0D7F1D88E290E0DF91CF911F910F9161
:100E8000FF90EF90DF90CF900C945106CC16DD06CA
:100E900049F30E94A9068993F9CF2FEF2AB9319916
:100EA000FECF8BB98BB940984098409840984098B5
:100EB000409A3199FECF9BB99BB940984098409891
:100EC00040984098409A1BB81AB808952F923F92C4
:100ED0004F925F926F927F928F929F92AF92BF924A
:100EE000CF92DF92EF92FF920F931F93CF93DF93F6
:100EF0006C01D42FF52E762E672E4801590110E093
:100F0000C0E08AE0282E312C412C512C6D2F7F2DF2
:100F1000872D962DA50194010E94C537F601EC0F8F
:100F2000F11D211133C0111106C031E08316910467
:100F3000A104B10479F5CF5F205D2083D62FF72E71
:100F4000782E692E11E0C501B401A20191010E9421
:100F5000C53749015A0181149104A104B104B1F6C5
:100F6000C6018C0F911DDF91CF911F910F91FF90C2
:100F7000EF90DF90CF90BF90AF909F908F907F9039
:100F80006F905F904F903F902F9008952A3098F285
:100F900029E0D1CFEE20B9F2CF5FE082D4CFDC01DF
:100FA0002A2F281BFB0194919D936F5F7F4F911116
:100FB000F7CF822F0895DC01FB019D918191981359
:100FC00004C09111FACF81E0089580E00895FC01FA
:100FD000768765870895DC01ED91FC9102A0F3A16D
:100FE000E02D099591E089270895862F089581E0E5
:100FF0008627089521E0FC018485843008F020E0F4
:10100000822F089508952FEF2AB93199FECF1BB88A
:101010001BB840984098409840984098409A019753
:10102000A1F71BB81AB808958091190490911A0479
:10103000B0E0A0E029E0880F991FAA1FBB1F2A95E6
:10104000D1F780930A0490930B04A0930C04B093FF
:101050000D0408953399FECF4298429842984298E1
:10106000429889B1429A0895CF930E942A088093AA
:101070001B040E942A08C82F0E942A08982F8C2F30
:101080009093D5018093D4010E942A08C82F0E9412
:101090002A08982F8C2F90931A0480931904CF91CB
:1010A00008953199FECF9FEF9AB98BB98BB94098CB
:1010B0004098409840984098409A1BB81AB80895B4
:1010C00080E00E9451088091190490911A040297BF
:1010D00020F010921A041092190480911904880FBC
:1010E0001092190480931A048FEF8AB990E080E07F
:1010F0003199FECFE0911904F0911A04E80FF91F1D
:10110000E859FF4FE491EBB9EBB94098409840980B
:1011100040984098409A0196811522E0920741F745
:101120001BB81AB8089580911B0487FF09C08091ED
:101130000E04811108C088E20E94510880E00895E1
:1011400080910904F6CF81E00895089590E080E051
:1011500008958EBD0DB407FEFDCF8EB508951F9383
:10116000CF93DF930E941904EB018FEF0E94A9082F
:10117000182F8F3F39F00E9419046C1B7D0B643FC0
:10118000714098F381E090E01F3F11F090E080E023
:10119000DF91CF911F910895CF939C013E5FFC0199
:1011A00040814EBD0DB407FEFDCFFC0141814EBD17
:1011B0000DB407FEFDCF02968217930781F78FEFDC
:1011C0000E94A9088FEF0E94A9088FEF0E94A9082A
:1011D000C82F80910F0481110E94AF08CF7181E068
:1011E00090E0C53011F090E080E0CF91089585B196
:1011F000876085B98FEF0C94A908CF93DF9385B1F1
:1012000090915004911111C09BEF892385B98FEF04
:101210000E94A9080E94AF08EC01892B41F40E94AA
:10122000F708CE01DF91CF9108959DEFEECFC1E099
:10123000D0E0F7CFFF920F931F93CF93DF93C82F88
:10124000D42F152F062FF72E87FF09C040E050E05E
:10125000BA0187E30E941A09823048F5CF77CC3073
:1012600061F58C2F80640E94A9088F2D0E94A90827
:10127000802F0E94A908812F0E94A9088D2F0E940B
:10128000A90885E9CC2321F087E8C83009F081E07E
:101290000E94A908CC3019F48FEF0E94A908CAE077
:1012A0008FEF0E94A90887FF02C0C150C9F7DF91E4
:1012B000CF911F910F91FF9008950E94F7080E940F
:1012C000FD08892B71F68FEFF2CFCF92DF92EF926C
:1012D000FF920F931F93CF93DF93082FD92EE9012D
:1012E00080E58CBDE0915004F0E0EA52FE4F808131
:1012F00084FD07C089E0440F551F661F771F8A953C
:10130000D1F711E1C230D10508F012E1812F0E941E
:101310001A09811119C0CC24CA940E9419047B01B6
:101320008FEF0E94A9088F3F01F50E9419046E19E2
:101330007F09683C7105A4F3123131F440E050E0BC
:10134000BA018CE00E941A090E94F70881E090E03F
:10135000CD2B11F490E080E0DF91CF911F910F91A0
:10136000FF90EF90DF90CF9008958E3F29F7E02F08
:10137000FD2D7F018EEFF81ACEBC0DB407FEFDCF18
:101380008EB58083CEBC0DB407FEFDCF8EB58183B4
:101390003296EE16FF0681F78FEF0E94A9088FEFB5
:1013A0000E94A9080E2DDF2C219709F0B6CFC4CFDB
:1013B000CF93DF93EC01E881F981309779F0DF0179
:1013C0009D012F5F3F4F8C918132E0F0D9018A332C
:1013D000B9F7208180ED820F8A3018F08FEF9FEFF0
:1013E0000EC03296AE17BF07C9F7022E000C330BA2
:1013F000C901C097823091058CF7B983A883DF912A
:10140000CF91089590E080E0FACF0F931F93FC01F5
:101410009A01AB012250310941095109838994890C
:10142000A589B6890297A109B109281739074A0782
:101430005B0778F4A185B2850E94BA3707A110A591
:1014400021A532A5600F711F821F931F1F910F915D
:10145000089560E070E0CB01F9CFFC0162817381F7
:1014600090E080E0982F872F762F66272181622BCE
:10147000982F872F762F66272081622B08950F9350
:101480001F93CF93DF9300D0CDB7DEB78C0180E2FE
:1014900091E09A838983CE0101960E94D80997FD35
:1014A0001EC0880F991FFC01E45BFB4F0190F08187
:1014B000E02D309709F010820115110511F0F801A7
:1014C0001082845B9B4FFC011183008390E080E0DD
:1014D0000F900F90DF91CF911F910F9108958BE0A6
:1014E00090E0F6CFCF92DF92EF92FF920F931F938F
:1014F000CF93DF938C016A017B01E901209709F406
:1015000071C0E0915004F0E0ED5DFE4F808180FD00
:101510006CC0808182FD6BC080E58CBDE091500481
:10152000F0E0EA52FE4F808184FD07C099E0CC0CC8
:10153000DD1CEE1CFF1C9A95D1F7C130D10559F581
:10154000B701A60188E10E941A09882391F0C1E041
:10155000D0E00E94F70881E090E0CD2B09F480E014
:10156000DF91CF911F910F91FF90EF90DF90CF907F
:1015700008950E94AF08892B51F38EEF0E94A908AD
:10158000C8010E94CC0831E020E0892B09F030E04E
:10159000C32FD22FDECF8C7031F0AE0170E060E04F
:1015A00087E90E941A09B701A60189E10E941A0978
:1015B0008111CFCF0E94AF08892B59F08CEF0E9488
:1015C000A908C8010E94CC08892B19F01E5F219739
:1015D00089F70E94AF08892B09F4B9CF8DEF0E94DB
:1015E000A908B7CF84E090E0BBCF83E0FCCF82E0D6
:1015F000FACF8F929F92AF92BF92CF92DF92EF92EB
:10160000FF920F931F93CF93DF93EC014BA55CA543
:101610006DA57EA58C01015D1F4F898180935004CB
:1016200021E030E0C8010E94720A892B61F51B821B
:101630004BA55CA56DA57EA58F89988DA98DBA8DCA
:10164000CF8CD8A0E9A0FAA04A015B018C189D08B4
:10165000AE08BF0875016401C816D906EA06FB0684
:1016600078F42A81223061F4298120935004480FB4
:10167000591F6A1F7B1F21E030E0C8010E94720AD7
:1016800090E080E002C081E090E0DF91CF911F9177
:101690000F91FF90EF90DF90CF90BF90AF909F9011
:1016A0008F900895FC01238121110C94F90A90E098
:1016B00080E00895CF92DF92EF92FF920F931F93F5
:1016C000CF93DF93EC016A017B018BA59CA5ADA5AF
:1016D000BEA510E000E08C159D05AE05BF0519F113
:1016E000CE010E94520B8C01892BE9F4E981E09331
:1016F0005004F0E0ED5DFE4F808180FD0AC021E0E6
:1017000030E0B701A601CE018F960E946509892BB2
:1017100031F001E010E0CC24CA94DC2C7601CBA699
:10172000DCA6EDA6FEA6C801DF91CF911F910F9117
:10173000FF90EF90DF90CF900895AF92BF92CF923D
:10174000DF92EF92FF920F931F93CF93DF9342307C
:1017500051056105710508F4A9C0FC0103891489CC
:1017600025893689401751076207730708F09EC024
:101770006A017B01EC018081823009F457C083301B
:1017800009F471C0813009F091C08A01169507955E
:10179000040F151FC801892F99278695478D50A1E1
:1017A00061A172A1480F591F611D711DCF010E94D7
:1017B0005A0B892B71F06FEF7FEFCB01DF91CF9147
:1017C0001F910F91FF90EF90DF90CF90BF90AF905F
:1017D00008955801FFEFAF1ABF0A1170FE01E00F24
:1017E000F11F17A5C501892F992786954F8D58A1FF
:1017F00069A17AA1480F591F611D711DCE010E9478
:101800005A0B892BC1F681E0B822CA0DDB1D6FA5EA
:10181000762F612FC0FE08C0E4E076956795EA95C3
:10182000E1F790E080E0CACF7F70FBCF77276F2D84
:101830005E2D4D2D878D90A1A1A1B2A1480F591FFA
:101840006A1F7B1FCF010E945A0B892B09F0B3CF6F
:10185000CC0CDD1CE894C0F8E1E0DE22CC0DDD1DEF
:101860006FA578A9DECF878D90A1A1A1B2A137E0A5
:1018700076956795579547953A95D1F7480F591F33
:101880006A1F7B1FCF010E945A0B892B09F093CF4F
:10189000AF96C601880F991F880F991F8C7F917092
:1018A0008C0F9D1F0E942D0A9F7088CF61E070E011
:1018B00080E090E083CF8F929F92AF92BF92CF92C1
:1018C000DF92EF92FF920F931F93CF93DF938C01E0
:1018D000FC01C081D18116861786108A118AC680C4
:1018E000D780E084F184C114D104E104F104D1F57E
:1018F0008881833040F08BA19CA1ADA1BEA100974F
:10190000A105B10589F58F819885892B79F482E04D
:1019100090E0DF91CF911F910F91FF90EF90DF90BA
:10192000CF90BF90AF909F908F9008958BA19CA176
:10193000ADA1BEA1F801868B978BA08FB18FF80166
:10194000C28AD38AE48AF58A86899789A08DB18D67
:10195000892B8A2B8B2BD9F2AF96D38FC28F90E035
:1019600080E0D7CFD701C60189849A84B12CA12CFD
:1019700029E0880C991CAA1CBB1C2A95D1F76C0184
:101980007D01B701A60181149104A104B10449F0BD
:10199000CE010E94050AF801668B778B808F918FAC
:1019A000CECFF801808191810E949D0B6B017C015B
:1019B000FFEFCF16DF06EF06FF0689F082E0C816BC
:1019C000D104E104F10408F4A2CF8B899C89AD898C
:1019D000BE89C816D906EA06FB0698F298CF81E0C0
:1019E00090E097CF2F923F924F925F926F927F92AB
:1019F0008F929F92AF92BF92CF92DF92EF92FF921F
:101A00000F931F93CF93DF9300D000D000D0CDB7BA
:101A1000DEB79E838D836A017B0128013901DC01D9
:101A20008C91823009F497C0833009F4B6C08130BC
:101A300009F0F4C08A0116950795040F151FC80117
:101A4000892F992786955F964D915D916D917C9137
:101A50009297480F591F611D711DCD010E945A0BAD
:101A60005C01892B09F056C02D803E80BFE22B0E11
:101A7000311C4801EFEF8E1A9E0A1170F101E00F40
:101A8000F11F842DA7019601217033274427552784
:101A900029833A834B835C83C0FE07C080818F70AB
:101AA00040E1449E90011124822B808381E0AD812E
:101AB000BE8113968C9313975F964D915D916D91B6
:101AC0007C919297C401892F99278695480F591FB9
:101AD000611D711DCD010E945A0B5C01892BD1F44F
:101AE000B1E09B22F101E80DF91D29813A814B817A
:101AF0005C81232B242B252B39F164E076946794A9
:101B0000579447946A95D1F7408281E0AD81BE81B8
:101B100013968C93C50126960FB6F894DEBF0FBEC0
:101B2000CDBFDF91CF911F910F91FF90EF90DF908C
:101B3000CF90BF90AF909F908F907F906F905F906D
:101B40004F903F902F9008958081807F352D3F707A
:101B5000432E482AD9CF77276F2D5E2D4D2DED814D
:101B6000FE81878D90A1A1A1B2A1480F591F6A1FC4
:101B70007B1FCF010E945A0B5C01892B59F6ED8126
:101B8000FE81BF96CC0CDD1CE894C0F821E0D22287
:101B9000EC0DFD1D00835182B8CFED81FE81878D54
:101BA00090A1A1A1B2A137E0769567955795479589
:101BB0003A95D1F7480F591F6A1F7B1FCF010E942A
:101BC0005A0B5C01892B09F0A5CFFFE07F228D81A4
:101BD0009E818F96CC0CDD1CCC0CDD1C2CEFC22220
:101BE00021E0D222C80ED91EC6010E942D0A662706
:101BF00077278827907F462A572A682A792AD6018C
:101C00004C9211965C92119712966C9212971396C1
:101C10007C9281E0ED81FE8183837CCF82E0A82EDF
:101C2000B12C78CF4F925F926F927F928F929F925A
:101C3000AF92BF92CF92DF92EF92FF920F931F93DA
:101C4000CF93DF938C012A013B01FC01C081D1813C
:101C5000411451046104710409F58B849C84AD84A2
:101C6000BE8481149104A104B10409F44DC08B8990
:101C70009C89AD89BE8988169906AA06BB0608F01C
:101C800043C08F859889A989BA89892B8A2B8B2B88
:101C900009F03FC0C12CD12C760116C0CE010E94A4
:101CA0009D0B6B017C01F2E0CF16D104E104F1043D
:101CB00008F40CC12FEFC216D206E206F206B9F400
:101CC000CC24CA94DC2C7601C701B601DF91CF91F8
:101CD0001F910F91FF90EF90DF90CF90BF90AF904A
:101CE0009F908F907F906F905F904F9008958B8919
:101CF0009C89AD89BE8953014201C816D906EA06FE
:101D0000FB0608F0BECFE0CF812C912C54018394C8
:101D1000B8CF84149504A604B70409F041C0750136
:101D200064018FEFC81AD80AE80AF80A8B899C89DF
:101D3000AD89BE89C816D906EA06FB0628F022E05E
:101D4000C22ED12CE12CF12CB701A601F801808123
:101D500091810E949D0B613071058105910509F407
:101D6000B5C06F3FFFEF7F078F079F0709F4A8CF2C
:101D7000672B682B692B09F44DC08B859C85AD853D
:101D8000BE8582309105A105B10550F04B895C8973
:101D90006D897E8984179507A607B70708F478C070
:101DA000750164012FEFC21AD20AE20AF20A8B8986
:101DB0009C89AD89BE89C816D906EA06FB0660F083
:101DC00082E088169104A104B10408F463CF92E084
:101DD000C92ED12CE12CF12CB701A601F80180818C
:101DE00091810E949D0B6115710581059105B9F0E6
:101DF000613071058105910509F468C06F3F7F4F1F
:101E00008F4F9F4F09F45CCFC814D904EA04FB0438
:101E100049F640CFC114D104E104F10409F222E0F3
:101E2000C216D104E104F10408F450C08B899C89E6
:101E3000AD89BE89C816D906EA06FB0608F046C079
:101E40000FEF1FEF9801B701A601CE010E94F20C1F
:101E50000097C9F54114510461047104E1F4CB8683
:101E6000DC86ED86FE868F859889A989BA894B899B
:101E70005C896D897E894250510961097109481751
:101E800059076A077B0738F58C8181608C831CCFEA
:101E90004C015D0185CF82E0481651046104710454
:101EA000A8F08B899C89AD89BE89481659066A06B7
:101EB0007B0660F497018601B301A201CE010E9466
:101EC000F20C009761F2019709F4FACEC12CD12CE3
:101ED0007601C394F9CE0197A109B1098F87988B38
:101EE000A98BBA8BD1CF4F925F926F927F928F92D4
:101EF0009F92AF92BF92CF92DF92EF92FF920F9399
:101F00001F93CF93DF9300D000D000D0CDB7DEB7C2
:101F10006B017C01CE0101960E9425038C01892B67
:101F200009F0F4C00091600410E00115110509F0FA
:101F3000EDC080915B0490915C04A0915D04B09130
:101F40005E048C159D05AE05BF0530F420915F043D
:101F500021FD02C06C017D0140906104509062043B
:101F600060906304709064041092610410926204A3
:101F70001092630410926404C114D104E104F104CA
:101F800039F480E090E0DC01C12CD12C760180C0D6
:101F9000E981FA8181849284B12CA12C39E0880CEA
:101FA000991CAA1CBB1C3A95D1F741145104610439
:101FB000710409F48AC081E0481A51086108710867
:101FC000C701B6016150710981099109A501940108
:101FD0000E94C5372B833C834D835E83C301B201CE
:101FE000A50194010E94C5378B819C81AD81BE8182
:101FF00082179307A407B50708F467C088279927B5
:10200000DC0188199909AA09BB0984219521A62117
:10201000B7218093610490936204A0936304B0930A
:102020006404C81AD90AEA0AFB0A4091650450916F
:10203000660460916704709168044115510561055B
:10204000710509F0E4C0C12CD12C760180916104A6
:1020500090916204A0916304B091640440915B0488
:1020600050915C0460915D0470915E0448175907BB
:102070006A077B0768F480935B0490935C04A093E9
:102080005D04B0935E0420915F04206420935F049C
:102090009170AA27BB27892B8A2B8B2BB9F18091B2
:1020A000690490916A04A0916B04B0916C048C1542
:1020B0009D05AE05BF0551F1C0926904D0926A0436
:1020C000E0926B04F0926C0421C04091570450914F
:1020D00058046091590470915A04411551056105E5
:1020E000710509F03FC040E050E0BA0181E594E09D
:1020F0000E94120EAB01BC01413051056105710512
:10210000E9F482E08093600402E010E0C8012696C2
:102110000FB6F894DEBF0FBECDBFDF91CF911F91F8
:102120000F91FF90EF90DF90CF90BF90AF909F9076
:102130008F907F906F905F904F9008954F3F9FEFEB
:1021400059076907790731F481E08093600401E061
:1021500010E0DCCF40935704509358046093590427
:1021600070935A0440936504509366046093670427
:102170007093680462CFC818D908EA08FB08880D74
:10218000991DAA1DBB1D8093610490936204A093C6
:102190006304B093640480915F0481FF0FC081E504
:1021A00094E00E94120EAB01BC014115510561057E
:1021B000710561F4C12CD12C760137C08091510496
:1021C000909152040E949D0BAB01BC014F3FAFEFB9
:1021D0005A076A077A0709F4B7CF423051056105FB
:1021E000710508F48ECFE981FA8183899489A589E4
:1021F000B689481759076A077B0708F082CF4093D2
:10220000650450936604609367047093680480913A
:10221000610490916204A0916304B09164048C14F1
:102220009D04AE04BF0408F4A6CF80916104909190
:102230006204A0916304B09164048C0D9D1DAE1DD9
:10224000BF1D8093610490936204A0936304B093D4
:102250006404D701C6019170AA27BB27892B8A2B5A
:102260008B2B09F4F0CE89819A810E94050A6115B1
:1022700071058105910509F444CF29E0F694E794AE
:10228000D794C7942A95D1F7C60ED71EE81EF91E1B
:10229000DDCE2F923F924F925F926F927F928F92FC
:1022A0009F92AF92BF92CF92DF92EF92FF920F93E5
:1022B0001F93CF93DF9300D000D0CDB7DEB74C0192
:1022C0006B015C834B83DA011D921C92CE01019657
:1022D0000E9425037C01892B09F06BC0E09060040B
:1022E000F12CE114F10409F064C080915F0480FFD7
:1022F0005EC180915B0490915C04A0915D04B091FB
:102300005E04409161045091620460916304709195
:102310006404841B950BA60BB70BA60170E060E06C
:1023200084179507A607B70708F46C01C114D104F8
:1023300009F43FC08091610490916204A09163040C
:10234000B0916404AC01BD01517066277727452B1D
:10235000462B472B09F0FEC0E981FA81A184B284A3
:10236000E1E0AE1AB108AC01BD01E9E076956795F0
:1023700057954795EA95D1F7A422B522A114B10447
:1023800009F053C0892B8A2B8B2B59F56091570488
:10239000709158048091590490915A0462307105EB
:1023A0008105910568F582E08093600452E0E52E96
:1023B000F12CC7010F900F900F900F90DF91CF91EC
:1023C0001F910F91FF90EF90DF90CF90BF90AF9053
:1023D0009F908F907F906F905F904F903F902F9045
:1023E000089540916504509166046091670470916E
:1023F000680480915104909152040E949D0BCECFAD
:102400006F3FFFEF7F078F079F0739F481E08093CD
:102410006004EE24E394F12CCCCF609365047093B8
:102420006604809367049093680429803A80409101
:102430006504509166046091670470916804C1015D
:102440000E94050A611571058105910509F4ABCF5C
:102450002B013C014A0C5B1C611C711C8601012F85
:10246000112706950115110509F46CC0D1011996C3
:102470008D919C919501200F311F8217930718F4BD
:102480008C010A191B09D1011196EC91E0935004BB
:102490000115110509F4BACFF0E0ED5DFE4F808122
:1024A00080FDB4CF9801B301A201C4010E94650967
:1024B000892B09F0ABCFE981FA8183818823E9F088
:1024C00083A594A5A5A5B6A584199509A609B7095C
:1024D000A80170E060E084179507A607B70768F4C5
:1024E000DC01BA2FAA27BB0FA80DB91DBF9680E04B
:1024F00092E001900D920197E1F7102F0027110F44
:10250000C01AD10AAB81BC818D919C911197800F2B
:10251000911F8D939C93800E911E809161049091E8
:102520006204A0916304B0916404800F911FA11D07
:10253000B11D8093610490936204A0936304B093EF
:102540006404F4CE4092690450926A0460926B0471
:1025500070926C0480916104909162049170E0E04B
:10256000F2E0E81BF90B8601EC15FD0508F48F017C
:102570004091690450916A0460916B0470916C04FD
:1025800089819A810E945A0B892B09F03FCF69817A
:102590007A81615D7F4F80916104909162049170B6
:1025A000680F791FA801C4010E940938A9CF87E0EC
:1025B000E82EF12CFECECF92DF92EF92FF920F9396
:1025C0001F93CF93DF9300D0CDB7DEB78C01C090BF
:1025D0005B04D0905C04E0905D04F0905E0460E0E9
:1025E00074E080E090E00E94730F892BF1F5AE015A
:1025F0004F5F5F4F60E370E0C80180539E4F0E94C1
:102600004911892B91F589819A81C09771F5F8015B
:10261000EC52FE4F208180EF2827203130F5EF5B10
:10262000F14090E0DF01A054BE4F8C91921750F51D
:1026300030EE380F3B3530F581939F5F9F3091F737
:10264000F801E750FE4F80819181B0E0A0E029E0E1
:10265000880F991FAA1FBB1F2A95D1F78C159D05BE
:10266000AE05BF0510F46C017D01C701B6010F90E6
:102670000F90DF91CF911F910F91FF90EF90DF901E
:10268000CF90089580E2D8CF2F923F924F925F92E1
:102690006F927F928F929F92AF92BF92CF92DF9272
:1026A000EF92FF920F931F93CF93DF9300D000D050
:1026B000CDB7DEB75C017C836B83FB011182108296
:1026C000CE0101960E9425036C01892B09F05FC1A0
:1026D000C0906004D12CC114D10409F058C180917C
:1026E0005F0481FFC6C18091610490916204A09152
:1026F0006304B09164047C01E094F09481159E4FD2
:10270000AF4FBF4F08F0F2C0E12C92E0F92EEEC0BF
:10271000409165045091660460916704709168046B
:1027200027C1613071058105910539F482E08093FC
:10273000600462E0C62ED12C2AC16F3F3FEF7307C1
:102740008307930739F481E080936004CC24C39419
:10275000D12C1DC160936504709366048093670457
:1027600090936804009157041091580420915904E3
:1027700030915A04012B022B032B41F46093570430
:10278000709358048093590490935A0489819A81D4
:10279000FC0103A514A525A536A540916904509117
:1027A0006A0460916B0470916C0404171507260786
:1027B000370721F40E94520B892B29F689809A80D1
:1027C00040916504509166046091670470916804BB
:1027D000C4010E94050A611571058105910509F47E
:1027E000A5CF2B013C01420C531C611C711C8701BD
:1027F000012F112706950115110509F4E0C0F40118
:10280000818592859101200F311F8217930718F45B
:102810008C0102191309F4018181809350049801FD
:10282000B301A201C5010E94720A892B09F08BCF66
:1028300089819A81FC0143A554A565A576A5441913
:102840005509660977092801712C612C4415550535
:102850006605770588F4DC019F96FA01FE2FEE27C6
:10286000FF0FEA0DFB1D20E032E001900D92215098
:102870003040D9F7FC011382102F0027110FE01A06
:10288000F10AEB81FC8180819181800F911F9183FE
:102890008083A00EB11E8091610490916204A0918A
:1028A0006304B0916404800F911FA11DB11D80933A
:1028B000610490936204A0936304B0936404409114
:1028C0005B0450915C0460915D0470915E04481754
:1028D00059076A077B0710F4AC01BD0140935B0404
:1028E00050935C0460935D0470935E04E114F10402
:1028F00009F448C08091610490916204A09163043E
:10290000B0916404AC01BD01517066277727452B57
:10291000462B472B09F07CC0E981FA81218432845F
:1029200021E0221A3108AC01BD01E9E076956795F6
:1029300057954795EA95D1F7242235222114310481
:1029400009F024CF892B8A2B8B2B09F0E1CE6091E3
:102950005704709158048091590490915A0461155C
:1029600071058105910509F0DCCE40E050E0BA0127
:1029700081E594E00E94120E6115710581059105B3
:1029800009F0CFCE80915F04806480935F04C6011C
:102990000F900F900F900F90DF91CF911F910F919B
:1029A000FF90EF90DF90CF90BF90AF909F908F906F
:1029B0007F906F905F904F903F902F90089540913F
:1029C0006104509162046091630470916404809189
:1029D0005B0490915C04A0915D04B0915E04481783
:1029E00059076A077B0760F0C4010E94520B892BCC
:1029F00009F0A9CEE981FA8143A654A665A676A678
:102A00004092690450926A0460926B0470926C0464
:102A10008091610490916204917020E032E0281B63
:102A2000390B87012E153F0508F48901409169048F
:102A300050916A0460916B0470916C0489819A8151
:102A40000E945A0B892B09F07ECE29813A81215DA3
:102A50003F4F80916104909162049170A801B5018B
:102A6000820F931F0E940938E981FA8131E0338394
:102A700006CF87E0C82ED12C8ACF8F929F92AF923B
:102A8000BF92EF92FF920F931F93CF93DF93CDB737
:102A9000DEB7A1970FB6F894DEBF0FBECDBF7C01A5
:102AA000FA01CB0119A2223008F42AE08E010F5D51
:102AB0001F4F822E912CB12CA12CBF01A501940196
:102AC0000E94C537F901CA016A3074F5605DD8010A
:102AD0006E938D01232B242B252B79F790E080E03A
:102AE000109789F0FD0101900020E9F73197AF01BF
:102AF0004A1B5B0BD701ED91FC910280F381E02D25
:102B0000B801C7010995A1960FB6F894DEBF0FBEB4
:102B1000CDBFDF91CF911F910F91FF90EF90BF90AC
:102B2000AF909F908F900895695CD1CF8F929F92C4
:102B3000AF92BF92CF92DF92EF92FF920F931F93CB
:102B4000CF93DF937C01EB016C0182E0C80ED11CB6
:102B50004701E5E08E0E911C10E000E0F601419186
:102B60006F0150E070E060E02AE0CE010E943D1568
:102B70005C01E881F9810190F081E02D6EE2CE01E7
:102B800009958A0D9B1D080F191FC814D90431F728
:102B9000F701458150E070E060E02AE0CE010E943C
:102BA0003D15800F911FDF91CF911F910F91FF90E5
:102BB000EF90DF90CF90BF90AF909F908F9008954F
:102BC000AF92BF92CF92DF92EF92FF920F931F933B
:102BD000CF93DF9300D000D0CDB7DEB78C016B016F
:102BE0007A01809149048333E9F45B016801C40EE2
:102BF000D51EC016D106A9F10E9449048FE00E949B
:102C00005404812F0E945404802F0E9454040F5FAB
:102C10001F4F80E00E945404F50181935F010E94E0
:102C20003F04E7CF843369F50E94490419830A837E
:102C30008F2D8F778B83EC8264E070E0CE0101965C
:102C40000E942504A70170E060E0C6010E941238CE
:102C5000E114F10421F0B701C6010E9425040E948D
:102C60003F04C7010F900F900F900F90DF91CF910D
:102C70001F910F91FF90EF90DF90CF90BF90AF909A
:102C800008950E9449040F3F110509F030F419829C
:102C90000A831B8263E070E0D1CF17FD0BC019825D
:102CA0000A8333E0169507953A95E1F7007E0860B0
:102CB0000B83F0CFC80126E0969587952A95E1F71A
:102CC000807E19830A830115104C18F480618B8370
:102CD000E1CF8861FCCFCF93DF931F92CDB7DEB7F2
:102CE00020914A0430E0322F2227260F371F90E030
:102CF000982F882741E050E0BE016F5F7F4F820F21
:102D0000931F0E94E01589810F90DF91CF91089564
:102D1000CF93C82F462F61E070E00E94670561E005
:102D200070E08C2F0E946B168111F9CFCF9108951E
:102D3000CF93C82F80E591E00E944F0368E070E0D8
:102D40008C2FCF910C948816CF93C82F80E591E0FB
:102D50000E944F0360E170E08C2FCF910C94881695
:102D6000CF93DF93EC01888D843020F40E94A41669
:102D700084E0888FDF91CF91089563E070E00C9438
:102D80006B16CF93C82F80E591E00E944F038C2FE4
:102D9000CF910C94BD16EF92FF920F931F93CF9398
:102DA0007C010DE314E0C0E0F801219131918F0125
:102DB000F701848195812817390729F0CF5FC43046
:102DC00099F780E006C08C2F0E94C1168431B1F7BC
:102DD00081E0CF911F910F91FF90EF900895CF93D5
:102DE000DF93EC018C858430D0F40E94C1168431CD
:102DF00089F0882379F0883169F021E08C3159F429
:102E0000E881F9810084F185E02DCE01099521E06A
:102E1000892B09F420E0822FDF91CF91089580E083
:102E2000FBCFCF92DF92EF92FF92CF93DF93EC0133
:102E30008C85843068F40E9498160E9419046B01F6
:102E40007C018C850E94C116811109C084E08C87A9
:102E5000DF91CF91FF90EF90DF90CF90089561E0E8
:102E600070E080E090E00E94E7030E941904AB014B
:102E7000BC014C195D096E097F098D859E85B0E006
:102E8000A0E0481759076A077B07D8F28C850E9493
:102E9000A416DCCFCF93FC01C08D80E591E00E94A9
:102EA0004F0360E270E08C2F0E94881662E070E0B1
:102EB0008C2F0E946B1684FD16C062E070E08C2F90
:102EC0000E946B1683FF0AC048E162E070E08C2F1D
:102ED0000E94670580E090E0CF91089580E591E041
:102EE0000E944F03E3CF40E162E070E08C2F0E942C
:102EF000670581E0F0CFCF93DF931F92CDB7DEB7A8
:102F000041E050E0BE016F5F7F4F90E080E00E94A3
:102F1000E01589810F90DF91CF910895CF93DF93D2
:102F2000C4E1D0E00E947B17882361F061E070E08B
:102F300080E090E00E94E7032197A1F780E0DF9115
:102F4000CF91089581E0FBCFCF92DF92EF92FF9275
:102F50000F931F93CF93DF93CDB7DEB7C454D1093E
:102F60000FB6F894DEBF0FBECDBFFC018281938106
:102F7000A481B58123968CAF9DAFAEAFBFAF239731
:102F800021E023962FAF239723964CAD5DAD6EAD18
:102F90007FAD23974BAB5CAB6DAB7EAB89AF9AAF8C
:102FA000ABAFBCAF8DA79EA7AFA7B8AB28AB4DA565
:102FB0005EA56FA578A94FA358A769A77AA72EABDE
:102FC0004BA95CA96DA97EA949A35AA36BA37CA3B5
:102FD0008B8F9C8FAD8FBE8F46E951E05C8B4B8B06
:102FE0003FEF3D8B3E8B3F8B188E5E874D872AA728
:102FF000CFA0D8A4E9A4FAA4CF86D88AE98AFA8A0D
:103000002CA309A11AA12BA13CA109871A872B8700
:103010003C875A8349838B839C83AD83BE83809195
:103020004B048111ADC060E372E080E090E00E944B
:10303000E7031FB7F89480914804811124C0E6ED9E
:10304000F5E08491EAEEF5E09491E82FF0E0EE0FE0
:10305000FF1FEE53FA4FA591B491EC91E92321F4AF
:1030600061E08AE00E9476038AE00E9452038CB5F8
:1030700080618CBD8CB580648CBD8DE00E94520354
:103080008BE00E945203809148048F5F8093480434
:103090001FBF80911301282F30E0F901E453FA4F4C
:1030A000E491F0E0EE0FFF1FE854FA4F4591549180
:1030B0005093470440934604F901E052FA4FE491DB
:1030C000E09345040E9452030E943F0480E591E092
:1030D0000E944F0384E38093490480E80E940B051B
:1030E0000E948E17882309F481C088E00E940B0596
:1030F0000E947B17883009F079C080E10E940B059F
:103100000E947B17803109F071C080E00E940B059E
:103110000E947B17182F811169C041E050E0BE0169
:103120006D5B7F4F8FE190E00E94E01524968FAD9C
:103130002497833009F05AC080E480934A0442E027
:103140006EE170E0812F0E94670542E06FE170E060
:10315000812F0E9467051F5F143089F740E06EE100
:1031600070E0812F0E94670540E06FE170E0812FE1
:103170000E9467051F5F183089F781E080934B0438
:1031800080E591E00E944F0346E050E064E171E089
:1031900089E090E00E945B0444E050E0BE016D5F76
:1031A0007F4F8FE090E00E945B0444E050E0BE015E
:1031B000615F7F4F81E090E00E945B0444E050E05B
:1031C000BE016B5E7F4F85E090E00E945B0481E072
:1031D0008C8789859A85AB85BC8580939304909371
:1031E0009404A0939504B09396046FC087E38093F2
:1031F000490480E80E940B050E948E17882339F14C
:1032000088E00E940B050E947B17883001F580E161
:103210000E940B050E947B17182F8031C1F480E0BB
:103220000E940B050E947B17811111C041E050E004
:10323000BE016D5B7F4F89E390E00E94E01524960C
:103240008FAD2497843019F410934A0496CF83E30A
:103250008093490480E80E940B050E948E17882302
:1032600091F180E10E940B050E947B17803159F596
:1032700082E10E940B050E947B17823121F580E0DC
:103280000E940B050E947B1781111DC084E0809372
:103290004A0415E525961FAF259741E050E0BE0191
:1032A0006C5B7F4F8BE190E00E945B0424961FAF24
:1032B000249741E050E0BE016D5B7F4F8AE190E0D2
:1032C0000E945B045ACF10924904CC5BDF4F0FB6CB
:1032D000F894DEBF0FBECDBFDF91CF911F910F914C
:1032E000FF90EF90DF90CF9008951F93CF93DF93DF
:1032F0001F92CDB7DEB7182F80E591E00E944F03F3
:10330000812F0E941E0527E0129FF0011124EF5D1E
:10331000FB4F22813381377041E050E0BE016F5F87
:103320007F4F820F931F0E94E01589810F90DF91DC
:10333000CF911F910895FC01808D843040F4218D40
:10334000328D232B21F00E94751990E008958FEFA4
:103350009FEF0895CF93DF93FC012485243028F05C
:103360008FEF9FEFDF91CF910895EC010190F081F5
:10337000E02D0084F185E02D0995892B89F38C855A
:103380000E94751990E0EECFDA01E0914A04F0E076
:10339000FE2FEE27E60FF71F90E0982F8827A90150
:1033A000BD018E0F9F1F0C94E0158F929F92AF92DC
:1033B000BF92CF92DF92EF92FF921F93CF93DF9352
:1033C000CDB7DEB72C970FB6F894DEBF0FBECDBFDA
:1033D0002091490414E0222329F16B017C0180E54E
:1033E00091E00E944F035E0127E0A20EB11C45014F
:1033F00010E0812F0E94BD16F40181934F018823B4
:1034000049F11F5F1430A9F710E0F50181915F01C8
:103410008D31D9F08831C9F08A518230B0F01F5F08
:10342000143099F7812F2C960FB6F894DEBF0FBE9B
:10343000CDBFDF91CF911F91FF90EF90DF90CF90A4
:10344000BF90AF909F908F90089560E170E0812FC2
:103450000E948816A12EB12CF501EE0FFF1FE35C30
:10346000FB4F1182108283EE93E00197F1F742E85F
:1034700070E060E0812F0E9467054FEF62E070E02E
:10348000812F0E946705B601C114D10491F4809187
:1034900011019091120101968115F0EC9F0708F43B
:1034A0005CC09093120180931101609111017091A1
:1034B0001201812F0E94520586E0EBE2F1E0DE016D
:1034C000119601900D928A95E1F7F70183818F772C
:1034D0008C8384818D8385818E83A7014E5F5F4FAE
:1034E00024E030E06CE070E0812F0E942C05B601F2
:1034F000812F0E943D0526E030E0AE014F5F5F4F17
:1035000066E070E0812F0E942C0561E070E0812F61
:103510000E94881627E02A9DC0012B9D900D112442
:103520009C012F5D3B4F7901F9011182108222E04D
:1035300030E0AE01455F5F4F68E270E0812F0E948E
:10354000C4198B859C85982789279827F701938331
:10355000828316821582148265CF80E090ECA1CF21
:10356000CF92DF92EF92FF920F931F93CF93DF934F
:1035700000D000D000D0CDB7DEB78C016B017A014E
:10358000FC01808D843010F40E94A41686E991E03D
:103590009A838983F60182819381A481B5818B838B
:1035A0009C83AD83BE83B701CE0101960E94D519DD
:1035B000F801808F8430A0F4F586E486128E118E97
:1035C00081E026960FB6F894DEBF0FBECDBFDF9127
:1035D000CF911F910F91FF90EF90DF90CF900895C2
:1035E00080E0EFCFAF92BF92CF92DF92EF92FF9247
:1035F0000F931F93CF93DF9300D000D000D0CDB7AF
:10360000DEB7082F6B0180E591E00E944F039E0119
:103610002F5F3F4F7901590110E0812F0E94BD16A5
:10362000F50181935F01882341F11F5F1430A9F7F1
:1036300010E0F70181917F018D31D1F08831C1F027
:103640008A518230A8F01F5F143099F7812F269697
:103650000FB6F894DEBF0FBECDBFDF91CF911F91A3
:103660000F91FF90EF90DF90CF90BF90AF900895B3
:1036700060E170E0812F0E948816E12EF12CF701A5
:10368000EE0FFF1FE35CFB4F1182108283EE93E08D
:103690000197F1F7402F70E060E0812F0E946705ED
:1036A0004FEF62E070E0812F0E946705B601CD28E0
:1036B00089F4809111019091120101968115F0EC2D
:1036C0009F0798F19093120180931101609111016D
:1036D00070911201812F0E94520561E070E0812FEC
:1036E0000E94881627E02E9DC0012F9D900D112469
:1036F0009C012F5D3B4F7901F9011182108222E07C
:1037000030E0AE014B5F5F4F68E270E0812F0E94B6
:10371000C4198D819E81982789279827F701938363
:10372000828316821582148291CF80E090ECCACFFA
:10373000CF92DF92EF92FF921F93CF93DF93EC0132
:103740007B016A018C85843048F40E94C11688236D
:1037500019F08C850E94981684E08C87F70182818D
:103760009381A481B5810097A105B10551F490E042
:1037700080E0DF91CF911F91FF90EF90DF90CF908D
:1037800008958F3F9F4FAF4FBF4F89F380914904FA
:10379000811103C084E08C87EACF70E060E081E2B1
:1037A0000E94F21A182F8C87843008F780E591E088
:1037B0000E944F03A7014E5F5F4F24E030E06CE0B2
:1037C00070E0812F0E942C05B601812F0E943D05DB
:1037D00064E070E0812F0E9488160E9419046B013A
:1037E0007C018C850E94C116873109F18C31F9F07A
:1037F000882309F4BCCF0E941904AB01BC014C1909
:103800005D096E097F098D859E85B0E0A0E0841773
:103810009507A607B70738F061E070E080E090E018
:103820000E94E703DECF8C850E94A416B3CF81E00F
:1038300090E09FCF0F931F93CF93DF93EC018B0109
:10384000888D843010F40E94A4168091490481115F
:1038500007C094E0988FDF91CF911F910F91089549
:10386000B80182E00E94F21A888F843030F41D87FC
:103870000C871A8E198E81E0EECF80E0ECCF0F938B
:103880001F93CF9320914904222349F18C01FC011D
:103890006481758181E20E94F21AC82F8430F8F4A5
:1038A00080E591E00E944F038C2F0E94BD1683316A
:1038B00031F08C2FCF911F910F910C94981662E0EC
:1038C00070E08C2F0E948816F80184819581EC2F7E
:1038D000F0E0EE0FFF1FE35CFB4F91838083CF91FD
:1038E0001F910F910895BF92CF92DF92EF92FF92B6
:1038F0000F931F93CF93DF93EC016B0180914904E9
:1039000081111FC01B821A8288EE93E0A0E0B0E014
:103910008C839D83AE83BF8384E691E09983888303
:1039200084E08C8788EE93E09E878D87CE01DF91BF
:10393000CF911F910F91FF90EF90DF90CF90BF90AC
:1039400008958DE3E82E84E0F82EB12C04E010E019
:10395000F701219131917F01F6018481958128172A
:10396000390771F4812F0E94C116043009F587319F
:1039700011F08C31E9F4F701329711821082012F96
:103980001F5F143029F7B11003C0C6010E943F1C0D
:103990001B821A8288EE93E0A0E0B0E08C839D83C6
:1039A000AE83BF8384E691E0998388830C87BACF86
:1039B000843139F08111E4CFF701329711821082FE
:1039C000DFCFBB24B394DCCFCF92DF92EF92FF9294
:1039D0001F93CF93DF93CDB7DEB72F970FB6F89431
:1039E000DEBF0FBECDBF182F98EBC92E9BE0D92E9E
:1039F000882319F08AE0C82ED12CF12CE12C6AED35
:103A000074E0CE0101960E94731C8B819C8190937F
:103A1000BF048093BE048D819E81AF81B885809361
:103A2000C0049093C104A093C204B093C3048985D9
:103A30009A85AB85BC858093C4049093C504A093FC
:103A4000C604B093C7048D858093C8048E859F8576
:103A50009093CA048093C9048CEB94E00E94EF1603
:103A60008823E9F0112399F08CEB94E00E94111760
:103A7000812F2F960FB6F894DEBF0FBECDBFDF911A
:103A8000CF911F91FF90EF90DF90CF90089588E83D
:103A900093E19093CA048093C90411E0E9CF61E0F7
:103AA00070E080E090E00E94E7038FEFE81AF80AE8
:103AB000CE14DF0409F0A3CF10E0DACF7F928F920B
:103AC0009F92AF92BF92CF92DF92EF92FF920F93AD
:103AD0001F93CF93DF9300D0CDB7DEB7782E8B0145
:103AE0004A01590122E030E0AE014F5F5F4F64E2CE
:103AF00070E00E94C419E980FA80FE24EF24FE24BD
:103B0000E00EF11E9701377040914904072D10E037
:103B1000433309F042C0085F1F4F102F0027110FD9
:103B2000110F110FC901800F911F4733C9F1A9016E
:103B30004A0D5B1D4130584098F160E078E06B0120
:103B4000C21AD30AA601B4010E945B04A5014C1954
:103B50005D09B4016C0D7D1DC8010E945B04EA0C77
:103B6000FB1CF982EA8222E030E0AE014F5F5F4F3A
:103B700064E270E0872D0E942C050F900F90DF917A
:103B8000CF911F910F91FF90EF90DF90CF90BF905A
:103B9000AF909F908F907F900895005F1F4FBDCF93
:103BA000A501B401DACFEF92FF921F93CF93DF9379
:103BB00000D0CDB7DEB7182F22E030E0AE014F5F66
:103BC0005F4F60E270E00E94C419E980FA80FE2431
:103BD000EF24FE2422E030E0AE014F5F5F4F60E251
:103BE00070E0812F0E94C41989819A8198278927C2
:103BF0009827E816F90689F487E0189FF001112448
:103C0000EF5DFB4FF582E482C7010F900F90DF91CB
:103C1000CF911F91FF90EF9008957C01DBCF1F9310
:103C2000CF93DF93182F80E591E00E944F03812FFF
:103C30000E94D31DEC01812F0E94BD16873121F017
:103C40008C3111F0D0E0C0E0CE01DF91CF911F9117
:103C50000895CF93DF93EC018C85843060F40E944B
:103C6000C116873111F08C3131F48C850E940F1E02
:103C70008115984088F3DF91CF910895FC018485E8
:103C8000843010F40C940F1E90E080E00895CF92E1
:103C9000DF92EF92FF921F93CF93DF93182F7B0158
:103CA000EA014130584010F0C0E0D8E080E591E0F2
:103CB0000E944F03812F0E94D31D6C01812F0E940F
:103CC000BD16873111F08C3121F5CC16DD0670F36D
:103CD00080E591E00E944F039E01A70170E060E043
:103CE000812F0E945E1D60E270E0812F0E94881685
:103CF00062E070E0812F0E946B1684FD0DC0812F61
:103D00000E94BD168823B9F080E591E00E944F0320
:103D1000EFCFD0E0C0E0DCCF40E162E070E0812F87
:103D20000E946705CE01DF91CF911F91FF90EF9028
:103D3000DF90CF900895D0E0C0E0F4CF0F931F93B1
:103D4000CF93DF938C01EA01FC018485843048F431
:103D50000E94471E892B39F481E090E0F80193839B
:103D60008283D0E0C0E0CE01DF91CF911F910F910F
:103D700008950C949E1EFC01E60FF71F2DE0208392
:103D80002AE02183AB014E5F5F4FBC018BEC94E0D6
:103D90000C94B91ECF92DF92EF920F931F93CF93A3
:103DA000DF936C01EB01AB0170E060E080E3E82E93
:103DB00004E610E020E030E0C6010E94660780E2E1
:103DC000F601838362EA74E0CD3DD10529F190F4D8
:103DD00063ED74E0C73DD105F9F067EA74E0CC3DCE
:103DE000D105D1F06BE674E0C039D140A8F468E6A3
:103DF00074E012C06FE774E0C832F2E0DF0761F0F0
:103E000062E774E0C93282E0D80731F0C632E2E0FE
:103E1000DE0741F76EE874E0C60104960E94CF0702
:103E20008C5F682F70E0C601DF91CF911F910F91D9
:103E3000EF90DF90CF900C94BB1E9F92AF92BF92F9
:103E4000CF92DF92EF92FF920F931F93CF93DF9366
:103E50008C015B01942EE52EFC01C688D788F08C7E
:103E600080E591E00E944F038F2D0E94D31DC92D44
:103E7000DE2D8C179D0708F4EC019E01A501B6010B
:103E80008F2D0E945E1DF801868997898C0F9D1FDA
:103E9000978B868BCE01DF91CF911F910F91FF9071
:103EA000EF90DF90CF90BF90AF909F900895FF92DA
:103EB0000F931F93CF93DF9300D0CDB7DEB7F82ECB
:103EC00022E030E0AE014F5F5F4F66E270E00E949B
:103ED000C41909811A8110270127102722E030E038
:103EE000AE014F5F5F4F66E270E08F2D0E94C419F4
:103EF00089819A819827892798270817190749F4F3
:103F0000C8010F900F90DF91CF911F910F91FF90FB
:103F100008958C01E3CF1F93CF93DF93182F87E091
:103F2000189FE0011124CF5DDB4F888199810097B4
:103F300061F480E591E00E944F03812F0E94571F9A
:103F40002E81821B910999838883DF91CF911F91E4
:103F500008957F928F929F92AF92BF92CF92DF92FD
:103F6000EF92FF920F931F93CF93DF938C015B012E
:103F70007A0180914904882309F465C08DE3C82E35
:103F800084E0D82E4601712CC0E0D4012D913D91E2
:103F90004D01F801848195812817390799F48C2FF8
:103FA0000E94C116D82F873119F08C3109F03FC01B
:103FB0008C2F0E948B1F892B29F4DC3119F48C2F54
:103FC0000E949816CF5FC43001F7711008C0D80165
:103FD000ED91FC910084F185E02DC8010995C0E0C8
:103FE000F601219131916F01D80114968D919C9128
:103FF0002817390751F48C2F0E94C116873129F4F4
:10400000A701B5018C2F0E94471ECF5FC43041F736
:10401000C701DF91CF911F910F91FF90EF90DF903B
:10402000CF90BF90AF909F908F907F9008958431F4
:1040300039F08111C7CFF401329711821082C2CFBB
:1040400077247394BFCFF12CE12CE2CFFC0184855F
:10405000843010F40C948B1F90E080E008954F9210
:104060005F927F928F929F92AF92BF92CF92DF9298
:10407000EF92FF920F931F93CF93DF9300D0CDB7B2
:10408000DEB7782E6B014A01A82EB12C27E0829F63
:10409000C0011124FC01EF5DFB4F7F010081118104
:1040A00080E591E00E944F030815190554F4872D0F
:1040B0000E94571FF70126818C01021B11091183F1
:1040C00000830115110519F5872D0E94BD16843155
:1040D00059F0882349F001E010E08C3111F410E030
:1040E00000E0119501951109C8010F900F90DF9123
:1040F000CF911F910F91FF90EF90DF90CF90BF90E5
:10410000AF909F908F907F905F904F900895801612
:1041100091060CF4840187E08A9DF0018B9DF00DDF
:104120001124EF5DFB4FE280F380C114D10451F103
:104130002701F7E05F22872D0E941E05840D951D43
:1041400020914904273309F453C09801240D351DEB
:104150002130384008F44CC020E038E04901841890
:104160009508A401B6010E94E0152601480C591CCF
:104170006801C818D908872D0E941E05A601B20142
:104180000E94E015E00EF11E87E08A9DF0018B9DF4
:10419000F00D1124EF5DFB4FF382E282208131812B
:1041A000201B310B318320838681800F912F911D3D
:1041B0008A3F910510F4232BF1F487E08A9DF001EA
:1041C0008B9DF00D1124EF5DFB4F1682F982EA8280
:1041D00022E030E0AE014F5F5F4F68E270E0872D74
:1041E0000E942C0560E470E0872D0E9488167CCF29
:1041F000A801B601C5CF868377CFCF93DF93FC01AB
:10420000218D328D2115310529F48FEF9FEFDF913C
:10421000CF910895EC01808D4217530708F0A90152
:104220000E942F201816190684F7298D3A8D281B15
:10423000390B3A8F298FEBCF0F931F93CF93DF93D7
:104240001F92CDB7DEB7FC01218D328D232B41F4B7
:104250008FEF9FEF0F90DF91CF911F910F910895F6
:104260008C0141E050E0BE016F5F7F4FFC01808D0B
:104270000E942F20181619065CF7F801818D928D87
:104280000197928F818F898190E0E4CF0F931F93E4
:10429000CF93DF93CDB7DEB728970FB6F894DEBF84
:1042A0000FBECDBF8C01D80159964D915C915A97A4
:1042B0004115510551F0ED91FC91048CF58DE02DE7
:1042C00070E060E0C8010995EECFF801808D0E9492
:1042D0008B1F892BB1F148E050E0BE016F5F7F4F2B
:1042E000D80158968C910E942F2018161906F4F4C4
:1042F000D801509684E0FE01319601900D928A9586
:10430000E1F78D8190E0982F88272E81820F911DF3
:10431000F801958B848B8F81282F30E0322F222754
:104320008885820F932F911D928F818F28960FB6CB
:10433000F894DEBF0FBECDBFDF91CF911F910F91DB
:10434000089590E080E0F2CF4F925F926F927F925B
:104350008F929F92AF92BF92CF92DF92EF92FF9295
:104360000F931F93CF93DF93CDB7DEB763970FB64D
:10437000F894DEBF0FBECDBF7C016B013A01FB019B
:1043800020E090E080E06AE03191332309F461C0DD
:1043900040ED430F4A3008F04DC0689FA001699F6F
:1043A000500D1124CA01C097830F911D37FD9A95B6
:1043B0008F3F910549F340F3F701428153816481B6
:1043C000758180919F049091A004A091A104B09167
:1043D000A204481759076A077B0709F40DC2870131
:1043E000085F1F4F0E9419046F7077277C5FC80118
:1043F0000E941A1C813009F004C286E991E09A8378
:104400008983F70182819381A481B5818B839C8309
:10441000AD83BE8345E350E0BE016F5F7F4FC801AF
:104420000E94D205892BA9F5D12CC12CC8010E946C
:10443000B01617C03E3209F0BFCF233009F4BCCF0D
:10444000D301A20FB11D12968C932F5F90E080E0F4
:104450009BCF233009F0B0CFF3018583CC24C394E4
:10446000D12CC60163960FB6F894DEBF0FBECDBF48
:10447000DF91CF911F910F91FF90EF90DF90CF9040
:10448000BF90AF909F908F907F906F905F904F9074
:1044900008950E941904F7017783668342E050E093
:1044A000B7016A5F7F4FC8010E941D1F81E090E045
:1044B0009A83898342E050E0BE016F5F7F4FC8015D
:1044C0000E941D1F80E091E09A83898342E050E0C2
:1044D000BE016F5F7F4FC8010E941D1F1A821982A3
:1044E00042E050E0BE016F5F7F4FC8010E941D1F78
:1044F00042E050E0BE016F5F7F4FC8010E941D1F68
:1045000042E050E0BE016F5F7F4FC8010E941D1F57
:104510005601F6018081882301F16501F601819140
:104520002F01882311F08E32B1F446018A189B08BE
:104530001814190474F48D8641E050E0BE01635FE5
:104540007F4FC8010E941D1FA401B501C8010E9430
:104550001D1F5201DECF6201E1CF1D8641E050E018
:10456000BE01635F7F4FC8010E941D1FC12CDD2467
:10457000D394DA82C98242E050E0BE016F5F7F4F80
:10458000C8010E941D1FDA82C98242E050E0BE01CC
:104590006F5F7F4FC8010E941D1FC8010E944A170C
:1045A000892B09F441CFF3E0AF2EB12C230122E097
:1045B000420E511CD4C0F701428153816481758140
:1045C000808D918DA28DB38D481759076A077B079F
:1045D00009F008C1848D958DC59709F003C181A1AB
:1045E00092A15DEFC52EDD24DA940C970CF4ADC0DA
:1045F0004CE050E0BE016F5F7F4FC8010E94FD207C
:104600008B819C819827892798279A8B898BF70122
:104610004681578129813A814217530709F0E7C043
:1046200097FFE5C08F7092703BEFC32EDD24DA94C4
:10463000892B09F08AC06F807884762467247624D9
:104640002AEFC22EDD24DA946114710409F47DC0CE
:10465000D12CC12C8D819E81982789279827C81637
:10466000D906F8F441E050E0BE01635F7F4FC80116
:104670000E94FD204D85442331F050E070E060E061
:10468000C8010E94FD208D858111ECCF44E050E0EF
:1046900070E060E0C8010E94FD20FFEFCF1ADF0A42
:1046A000D9CF912C812C41E050E0BE016D5E7F4F4F
:1046B000C8010E94FD204B89842F807C09F06CC0CA
:1046C000442331F050E070E060E0C8010E94FD201A
:1046D0008B898111E8CF42E050E0BE01615F7F4FDE
:1046E000C8010E94FD2042E050E0BE01635F7F4FA1
:1046F000C8010E94FD2044E050E070E060E0C80185
:104700000E94FD2042E050E0BE016F5E7F4FC80175
:104710000E94FD208F85988949895A898115914089
:1047200009F043C0CD84DE84DC24CD24DC2481E088
:10473000C816D104D1F54115544009F04AC044E0EF
:1047400050E0B201C8010E94FD2021E0A21AB10888
:1047500009F46CCEFFEFCF16DF0609F067CE0E949A
:1047600019043B014C01C8010E9446211816190684
:104770000CF421CF0E941904661977098809990958
:10478000693873418105910548F562E370E080E086
:1047900090E00E94E703E7CF41E050E070E060E086
:1047A000C8010E94FD201B8A93CF54274527542718
:1047B00070E060E0C8010E94FD20FFEF8F1A9F0AA1
:1047C0006814790409F06FCF96EFC92EDD24DA94CE
:1047D000BCCFE7EFCE2EDD24DA94B7CFCC24CA9439
:1047E000DC2CB3CF6EEFC62EDD24DA94AECF4CEFC7
:1047F000C42EDD24DA94A9CF8EEFC82EDD24DA94FE
:1048000030CED12CC12C2DCECF92DF92EF92FF92E1
:104810000F931F93CF93DF93CDB7DEB7AF970FB64C
:10482000F894DEBF0FBECDBF7C016A0106E911E03E
:104830001A8309831C861B8688EE93E0A0E0B0E013
:104840008D879E87AF87B88B8AE391E09A878987A7
:10485000188F0F8B198E1A8E1B8E1C8E84E089A3E5
:104860001BA70AA71CA61DA61EA61FA6809193041F
:1048700090919404A0919504B09196048EA39FA367
:10488000A8A7B9A78B839C83AD83BE8318861F829C
:10489000AE01465D5F4FCE0101960E94A42181309A
:1048A0009105B1F4D701ED91FC910488F589E02DD3
:1048B0001DA30CA38CA59DA5AEA5BFA58EA39FA3EC
:1048C000A8A7B9A7A601BE016C5D7F4FC7010995D6
:1048D000AF960FB6F894DEBF0FBECDBFDF91CF917C
:1048E0001F910F91FF90EF90DF90CF900895CF929E
:1048F000DF92EF92FF920F931F93CF93DF93CDB789
:10490000DEB7AF970FB6F894DEBF0FBECDBF8C01F8
:104910006B017A0186E991E09A8389831B821C826C
:104920001D821E821C861B8648EE53E060E070E00C
:104930004D875E876F87788B2AE331E03A87298736
:10494000988F8F8B198E1A8E1B8E1C8E24E029A3B4
:104950009BA78AA71CA61DA61EA61FA6D8011C964B
:104960008C91843060F40E94C116882321F0F801F4
:1049700084850E94981684E0D8011C968C938091BF
:10498000930490919404A0919504B09196048EA301
:104990009FA3A8A7B9A78B839C83AD83BE831886EA
:1049A0001F82AE01465D5F4FB601CE0101960E94A7
:1049B000A4210097C1F0D801ED91FC910684F78500
:1049C000E02D86E991E09DA38CA38CA59DA5AEA5C5
:1049D000BFA58EA39FA3A8A7B9A7A701BE016C5D21
:1049E0007F4FC8010995AF960FB6F894DEBF0FBE92
:1049F000CDBFDF91CF911F910F91FF90EF90DF908E
:104A0000CF900895CF93DF931F92CDB7DEB741E0EB
:104A100050E0BE016F5F7F4FFC0184850E942F2014
:104A20001816190634F4898190E00F90DF91CF9128
:104A300008958FEF9FEFF9CFFC018485843010F447
:104A40000C942F2090E080E008950F931F93CF9354
:104A5000DF9300D0CDB7DEB7FC0124852430E0F42D
:104A60008C0180E591E00E944F0322E030E0AE012E
:104A70004F5F5F4F60E170E0F80184850E94C419C8
:104A800089819A819827892798270F900F90DF9125
:104A9000CF911F910F91089590E080E0F6CFEF92B3
:104AA000FF920F931F93CF93DF9300D000D0CDB729
:104AB000DEB78C017B01FB0184858430A8F086E998
:104AC00091E0F8019183808312821382148215820F
:104AD000C8010F900F900F900F90DF91CF911F9111
:104AE0000F91FF90EF90089580E591E00E944F03B1
:104AF00024E030E0AE014F5F5F4F6CE070E0F70103
:104B000084850E94C41986E991E0F801918380832D
:104B100089819A81AB81BC8182839383A483B5838D
:104B2000D7CF0F931F93CF93DF9300D0CDB7DEB7CE
:104B3000FC0124852430E0F48C0180E591E00E94A2
:104B40004F0322E030E0AE014F5F5F4F64E070E062
:104B5000F80184850E94C41989819A819827892740
:104B600098270F900F90DF91CF911F910F9108958B
:104B700090E080E0F6CF2F923F924F925F926F923B
:104B80007F928F929F92AF92BF92CF92DF92EF92DD
:104B9000FF920F931F93CF93DF9300D000D0CDB738
:104BA000DEB7FC01208131813C832B83C684D7840E
:104BB000E088F18830E2C30ED11CE11CF11CC11465
:104BC000D10480E2E806F10420F0168A178A108EDC
:104BD000118E86899789A08DB18D0097A105B105A9
:104BE000B1F13B018F01B701A6015170662777270C
:104BF000452B462B472B09F0DEC00196A11DB11DA8
:104C0000868B978BA08FB18F428953896489758970
:104C1000EB81FC814115510561057105D9F487814E
:104C20009085B0E0A0E0B701A60135E076956795E4
:104C3000579547953A95D1F7481759076A077B0763
:104C400008F4B9C0F801168A178A108E118E84E014
:104C500090E024C0818592850197B0E0A0E04601F4
:104C6000570129E0B694A794979487942A95D1F791
:104C700088219921AA21BB21892B8A2B8B2B09F012
:104C80009AC0CF010E949D0B4B015C01F2E08F1690
:104C90009104A104B104C8F482E090E00F900F9059
:104CA0000F900F90DF91CF911F910F91FF90EF9098
:104CB000DF90CF90BF90AF909F908F907F906F903C
:104CC0005F904F903F902F9008952FEF821692069D
:104CD000A206B20619F481E090E0E0CFEB81FC81FE
:104CE00083899489A589B68988169906AA06BB0680
:104CF00008F451C0672809F4A5CFF8014289538907
:104D000064897589C8010E94120E4B015C0187E01D
:104D100090E081149104A104B10409F4BFCFF1E043
:104D20008F169104A104B10409F4B6CF2FEF8216B7
:104D30009206A206B20679F28B819C810E94520BE8
:104D4000892B49F6B501A4018B819C810E94050A3B
:104D50002B013C01EB81FC8143A654A665A676A6F7
:104D6000BF96FA83E98380E092E09C011192215082
:104D70003040E1F7312C212CEB81FC81818592853B
:104D80002816390648F1EB81FC8181859285281629
:104D9000390609F0A0CFF801828A938AA48AB58ADD
:104DA000B501A4018B819C810E94050AF801668BE4
:104DB000778B808F918FF801C686D786E08AF18A3B
:104DC0008B819C818F9696013170280F391F338F0C
:104DD000228F90E080E062CFEB81FC818181809323
:104DE000500421E030E0B301A201420D531D611DCA
:104DF000711D89819A810E94720A892B21F63FEFE9
:104E0000231A330AB9CF0C94A4370C941B370F9391
:104E10001F93CF93DF93EC01FC01E35DFD4F008115
:104E200011819FA59B3E21F0985E923008F04DC005
:104E300005352AEA120761F448E050E068EA71E0BB
:104E4000CE018F579F4F0E94FC37892B09F447C032
:104E50008AAD9BAD9C012150310928233923232B96
:104E6000A1F58115924089F58CAD882371F190E010
:104E70009C012150310982239323892B31F58DAD7B
:104E80009EAD892B11F18FAD8150990B0297E8F4FB
:104E9000FE01E05CFF4F80819181892BB1F0329659
:104EA000808191818038910550F4CE01815B9F4FC4
:104EB0000E942D0A611571058140910530F0CB5B90
:104EC000DF4F88819981892B51F405351A4A51F0B9
:104ED00083E090E0DF91CF911F910F91089590E0D2
:104EE00080E0F8CF82E090E0F5CF2F923F924F9292
:104EF0005F926F927F928F929F92AF92BF92CF926A
:104F0000DF92EF92FF920F931F93CF93DF93CDB772
:104F1000DEB7EA970FB6F894DEBF0FBECDBF909113
:104F20000E01981709F4B4C4282E923008F0F2C08C
:104F3000CE0101960E942503892B09F0E0C08091E3
:104F40005F0486FFD2C040916D0450916E04609161
:104F50006F047091700489819A810E945A0B892B89
:104F600009F0CDC0E0917104F091720483858062F4
:104F7000838740915704509158046091590470916F
:104F80005A042091510430915204428F538FD90119
:104F90002C91233029F4CB01AA27BB27848B958B36
:104FA00030915B0420915C0490915D0480915E04DB
:104FB000348F258F968F878F168A178A81E2808F8C
:104FC00080E5818F128A138A09811A8181E0F801B4
:104FD0008383C8010E94F90A7C01892B09F07EC0F5
:104FE000D8018C91833009F05EC014968C9114978F
:104FF000813009F058C01196AC9120E032E0C80130
:105000008F96FC01A901119241505040E1F725E52E
:10501000F801E35DFD4F20832AEA3196208322E5E3
:10502000F80127A720AB21E621AB31E432AB42E700
:10503000ED5EFD4F4083319640833196308331964B
:105040002083F8015785408931892289E95EFD4F27
:105050005083319640833196308331962083F80116
:105060005385448535852685E55EFD4F5083319611
:1050700040833196308331962083F801438D548DDF
:10508000658D768D4F5F5F4F6F4F7F4F43A754A75E
:1050900065A776A7A093500421E030E00E94720A31
:1050A000D80114961C92D8011196EC91E09350040B
:1050B000F0E0ED5DFE4F8081EE24E394F12C80FD65
:1050C0000DC080E58CBD0E94FD0831E020E0892BF9
:1050D00009F030E0E32EF22E0E94F70880915F0481
:1050E0008F7B80935F04EF2851F4CE0101960E94DC
:1050F0002503892B21F410925204109251048091BF
:105100000E01811162C080E38093200190E080E075
:105110000E943F0A8FEF80930E01B1E0B21508F4B0
:10512000B5C380E3211081E3809320018AED91E0F3
:105130000E943F0A892B09F046C080E3820D8093CC
:10514000000180911D04211080911C04282F30E063
:1051500054E0359527955A95E1F72A30C0F5205D42
:10516000209308018F708A30A0F5805D809309013B
:1051700080E091E09AA789A7CE0189960E94D8097C
:1051800097FD19C0FC01EE0FFF1FE45BFB4F408051
:1051900051804114510479F0F20120812223D9F089
:1051A000E181E0935004F0E0ED5DFE4F208120FDB1
:1051B00012C022FFE9C2109252041092510490E0F2
:1051C00080E00E943F0A80E064C381E39DCF295CB8
:1051D000C7CF895CCBCFD2011C9211968C93809360
:1051E00050049927FC01ED5DFE4F808180FD62C077
:1051F0008081857001F7D20113961C928FEF9FEF8B
:10520000DC01F20183A794A7A5A7B6A740E050E070
:10521000BA01C2010E945A0B892B69F6C2010E9491
:1052200007278230910509F014C15201FBE0AF1A43
:10523000FEEFBF0A8E010F5F1F4F62012BECC21AF7
:105240002DEFD20A7801C5010E942D0AD7016D9376
:105250007D938D939D937D01B0E1AB0EB11CCA147B
:10526000DB0489F77801E0E1EE0EF11C88248A94D2
:10527000982C5401D8014D915D916D917D918D01D6
:10528000411551056105710589F0F201138283A66C
:1052900094A6A5A6B6A6C2010E945A0B892B31F48A
:1052A000C2010E940727029708F4D6C00E151F05F9
:1052B00009F781CF808181FD9BCFF89497E095B964
:1052C00084B1876084B995B980E58CBD81E08DBDDE
:1052D00084B18F6284B98FE385B978948CB583608B
:1052E0008CBD1AE08FEF0E94A9081150D9F705E094
:1052F00040E050E0BA0180E00E941A09182F8111A5
:1053000004C00150A9F7F12C85C08130E1F70E945B
:1053100019043B016B014AEA51E060E070E088E06B
:105320000E941A09813009F048C0FE0131967F01C0
:105330005E01F5E0AF0EB11C87018FEF0E94A90856
:10534000D8018D938D01AA15BB05B9F78B818130EA
:10535000D1F68C818A3AB9F60E9419046C197D093C
:10536000683E73404CF440E050E060E070E489EA4D
:105370000E941A098111F0CF0E9419046619770959
:10538000683E73400CF0BFCF40E050E0BA018AE3C2
:105390000E941A098111B7CF8FEF0E94A908D70187
:1053A0008D937D01A017B107B9F7898138E1F32EFC
:1053B00086FD30C098E0F92E2DC040E050E0BA01E3
:1053C00089EA0E941A09FF24F394823018F424E039
:1053D000F22E19EA0E9419046C197D09683E734087
:1053E00044F440E050E0BA01812F0E941A09811173
:1053F000F1CF0E94190466197709683E73400CF0DA
:1054000082CF40E052E060E070E080E10E941A0943
:10541000811179CFE09150040E2F10E0F801EA528B
:10542000FE4FF0820E94F708F801ED5DFE4F80818B
:10543000FF2061F08E7F80838CB58C7F8CBD2C9893
:10544000E0915004F0E0ED5DFE4FD2CE81608083AC
:10545000F6CF029708F0AFCEF20182AD93AD811581
:10546000924009F0A8CEF201EB5BFF4F8080918063
:10547000B12CA12C8114910439F4C2018D5A9F4F93
:105480000E942D0A4B015C01D2019B962D913D910A
:105490004D915C919E972BA73CA74DA75EA7F2016B
:1054A000878A908EA18EB28E07AD02838FEF800F18
:1054B000823008F080CE14AD812F90E092878187F2
:1054C000009709F478CE9C0121503109822393235F
:1054D000892B09F070CEE05CFF4F608071801896D8
:1054E0007C926E921797C3018F709927892B09F0D0
:1054F00062CE3296C080D180F12CE12CC114D1044F
:1055000039F4C201815B9F4F0E942D0A6B017C011F
:10551000D201DD96ED91FC91309709F44CCEA02F8D
:10552000B0E0A50194010E94BA376BAB7CAB8DABA8
:105530009EAB9F0150E040E02FAB38AF49AF5AAF70
:10554000C301B4E096958795BA95E1F7280F391F06
:10555000411D511DDA01C9012BA93CA94DA95EA924
:10556000280F391F4A1F5B1F2FA738AB49AB5AAB17
:10557000C216D306E406F50608F41DCEC701B6012F
:10558000621B730B840B950B212F30E050E040E041
:105590000E94C537211531054105510509F40BCE8F
:1055A000263F8FEF380748078FE0580708F003CEF3
:1055B00003E010E0263FBFEF3B074105510550F4E3
:1055C00002E010E0263FBFE03B074105510510F423
:1055D00001E010E069017A0192E0C90ED11CE11CE2
:1055E000F11CD2015396CD92DD92ED92FC9256972A
:1055F0002BA53CA54DA55EA55B962D933D934D93A4
:105600005C935E978FA998ADA9ADBAAD280F391FED
:105610004A1F5B1F2FAB38AF49AF5AAFD2015F961D
:105620002D933D934D935C9392974BA55CA56DA5EF
:105630007EA58FA598A9A9A9BAA9480F591F6A1FC5
:105640007B1FD20197964D935D936D937C939A97B0
:105650000330110509F036C1F201E75AFF4F80818E
:105660009181892B09F0A7CD672809F0A4CDC2014B
:10567000855A9F4F0E942D0AF20163A374A385A34C
:1056800096A3A2E0CC0CDD1CEE1CFF1CAA95D1F762
:105690002FEFC20E21E0D21EE11CF11C59E0F6945E
:1056A000E794D794C7945A95D1F78C149D04AE040F
:1056B000BF0408F480CD8FEF9FEFDC01F2018787F4
:1056C000908BA18BB28B83879487A587B68780E860
:1056D00084830330110509F048C0E15AFF4F8081EF
:1056E0009181019709F041C04BA55CA56DA57EA5F0
:1056F0004F5F5F4F6F4F7F4FC2010E945A0B892B44
:10570000A1F5D20114961C92F201E35DFD4F808158
:10571000918185359A4A49F5C2018F960E942D0ADA
:10572000623572458146914401F5C2018D5E9D4FFF
:105730000E942D0A6237724781449146B1F4C2013A
:10574000895E9D4F0E942D0AD2011F966D937D9315
:105750008D939C935297C201855E9D4F0E942D0AA6
:10576000F2016387748785879687D2010C938091B5
:10577000D8019091D90101969093D9018093D801D5
:1057800016969C938E9315975A824982E9A5FAA59D
:105790008F0181918F32E1F38C35D1F31F8218860E
:1057A00019861A86F80180814201FFE28F0E911C52
:1057B000803208F008C180E888A7CE0101960E94D7
:1057C0005B0C892B09F0F7CC88A587FDF4CC8D8183
:1057D000817109F0F0CCF20183A594A5A5A5B6A529
:1057E00080936D0490936E04A0936F04B093700443
:1057F000EB8DFC8DF0937204E0937104428D538D18
:1058000070E060E0D2018C91833059F404891589ED
:1058100030E020E0980111270027402B512B622B0C
:10582000732B40935704509358046093590470931A
:105830005A04CF014C960E942D0A60935B0470932A
:105840005C0480935D0490935E04509252044092F5
:105850005104D20115968D919C919093540480939C
:10586000530483E080935F041092600410926904F3
:1058700010926A0410926B0410926C0410926104EE
:1058800010926204109263041092640420920E013C
:1058900081E0EA960FB6F894DEBF0FBECDBFDF9170
:1058A000CF911F910F91FF90EF90DF90CF90BF901D
:1058B000AF909F908F907F906F905F904F903F90B0
:1058C0002F900895672809F476CC8FA998ADA9ADDB
:1058D000BAAD2BA93CA94DA95EA9820F931FA41FA5
:1058E000B51FF20183A394A3A5A3B6A302301105AB
:1058F00029F4CC0CDD1CEE1CFF1CCACEA3E0B0E0EA
:10590000A70196010E94BA37969587957795679576
:10591000F1E0CF22DD24EE24FF24C60ED71EE81EC0
:10592000F91EB6CE2EE2821709F4BEC0EA14FB04BB
:1059300008F041CC682F70E081EB91E00E941938AB
:10594000892B09F038CC8FE9830D8A3110F430EEC1
:10595000330EEDE1F0E0EC0FFD1FEE0DFF1D308288
:10596000A7014F5F5F4F7A013EC080E069C034E01D
:10597000C32ED12C88A5CD2809F01DCC82FD24CFC3
:105980008D8184FF18CCEF85F889F170AF01480D47
:10599000591DDA015A968D919C91B0E0A0E0F20178
:1059A0002081233061F4FA014489558970E060E078
:1059B000BA0155274427842B952BA62BB72B8F8311
:1059C0009887A987BA874BE050E060E270E0CE018B
:1059D0004D960E9412383801F12CE12CD12CC12CAB
:1059E00048E0A42EB12C2FEFC21AD20AD3018D9118
:1059F0003D01382EB0E2B81788F4EFE28E1719F0A7
:105A0000FCE58F138FCFF801EC0DFD1D6F01C01A5F
:105A1000D10A91919F32D1F39C35C1F3EF2809F45B
:105A2000CACB9D8D953E11F455E05D8F0C0D1D1D6B
:105A3000813228F0D8018C9181320CF096CF84E02D
:105A400088A7E980FA80CE0101960E945B0C6C0168
:105A5000892B09F08FCF4F89588D698D7A8DC701B9
:105A60000E945A0B6C01892B09F084CF8B8D9C8D81
:105A7000FC012081222309F47ACF2385322F3F7342
:105A80003D8323FD0AC04BE050E0BE01635E7F4FC3
:105A90000E94FC37892B09F46DCF70E060E0CE01E5
:105AA00001960E94BB25D3CFEBE0AE16B10409F4FA
:105AB00082CB88E0E82EF12C9BE0A92EB12C93CF6D
:105AC000EF92FF920F931F93CF93DF93CDB7DEB783
:105AD000C250D2400FB6F894DEBF0FBECDBF80E0FB
