:020000040000FA
:100000000C94FE030C9426040C9426040C942604F1
:100010000C9426040C9426040C9426040C942604B8
:100020000C9426040C9426040C9426040C942604A8
:100030000C9426040C9426040C9426040C94260498
:100040000C94B1370C9426040C9426040C942604CA
:100050000C9426040C9426040C9426040C94260478
:100060000C9426040C942604EAA92085F0A9608546
:10007000F3A5434A4A4A4A290709C085F2A00084E9
:10008000F188B1F185F1A90285F9E646E645E64534
:1000900020F000900620E2FB4CBAFAC6F9D0EB2023
:1000A00093FE2089FE20A50920AF08205F0B20C405
:1000B00008205E0820A60820460B20750B20EE08BD
:1000C00020420B4C6B0CA90085FBA904852520223E
:1000D000FCA5FB85F5098085F620460BA90020E4E8
:1000E00009A9FF8532A54309808543A5FB098085C1
:1000F000FBA91420E409A9FF85324A25438543E67C
:1001000025E6FBA5FB297F85FBC91090C160A5F7FB
:1001100085F5A5F885F660A0008424A00384252039
:1001200022FC201E0BA01484244C190BA91520FDC1
:100130000A20270BA914852420220BA90185FA2067
:10014000B709C6FA10F960205B0C20A60820C40885
:100150006868184C6B0CA90085FAA940203E0A205B
:10016000B709200CFD48A901203E0A68A6FAB4F59B
:10017000C98DD00EA900203E0AA5FA490185FAD002
:10018000D960C99BF0C1C9A1D005A9FF85F560C997
:10019000ACF004C98BD013980A0838E902291E284C
:1001A0006AA898298F95F54CF208C9A0F004C98A6D
:1001B000D003C8D0EDC988F004C995D0079849800C
:1001C00095F51031C9E1900338E920C9C19009C9FA
:1001D000C7B00538E907D008C9B09015C9BAB01141
:1001E000290F85F998298005F995F520B7094C0C58
:1001F00009C9C9F0034CF20820A50920750B4CA7CA
:100200000BC9FFF0034CE3FDA9A14CEDFD2058FC08
:10021000A93F20060BA91720FD0AA9234C060BA213
:100220000BA5FAF002A21F8624A01584252022FC2B
:10023000A4FAB9F50048A0010A9001C898209909CC
:10024000A424C8842468209909C624608524A5FBB9
:1002500048297F20E3FDA9BA20EDFDE62468C5F713
:10026000F004C5F8D004A93F853220350BB032AD7B
:100270000510302DAD0410AA29F0C9F0D0238A2929
:100280000FF01E85F9A200BD0510098020EDFDE8E4
:10029000E4F9D0F3E00FD00160A9A020EDFDE8D093
:1002A000F3A2004C290BA6FAC901D00AA980A4F533
:1002B000C4F6D002A90085F9B5F53004A003D00238
:1002C000A0178424290F18690485252022FCA42462
:1002D000A20EB128293F05F99128C8CA10F460ADD3
:1002E000ADADA0A0A0A0A0A0A0A0A0A0A0A000C470
:1002F000D2C9D6C5A0B1BAA0D3C4BFAF00D3C4B1D0
:10030000BA0020200110100C0520090920060F1248
:100310000516051221202016332E302E3000040140
:100320000E20090920160F0C150D052013050C05CC
:1003300003140F1200A0CFCBA100C5D2D2CFD2A1FF
:1003400087878700C6D4D0AFC9D0BAA000CEC5D7A2
:10035000A0C9D0BAA0A0A0A0AEA0A0A0AEA0A0A00E
:10036000AEA0A0A0008525A90085244C22FC48A2AF
:1003700026A92020EDFDCA10F868AAA9088524D076
:1003800010A9B28D970AA21ED007A9B28D8D0AA21C
:1003900010BD770AF00620EDFDE8D0F560A00084DE
:1003A00047C88442C884464C540BA907D002A9060A
:1003B0008542A5F58546A5F649808547A90085446F
:1003C000A91085454CF000A905854220540BAD00CD
:1003D0001085F7AD0110498085F84CA608A92120A9
:1003E000480BB0B8AD1010F0B3A90120FD0AA20966
:1003F0008624A26520290BAD0610204F0CAD0710F6
:10040000204F0CAD0810204F0CAD09104CA80CA5C6
:100410004348A90A20FD0AA26E20290BA9088524B9
:1004200020EF0BB0ED8544E62420EF0BB0E48545CA
:10043000E62420EF0BB0DB8546E62420EF0BB0D29C
:1004400085478543A920854220F00018AA68854386
:10045000CAF001384C790CA90085F9A2038A48201A
:100460002E0CB017C9FFF017A8201F0CB00D98650F
:10047000F985F9B00668AACAD0E34868A5F96068AA
:10048000186524852490F5A20AA9001865F9B0051D
:10049000CAD0F985F960200CFDC9A0D004A9FF18C5
:1004A00060C98DF0F8C9AEF0F4C9B030E9C9BAB08E
:1004B000E520EDFD290F6020A80CA9AE4CEDFDA9AB
:1004C00000F002A98048A20086FA203E0A68E6FAF7
:1004D0004C3E0A0820570CA91620FD0AA9118524B4
:1004E00028A2569002A25B20290BA206A9FF20A8F1
:1004F000FCCAD0F82058FCA908488545A9004885C1
:100500004485468547A2018144A90A85426CF100D1
:10051000C90A901EA26486F920CD0CE000F00648BE
:100520008A20E3FD68A20A86F920CD0C488A20E3E0
:10053000FD684CE3FDA200C5F99006E838E5F9B086
:10054000F660FFFFFFFFFFFFFFFFFFFFFFFFFFFF63
:10055000FFFFFFFFFFFFFFFFFFFFFFFFFFFFFFFFAB
:10056000FFFFFFFFFFFFFFFFFFFFFFFFFFFFFFFF9B
:10057000FFFFFFFFFFFFFFFFFFFFFFFFFFFFFFFF8B
:10058000FFFFFFFFFFFFFFFFFFFFFFFFFFFFFFFF7B
:10059000FFFFFFFFFFFFFFFFFFFFFFFFFFFFFFFF6B
:1005A000FFFFFFFFFFFFFFFFFFFFFFFFFFFFFFFF5B
:1005B000FFFFFFFFFFFFFFFFFFFFFFFFFFFFFFFF4B
:1005C000FFFFFFFFFFFFFFFFFFFFFFFFFFFFFFFF3B
:1005D000FFFFFFFFFFFFFFFFFFFFFFFFFFFFFFFF2B
:1005E000FFFFFFFFFFFFFFFFFFFFFFFFFFFFFFFF1B
:1005F000FFFFFFFFFFFFFFFFFFFFFFFFFFFFFFFF0B
:10060000FFFFFFFFFFFFFFFFFFFFFFFFFFFFFFFFFA
:10061000FFFFFFFFFFFFFFFFFFFFFFFFFFFFFFFFEA
:10062000FFFFFFFFFFFFFFFFFFFFFFFFFFFFFFFFDA
:10063000FFFFFFFFFFFFFFFFFFFFFFFFFFFFFFFFCA
:10064000FFFFFFFFFFFFFFFFFFFFFFFFFFFFFFFFBA
:10065000FFFFFFFFFFFFFFFFFFFFFFFFFFFFFFFFAA
:10066000FFFFFFFFFFFFFFFF4F6B004661696C65F7
:1006700064004261642066696C656E616D65004668
:10068000696C6520746F6F206C61726765004E6FD6
:1006900020737563682066696C652F666F6C64658E
:1006A0007200492F4F206572726F72004279652E79
:1006B0000057656C636F6D6520746F2044414E5D1B
:1006C0005B2C2076332E302E302E204170706C65DE
:1006D000205D5B20466F7265766572210044414E55
:1006E0005D5B002D72772D2D2D2D2D2D2D20312090
:1006F000766F6C756D653A202D2D2D2020202020E1
:100700002020202020202020313233343536373845
:10071000204A756E203130203139373720424C4B1A
:1007200044455630312E504F0D0A00647277782DB3
:100730002D2D2D2D2D20312044414E5D5B20464135
:10074000542031204A756E2031302031393737201E
:100750005344310D0A0032353720222F53443122C1
:100760000032323720456E746572696E67205061C1
:100770007373697665204D6F646520280055534575
:100780005253595354435744205459504551554995
:1007900054504153564C4953544344555052455478
:1007A0005253544F525057440000000000080002BA
:1007B000010000030407000000000000000000002A
:1007C0000000250028002B00000000002400270066
:1007D0002A000404040404040404020202020202C3
:1007E00003030303030301020408102040800102F5
:1007F00004081020010204081020FB3711241FBE3A
:10080000CFEFD8E0DEBFCDBF11E0A0E0B1E0E2E085
:10081000F6E702C005900D92A23DB107D9F724E09A
:10082000A2EDB1E001C01D92A43FB207E1F713E0D1
:10083000CEEFD3E004C02197FE010E94D13ACD3F14
:10084000D107C9F70E9494380C94FF3A0C94000029
:100850008CBD9DBD089590E0FC01EA51F84F2491B4
:100860008E52984FFC018491882399F090E0880F74
:10087000991FFC01E853F84FA591B491FC01E25493
:10088000F84F859194918FB7F894EC91E22BEC930B
:100890008FBF0895FC01818D928D0895089590E099
:1008A000FC01E655F84F2491FC01EA51F84F3491D0
:1008B000FC01EE52F84FE491EE23C9F0222339F007
:1008C000233001F1A8F4213019F1223029F1F0E0B0
:1008D000EE0FFF1FE254F84FA591B4918FB7F89433
:1008E000EC91611126C030953E233C938FBF089553
:1008F0002730A9F02830C9F0243049F780918000D2
:100900008F7D03C0809180008F7780938000DFCF40
:1009100084B58F7784BDDBCF84B58F7DFBCF80918D
:10092000B0008F778093B000D2CF8091B0008F7DE0
:10093000F9CF3E2BDACF3FB7F89480912C049091F9
:100940002D04A0912E04B0912F0426B5A89B05C0BC
:100950002F3F19F00196A11DB11D3FBFBA2FA92F3E
:10096000982F8827BC01CD01620F711D811D911D3B
:1009700042E0660F771F881F991F4A95D1F70895A7
:100980008F929F92AF92BF92CF92DF92EF92FF929F
:100990004B015C010E949B046B017C010E949B0443
:1009A0006C197D098E099F09683E73408105910588
:1009B000A8F321E0821A9108A108B10888EEC80EB8
:1009C00083E0D81EE11CF11C81149104A104B10440
:1009D00029F7FF90EF90DF90CF90BF90AF909F905E
:1009E0008F9008952FB7F89460912804709129048E
:1009F00080912A0490912B042FBF0895FC0120813F
:100A00002EBD9B012150310941F051810DB407FEEB
:100A1000FDCF4EB55EBD4193F5CF61507109860F94
:100A2000971F0DB407FEFDCF2EB5FC01208308955E
:100A3000E0917D04F0917E04808190917C04892B6B
:100A400080830895E0917D04F0917E0490818091EF
:100A50007C0480958923808308958EBD00000DB4A9
:100A600007FEFDCF8EB50895AF92BF92CF92DF9271
:100A7000EF92FF920F931F93CF93DF93CDB7DEB723
:100A800028970FB6F894DEBF0FBECDBF8C017B0157
:100A90006A01809180048333E1F45801A40EB51EED
:100AA000A016B10609F46FC00E94220580EF0E94D3
:100AB0002D05812F0E942D05802F0E942D050F5F8F
:100AC0001F4FF70181917F010E942D050E9418059B
:100AD000E7CF5B01A40EB51E8433C1F40E9422054A
:100AE00019830A838D2D80688B83CC8264E070E04B
:100AF000CE0101960E94FE04AE14BF0409F441C069
:100B0000F70181917F010E942D05F6CF0E942205F9
:100B10000F3F110509F028F419820A8384E08B83C2
:100B20000CC017FD17C019820A8333E0169507958C
:100B30003A95E1F7007E0C600B8386E0C816D1047D
:100B4000A0F5F701DE011496EA15FB0599F08191F5
:100B50008D93FACFC80126E0969587952A95E1F7FF
:100B6000807E19830A830115104C10F48461D7CF5D
:100B70008C61D5CFB6016D5F7F4FCE0101960E948B
:100B8000FE040E941805C60128960FB6F894DEBF31
:100B90000FBECDBFDF91CF911F910F91FF90EF90CE
:100BA000DF90CF90BF90AF90089563E070E0CE01EA
:100BB00001960E94FE04F70181917F010E942D059C
:100BC000AE14BF04C1F7DDCFCF93DF931F92CDB733
:100BD000DEB7898341E050E0BE016F5F7F4F90E058
:100BE00080E00E9434050F90DF91CF91089590E04E
:100BF00020918004233339F40C96982F990F990F84
:100C0000990F80E008954896F8CFDA01E0918104C9
:100C1000F0E0FE2FEE27E60FF71F90E0982F8827D1
:100C2000A901BD018E0F9F1F0C943405CF93DF9354
:100C300000D0CDB7DEB779836A8322E030E0AE0121
:100C40004F5F5F4F60E170E00E9405060F900F90CC
:100C5000DF91CF910895CF93DF9300D0CDB7DEB76A
:100C600079836A8322E030E0AE014F5F5F4F64E03A
:100C700070E00E9405060F900F90DF91CF910895CC
:100C8000CF93DF931F92CDB7DEB72091810430E080
:100C9000322F2227260F371F90E0982F882749836D
:100CA00041E050E0BE016F5F7F4F820F931F0E94B3
:100CB00034050F90DF91CF910895CF93DF931F926A
:100CC000CDB7DEB76983DC01ED91FC910280F38141
:100CD000E02D41E050E0BE016F5F7F4F09950F901E
:100CE000DF91CF910895CF93DF931F92CDB7DEB7F9
:100CF0006983DC01ED91FC910280F381E02D41E0FC
:100D000050E0BE016F5F7F4F09950F90DF91CF914B
:100D10000895FC019485FB018485981303C081E04C
:100D2000943008F080E00895CF93DF931F92CDB701
:100D3000DEB76983DC01ED91FC910280F381E02D47
:100D400041E050E0BE016F5F7F4F09950F90DF914A
:100D5000CF9108950895FF920F931F93CF93DF9340
:100D6000EB01FC01178A168A2A81211109C02B8107
:100D7000211106C02C81211103C02D81222301F1F4
:100D800041155105E9F08A01FC01F08C80E591E004
:100D90000E942804AE014E5F5F4F24E030E06CE01B
:100DA00070E08F2D0E940506B8018F2D0E94160657
:100DB00081E090E0DF91CF911F910F91FF90089516
:100DC00080E0F7CFFC01848595850895FC01848936
:100DD0009589089523E931E0FC0131832083FB01EB
:100DE0004089518962897389FC01428353836483FA
:100DF00075830895DC01ED91FC91048CF58DE02D57
:100E000009948EBD0DB407FEFDCF0895FF920F9398
:100E10001F93CF93DF93082FF62E142FC9EED4E043
:100E200060E088810E944F0480E00E9401078F2DBE
:100E30000E940107802F84600E940107812F0E9479
:100E4000010761E08881DF91CF911F910F91FF90A1
:100E50000C944F041F93CF93DF93EC01162F472F71
:100E6000BC0188E00E940607BE016F5F7F4F412FE3
:100E700088E0DF91CF911F910C940607DF92EF92EB
:100E8000FF920F931F93CF93DF93F82EE62ED72E6A
:100E9000EA01890160E08091E9040E944F048D2DF0
:100EA0000E9401078E2D0E9401078F2D84600E94F1
:100EB0000107209749F00C0F1D1FC017D107B1F093
:100EC00089910E940107F9CFD0E0C0E0C017D10797
:100ED00069F03399FECF42984298429842984298DE
:100EE00089B1429A0E9401072196F0CF61E080917A
:100EF000E904DF91CF911F910F91FF90EF90DF9068
:100F00000C944F041EBC0DB407FEFDCF8EB50895A2
:100F10000F931F93CF93DF93182F062FC9EED4E0C2
:100F200060E088810E944F0480E00E940107802FCA
:100F30000E940107812F0E9401070E948207182F3B
:100F400061E088810E944F04812FDF91CF911F9132
:100F50000F9108950F931F93CF938C01BC0188E0EC
:100F60000E948807C82FB8016F5F7F4F88E00E94FA
:100F700088072C2F30E0322F2227820F932F911DCC
:100F8000CF911F910F910895482F61E070E088E0A4
:100F90000E94060761E070E088E00E9488078111E6
:100FA000F9CF0895CF92DF92EF92FF920F931F93A4
:100FB000CF93DF93EC018B0188E290E00E94AA07B7
:100FC0007C0160E08091E9040E944F048F2D0E9413
:100FD00001078E2D0E94010788E10E9401076E0122
:100FE000C00ED11E209759F58FEF8AB9D0E0C0E02E
:100FF000C017D10771F00E9482073199FECF8BB9DB
:101000008BB940984098409840984098409A2196D3
:10101000EFCF1BB81AB861E08091E9040E944F0439
:10102000B8016E0D7F1D88E290E0DF91CF911F9196
:101030000F91FF90EF90DF90CF900C942A07CC1681
:10104000DD0649F30E9482078993F9CF2FEF2AB971
:101050003199FECF8BB98BB9409840984098409811
:101060004098409A3199FECF9BB99BB940984098DF
:10107000409840984098409A1BB81AB808958EBD81
:101080000DB407FEFDCF8EB508950F931F93CF9338
:101090000E94F2048B018FEF0E943F08C82F8F3F00
:1010A00039F00E94F204601B710B643F714098F3A9
:1010B00081E0CF3F09F480E080937B0481E090E001
:1010C000CF3F11F090E080E0CF911F910F910895F4
:1010D000CF939C013E5FFC0140814EBD0DB407FEE5
:1010E000FDCFFC0141814EBD0DB407FEFDCF029640
:1010F0008217930781F78FEF0E943F088FEF0E94BE
:101100003F088FEF0E943F08C82F8FEF0E943F08D3
:1011100091E08F3F09F490E090937B04CF7181E0E0
:1011200090E0C53011F090E080E0CF91089585B156
:10113000876085B98FEF0C943F08CF93DF9385B11B
:1011400090915804911111C09BEF892385B98FEFBD
:101150000E943F080E944508EC01892B41F40E943F
:101160009708CE01DF91CF9108959DEFEECFC1E0BA
:10117000D0E0F7CFFF920F931F93CF93DF93C82F49
:10118000D42F152F062FF72E87FF09C040E050E01F
:10119000BA0187E30E94BA08823048F5CF77CC3095
:1011A00061F58C2F80640E943F088F2D0E943F08BC
:1011B000802F0E943F08812F0E943F088D2F0E94A0
:1011C0003F0885E9CC2321F087E8C83009F081E0A9
:1011D0000E943F08CC3019F48FEF0E943F08CAE00C
:1011E0008FEF0E943F0887FF02C0C150C9F7DF910F
:1011F000CF911F910F91FF9008950E9497080E9430
:101200009D08892B71F68FEFF2CF80917B048823A4
:1012100031F00E949D08892B11F00C9497080895D5
:101220000F931F93CF938C01E0915904F0915A04CE
:10123000309759F489E090E030E020E0F801318304
:101240002083CF911F910F9108958081882391F37E
:1012500020915B0430915C048581968128173907C1
:1012600049F7C18180915804C8130E940509C093B1
:101270005804EC2FF0E0ED5EFE4F808180FDDACF68
:101280002091590430915A0490E080E0D7CFCF9359
:10129000DF93EC01E881F981309779F0DF019D015E
:1012A0002F5F3F4F8C918132E0F0D9018A33B9F73B
:1012B000208180ED820F8A3018F08FEF9FEF0EC0F3
:1012C0003296AE17BF07C9F7022E000C330BC901C7
:1012D000C097823091058CF7B983A883DF91CF91B5
:1012E000089590E080E0FACF0F931F93FC019A01DC
:1012F000AB01225031094109510983899489A5899B
:10130000B6890297A109B109281739074A075B076F
:1013100078F4A185B2850E94953A07A110A521A570
:1013200032A5600F711F821F931F1F910F910895A7
:1013300060E070E0CB01F9CFFC016281738190E045
:1013400080E0982F872F762F66272181622B982F98
:10135000872F762F66272081622B0895BF92CF9228
:10136000DF92EF92FF920F931F93CF93DF93C82FDB
:10137000B62ED72F69017A01809158048C130E94F0
:101380000509C09358040115110509F472C0EC2F2A
:10139000F0E0ED5EFE4F808180FD6EC080E58CBD8B
:1013A000E0915804F0E0E35EFB4F808184FD07C0CC
:1013B00089E0CC0CDD1CEE1CFF1C8A95D1F7C1E145
:1013C0000130110509F0C2E1B701A6018C2F0E947E
:1013D000BA08811119C0DD24DA940E94F2047B015D
:1013E0008FEF0E943F088F3F01F50E94F2046E19B3
:1013F0007F09683C7105A4F3C23131F440E050E04C
:10140000BA018CE00E94BA080E94970881E090E03F
:10141000012B09F480E0DF91CF911F910F91FF9094
:10142000EF90DF90CF90BF9008958E3F29F7EB2D7E
:10143000FD2F7F018EEFF81ADEBC0DB407FEFDCF45
:101440008EB58083DEBC0DB407FEFDCF8EB58183E3
:101450003296EE16FF0681F78FEF0E943F088FEF5E
:101460000E943F08BE2CDF2D0150110909F0B5CFB5
:10147000C3CF84E090E0CFCF83E0FCCF2F923F92A8
:101480004F925F926F927F928F929F92AF92BF9294
:10149000CF92DF92EF92FF920F931F93CF93DF9340
:1014A0006C01D42FF52E762E672E4801590110E0DD
:1014B000C0E08AE0282E312C412C512C6D2F7F2D3D
:1014C000872D962DA50194010E94A03AF601EC0FFC
:1014D000F11D211133C0111106C031E083169104B2
:1014E000A104B10479F5CF5F205D2083D62FF72EBC
:1014F000782E692E11E0C501B401A20191010E946C
:10150000A03A49015A0181149104A104B104B1F631
:10151000C6018C0F911DDF91CF911F910F91FF900C
:10152000EF90DF90CF90BF90AF909F908F907F9083
:101530006F905F904F903F902F9008952A3098F2CF
:1015400029E0D1CFEE20B9F2CF5FE082D4CFDC0129
:101550002A2F281BFB0194919D936F5F7F4F911160
:10156000F7CF822F0895DC01FB019D9181919813A3
:1015700004C09111FACF81E0089580E00895FC0144
:10158000768765870895DC01ED91FC9102A0F3A1B7
:10159000E02D099591E089270895862F089581E02F
:1015A0008627089521E0FC018485843008F020E03E
:1015B000822F089508952FEF2AB93199FECF1BB8D5
:1015C0001BB840984098409840984098409A01979E
:1015D000A1F71BB81AB808958091D40190E0BC011E
:1015E000660F672F661F770B462F613069F42091D5
:1015F0002504205830912404321306C08FEF8093C5
:10160000190480931A040895FB01EC5DFB4F2081BF
:10161000322F331F3327331F3627309319042F7788
:1016200020931A0424E0959587952A95E1F7877011
:1016300090912304981739F3209124049091250464
:1016400030E8390F2317D1F29095411101C0922F44
:101650009078892B4130C9F080931A0480911A0444
:10166000281711F0381303C0887880931A048091EA
:101670001A04281719F2381709F2982F991F992779
:10168000991F909319048F70BCCF922F932797FDC9
:10169000E3CF8860E1CF3399FECF429842984298D9
:1016A0004298429889B1429A0895CF930E944B0B79
:1016B0008093D4010E944B0BC82F0E944B0B982F94
:1016C0008C2F9093D3018093D2010E944B0BC82F93
:1016D0000E944B0B982F8C2F90931C0480931B041B
:1016E000CF9108953199FECF9FEF9AB98BB98BB9FD
:1016F00040984098409840984098409A1BB81AB833
:101700000895089590E080E008958F929F92AF929F
:10171000BF92EF92FF920F931F93CF93DF93CDB7BA
:10172000DEB7A1970FB6F894DEBF0FBECDBF7C0128
:10173000FA01CB0119A2223008F42AE08E010F5DD4
:101740001F4F822E912CB12CA12CBF01A501940119
:101750000E94A03AF901CA016A3074F5605DD801AF
:101760006E938D01232B242B252B79F790E080E0BD
:10177000109789F0FD0101900020E9F73197AF0142
:101780004A1B5B0BD701ED91FC910280F381E02DA8
:10179000B801C7010995A1960FB6F894DEBF0FBE38
:1017A000CDBFDF91CF911F910F91FF90EF90BF9030
:1017B000AF909F908F900895695CD1CF8F929F9248
:1017C000AF92BF92CF92DF92EF92FF920F931F934F
:1017D000CF93DF937C01EB016C0182E0C80ED11C3A
:1017E0004701E5E08E0E911C10E000E0F60141910A
:1017F0006F0150E070E060E02AE0CE010E94850BAE
:101800005C01E881F9810190F081E02D6EE2CE016A
:1018100009958A0D9B1D080F191FC814D90431F7AB
:10182000F701458150E070E060E02AE0CE010E94BF
:10183000850B800F911FDF91CF911F910F91FF902A
:10184000EF90DF90CF90BF90AF909F908F900895D2
:101850008F929F92AF92BF92EF92FF920F931F933E
:10186000CF93C82F7B0149015A01809158048C13F2
:101870000E940509C09358040115110509F473C0AD
:10188000EC2FF0E0ED5EFE4F808180FD6FC0808127
:1018900082FD6EC080E58CBDE0915804F0E0E35E0F
:1018A000FB4F808184FD07C099E0880C991CAA1C1D
:1018B000BB1C9A95D1F70130110561F5B501A40162
:1018C00088E10E94BA08882399F001E010E00E94A4
:1018D000970881E090E0012B09F480E0CF911F91FF
:1018E0000F91FF90EF90BF90AF909F908F900895D1
:1018F0000E944508892B49F38EEF0E943F08C701DB
:101900000E94680831E020E0892B09F030E0032FC5
:10191000122FDDCF8C7031F0A80170E060E087E914
:101920000E94BA08B501A40189E10E94BA08811198
:10193000CECF0E944508892B69F08CEF0E943F08AA
:10194000C7010E946808892B29F08EEFF81A015010
:10195000110979F70E944508892B09F4B6CF8DEF5C
:101960000E943F08B4CF84E090E0B8CF83E0FCCF82
:1019700082E0FACF8F929F92AF92BF92EF92FF9246
:101980000F931F93CF93DF93FC01238121110DC08F
:1019900090E080E0DF91CF911F910F91FF90EF9049
:1019A000BF90AF909F908F900895EC017C01FFE273
:1019B000EF0EF11C2BA53CA54DA55EA501E010E0A6
:1019C000B70189810E94280C892B51F51B820BA538
:1019D0001CA52DA53EA58F89988DA98DBA8D8F8CBC
:1019E00098A0A9A0BAA0B901A801481959096A0983
:1019F0007B094A015B0188169906AA06BB0640F6D8
:101A00006A81623029F6A9019801280F391F4A1FFF
:101A10005B1F01E010E0B70189810E94280CB8CF5C
:101A200081E090E0B7CF8F929F92AF92BF92EF92FA
:101A3000FF920F931F93CF93DF93EC014A015B0159
:101A40008BA59CA5ADA5BEA5F12CE12C881599050B
:101A5000AA05BB05E9F0CE010E94BA0C7C01892BD6
:101A6000B9F401E010E0A5019401BE01615D7F4F72
:101A700089810E94AE09892B39F0EE24E394F12C80
:101A800088248A94982C54018BA69CA6ADA6BEA649
:101A9000C701DF91CF911F910F91FF90EF90BF9001
:101AA000AF909F908F900895AF92BF92CF92DF92A8
:101AB000EF92FF920F931F93CF93DF934230510524
:101AC0006105710508F4A9C0FC0103891489258901
:101AD0003689401751076207730708F09EC06A01F4
:101AE0007B01EC018081823009F457C0833009F416
:101AF00071C0813009F091C08A0116950795040FD5
:101B0000151FC801892F99278695478D50A161A17E
:101B100072A1480F591F611D711DCF010E94130D45
:101B2000892B71F06FEF7FEFCB01DF91CF911F9188
:101B30000F91FF90EF90DF90CF90BF90AF900895FE
:101B40005801FFEFAF1ABF0A1170FE01E00FF11F3D
:101B500017A5C501892F992786954F8D58A169A191
:101B60007AA1480F591F611D711DCE010E94130DEE
:101B7000892BC1F681E0B822CA0DDB1D6FA5762F37
:101B8000612FC0FE08C0E4E076956795EA95E1F71D
:101B900090E080E0CACF7F70FBCF77276F2D5E2D5E
:101BA0004D2D878D90A1A1A1B2A1480F591F6A1F89
:101BB0007B1FCF010E94130D892B09F0B3CFCC0CF2
:101BC000DD1CE894C0F8E1E0DE22CC0DDD1D6FA540
:101BD00078A9DECF878D90A1A1A1B2A137E076953B
:101BE0006795579547953A95D1F7480F591F6A1F42
:101BF0007B1FCF010E94130D892B09F093CFAF9665
:101C0000C601880F991F880F991F8C7F91708C0FC8
:101C10009D1F0E949C099F7088CF61E070E080E06A
:101C200090E083CF8F929F92AF92BF92CF92DF923C
:101C3000EF92FF920F931F93CF93DF938C01FC01E0
:101C4000C081D18116861786108A118AC680D780F6
:101C5000E084F184C114D104E104F104D1F5888158
:101C6000833040F08BA19CA1ADA1BEA10097A1053E
:101C7000B10589F58F819885892B79F482E090E010
:101C8000DF91CF911F910F91FF90EF90DF90CF9058
:101C9000BF90AF909F908F9008958BA19CA1ADA114
:101CA000BEA1F801868B978BA08FB18FF801C28AF5
:101CB000D38AE48AF58A86899789A08DB18D892B8C
:101CC0008A2B8B2BD9F2AF96D38FC28F90E080E016
:101CD000D7CFD701C60189849A84B12CA12C29E0E1
:101CE000880C991CAA1CBB1C2A95D1F76C017D019C
:101CF000B701A60181149104A104B10449F0CE01F9
:101D00000E947409F801668B778B808F918FCECFFC
:101D1000F801808191810E94540D6B017C01FFEFDD
:101D2000CF16DF06EF06FF0689F082E0C816D10461
:101D3000E104F10408F4A2CF8B899C89AD89BE89A6
:101D4000C816D906EA06FB0698F298CF81E090E023
:101D500097CF2F923F924F925F926F927F928F9286
:101D60009F92AF92BF92CF92DF92EF92FF920F932A
:101D70001F93CF93DF9300D000D000D0CDB7DEB754
:101D80009E838D836A017B0128013901DC018C91DE
:101D9000823009F497C0833009F4B6C0813009F06D
:101DA000F4C08A0116950795040F151FC801892FE5
:101DB000992786955F964D915D916D917C91929753
:101DC000480F591F611D711DCD010E94130D5C014B
:101DD000892B09F056C02D803E80BFE22B0E311CAE
:101DE0004801EFEF8E1A9E0A1170F101E00FF11F0A
:101DF000842DA70196012170332744275527298375
:101E00003A834B835C83C0FE07C080818F7040E1C2
:101E1000449E90011124822B808381E0AD81BE819C
:101E200013968C9313975F964D915D916D917C9174
:101E30009297C401892F99278695480F591F611DD4
:101E4000711DCD010E94130D5C01892BD1F4B1E00D
:101E50009B22F101E80DF91D29813A814B815C81BA
:101E6000232B242B252B39F164E076946794579427
:101E700047946A95D1F7408281E0AD81BE81139687
:101E80008C93C50126960FB6F894DEBF0FBECDBF6A
:101E9000DF91CF911F910F91FF90EF90DF90CF9046
:101EA000BF90AF909F908F907F906F905F904F907A
:101EB0003F902F9008958081807F352D3F70432E75
:101EC000482AD9CF77276F2D5E2D4D2DED81FE81CC
:101ED000878D90A1A1A1B2A1480F591F6A1F7B1F36
:101EE000CF010E94130D5C01892B59F6ED81FE8113
:101EF000BF96CC0CDD1CE894C0F821E0D222EC0D9A
:101F0000FD1D00835182B8CFED81FE81878D90A1A8
:101F1000A1A1B2A137E076956795579547953A9577
:101F2000D1F7480F591F6A1F7B1FCF010E94130D65
:101F30005C01892B09F0A5CFFFE07F228D819E8176
:101F40008F96CC0CDD1CCC0CDD1C2CEFC22221E0CA
:101F5000D222C80ED91EC6010E949C096627772787
:101F60008827907F462A572A682A792AD6014C92D8
:101F700011965C92119712966C92129713967C921E
:101F800081E0ED81FE8183837CCF82E0A82EB12C9D
:101F900078CF4F925F926F927F928F929F92AF9283
:101FA000BF92CF92DF92EF92FF920F931F93CF9346
:101FB000DF938C012A013B01FC01C081D1814114D6
:101FC00051046104710409F58B849C84AD84BE8442
:101FD00081149104A104B10409F44DC08B899C893A
:101FE000AD89BE8988169906AA06BB0608F043C0CB
:101FF0008F859889A989BA89892B8A2B8B2B09F01F
:102000003FC0C12CD12C760116C0CE010E94540DC8
:102010006B017C01F2E0CF16D104E104F10408F475
:102020000CC12FEFC216D206E206F206B9F4CC2498
:10203000CA94DC2C7601C701B601DF91CF911F91C4
:102040000F91FF90EF90DF90CF90BF90AF909F9057
:102050008F907F906F905F904F9008958B899C89AF
:10206000AD89BE8953014201C816D906EA06FB06AE
:1020700008F0BECFE0CF812C912C54018394B8CFCF
:1020800084149504A604B70409F041C075016401E5
:102090008FEFC81AD80AE80AF80A8B899C89AD899B
:1020A000BE89C816D906EA06FB0628F022E0C22E31
:1020B000D12CE12CF12CB701A601F801808191818E
:1020C0000E94540D613071058105910509F4B5C078
:1020D0006F3FFFEF7F078F079F0709F4A8CF672B9C
:1020E000682B692B09F44DC08B859C85AD85BE8519
:1020F00082309105A105B10550F04B895C896D894D
:102100007E8984179507A607B70708F478C075017C
:1021100064012FEFC21AD20AE20AF20A8B899C8963
:10212000AD89BE89C816D906EA06FB0660F082E0D2
:1021300088169104A104B10408F463CF92E0C92E7B
:10214000D12CE12CF12CB701A601F80180819181FD
:102150000E94540D6115710581059105B9F061303A
:1021600071058105910509F468C06F3F7F4F8F4F5E
:102170009F4F09F45CCFC814D904EA04FB0449F664
:1021800040CFC114D104E104F10409F222E0C216E7
:10219000D104E104F10408F450C08B899C89AD8915
:1021A000BE89C816D906EA06FB0608F046C00FEF3E
:1021B0001FEF9801B701A601CE010E94A90E00975A
:1021C000C9F54114510461047104E1F4CB86DC8645
:1021D000ED86FE868F859889A989BA894B895C89A5
:1021E0006D897E8942505109610971094817590763
:1021F0006A077B0738F58C8181608C831CCF4C018A
:102200005D0185CF82E04816510461047104A8F095
:102210008B899C89AD89BE89481659066A067B065A
:1022200060F497018601B301A201CE010E94A90EBC
:10223000009761F2019709F4FACEC12CD12C7601F6
:10224000C394F9CE0197A109B1098F87988BA98B07
:10225000BA8BD1CF4F925F926F927F928F929F9263
:10226000AF92BF92CF92DF92EF92FF920F931F93A4
:10227000CF93DF9300D000D000D0CDB7DEB76B0195
:102280007C01CE0101960E9410098C01892B09F076
:10229000F4C00091680410E00115110509F0EDC0CB
:1022A0008091630490916404A0916504B0916604E8
:1022B0008C159D05AE05BF0530F42091670421FD06
:1022C00002C06C017D014090690450906A046090E6
:1022D0006B0470906C041092690410926A0410925E
:1022E0006B0410926C04C114D104E104F10439F4BC
:1022F00080E090E0DC01C12CD12C760180C0E98126
:10230000FA8181849284B12CA12C39E0880C991C2B
:10231000AA1CBB1C3A95D1F7411451046104710405
:1023200009F48AC081E0481A510861087108C701A0
:10233000B6016150710981099109A50194010E94BA
:10234000A03A2B833C834D835E83C301B201A50178
:1023500094010E94A03A8B819C81AD81BE8182173D
:102360009307A407B50708F467C088279927DC01FD
:1023700088199909AA09BB0984219521A621B721A9
:102380008093690490936A04A0936B04B0936C04E7
:10239000C81AD90AEA0AFB0A40916D0450916E04EA
:1023A00060916F04709170044115510561057105CC
:1023B00009F0E4C0C12CD12C760180916904909180
:1023C0006A04A0916B04B0916C0440916304509135
:1023D00064046091650470916604481759076A07A0
:1023E0007B0768F48093630490936404A09365046E
:1023F000B093660420916704206420936704917071
:10240000AA27BB27892B8A2B8B2BB9F180917104CA
:1024100090917204A0917304B09174048C159D0581
:10242000AE05BF0551F1C0927104D0927204E092E2
:102430007304F092740421C040915F0450916004D1
:102440006091610470916204411551056105710547
:1024500009F03FC040E050E0BA0189E594E00E94F5
:10246000C90FAB01BC014130510561057105E9F4AB
:1024700082E08093680402E010E0C80126960FB65F
:10248000F894DEBF0FBECDBFDF91CF911F910F91AA
:10249000FF90EF90DF90CF90BF90AF909F908F9084
:1024A0007F906F905F904F9008954F3F9FEF590737
:1024B0006907790731F481E08093680401E010E056
:1024C000DCCF40935F045093600460936104709389
:1024D000620440936D0450936E0460936F04709394
:1024E000700462CFC818D908EA08FB08880D991D46
:1024F000AA1DBB1D8093690490936A04A0936B048A
:10250000B0936C048091670481FF0FC089E594E06B
:102510000E94C90FAB01BC01411551056105710550
:1025200061F4C12CD12C760137C08091590490916F
:102530005A040E94540DAB01BC014F3FAFEF5A0744
:102540006A077A0709F4B7CF423051056105710572
:1025500008F48ECFE981FA8183899489A589B689A7
:10256000481759076A077B0708F082CF40936D042C
:1025700050936E0460936F047093700480916904AB
:1025800090916A04A0916B04B0916C048C149D042A
:10259000AE04BF0408F4A6CF8091690490916A0448
:1025A000A0916B04B0916C048C0D9D1DAE1DBF1DE0
:1025B0008093690490936A04A0936B04B0936C04B5
:1025C000D701C6019170AA27BB27892B8A2B8B2B99
:1025D00009F4F0CE89819A810E9474096115710510
:1025E0008105910509F444CF29E0F694E794D79446
:1025F000C7942A95D1F7C60ED71EE81EF91EDDCE68
:10260000AF92BF92CF92DF92EF92FF920F931F9300
:10261000CF93DF9300D000D0CDB7DEB78C016B0134
:102620007A01809180048333E9F45B016801C40E70
:10263000D51EC016D106A9F10E9422058FE00E9486
:102640002D05812F0E942D05802F0E942D050F5FE3
:102650001F4F80E00E942D05F50181935F010E94CC
:102660001805E7CF843369F50E94220519830A8390
:102670008F2D8F778B83EC8264E070E0CE01019622
:102680000E94FE04A70170E060E0C6010E94ED3ADE
:10269000E114F10421F0B701C6010E94FE040E947A
:1026A0001805C7010F900F900F900F90DF91CF91F9
:1026B0001F910F91FF90EF90DF90CF90BF90AF9060
:1026C00008950E9422050F3F110509F030F4198288
:1026D0000A831B8263E070E0D1CF17FD0BC0198223
:1026E0000A8333E0169507953A95E1F7007E086076
:1026F0000B83F0CFC80126E0969587952A95E1F7E0
:10270000807E19830A830115104C18F480618B8335
:10271000E1CF8861FCCFCF93DF931F92CDB7DEB7B7
:102720002091810430E0322F2227260F371F90E0BE
:10273000982F882741E050E0BE016F5F7F4F820FE6
:10274000931F0E94001389810F90DF91CF9108950C
:10275000CF93C82F462F61E070E00E94400661E0F1
:1027600070E08C2F0E948B138111F9CFCF910895C7
:10277000CF93C82F80E591E00E94280468E070E0C4
:102780008C2FCF910C94A813CF93C82F80E591E0A4
:102790000E94280460E170E08C2FCF910C94A81364
:1027A000CF93DF93EC01888D843020F40E94C41312
:1027B00084E0888FDF91CF91089563E070E00C94FE
:1027C0008B13CF93C82F80E591E00E9428048C2FB3
:1027D000CF910C94DD13EF92FF920F931F93CF9341
:1027E0007C010CE414E0C0E0F801219131918F01EB
:1027F000F701848195812817390729F0CF5FC4300C
:1028000099F780E006C08C2F0E94E1138431B1F764
:1028100081E0CF911F910F91FF90EF900895CF939A
:10282000DF93EC018C858430D0F40E94E113843175
:1028300089F0882379F0883169F021E08C3159F4EE
:10284000E881F9810084F185E02DCE01099521E030
:10285000892B09F420E0822FDF91CF91089580E049
:10286000FBCFCF92DF92EF92FF92CF93DF93EC01F9
:102870008C85843068F40E94B8130E94F2046B01C6
:102880007C018C850E94E113811109C084E08C8752
:10289000DF91CF91FF90EF90DF90CF90089561E0AE
:1028A00070E080E090E00E94C0040E94F204AB015E
:1028B000BC014C195D096E097F098D859E85B0E0CC
:1028C000A0E0481759076A077B07D8F28C850E9459
:1028D000C413DCCFCF93FC01C08D80E591E00E9452
:1028E000280460E270E08C2F0E94A81362E070E080
:1028F0008C2F0E948B1384FD16C062E070E08C2F39
:102900000E948B1383FF0AC048E162E070E08C2FC5
:102910000E94400680E090E0CF91089580E591E02C
:102920000E942804E3CF40E162E070E08C2F0E9417
:10293000400681E0F0CFCF93DF931F92CDB7DEB793
:1029400041E050E0BE016F5F7F4F90E080E00E9469
:10295000001389810F90DF91CF910895CF93DF937A
:10296000C4E1D0E00E949B14882361F061E070E034
:1029700080E090E00E94C0042197A1F780E0DF9101
:10298000CF91089581E0FBCFCF92DF92EF92FF923B
:102990000F931F93CF93DF93CDB7DEB7C454D10904
:1029A0000FB6F894DEBF0FBECDBFFC0182819381CC
:1029B000A481B58123968CAF9DAFAEAFBFAF2397F7
:1029C00021E023962FAF239723964CAD5DAD6EADDE
:1029D0007FAD23974BAB5CAB6DAB7EAB89AF9AAF52
:1029E000ABAFBCAF8DA79EA7AFA7B8AB28AB4DA52B
:1029F0005EA56FA578A94FA358A769A77AA72EABA4
:102A00004BA95CA96DA97EA949A35AA36BA37CA37A
:102A10008B8F9C8FAD8FBE8F43E951E05C8B4B8BCE
:102A20003FEF3D8B3E8B3F8B188E5E874D872AA7ED
:102A3000CFA0D8A4E9A4FAA4CF86D88AE98AFA8AD2
:102A40002CA309A11AA12BA13CA109871A872B87C6
:102A50003C875A8349838B839C83AD83BE8380915B
:102A600082048111ADC060E372E080E090E00E94DA
:102A7000C0041FB7F89480917F04811124C0ECED4D
:102A8000F7E08491E0EFF7E09491E82FF0E0EE0FAB
:102A9000FF1FE853F84FA591B491EC91E92321F47D
:102AA00061E08AE00E944F048AE00E942B048CB50A
:102AB00080618CBD8CB580648CBD8DE00E942B0440
:102AC0008BE00E942B0480917F048F5F80937F04B2
:102AD0001FBF80911501282F30E0F901EE52F84F09
:102AE000E491F0E0EE0FFF1FE254F84F459154914E
:102AF00050937E0440937D04F901EA51F84FE4912C
:102B0000E0937C040E942B040E94180580E591E06C
:102B10000E94280484E38093800480E80E94E405F6
:102B20000E94AE14882309F481C088E00E94E40565
:102B30000E949B14883009F079C080E10E94E4056E
:102B40000E949B14803109F071C080E00E94E4056E
:102B50000E949B14182F811169C041E050E0BE0112
:102B60006D5B7F4F8FE190E00E94001324968FAD44
:102B70002497833009F05AC080E48093810442E0B6
:102B80006EE170E0812F0E94400642E06FE170E04C
:102B9000812F0E9440061F5F143089F740E06EE1EC
:102BA00070E0812F0E94400640E06FE170E0812FCD
:102BB0000E9440061F5F183089F781E080938204ED
:102BC00080E591E00E94280446E050E066E171E073
:102BD00089E090E00E94340544E050E0BE016D5F62
:102BE0007F4F8FE090E00E94340544E050E0BE014A
:102BF000615F7F4F81E090E00E94340544E050E047
:102C0000BE016B5E7F4F85E090E00E94340581E05D
:102C10008C8789859A85AB85BC858093A304909326
:102C2000A404A093A504B093A6046FC087E3809387
:102C3000800480E80E94E4050E94AE14882339F1E4
:102C400088E00E94E4050E949B14883001F580E131
:102C50000E94E4050E949B14182F8031C1F480E08B
:102C60000E94E4050E949B14811111C041E050E0D4
:102C7000BE016D5B7F4F89E390E00E9400132496B4
:102C80008FAD2497843019F41093810496CF83E399
:102C90008093800480E80E94E4050E94AE1488239B
:102CA00091F180E10E94E4050E949B14803159F566
:102CB00082E10E94E4050E949B14823121F580E0AC
:102CC0000E94E4050E949B1481111DC084E0809342
:102CD000810415E525961FAF259741E050E0BE0120
:102CE0006C5B7F4F8BE190E00E94340524961FAF10
:102CF000249741E050E0BE016D5B7F4F8AE190E098
:102D00000E9434055ACF10928004CC5BDF4F0FB67F
:102D1000F894DEBF0FBECDBFDF91CF911F910F9111
:102D2000FF90EF90DF90CF9008951F93CF93DF93A4
:102D30001F92CDB7DEB7182F80E591E00E942804DE
:102D4000812F0E94F70527E0129FF0011124E05D1A
:102D5000FB4F22813381377041E050E0BE016F5F4D
:102D60007F4F820F931F0E94001389810F90DF9184
:102D7000CF911F910895FC01808D843040F4218D06
:102D8000328D232B21F00E94951690E008958FEF4D
:102D90009FEF0895CF93DF93FC012485243028F022
:102DA0008FEF9FEFDF91CF910895EC010190F081BB
:102DB000E02D0084F185E02D0995892B89F38C8520
:102DC0000E94951690E0EECFDA01E0918104F0E0E8
:102DD000FE2FEE27E60FF71F90E0982F8827A90116
:102DE000BD018E0F9F1F0C9400138F929F92AF9284
:102DF000BF92CF92DF92EF92FF921F93CF93DF9318
:102E0000CDB7DEB72C970FB6F894DEBF0FBECDBF9F
:102E10002091800414E0222329F16B017C0180E5DC
:102E200091E00E9428045E0127E0A20EB11C45013A
:102E300010E0812F0E94DD13F40181934F0188235C
:102E400049F11F5F1430A9F710E0F50181915F018E
:102E50008D31D9F08831C9F08A518230B0F01F5FCE
:102E6000143099F7812F2C960FB6F894DEBF0FBE61
:102E7000CDBFDF91CF911F91FF90EF90DF90CF906A
:102E8000BF90AF909F908F90089560E170E0812F88
:102E90000E94A813A12EB12CF501EE0FFF1FE45BD9
:102EA000FB4F1182108283EE93E00197F1F742E825
:102EB00070E060E0812F0E9440064FEF62E070E01A
:102EC000812F0E944006B601C114D10491F4809173
:102ED00003019091040101968115F0EC9F0708F41D
:102EE0005CC0909304018093030160910301709191
:102EF0000401812F0E942B0686E0E8E2F1E0DE016A
:102F0000119601900D928A95E1F7F70183818F77F1
:102F10008C8384818D8385818E83A7014E5F5F4F73
:102F200024E030E06CE070E0812F0E940506B601DD
:102F3000812F0E94160626E030E0AE014F5F5F4F02
:102F400066E070E0812F0E94050661E070E0812F4D
:102F50000E94A81327E02A9DC0012B9D900D1124EB
:102F60009C01205D3B4F7901F9011182108222E022
:102F700030E0AE01455F5F4F68E270E0812F0E9454
:102F8000E4168B859C85982789279827F7019383DA
:102F9000828316821582148265CF80E090ECA1CFE7
:102FA000CF92DF92EF92FF920F931F93CF93DF9315
:102FB00000D000D000D0CDB7DEB78C016B017A0114
:102FC000FC01808D843010F40E94C41383E991E0E9
:102FD0009A838983F60182819381A481B5818B8351
:102FE0009C83AD83BE83B701CE0101960E94F51686
:102FF000F801808F8430A0F4F586E486128E118E5D
:1030000081E026960FB6F894DEBF0FBECDBFDF91EC
:10301000CF911F910F91FF90EF90DF90CF90089587
:1030200080E0EFCFAF92BF92CF92DF92EF92FF920C
:103030000F931F93CF93DF9300D000D000D0CDB774
:10304000DEB7082F6B0180E591E00E9428049E0105
:103050002F5F3F4F7901590110E0812F0E94DD134E
:10306000F50181935F01882341F11F5F1430A9F7B7
:1030700010E0F70181917F018D31D1F08831C1F0ED
:103080008A518230A8F01F5F143099F7812F26965D
:103090000FB6F894DEBF0FBECDBFDF91CF911F9169
:1030A0000F91FF90EF90DF90CF90BF90AF90089579
:1030B00060E170E0812F0E94A813E12EF12CF7014E
:1030C000EE0FFF1FE45BFB4F1182108283EE93E053
:1030D0000197F1F7402F70E060E0812F0E944006D9
:1030E0004FEF62E070E0812F0E944006B601CD28CC
:1030F00089F4809103019091040101968115F0EC0F
:103100009F0798F19093040180930301609103015C
:1031100070910401812F0E942B0661E070E0812FE5
:103120000E94A81327E02E9DC0012F9D900D112411
:103130009C01205D3B4F7901F9011182108222E050
:1031400030E0AE014B5F5F4F68E270E0812F0E947C
:10315000E4168D819E81982789279827F70193830C
:10316000828316821582148291CF80E090ECCACFC0
:10317000CF92DF92EF92FF921F93CF93DF93EC01F8
:103180007B016A018C85843048F40E94E113882316
:1031900019F08C850E94B81384E08C87F701828136
:1031A0009381A481B5810097A105B10551F490E008
:1031B00080E0DF91CF911F91FF90EF90DF90CF9053
:1031C00008958F3F9F4FAF4FBF4F89F38091800489
:1031D000811103C084E08C87EACF70E060E081E277
:1031E0000E941218182F8C87843008F780E591E030
:1031F0000E942804A7014E5F5F4F24E030E06CE09E
:1032000070E0812F0E940506B601812F0E941606EC
:1032100064E070E0812F0E94A8130E94F2046B0109
:103220007C018C850E94E113873109F18C31F9F022
:10323000882309F4BCCF0E94F204AB01BC014C19F5
:103240005D096E097F098D859E85B0E0A0E0841739
:103250009507A607B70738F061E070E080E090E0DE
:103260000E94C004DECF8C850E94C413B3CF81E0DE
:1032700090E09FCF0F931F93CF93DF93EC018B01CF
:10328000888D843010F40E94C413809180048111D1
:1032900007C094E0988FDF91CF911F910F9108950F
:1032A000B80182E00E941218888F843030F41D87A4
:1032B0000C871A8E198E81E0EECF80E0ECCF0F9351
:1032C0001F93CF9320918004222349F18C01FC01AC
:1032D0006481758181E20E941218C82F8430F8F44D
:1032E00080E591E00E9428048C2F0E94DD13833139
:1032F00031F08C2FCF911F910F910C94B81362E095
:1033000070E08C2F0E94A813F80184819581EC2F26
:10331000F0E0EE0FFF1FE45BFB4F91838083CF91C2
:103320001F910F910895BF92CF92DF92EF92FF927B
:103330000F931F93CF93DF93EC016B018091800477
:1033400081111FC01B821A8288EE93E0A0E0B0E0DA
:103350008C839D83AE83BF8381E691E099838883CC
:1033600084E08C8788EE93E09E878D87CE01DF9185
:10337000CF911F910F91FF90EF90DF90CF90BF9072
:1033800008958CE4E82E84E0F82EB12C04E010E0DF
:10339000F701219131917F01F601848195812817F0
:1033A000390771F4812F0E94E113043009F5873148
:1033B00011F08C31E9F4F701329711821082012F5C
:1033C0001F5F143029F7B11003C0C6010E945F19B6
:1033D0001B821A8288EE93E0A0E0B0E08C839D838C
:1033E000AE83BF8381E691E0998388830C87BACF4F
:1033F000843139F08111E4CFF701329711821082C4
:10340000DFCFBB24B394DCCFCF92DF92EF92FF9259
:103410001F93CF93DF93CDB7DEB72F970FB6F894F6
:10342000DEBF0FBECDBF182F98EBC92E9BE0D92E63
:10343000882319F08AE0C82ED12CF12CE12C67EDFD
:1034400074E0CE0101960E9493198B819C81909328
:10345000BC048093BB048D819E81AF81B88580932D
:10346000BD049093BE04A093BF04B093C0048985AB
:103470009A85AB85BC858093C1049093C204A093C8
:10348000C304B093C4048D858093C5048E859F8545
:103490009093C7048093C60489EB94E00E940F14B4
:1034A0008823E9F0112399F089EB94E00E9431140C
:1034B000812F2F960FB6F894DEBF0FBECDBFDF91E0
:1034C000CF911F91FF90EF90DF90CF90089588E803
:1034D00093E19093C7048093C60411E0E9CF61E0C3
:1034E00070E080E090E00E94C0048FEFE81AF80AD4
:1034F000CE14DF0409F0A3CF10E0DACF7F928F92D1
:103500009F92AF92BF92CF92DF92EF92FF920F9372
:103510001F93CF93DF9300D0CDB7DEB7782E8B010A
:103520004A01590122E030E0AE014F5F5F4F64E293
:1035300070E00E94E416E980FA80FE24EF24FE2465
:10354000E00EF11E9701377040918004072D10E0C6
:10355000433309F042C0085F1F4F102F0027110F9F
:10356000110F110FC901800F911F4733C9F1A90134
:103570004A0D5B1D4130584098F160E078E06B01E6
:10358000C21AD30AA601B4010E943405A5014C1940
:103590005D09B4016C0D7D1DC8010E943405EA0C63
:1035A000FB1CF982EA8222E030E0AE014F5F5F4F00
:1035B00064E270E0872D0E9405060F900F90DF9166
:1035C000CF911F910F91FF90EF90DF90CF90BF9020
:1035D000AF909F908F907F900895005F1F4FBDCF59
:1035E000A501B401DACFEF92FF921F93CF93DF933F
:1035F00000D0CDB7DEB7182F22E030E0AE014F5F2C
:103600005F4F60E270E00E94E416E980FA80FE24D9
:10361000EF24FE2422E030E0AE014F5F5F4F60E216
:1036200070E0812F0E94E41689819A81982789276A
:103630009827E816F90689F487E0189FF00111240D
:10364000E05DFB4FF582E482C7010F900F90DF91A0
:10365000CF911F91FF90EF9008957C01DBCF1F93D6
:10366000CF93DF93182F80E591E00E942804812FEB
:103670000E94F31AEC01812F0E94DD13873121F0A3
:103680008C3111F0D0E0C0E0CE01DF91CF911F91DD
:103690000895CF93DF93EC018C85843060F40E9411
:1036A000E113873111F08C3131F48C850E942F1B8E
:1036B0008115984088F3DF91CF910895FC018485AE
:1036C000843010F40C942F1B90E080E00895CF928A
:1036D000DF92EF92FF921F93CF93DF93182F7B011E
:1036E000EA014130584010F0C0E0D8E080E591E0B8
:1036F0000E942804812F0E94F31A6C01812F0E94DE
:10370000DD13873111F08C3121F5CC16DD0670F315
:1037100080E591E00E9428049E01A70170E060E02E
:10372000812F0E947E1A60E270E0812F0E94A81310
:1037300062E070E0812F0E948B1384FD0DC0812F09
:103740000E94DD138823B9F080E591E00E942804EF
:10375000EFCFD0E0C0E0DCCF40E162E070E0812F4D
:103760000E944006CE01DF91CF911F91FF90EF9014
:10377000DF90CF900895D0E0C0E0F4CF0F931F9377
:10378000CF93DF938C01EA01FC018485843048F4F7
:103790000E94671B892B39F481E090E0F801938344
:1037A0008283D0E0C0E0CE01DF91CF911F910F91D5
:1037B00008950C94BE1BFC01E60FF71F2DE020833B
:1037C0002AE02183AB014E5F5F4FBC0188EC94E09F
:1037D0000C94D91BCF92DF92EF920F931F93CF934C
:1037E000DF936C01EB01AB0170E060E080E3E82E59
:1037F00004E610E020E030E0C6010E943E0A80E2CC
:10380000F601838362EA76E0C33CF1E0DF0719F159
:1038100080F461EB76E0CC3DD105E9F06CEA76E02E
:10382000CD3DD105C1F0C73DD10531F56DED76E057
:1038300012C06FE776E0C832E2E0DE0761F062E7CF
:1038400076E0C932F2E0DF0731F0C63282E0D80715
:1038500099F46EE876E0C60104960E94A70A8C5F90
:10386000682F70E0C601DF91CF911F910F91EF900B
:10387000DF90CF900C94DB1B6BE676E0C039D14033
:1038800050F768E676E0E7CF9F92AF92BF92CF9273
:10389000DF92EF92FF920F931F93CF93DF938C01F0
:1038A0005B01942EE52EFC01C688D788F08C80E55C
:1038B00091E00E9428048F2D0E94F31AC92DDE2D5D
:1038C0008C179D0708F4EC019E01A501B6018F2D10
:1038D0000E947E1AF801868997898C0F9D1F978B0D
:1038E000868BCE01DF91CF911F910F91FF90EF90CA
:1038F000DF90CF90BF90AF909F900895FF920F936D
:103900001F93CF93DF9300D0CDB7DEB7F82E22E020
:1039100030E0AE014F5F5F4F66E270E00E94E41658
:1039200009811A8110270127102722E030E0AE011B
:103930004F5F5F4F66E270E08F2D0E94E416898131
:103940009A819827892798270817190749F4C801E9
:103950000F900F90DF91CF911F910F91FF900895DD
:103960008C01E3CF1F93CF93DF93182F87E0189F2D
:10397000E0011124C05DDB4F88819981009761F4DB
:1039800080E591E00E942804812F0E947E1C2E81F8
:10399000821B910999838883DF91CF911F910895AC
:1039A0007F928F929F92AF92BF92CF92DF92EF92CF
:1039B000FF920F931F93CF93DF938C015B017A01EA
:1039C00080918004882309F465C08CE4C82E84E0CB
:1039D000D82E4601712CC0E0D4012D913D914D01AE
:1039E000F801848195812817390799F48C2F0E945A
:1039F000E113D82F873119F08C3109F03FC08C2F9B
:103A00000E94B21C892B29F4DC3119F48C2F0E94FE
:103A1000B813CF5FC43001F7711008C0D801ED9121
:103A2000FC910084F185E02DC8010995C0E0F60104
:103A3000219131916F01D80114968D919C91281795
:103A4000390751F48C2F0E94E113873129F4A70123
:103A5000B5018C2F0E94671BCF5FC43041F7C701AF
:103A6000DF91CF911F910F91FF90EF90DF90CF905A
:103A7000BF90AF909F908F907F900895843139F0E0
:103A80008111C7CFF401329711821082C2CF7724FF
:103A90007394BFCFF12CE12CE2CFFC0184858430FC
:103AA00010F40C94B21C90E080E008954F925F9265
:103AB0007F928F929F92AF92BF92CF92DF92EF92BE
:103AC000FF920F931F93CF93DF9300D0CDB7DEB754
:103AD000782E6B014A01A82EB12C27E0829FC001ED
:103AE0001124FC01E05DFB4F7F010081118180E525
:103AF00091E00E9428040815190554F4872D0E94AE
:103B00007E1CF70126818C01021B110911830083A1
:103B10000115110519F5872D0E94DD13843159F027
:103B2000882349F001E010E08C3111F410E000E04E
:103B3000119501951109C8010F900F90DF91CF9158
:103B40001F910F91FF90EF90DF90CF90BF90AF90BB
:103B50009F908F907F905F904F9008958016910670
:103B60000CF4840187E08A9DF0018B9DF00D1124F7
:103B7000E05DFB4FE280F380C114D10451F12701D5
:103B8000F7E05F22872D0E94F705840D951D209197
:103B90008004273309F453C09801240D351D2130CA
:103BA000384008F44CC020E038E0490184189508FA
:103BB000A401B6010E9400132601480C591C68019B
:103BC000C818D908872D0E94F705A601B2010E94E6
:103BD0000013E00EF11E87E08A9DF0018B9DF00D31
:103BE0001124E05DFB4FF382E28220813181201BB2
:103BF000310B318320838681800F912F911D8A3F65
:103C0000910510F4232BF1F487E08A9DF0018B9D40
:103C1000F00D1124E05DFB4F1682F982EA8222E06A
:103C200030E0AE014F5F5F4F68E270E0872D0E9489
:103C3000050660E470E0872D0E94A8137CCFA801E0
:103C4000B601C5CF868377CFCF93DF93FC01218D5B
:103C5000328D2115310529F48FEF9FEFDF91CF9140
:103C60000895EC01808D4217530708F0A9010E94C6
:103C7000561D1816190684F7298D3A8D281B390B05
:103C80003A8F298FEBCF0F931F93CF93DF931F9220
:103C9000CDB7DEB7FC01218D328D232B41F48FEFA0
:103CA0009FEF0F90DF91CF911F910F9108958C019D
:103CB00041E050E0BE016F5F7F4FFC01808D0E94AC
:103CC000561D181619065CF7F801818D928D019723
:103CD000928F818F898190E0E4CFCF93DF931F9201
:103CE000CDB7DEB741E050E0BE016F5F7F4FFC0112
:103CF00084850E94561D1816190634F4898190E0B7
:103D00000F90DF91CF9108958FEF9FEFF9CFFC01D6
:103D10008485843010F40C94561D90E080E0089562
:103D20000F931F93CF93DF9300D0CDB7DEB7FC0185
:103D300024852430E0F48C0180E591E00E94280481
:103D400022E030E0AE014F5F5F4F60E170E0F801CC
:103D500084850E94E41689819A819827892798276B
:103D60000F900F90DF91CF911F910F91089590E0E8
:103D700080E0F6CF0F931F93CF93DF9300D0CDB7A2
:103D8000DEB7FC0124852430E0F48C0180E591E06D
:103D90000E94280422E030E0AE014F5F5F4F64E0F4
:103DA00070E0F80184850E94E41689819A81982741
:103DB000892798270F900F90DF91CF911F910F9136
:103DC000089590E080E0F6CF2F923F924F925F925D
:103DD0006F927F928F929F92AF92BF92CF92DF921B
:103DE000EF92FF920F931F93CF93DF9300D000D0F9
:103DF00000D0CDB7DEB7FC01208131813E832D8319
:103E0000C684D784E088F18830E2C30ED11CE11C5F
:103E1000F11CC114D10480E2E806F10420F0168AF6
:103E2000178A108E118E86899789A08DB18D009783
:103E3000A105B105B1F13B011F01B701A601517008
:103E400066277727452B462B472B09F0E4C00196C0
:103E5000A11DB11D868B978BA08FB18F428953898D
:103E600064897589ED81FE814115510561057105F2
:103E7000D9F487819085B0E0A0E0B701A60135E0D4
:103E800076956795579547953A95D1F7481759070D
:103E90006A077B0708F4BFC0F101168A178A108EE3
:103EA000118E84E090E024C0818592850197B0E076
:103EB000A0E04601570129E0B694A794979487940F
:103EC0002A95D1F788219921AA21BB21892B8A2BF8
:103ED0008B2B09F0A0C0CF010E94540D4B015C0157
:103EE000F2E08F169104A104B104D8F482E090E0CE
:103EF00026960FB6F894DEBF0FBECDBFDF91CF91EF
:103F00001F910F91FF90EF90DF90CF90BF90AF90F7
:103F10009F908F907F906F905F904F903F902F90E9
:103F200008952FEF82169206A206B20619F481E0D8
:103F300090E0DECFED81FE8183899489A589B689E1
:103F400088169906AA06BB0608F455C0672809F426
:103F5000A3CFF1014289538964897589C1010E9407
:103F6000C90F4B015C0187E090E081149104A1042A
:103F7000B10409F4BDCFF1E08F169104A104B1049E
:103F800009F4B4CF2FEF82169206A206B20679F298
:103F90008D819E810E94BA0C892B49F6B501A4013E
:103FA0008D819E810E9474092B013C01ED81FE816F
:103FB00043A654A665A676A6BF96FC83EB8380E055
:103FC00092E09C01119221503040E1F71A8219824F
:103FD000ED81FE818185928529813A8128173907F3
:103FE00058F1ED81FE818185928529813A812817DA
:103FF000390709F09CCFF101828A938AA48AB58A95
:10400000B501A4018D819E810E947409F101668B26
:10401000778B808F918FF101C686D786E08AF18AEF
:104020008D819E818F9696013170280F391F338FB5
:10403000228F90E080E05CCF01E010E0A3019201CC
:1040400089819A81280F391F411D511D6B817C8107
:10405000ED81FE8181810E94280C892B11F68981D6
:104060009A8101969A838983B3CF0F931F93CF933D
:10407000DF93CDB7DEB728970FB6F894DEBF0FBE3B
:10408000CDBF8C01D80159964D915C915A9741153D
:10409000510551F0ED91FC91048CF58DE02D70E00F
:1040A00060E0C8010995EECFF801808D0E94B21C36
:1040B000892BB1F148E050E0BE016F5F7F4FD8011E
:1040C00058968C910E94561D18161906F4F4D801C2
:1040D000509684E0FE01319601900D928A95E1F7A9
:1040E0008D8190E0982F88272E81820F911DF801F5
:1040F000958B848B8F81282F30E0322F2227888563
:10410000820F932F911D928F818F28960FB6F8946E
:10411000DEBF0FBECDBFDF91CF911F910F910895EC
:1041200090E080E0F2CF4F925F926F927F928F92F9
:104130009F92AF92BF92CF92DF92EF92FF920F9336
:104140001F93CF93DF93CDB7DEB763970FB6F89485
:10415000DEBF0FBECDBF7C016B013A01FB0120E049
:1041600090E080E06AE03191332309F461C040EDD2
:10417000430F4A3008F04DC0689FA001699F500D61
:104180001124CA01C097830F911D37FD9A958F3F67
:10419000910549F340F3F7014281538164817581B0
:1041A0008091AF049091B004A091B104B091B20499
:1041B000481759076A077B0709F40DC28701085F92
:1041C0001F4F0E94F2046F7077277C5FC8010E9426
:1041D0003A19813009F004C283E991E09A83898316
:1041E000F70182819381A481B5818B839C83AD8308
:1041F000BE8345E350E0BE016F5F7F4FC8010E9460
:10420000AB06892BA9F5D12CC12CC8010E94D01373
:1042100017C03E3209F0BFCF233009F4BCCFD30121
:10422000A20FB11D12968C932F5F90E080E09BCF80
:10423000233009F0B0CFF3018583CC24C394D12C73
:10424000C60163960FB6F894DEBF0FBECDBFDF91F7
:10425000CF911F910F91FF90EF90DF90CF90BF9083
:10426000AF909F908F907F906F905F904F90089548
:104270000E94F204F7017783668342E050E0B701C1
:104280006A5F7F4FC8010E94441C81E090E09A83DE
:10429000898342E050E0BE016F5F7F4FC8010E94FA
:1042A000441C80E091E09A83898342E050E0BE01A3
:1042B0006F5F7F4FC8010E94441C1A82198242E03E
:1042C00050E0BE016F5F7F4FC8010E94441C42E076
:1042D00050E0BE016F5F7F4FC8010E94441C42E066
:1042E00050E0BE016F5F7F4FC8010E94441C560121
:1042F000F6018081882301F16501F60181912F018A
:10430000882311F08E32B1F446018A189B081814E4
:10431000190474F48D8641E050E0BE01635F7F4F65
:10432000C8010E94441CA401B501C8010E94441C9C
:104330005201DECF6201E1CF1D8641E050E0BE01B7
:10434000635F7F4FC8010E94441CC12CDD24D394BD
:10435000DA82C98242E050E0BE016F5F7F4FC80140
:104360000E94441CDA82C98242E050E0BE016F5FC5
:104370007F4FC8010E94441CC8010E946A14892B07
:1043800009F441CFF3E0AF2EB12C230122E0420E1D
:10439000511CD4C0F7014281538164817581808DA5
:1043A000918DA28DB38D481759076A077B0709F0D5
:1043B00008C1848D958DC59709F003C181A192A193
:1043C0005DEFC52EDD24DA940C970CF4ADC04CE003
:1043D00050E0BE016F5F7F4FC8010E94241E8B8199
:1043E0009C819827892798279A8B898BF70146818A
:1043F000578129813A814217530709F0E7C097FF97
:10440000E5C08F7092703BEFC32EDD24DA94892BC8
:1044100009F08AC06F8078847624672476242AEF96
:10442000C22EDD24DA946114710409F47DC0D12C0C
:10443000C12C8D819E81982789279827C816D90677
:10444000F8F441E050E0BE01635F7F4FC8010E9475
:10445000241E4D85442331F050E070E060E0C80137
:104460000E94241E8D858111ECCF44E050E070E065
:1044700060E0C8010E94241EFFEFCF1ADF0AD9CFE7
:10448000912C812C41E050E0BE016D5E7F4FC80150
:104490000E94241E4B89842F807C09F06CC0442329
:1044A00031F050E070E060E0C8010E94241E8B896A
:1044B0008111E8CF42E050E0BE01615F7F4FC8014B
:1044C0000E94241E42E050E0BE01635F7F4FC8019E
:1044D0000E94241E44E050E070E060E0C8010E94A9
:1044E000241E42E050E0BE016F5E7F4FC8010E9473
:1044F000241E8F85988949895A898115914009F030
:1045000043C0CD84DE84DC24CD24DC2481E0C816C5
:10451000D104D1F54115544009F04AC044E050E0BF
:10452000B201C8010E94241E21E0A21AB10809F4B8
:104530006CCEFFEFCF16DF0609F067CE0E94F204C3
:104540003B014C01C8010E943520181619060CF4D5
:1045500021CF0E94F2046619770988099909693800
:1045600073418105910548F562E370E080E090E0D9
:104570000E94C004E7CF41E050E070E060E0C80175
:104580000E94241E1B8A93CF54274527542770E08E
:1045900060E0C8010E94241EFFEF8F1A9F0A681472
:1045A000790409F06FCF96EFC92EDD24DA94BCCFE1
:1045B000E7EFCE2EDD24DA94B7CFCC24CA94DC2CDE
:1045C000B3CF6EEFC62EDD24DA94AECF4CEFC42EFF
:1045D000DD24DA94A9CF8EEFC82EDD24DA9430CE14
:1045E000D12CC12C2DCECF92DF92EF92FF920F9360
:1045F0001F93CF93DF93CDB7DEB7AF970FB6F89485
:10460000DEBF0FBECDBF7C016A0103E911E01A8352
:1046100009831C861B8688EE93E0A0E0B0E08D87BE
:104620009E87AF87B88B87E391E09A878987188F39
:104630000F8B198E1A8E1B8E1C8E84E089A31BA7EC
:104640000AA71CA61DA61EA61FA68091A3049091D2
:10465000A404A091A504B091A6048EA39FA3A8A72B
:10466000B9A78B839C83AD83BE8318861F82AE015E
:10467000465D5F4FCE0101960E94932081309105E7
:10468000B1F4D701ED91FC910488F589E02D1DA3CB
:104690000CA38CA59DA5AEA5BFA58EA39FA3A8A77F
:1046A000B9A7A601BE016C5D7F4FC7010995AF9602
:1046B0000FB6F894DEBF0FBECDBFDF91CF911F9133
:1046C0000F91FF90EF90DF90CF900895CF92DF92FF
:1046D000EF92FF920F931F93CF93DF93CDB7DEB787
:1046E000AF970FB6F894DEBF0FBECDBF8C016B0144
:1046F0007A0183E991E09A8389831B821C821D825F
:104700001E821C861B8648EE53E060E070E04D87F9
:104710005E876F87788B27E331E03A872987988F08
:104720008F8B198E1A8E1B8E1C8E24E029A39BA7BB
:104730008AA71CA61DA61EA61FA6D8011C968C9192
:10474000843060F40E94E113882321F0F80184850D
:104750000E94B81384E0D8011C968C938091A30426
:104760009091A404A091A504B091A6048EA39FA348
:10477000A8A7B9A78B839C83AD83BE8318861F82AD
:10478000AE01465D5F4FB601CE0101960E949320B7
:104790000097C1F0D801ED91FC910684F785E02DDA
:1047A00083E991E09DA38CA38CA59DA5AEA5BFA593
:1047B0008EA39FA3A8A7B9A7A701BE016C5D7F4FD9
:1047C000C8010995AF960FB6F894DEBF0FBECDBFF6
:1047D000DF91CF911F910F91FF90EF90DF90CF90DD
:1047E0000895EF92FF920F931F93CF93DF9300D022
:1047F00000D0CDB7DEB78C017B01FB01848584300E
:10480000A8F083E991E0F8019183808312821382FA
:1048100014821582C8010F900F900F900F90DF91B6
:10482000CF911F910F91FF90EF90089580E591E057
:104830000E94280424E030E0AE014F5F5F4F6CE03F
:1048400070E0F70184850E94E41683E991E0F801A5
:104850009183808389819A81AB81BC818283938398
:10486000A483B583D7CF0F931F93CF93DF93EC012E
:10487000FC01E35DFD4F008111819FA59B3E21F06E
:10488000985E923008F04DC005352AEA120761F4AF
:1048900048E050E065EA71E0CE018F579F4F0E94DB
:1048A000D73A892B09F447C08AAD9BAD9C012150B2
:1048B000310928233923232BA1F58115924089F54D
:1048C0008CAD882371F190E09C0121503109822345
:1048D0009323892B31F58DAD9EAD892B11F18FADD1
:1048E0008150990B0297E8F4FE01E05CFF4F808154
:1048F0009181892BB1F03296808191818038910528
:1049000050F4CE01815B9F4F0E949C096115710597
:104910008140910530F0CB5BDF4F88819981892BF5
:1049200051F405351A4A51F083E090E0DF91CF91C0
:104930001F910F91089590E080E0F8CF82E090E021
:10494000F5CF2F923F924F925F926F927F928F920C
:104950009F92AF92BF92CF92DF92EF92FF920F930E
:104960001F93CF93DF93CDB7DEB7A0970FB6F89420
:10497000DEBF0FBECDBF6B01342EDB011D921C923A
:104980000E9447097C0197FD6FC3FC01EE0FFF1FDA
:10499000EC5AFB4F008111810115110509F468C320
:1049A000F60111830083E89430F8D8018C918823B4
:1049B00091F11196DC9080915804D8120E9405095B
:1049C000D0925804ED2DF0E0ED5EFE4F808180FD29
:1049D00022C0332009F450C382FF4EC35AE0252E73
:1049E000312CC101A0960FB6F894DEBF0FBECDBF2B
:1049F000DF91CF911F910F91FF90EF90DF90CF90BB
:104A0000BF90AF909F908F907F906F905F904F90EE
:104A10003F902F900895F8011082E1828091580410
:104A20008E110E940509E0925804F701FF27ED5E00
:104A3000FE4F808180FD26C1808180FD20C3332010
:104A400011F082FDCBCFD80113961C928FEF9FEF10
:104A5000DC01F80183A794A7A5A7B6A740E050E022
:104A6000BA01C8010E94130D1C01892B09F0E8C18D
:104A7000C8010E9433248230910509F0E5C1680124
:104A8000FBE0CF1AFEEFDF0A9E012F5F3F4F790157
:104A900048013BEC831A3DEF930A5701C6010E947F
:104AA0009C09D5016D937D938D939D935D01B0E13C
:104AB000CB0ED11CC814D90489F76701E0E1CE0EF2
:104AC000D11C88248A94982C5401D7014D915D9172
:104AD0006D917D917D0183E090E041155105610567
:104AE000710509F4A7C1F801138283A694A6A5A6AF
:104AF000B6A6C8010E94130D892B09F099C1C801FF
:104B00000E9433248230910508F094C1F80182ADEF
:104B100093AD8115924009F09DC1F801EB5BFF4F09
:104B200080809180B12CA12C8114910439F4C801AA
:104B30008D5A9F4F0E949C094B015C01D8019B96A6
:104B40002D913D914D915C919E972D8B3E8B4F8B7E
:104B5000588FF801878A908EA18EB28E77AC7282C0
:104B60008FEF870D823008F075C1F4ADF98B8F2F70
:104B700090E01A969C938E931997009709F46AC156
:104B80009C012150310982239323892B09F062C1B2
:104B9000F801E05CFF4F208131813C8B2B8B189614
:104BA0003C932E931797C9018F709927892B09F091
:104BB00051C13296C080D180F12CE12CC114D104B6
:104BC00039F4C801815B9F4F0E949C096B017C01F5
:104BD000D801DD96ED91FC91309709F43BC1A72DEA
:104BE000B0E0A50194010E94953A6D8F7E8F8F8F62
:104BF00098A39F0150E040E0298F3A8F4B8F5C8F44
:104C00008B899C89E4E096958795EA95E1F72901DF
:104C10003A01480E591E611C711C8D8D9E8DAF8D01
:104C2000B8A1480E591E6A1E7B1EC414D504E604A2
:104C3000F70408F40FC1C701B601641975098609A4
:104C40009709A9892A2F30E050E040E00E94A03A5D
:104C5000211531054105510509F4FCC0263FBFEF80
:104C60003B074B07BFE05B0708F0F4C0263F9FEF10
:104C700039074105510508F406C2A3E0B0E0BA8B3C
:104C8000A98BF0C0808181FDD7CEF89497E095B9CB
:104C900084B1876084B995B980E58CBD81E08DBD14
:104CA00084B18F6284B98FE385B978948CB58360C1
:104CB0008CBD4AE0F42E8FEF0E943F08FA94F11069
:104CC000FACF35E0E32E40E050E0BA0180E00E94E8
:104CD000BA08F82E811105C0EA94E110F4CFD12C66
:104CE00088C0F1E08F13FBCF0E94F2042B015B011F
:104CF0004AEA51E060E070E088E00E94BA08813042
:104D000009F049C09E012F5F3F4F69014E0135E018
:104D1000830E911C76018FEF0E943F08D7018D937F
:104D20007D01A815B905B9F78B818130C1F68C8159
:104D30008A3AA9F60E94F2046A197B09683E734018
:104D40004CF440E050E060E070E489EA0E94BA0868
:104D50008111F0CF0E94F20464197509683E734016
:104D60000CF0BDCF40E050E0BA018AE30E94BA08DF
:104D70008111B5CF8FEF0E943F08D6018D936D0151
:104D8000AE15BF05B9F7898128E1D22E86FD31C065
:104D9000B8E0DB2E2EC040E050E0BA0189EA0E9464
:104DA000BA08DD24D394823020F484E0D82E99EA26
:104DB000F92E0E94F2046A197B09683E734044F49C
:104DC00040E050E0BA018F2D0E94BA088111F1CF66
:104DD0000E94F20464197509683E73400CF07FCF9D
:104DE00040E052E060E070E080E10E94BA0881118A
:104DF00076CFE0915804EE2EF12CF701E35EFB4FE5
:104E0000D0820E949708F701ED5EFE4F8081DD2081
:104E100061F08E7F80838CB58C7F8CBD2C98E09167
:104E20005804F0E0ED5EFE4F07CE81608083F6CF40
:104E300084E090E0EC14FD0409F047CE049751F4AF
:104E400022242394312CCDCD84309105C9F30297CF
:104E500008F45CCEFDE02F2E312CC3CDE1E0F0E074
:104E6000FA8BE98B69017A01F2E0CF0ED11CE11CCB
:104E7000F11CD8015396CD92DD92ED92FC9256979B
:104E80002D893E894F89588D5B962D933D934D9387
:104E90005C935E97898D9A8DAB8DBC8D820F931F2D
:104EA000A41FB51FF801878F90A3A1A3B2A3420E40
:104EB000531E641E751E47A250A661A672A62989BC
:104EC0003A892330310509F09FC0E75AFF4F8081AE
:104ED0009181892B09F0BECF4B895C89452B09F064
:104EE000B9CFC801855A9F4F0E949C09D80193965B
:104EF0006D937D938D939C93969772E0CC0CDD1C03
:104F0000EE1CFF1C7A95D1F74FEFC40E41E0D41E82
:104F1000E11CF11C49E0F694E794D794C7944A95B4
:104F2000D1F78C149D04AE04BF0408F493CF8FEF27
:104F30009FEFDC01F8018787908BA18BB28B838771
:104F40009487A587B68780E8848329893A892330A6
:104F5000310509F048C0E15AFF4F808191810197E6
:104F600009F041C04D895E896F89788D4F5F5F4F31
:104F70006F4F7F4FC8010E94130D892BA1F5D801F7
:104F800014961C92F801E35DFD4F80819181853577
:104F90009A4A49F5C8018F960E949C09623572456C
:104FA0008146914401F5C8018D5E9D4F0E949C0988
:104FB0006237724781449146B1F4C801895E9D4FC2
:104FC0000E949C09D8011F966D937D938D939C93AD
:104FD0005297C801855E9D4F0E949C09F801638726
:104FE000748785879687E989D801EC9380911F049F
:104FF0009091200401969093200480931F041696AC
:105000009C938E931597EDCCEB89FC89EF2B09F4DB
:1050100021CF2D8D3E8D4F8D58A1820F931FA41F40
:10502000B51FF80183A394A3A5A3B6A329893A8940
:105030002230310529F4CC0CDD1CEE1CFF1C64CFA2
:10504000A3E0B0E0A70196010E94953A9695879556
:105050007795679531E0C322DD24EE24FF24C60E48
:10506000D71EE81EF91E50CF3BE0232E312CB9CCC1
:105070002CE0222E312CB5CC312C212CB2CC93E05B
:10508000292E312CAECC263FFFE03F0741055105CC
:1050900008F4E4CE82E090E09A8B898BE3CE1F93F4
:1050A000CF93DF9300D000D000D0CDB7DEB79E8382
:1050B0008D83162F85E091E09C838B839A8389836F
:1050C000CE0101960E94470997FD2BC0880F991FBA
:1050D000FC01EC5AFB4F0190F081E02D309709F074
:1050E0001082ED81FE81309709F010828C5A9B4F1F
:1050F000DC01ED93FC9390E080E0112341F040E06F
:10510000BE016B5F7F4FCE0103960E94A1242696BD
:105110000FB6F894DEBF0FBECDBFDF91CF911F91C8
:1051200008958BE090E0F3CFDF92EF92FF920F9320
:105130001F93CF93DF9300D0CDB7DEB790E3D92E86
:10514000D80E80910501282F082E000C330BD216A3
:10515000130659F481E00F900F90DF91CF911F91CA
:105160000F91FF90EF90DF900895883509F408C102
:105170008091590490915A04892B09F4FCC0CE0106
:1051800001960E941009892B09F0F2C080916704F2
:1051900086FFE4C0409175045091760460917704D5
:1051A0007091780489819A810E94130D892B09F0EE
:1051B000DFC0E0917904F0917A048385806283876F
:1051C00040915F04509160046091610470916204A9
:1051D0002091590430915A04428F538FD9012C9158
:1051E000233029F4CB01AA27BB27848B958B3091E0
:1051F0006304209164049091650480916604348F67
:10520000258F968F878F168A178A81E2808F80E597
:10521000818F128A138AE980FA8081E0F701838303
:10522000C7010E94BA0C8C01892B09F090C0D701EC
:105230008C91833009F06BC014968C911497813057
:1052400009F065C011968C91119720E032E0B7010A
:10525000615D7F4FFB01A901119241505040E1F780
:1052600095E5F701E35DFD4F90839AEA31969083CF
:1052700092E59F969C939F97D0969C93D09791E6AA
:10528000D1969C93D19721E4D2962C93D29732E772
:105290007B9730833196308331962083319690838B
:1052A000F7014785308921899289E95EFD4F408366
:1052B0003196308331962083319690831B964C91A2
:1052C0001B971C963C911C971D962C911D971E9622
:1052D0009C911E973196408331963083319620837E
:1052E00031969083F701238D348D458D568D2F5F38
:1052F0003F4F4F4F5F4F9B962D933D934D935C9344
:105300009E9701E010E00E94280CF7011482D7015B
:105310001196FC9080915804F8120E940509F092B1
:105320005804EF2DF0E0ED5EFE4F808101E010E0CB
:1053300080FD0DC080E58CBD0E949D0831E020E01D
:10534000892B09F030E0032F122F0E9497088091DB
:1053500067048F7B80936704012B51F4CE01019683
:105360000E941009892B21F410925A0410925904BA
:105370008FEF8093020160E090E080E00E944F2870
:10538000D092050161E088EE91E00E944F28892BC0
:1053900009F4E0CE88E58093050180E0DCCEFF9241
:1053A0000F931F93CF93DF93C82FD0E0C95EDB4FDD
:1053B0009881911107C0F82E0E949428882341F00B
:1053C00081E08883DF91CF911F910F91FF90089525
:1053D0008FEF88838FEF9FEFDC0180931302909310
:1053E0001402A0931502B093160201E010E022E02F
:1053F00030E040E050E067E172E08F2D0E94AE099E
:10540000892B01F780911B02813F38F480913A0289
:1054100090913B0287329D40A9F682E0D2CF2F9235
:105420003F924F925F926F927F928F929F92AF9234
:10543000BF92CF92DF92EF92FF920F931F93CF9381
:10544000DF93CDB7DEB7AC970FB6F894DEBF0FBED3
:10545000CDBF80911904823010F0212C09C0E82FB3
:10546000F0E0E95EFB4F90819230E1F42224239436
:10547000822DAC960FB6F894DEBF0FBECDBFDF9184
:10548000CF911F910F91FF90EF90DF90CF90BF9041
:10549000AF909F908F907F906F905F904F903F90D4
:1054A0002F9008951916CCF60E949428282E882350
:1054B000A1F280911A04909102018917B9F2282F64
:1054C00030E064E0359527956A95E1F72A30F0F5EC
:1054D000205D20930D018F708A30D0F5805D809320
:1054E0000E0185E091E09AA789A743E0BE01655DC2
:1054F0007F4FCE0189960E94A124892B11F58BA4A0
:105500009CA49A828982E9A5FAA58F0181918F32A4
:10551000E1F38C35D1F31F82188619861A86D801DB
:105520008C913401BFE26B0E711C803208F05EC0BA
:1055300080E888A7CE0101960E94120E892B09F4FB
:10554000C8C010925A041092590487CF295CC1CF69
:10555000895CC5CF8EE2381609F424C1EA14FB0435
:1055600080F7632D70E08EEA91E00E94F43A892B77
:1055700041F78FE9830D8A3110F490EE390EEDE199
:10558000F0E0EC0FFD1FEE0DFF1D3082D7011196EC
:105590007D013CC084E068C044E0C42ED12C88A5C5
:1055A000CD2879F682FD95C08D8184FFCACFEF8525
:1055B000F889F170AF01460D571DFA01828D938D68
:1055C000B0E0A0E0F4012081233061F4FA014489C5
:1055D000558970E060E0BA0155274427842B952B4C
:1055E000A62BB72B8F839887A987BA874BE050E00B
:1055F00060E270E0CE014D960E94ED3A2801F12C58
:10560000E12CD12CC12C58E0A52EB12CEFEFCE1AF5
:10561000DE0AD2018D912D01382EB0E2B81788F440
:10562000EFE28E1719F0FCE58F1394CFF801EC0D23
:10563000FD1D6F01C01AD10A91919F32D1F39C35A3
:10564000C1F3EF2809F47DCF9D8D953E11F4B5E0AF
:10565000BD8F0C0D1D1D813208F49CCFF801808197
:1056600081320CF497CF80E088A7E980FA80CE01E0
:1056700001960E94120E6C01892B09F090CF4F8980
:10568000588D698D7A8DC7010E94130D6C01892B8D
:1056900009F085CF8B8D9C8DDC012C91222309F4A0
:1056A0007BCF1B962C91322F3F733D8323FD0AC085
:1056B0004BE050E0BE01635E7F4F0E94D73A892BDA
:1056C00009F46DCF70E060E0CE0101960E94E41E07
:1056D000D2CF88A587FD35CF8D81817109F031CF7B
:1056E0000BA51CA5F80183A594A5A5A5B6A5809337
:1056F000750490937604A0937704B0937804EB8DAF
:10570000FC8DF0937A04E0937904428D538D70E020
:1057100060E0D8018C91833059F4C488D588F12C8D
:10572000E12C7601DD24CC244C295D296E297F29CA
:1057300040935F045093600460936104709362042B
:10574000CF014C960E949C0960936304709364049B
:10575000809365049093660410935A04009359044F
:10576000D80115968D919C9190935C0480935B0475
:1057700083E0809367041092680410927104109281
:1057800072041092730410927404109269041092BF
:105790006A0410926B0410926C0480911A04809336
:1057A000020166CEBBE0AB16B10409F4CACE88E0B4
:1057B000E82EF12C9BE0A92EB12C28CF2F923F92FE
:1057C0004F925F926F927F928F929F92AF92BF9211
:1057D000CF92DF92EF92FF920F931F93CF93DF93BD
:1057E00000D0CDB7DEB75C010E940F2A882309F4F0
:1057F00019C28091190440911B0450911C0470E05F
:1058000060E0E82FF0E0E95EFB4F2081223089F470
:1058100020911A047A018B01022BA801970101E063
:1058200010E0B5010E94280C892B09F485C187E29C
:1058300084C1CB01BA01F9E0660F771F881F991F59
:10584000FA95D1F76B017C0102E0D00EE11CF11C4E
:105850000091630410916404209165043091660402
:105860000C151D052E053F0510F3009169041091DC
:105870006A0420916B0430916C04601771078207F1
:10588000930719F5CE0101960E941009892B79F62C
:10589000809168048111CBCF8091670481FFC7CFCD
:1058A000C0906904D0906A04E0906B04F0906C049E
:1058B000C1141EEFD1061FEFE106F10608F4AEC1D8
:1058C000C094D094312C212CE2C00E942A11892B43
:1058D000C9F2ADCF40916D0450916E0460916F0498
:1058E0007091700415C1613071058105910521F435
:1058F00082E0809368049BCF6F3F3FEF730783077D
:10590000930711F481E0F5CF60936D0470936E04FA
:1059100080936F049093700440905F0450906004F3
:10592000609061047090620445284628472841F43D
:1059300060935F04709360048093610490936204A9
:1059400089819A81FC0143A454A465A476A4409162
:105950007104509172046091730470917404441640
:1059600055066606770621F40E94BA0C892B51F67B
:1059700089809A8040916D0450916E0460916F040B
:1059800070917004C4010E9474096115710581054C
:10599000910509F4ADCF2B013C01400E511E611C55
:1059A000711C7601EF2CFF24E694E114F10409F454
:1059B000D9C0F4018185928598012E0D3F1D821773
:1059C000930718F47C01E01AF10A8701A301920100
:1059D000B501F40181810E94280C892B09F092CF36
:1059E00089819A81FC0143A554A565A576A5441932
:1059F00055096609770930E020E040175107620732
:105A0000730788F4DC019F96FA01FE2FEE27FF0F43
:105A1000EA0DFB1D20E032E001900D922150304054
:105A2000D9F7FC011382FE2CEE24FF0CCE18DF0800
:105A30002E0C3F1CAE0CBF1C8091690490916A042F
:105A4000A0916B04B0916C048E0D9F1DA11DB11D22
:105A50008093690490936A04A0936B04B0936C04E0
:105A600040916304509164046091650470916604F0
:105A7000481759076A077B0710F4AC01BD01409332
:105A80006304509364046093650470936604C114C6
:105A9000D10409F447C08091690490916A04A091EF
:105AA0006B04B0916C04AC01BD015170662777277F
:105AB000452B462B472B09F07EC0E981FA810185F1
:105AC000128501501109AC01BD01E9E07695679599
:105AD00057954795EA95D1F704231523011511052C
