:020000040000FA
:100000000C94FB030C9423040C9423040C942304FD
:100010000C9423040C9423040C9423040C942304C4
:100020000C9423040C9423040C9423040C942304B4
:100030000C9423040C9423040C9423040C942304A4
:100040000C94B5330C9423040C9423040C942304D3
:100050000C9423040C9423040C9423040C94230484
:100060000C9423040C942304EAA92085F0A960854C
:10007000F3A5434A4A4A4A290709C085F2A00084E9
:10008000F188B1F185F1A90285F9E646E645E64534
:1000900020F000900620E2FB4CBAFAC6F9D0EB2023
:1000A00093FE2089FE207D0920F70AA90085FBA97F
:1000B0000385252022FCA5FB85F585F620E00AA90D
:1000C00000A4F720AF09A9FF8532A5430980854325
:1000D000A914A4F820AF09A9FF85324A2543854316
:1000E000E625E6FBA5FBC91090C920970820E00A89
:1000F00020A00820090B20D00820DC0A4CF70BA513
:10010000F785F5A5F885F660A91520A00A20C10A93
:10011000A90A8524A5F5207109A914852420BC0A03
:10012000A91E8524A5F64C710920E90B209708200B
:10013000A0086868184CF70BA90085FAA6FAA94030
:1001400020050A208F09200CFD48A980A6FAB4F5E5
:1001500020050A68A6FAB4F5C98DD005A6FAF036CE
:1001600060C99BF0C4C9A1D005A9FF85F560C9ACE1
:10017000F004C98BD00388300DC9A0F004C98AD01F
:100180000BC8C01090064898290FA86894F5C98834
:10019000F004C995D00DA90020050AA5FA490185EA
:1001A000FA102AC9E1900338E920C9C19009C9C7EA
:1001B000B00538E907D008C9B0900EC9BAB00A290D
:1001C0000F95F5208F094CF408C9C9F0034CD408E9
:1001D000207D0920090B4C3B0BC9FFF0034CE3FDCC
:1001E000A9A14CEDFD2058FCA92C20A90AA9172093
:1001F000A00AA9184CA90AA6FAB4F5A20AA5FAF011
:1002000002A21E8624A01584252022FCA4FAB9F59A
:1002100000207109C624608524A5FB4820E3FDA9C0
:10022000BA20EDFDE62484F968C5F9D004A93F851C
:100230003220CF0AB032AD0510302DAD0410AA29FE
:10024000F0C9F0D0238A290FF01E85F9A200BD0560
:1002500010098020EDFDE8E4F9D0F3E00FD0016053
:10026000A9A020EDFDE8D0F3A2004CC30A85F98ACD
:10027000F002A9141869038524B5F53017690385C0
:10028000252022FCA424A20EB128293F05F991289B
:10029000C8CA10F460ADADADA0A0A0A0A0A0A0A061
:1002A000A0A0A0A000C3C1D2C4A0B1BA0020200168
:1002B00010100C0520090920060F12051605122141
:1002C0000004010E20090920160F0C150D0520133E
:1002D000050C0503140F1200A0CFCBA100C5D2D28C
:1002E000CFD2A187878700C6D4D0AFC9D0BAA0002B
:1002F000CEC5D7A0C9D0BAA0A0A0A0AEA0A0A0AEE5
:10030000A0A0A0AEA0A0A0008525A90085244C2215
:10031000FC48A226A92020EDFDCA10F868AAA90869
:100320008524D007A9B28D420AA210BD2D0AF0067D
:1003300020EDFDE8D0F560A0008447C88442C88461
:10034000464CEC0AA907D002A9068542A5F58546C8
:10035000A5F68547A9008544A91085454CF000A95C
:1003600005854220EC0AAD001085F7AD011085F837
:1003700060A92120E20AB0F8AD1010F0F3A9022024
:10038000A00AA2098624A25220C30AAD061020DDCD
:100390000BAD071020DD0BAD081020DD0BAD0910F3
:1003A0004C220CA90A20A00AA25B20C30AA9088536
:1003B00024207D0BB0ED8544E624207D0BB0E48540
:1003C00045E624207D0BB0DB8546E624207D0BB07E
:1003D000D285478543A920854220F00018AACAF09B
:1003E00001384C050CA90085F9A2038A4820BC0BF2
:1003F000B017C9FFF017A820AD0BB00D9865F985AF
:10040000F9B00668AACAD0E34868A5F9606818651B
:1004100024852490F5A20AA9001865F9B005CAD070
:10042000F985F960200CFDC9A0D004A9FF1860C9A6
:100430008DF0F8C9AEF0F4C9B030E9C9BAB0E52022
:10044000EDFD290F6020220CA9AE4CEDFDA900F0B6
:1004500002A98048A20020050A68A2014C050A08EA
:1004600020E50BA91620A00AA911852428A24390F3
:1004700002A24820C30AA206A9FF20A8FCCAD0F8FD
:100480002058FCA90085F16CF100C90A901EA264F5
:1004900086F920470CE000F006488A20E3FD68A2B8
:1004A0000A86F920470C488A20E3FD684CE3FDA248
:1004B00000C5F99006E838E5F9B0F660FFFFFFFFE8
:1004C000FFFFFFFFFFFFFFFFFFFFFFFFFFFFFFFF3C
:1004D000FFFFFFFFFFFFFFFFFFFFFFFFFFFFFFFF2C
:1004E000FFFFFFFFFFFFFFFFFFFFFFFFFFFFFFFF1C
:1004F000FFFFFFFFFFFFFFFFFFFFFFFFFFFFFFFF0C
:10050000FFFFFFFFFFFFFFFFFFFFFFFFFFFFFFFFFB
:10051000FFFFFFFFFFFFFFFFFFFFFFFFFFFFFFFFEB
:10052000FFFFFFFFFFFFFFFFFFFFFFFFFFFFFFFFDB
:10053000FFFFFFFFFFFFFFFFFFFFFFFFFFFFFFFFCB
:10054000FFFFFFFFFFFFFFFFFFFFFFFFFFFFFFFFBB
:10055000FFFFFFFFFFFFFFFFFFFFFFFFFFFFFFFFAB
:10056000FFFFFFFFFFFFFFFFFFFFFFFFFFFFFFFF9B
:10057000FFFFFFFFFFFFFFFFFFFFFFFFFFFFFFFF8B
:10058000FFFFFFFFFFFFFFFFFFFFFFFFFFFFFFFF7B
:10059000FFFFFFFFFFFFFFFFFFFFFFFFFFFFFFFF6B
:1005A000FFFFFFFFFFFFFFFFFFFFFFFFFFFFFFFF5B
:1005B000FFFFFFFFFFFFFFFFFFFFFFFFFFFFFFFF4B
:1005C000FFFFFFFFFFFFFFFFFFFFFFFFFFFFFFFF3B
:1005D000FFFFFFFFFFFFFFFFFFFFFFFFFFFFFFFF2B
:1005E000FFFFFFFFFFFFFFFFFFFFFFFFFFFFFFFF1B
:1005F000FFFFFFFFFFFFFFFFFFFFFFFFFFFFFFFF0B
:10060000FFFFFFFFFFFFFFFFFFFFFFFFFFFFFFFFFA
:10061000FFFFFFFFFFFFFFFFFFFFFFFFFFFFFFFFEA
:10062000FFFFFFFFFFFFFFFFFFFFFFFFFFFFFFFFDA
:10063000FFFFFFFFFFFFFFFFFFFFFFFFFFFFFFFFCA
:10064000FFFFFFFFFFFFFFFFFFFFFFFFFFFFFFFFBA
:10065000FFFFFFFFFFFFFFFFFFFFFFFFFFFFFFFFAA
:10066000FFFFFFFFFFFFFFFF4F6B004661696C65F7
:1006700064004261642066696C656E616D65004668
:10068000696C6520746F6F206C61726765004E6FD6
:1006900020737563682066696C652F666F6C64658E
:1006A00072004279652E0057656C636F6D6520742A
:1006B0006F2044414E5D5B2C2076322E302E342E3E
:1006C000204170706C65205D5B20466F72657665B9
:1006D00072210044414E5D5B002D72772D2D2D2D32
:1006E0002D2D2D203120766F6C756D653A202D2DC6
:1006F0002D202020202020202020202020203132CA
:10070000333435363738204A756E20313020313950
:10071000373720424C4B44455630312E504F0D0A4E
:1007200000647277782D2D2D2D2D2D2031204461E0
:100730006E4949204170706C6549492031204A75E5
:100740006E2031302031393737205344310D0A00C3
:1007500032353720222F53443122003232372045A0
:100760006E746572696E6720506173736976652077
:100770004D6F6465202800555345525359535443D7
:100780005744205459504551554954504153564CA3
:10079000495354434455505245545253544F525068
:1007A0005744000000000008000201000003040795
:1007B00000000000000000000000000025002800EC
:1007C0002B0000000000240027002A000404040479
:1007D00004040404020202020202030303030303EB
:1007E00001020408102040800102040810200102C8
:1007F00004081020FF3311241FBECFEFD8E0DEBF66
:10080000CDBF11E0A0E0B1E0EAEBF2E702C0059055
:100810000D92A43DB107D9F724E0A4EDB1E001C0E9
:100820001D92A73FB207E1F713E0CBEFD3E004C07E
:100830002197FE010E942D39CA3FD107C9F70E94B6
:100840009E340C945B390C9400008CBD9DBD0895C2
:1008500090E0FC01E052F84F24918453984FFC0142
:100860008491882399F090E0880F991FFC01EE5342
:10087000F84FA591B491FC01E854F84F85919491FB
:100880008FB7F894EC91E22BEC938FBF0895CF9340
:10089000DF93EC01E0914604F0914704309749F46E
:1008A00089E090E0F0E0E0E0F983E883DF91CF9128
:1008B000089580818823A1F3209148043091490450
:1008C000858196812817390759F7A181A09345049E
:1008D000B0E0AD5EBE4F8C9180FDE2CF90E080E055
:1008E000E3CFFC01818D928D0895089590E0FC0185
:1008F000EC55F84F2491FC01E052F84F3491FC0183
:10090000E453F84FE491EE23C9F0222339F0233069
:1009100001F1A8F4213019F1223029F1F0E0EE0FB5
:10092000FF1FE854F84FA591B4918FB7F894EC915C
:10093000611126C030953E233C938FBF0895273028
:10094000A9F02830C9F0243049F7809180008F7DCC
:1009500003C0809180008F7780938000DFCF84B5C3
:100960008F7784BDDBCF84B58F7DFBCF8091B000C6
:100970008F778093B000D2CF8091B0008F7DF9CF78
:100980003E2BDACF3FB7F89480911D0490911E045E
:10099000A0911F04B091200426B5A89B05C02F3F4D
:1009A00019F00196A11DB11D3FBFBA2FA92F982F95
:1009B0008827BC01CD01620F711D811D911D42E090
:1009C000660F771F881F991F4A95D1F708958F9258
:1009D0009F92AF92BF92CF92DF92EF92FF924B0124
:1009E0005C010E94C2046B017C010E94C2046C196C
:1009F0007D098E099F09683E734081059105A8F322
:100A000021E0821A9108A108B10888EEC80E83E09F
:100A1000D81EE11CF11C81149104A104B10429F732
:100A2000FF90EF90DF90CF90BF90AF909F908F900E
:100A300008952FB7F8946091190470911A04809169
:100A40001B0490911C042FBF0895FC0120812EBD32
:100A50009B012150310941F051810DB407FEFDCFBA
:100A60004EB55EBD4193F5CF61507109860F971F5A
:100A70000DB407FEFDCF2EB5FC0120830895E09153
:100A80006E04F0916F04808190916D04892B8083B6
:100A90000895E0916E04F0916F04908180916D044F
:100AA00080958923808308958EBD00000DB407FED4
:100AB000FDCF8EB50895AF92BF92CF92DF92EF92A5
:100AC000FF920F931F93CF93DF93CDB7DEB7289795
:100AD0000FB6F894DEBF0FBECDBF8C017B016A015B
:100AE000809171048333E1F45801A40EB51EA01661
:100AF000B10609F46FC00E94490580EF0E945405B9
:100B0000812F0E945405802F0E9454050F5F1F4FB4
:100B1000F70181917F010E9454050E943F05E7CFB4
:100B20005B01A40EB51E8433C1F40E9449051983EC
:100B30000A838D2D80688B83CC8264E070E0CE01C7
:100B400001960E942505AE14BF0409F441C0F701C7
:100B500081917F010E945405F6CF0E9449050F3F05
:100B6000110509F028F419820A8384E08B830CC0F4
:100B700017FD17C019820A8333E0169507953A9539
:100B8000E1F7007E0C600B8386E0C816D104A0F567
:100B9000F701DE011496EA15FB0599F081918D931A
:100BA000FACFC80126E0969587952A95E1F7807ED1
:100BB00019830A830115104C10F48461D7CF8C611E
:100BC000D5CFB6016D5F7F4FCE0101960E942505FE
:100BD0000E943F05C60128960FB6F894DEBF0FBEEF
:100BE000CDBFDF91CF911F910F91FF90EF90DF90DC
:100BF000CF90BF90AF90089563E070E0CE01019672
:100C00000E942505F70181917F010E945405AE14D1
:100C1000BF04C1F7DDCFCF93DF931F92CDB7DEB70F
:100C2000898341E050E0BE016F5F7F4F90E080E03C
:100C30000E945B050F90DF91CF91089590E0209185
:100C40007104233339F40C96982F990F990F990F4B
:100C500080E008954896F8CFDA01E0917204F0E060
:100C6000FE2FEE27E60FF71F90E0982F8827A901A7
:100C7000BD018E0F9F1F0C945B05CF93DF9300D0B7
:100C8000CDB7DEB779836A8322E030E0AE014F5FF3
:100C90005F4F60E170E00E942C060F900F90DF9193
:100CA000CF910895CF93DF9300D0CDB7DEB779838E
:100CB0006A8322E030E0AE014F5F5F4F64E070E096
:100CC0000E942C060F900F90DF91CF910895CF9343
:100CD000DF931F92CDB7DEB72091720430E0322F40
:100CE0002227260F371F90E0982F8827498341E05D
:100CF00050E0BE016F5F7F4F820F931F0E945B0524
:100D00000F90DF91CF910895CF93DF931F92CDB7CE
:100D1000DEB76983DC01ED91FC910280F381E02D67
:100D200041E050E0BE016F5F7F4F09950F90DF916A
:100D3000CF910895CF93DF931F92CDB7DEB769832C
:100D4000DC01ED91FC910280F381E02D41E050E067
:100D5000BE016F5F7F4F09950F90DF91CF9108958E
:100D6000FC019485FB018485981303C081E09430D5
:100D700008F080E00895CF93DF931F92CDB7DEB7E0
:100D80006983DC01ED91FC910280F381E02D41E06B
:100D900050E0BE016F5F7F4F09950F90DF91CF91BB
:100DA00008950895FF920F931F93CF93DF93EB0164
:100DB000FC01178A168A2A81211109C02B81211171
:100DC00006C02C81211103C02D81222301F1411580
:100DD0005105E9F08A01FC01F08C80E591E00E9468
:100DE0002504AE014E5F5F4F24E030E06CE070E020
:100DF0008F2D0E942C06B8018F2D0E943D0681E0A8
:100E000090E0DF91CF911F910F91FF90089580E0C6
:100E1000F7CFFC01848595850895FC018489958927
:100E2000089526E931E0FC0131832083FB014089EC
:100E3000518962897389FC0142835383648375837A
:100E40000895DC01ED91FC91048CF58DE02D099461
:100E50008EBD0DB407FEFDCF0895FF920F931F9333
:100E6000CF93DF93082FF62E142FCCEED4E060E062
:100E700088810E94760480E00E9428078F2D0E94BE
:100E80002807802F84600E942807812F0E9428074E
:100E900061E08881DF91CF911F910F91FF900C94B9
:100EA00076041F93CF93DF93EC01162F472FBC01DD
:100EB00088E00E942D07BE016F5F7F4F412F88E0C1
:100EC000DF91CF911F910C942D07DF92EF92FF924B
:100ED0000F931F93CF93DF93F82EE62ED72EEA01C0
:100EE000890160E08091EC040E9476048D2D0E94BF
:100EF00028078E2D0E9428078F2D84600E942807C6
:100F0000209749F00C0F1D1FC017D107B1F0899130
:100F10000E942807F9CFD0E0C0E0C017D10769F0E0
:100F20003399FECF4298429842984298429889B1AC
:100F3000429A0E9428072196F0CF61E08091EC044C
:100F4000DF91CF911F910F91FF90EF90DF900C9464
:100F500076041EBC0DB407FEFDCF8EB508950F9329
:100F60001F93CF93DF93182F062FCCEED4E060E0D1
:100F700088810E94760480E00E942807802F0E94CA
:100F80002807812F0E9428070E94A907182F61E0D7
:100F900088810E947604812FDF91CF911F910F915C
:100FA00008950F931F93CF938C01BC0188E00E949A
:100FB000AF07C82FB8016F5F7F4F88E00E94AF076F
:100FC0002C2F30E0322F2227820F932F911DCF91AB
:100FD0001F910F910895482F61E070E088E00E9412
:100FE0002D0761E070E088E00E94AF078111F9CF22
:100FF0000895CF92DF92EF92FF920F931F93CF93BA
:10100000DF93EC018B0188E290E00E94D1077C0124
:1010100060E08091EC040E9476048F2D0E942807E6
:101020008E2D0E94280788E10E9428076E01C00EBD
:10103000D11E209759F58FEF8AB9D0E0C0E0C017D4
:10104000D10771F00E94A9073199FECF8BB98BB9F6
:1010500040984098409840984098409A2196EFCF09
:101060001BB81AB861E08091EC040E947604B801C4
:101070006E0D7F1D88E290E0DF91CF911F910F915F
:10108000FF90EF90DF90CF900C945107CC16DD06C7
:1010900049F30E94A9078993F9CF2FEF2AB9319913
:1010A000FECF8BB98BB940984098409840984098B3
:1010B000409A3199FECF9BB99BB94098409840988F
:1010C00040984098409A1BB81AB808958EBD0DB448
:1010D00007FEFDCF8EB508950F931F93CF930E9407
:1010E00019058B018FEF0E946608C82F8F3F39F0DA
:1010F0000E941905601B710B643F714098F381E0F9
:10110000CF3F09F480E080936C0481E090E0CF3F12
:1011100011F090E080E0CF911F910F910895CF934F
:101120009C013E5FFC0140814EBD0DB407FEFDCF2A
:10113000FC0141814EBD0DB407FEFDCF0296821722
:10114000930781F78FEF0E9466088FEF0E94660871
:101150008FEF0E946608C82F8FEF0E94660891E00B
:101160008F3F09F490E090936C04CF7181E090E0A0
:10117000C53011F090E080E0CF91089585B187608F
:1011800085B98FEF0C946608CF93DF9385B190916A
:101190004504911111C09BEF892385B98FEF0E94FF
:1011A00066080E946C08EC01892B41F40E94BE087D
:1011B000CE01DF91CF9108959DEFEECFC1E0D0E059
:1011C000F7CFFF920F931F93CF93DF93C82FD42FA6
:1011D000152F062FF72E87FF09C040E050E0BA0117
:1011E00087E30E94E108823048F5CF77CC3061F583
:1011F0008C2F80640E9466088F2D0E946608802FC5
:101200000E946608812F0E9466088D2F0E94660842
:1012100085E9CC2321F087E8C83009F081E00E94FD
:101220006608CC3019F48FEF0E946608CAE08FEF91
:101230000E94660887FF02C0C150C9F7DF91CF91B5
:101240001F910F91FF9008950E94BE080E94C4084C
:10125000892B71F68FEFF2CFCF92DF92EF92FF9250
:101260000F931F93CF93DF93082FD92EE90180E5C9
:101270008CBDE0914504F0E0E55FFB4F808184FD8B
:1012800007C089E0440F551F661F771F8A95D1F765
:1012900011E1C230D10508F012E1812F0E94E1086E
:1012A000811119C0CC24CA940E9419057B018FEFCB
:1012B0000E9466088F3F01F50E9419056E197F098B
:1012C000683C7105A4F3123131F440E050E0BA01FA
:1012D0008CE00E94E1080E94BE0881E090E0CD2BE6
:1012E00011F490E080E0DF91CF911F910F91FF907A
:1012F000EF90DF90CF9008958E3F29F7E02FFD2DDE
:101300007F018EEFF81ACEBC0DB407FEFDCF8EB56F
:101310008083CEBC0DB407FEFDCF8EB5818332969F
:10132000EE16FF0681F78FEF0E9466088FEF0E948E
:1013300066080E2DDF2C219709F0B6CFC4CF80911F
:101340006C04882331F00E94C408892B11F00C949E
:10135000BE080895CF93DF93EC01E881F9813097BF
:1013600079F0DF019D012F5F3F4F8C918132E0F0DA
:10137000D9018A33B9F7208180ED820F8A3018F0C5
:101380008FEF9FEF0EC03296AE17BF07C9F7022E40
:10139000000C330BC901C097823091058CF7B983DB
:1013A000A883DF91CF91089590E080E0FACF0F936A
:1013B0001F93FC019A01AB012250310941095109E7
:1013C00083899489A589B6890297A109B10928174B
:1013D00039074A075B0778F4A185B2850E94F13886
:1013E00007A110A521A532A5600F711F821F931FB1
:1013F0001F910F91089560E070E0CB01F9CFFC01DF
:101400006281738190E080E0982F872F762F662786
:101410002181622B982F872F762F66272081622BC0
:1014200008952F923F924F925F926F927F928F9288
:101430009F92AF92BF92CF92DF92EF92FF920F9363
:101440001F93CF93DF936C01D42FF52E762E672E4A
:101450004801590110E0C0E08AE0282E312C412CCF
:10146000512C6D2F7F2D872D962DA50194010E9463
:10147000FC38F601EC0FF11D211133C0111106C02B
:1014800031E083169104A104B10479F5CF5F205DAA
:101490002083D62FF72E782E692E11E0C501B401D6
:1014A000A20191010E94FC3849015A018114910462
:1014B000A104B104B1F6C6018C0F911DDF91CF914B
:1014C0001F910F91FF90EF90DF90CF90BF90AF9062
:1014D0009F908F907F906F905F904F903F902F9054
:1014E00008952A3098F229E0D1CFEE20B9F2CF5FEB
:1014F000E082D4CFDC012A2F281BFB0194919D931D
:101500006F5F7F4F9111F7CF822F0895DC01FB01B0
:101510009D918191981304C09111FACF81E00895B3
:1015200080E00895FC01768765870895DC01ED91E0
:10153000FC9102A0F3A1E02D099591E0892708957F
:10154000862F089581E08627089521E0FC01848597
:10155000843008F020E0822F089508952FEF2AB9F3
:101560003199FECF1BB81BB84098409840984098DE
:101570004098409A0197A1F71BB81AB80895809136
:10158000110490911204B0E0A0E029E0880F991FA7
:10159000AA1FBB1F2A95D1F78093060490930704D6
:1015A000A0930804B093090408953399FECF42989C
:1015B000429842984298429889B1429A0895CF93AE
:1015C0000E94D50A809315040E94D50AC82F0E9454
:1015D000D50A982F8C2F90931404809313040E94A3
:1015E000D50AC82F0E94D50A982F8C2F90931204E9
:1015F00080931104CF9108953199FECF9FEF9AB94E
:101600008BB98BB940984098409840984098409A40
:101610001BB81AB8089580E00E94FC0A809111045A
:1016200090911204039720F010921204109211046A
:1016300080911104880F10921104809312048FEF8F
:101640008AB990E080E03199FECFE0911104F091E9
:101650001204E80FF91FE859FF4FE491EBB9EBB919
:1016600040984098409840984098409A019681153B
:1016700022E0920741F71BB81AB80895809115042B
:1016800087FF09C080910A04811108C088E20E9486
:10169000FC0A80E0089580910504F6CF81E008956A
:1016A000089590E080E008950F931F93CF93DF9308
:1016B00000D0CDB7DEB78C0185E191E09A838983B4
:1016C000CE0101960E94AA0997FD1EC0880F991F9E
:1016D000FC01E859FB4F0190F081E02D309709F0B3
:1016E00010820115110511F0F801108288599B4FE5
:1016F000FC011183008390E080E00F900F90DF9158
:10170000CF911F910F9108958BE090E0F6CFCF928B
:10171000DF92EF92FF920F931F93CF93DF938C0191
:101720006A017B01E901209709F471C0E091450449
:10173000F0E0ED5EFE4F808180FD6CC0808182FD17
:101740006BC080E58CBDE0914504F0E0E55FFB4FA8
:10175000808184FD07C099E0CC0CDD1CEE1CFF1CD1
:101760009A95D1F7C130D10559F5B701A60188E1A5
:101770000E94E108882391F0C1E0D0E00E94BE08F9
:1017800081E090E0CD2B09F480E0DF91CF911F91B3
:101790000F91FF90EF90DF90CF9008950E946C081A
:1017A000892B51F38EEF0E946608C8010E948F08B2
:1017B00031E020E0892B09F030E0C32FD22FDECFBB
:1017C0008C7031F0AE0170E060E087E90E94E108C2
:1017D000B701A60189E10E94E1088111CFCF0E94E3
:1017E0006C08892B59F08CEF0E946608C8010E9492
:1017F0008F08892B19F01E5F219789F70E946C08CA
:10180000892B09F4B9CF8DEF0E946608B7CF84E029
:1018100090E0BBCF83E0FCCF82E0FACF8F929F9223
:10182000AF92BF92CF92DF92EF92FF920F931F93EE
:10183000CF93DF93EC014BA55CA56DA57EA58C0134
:10184000015D1F4F89818093450421E030E0C8018C
:101850000E94870B892B61F51B824BA55CA56DA5AA
:101860007EA58F89988DA98DBA8DCF8CD8A0E9A03F
:10187000FAA04A015B018C189D08AE08BF087501EB
:101880006401C816D906EA06FB0678F42A812230DC
:1018900061F4298120934504480F591F6A1F7B1F5B
:1018A00021E030E0C8010E94870B90E080E002C098
:1018B00081E090E0DF91CF911F910F91FF90EF9029
:1018C000DF90CF90BF90AF909F908F900895FC01D4
:1018D000238121110C940E0C90E080E00895CF92AA
:1018E000DF92EF92FF920F931F93CF93DF93EC0160
:1018F0006A017B018BA59CA5ADA5BEA510E000E00B
:101900008C159D05AE05BF0519F1CE010E94670C2F
:101910008C01892BE9F4E981E0934504F0E0ED5E68
:10192000FE4F808180FD0AC021E030E0B701A601B2
:10193000CE018F960E942C09892B31F001E010E036
:10194000CC24CA94DC2C7601CBA6DCA6EDA6FEA6A0
:10195000C801DF91CF911F910F91FF90EF90DF9021
:10196000CF900895AF92BF92CF92DF92EF92FF9205
:101970000F931F93CF93DF9342305105610571059B
:1019800008F4A9C0FC010389148925893689401708
:1019900051076207730708F09EC06A017B01EC01E2
:1019A0008081823009F457C0833009F471C08130DE
:1019B00009F091C08A0116950795040F151FC801FB
:1019C000892F99278695478D50A161A172A1480F53
:1019D000591F611D711DCF010E946F0C892B71F081
:1019E0006FEF7FEFCB01DF91CF911F910F91FF90B0
:1019F000EF90DF90CF90BF90AF9008955801FFEF28
:101A0000AF1ABF0A1170FE01E00FF11F17A5C50143
:101A1000892F992786954F8D58A169A17AA1480FE2
:101A2000591F611D711DCE010E946F0C892BC1F6DB
:101A300081E0B822CA0DDB1D6FA5762F612FC0FE95
:101A400008C0E4E076956795EA95E1F790E080E0DC
:101A5000CACF7F70FBCF77276F2D5E2D4D2D878DE1
:101A600090A1A1A1B2A1480F591F6A1F7B1FCF01EE
:101A70000E946F0C892B09F0B3CFCC0CDD1CE894CD
:101A8000C0F8E1E0DE22CC0DDD1D6FA578A9DECF28
:101A9000878D90A1A1A1B2A137E076956795579562
:101AA00047953A95D1F7480F591F6A1F7B1FCF0101
:101AB0000E946F0C892B09F093CFAF96C601880F57
:101AC000991F880F991F8C7F91708C0F9D1F0E940A
:101AD000FF099F7088CF61E070E080E090E083CFE5
:101AE0008F929F92AF92BF92CF92DF92EF92FF922E
:101AF0000F931F93CF93DF938C01FC01C081D181A1
:101B000016861786108A118AC680D780E084F184F1
:101B1000C114D104E104F104D1F58881833040F08F
:101B20008BA19CA1ADA1BEA10097A105B10589F52E
:101B30008F819885892B79F482E090E0DF91CF91B5
:101B40001F910F91FF90EF90DF90CF90BF90AF90DB
:101B50009F908F9008958BA19CA1ADA1BEA1F8018B
:101B6000868B978BA08FB18FF801C28AD38AE48AC3
:101B7000F58A86899789A08DB18D892B8A2B8B2B2D
:101B8000D9F2AF96D38FC28F90E080E0D7CFD70144
:101B9000C60189849A84B12CA12C29E0880C991C57
:101BA000AA1CBB1C2A95D1F76C017D01B701A601C7
:101BB00081149104A104B10449F0CE010E94D70917
:101BC000F801668B778B808F918FCECFF801808163
:101BD00091810E94B20C6B017C01FFEFCF16DF06F2
:101BE000EF06FF0689F082E0C816D104E104F10493
:101BF00008F4A2CF8B899C89AD89BE89C816D90605
:101C0000EA06FB0698F298CF81E090E097CF2F92FA
:101C10003F924F925F926F927F928F929F92AF927C
:101C2000BF92CF92DF92EF92FF920F931F93CF93C9
:101C3000DF9300D000D000D0CDB7DEB79E838D8378
:101C40006A017B0128013901DC018C91823009F4A1
:101C500097C0833009F4B6C0813009F0F4C08A011E
:101C600016950795040F151FC801892F992786958A
:101C70005F964D915D916D917C919297480F591FA0
:101C8000611D711DCD010E946F0C5C01892B09F053
:101C900056C02D803E80BFE22B0E311C4801EFEF75
:101CA0008E1A9E0A1170F101E00FF11F842DA70119
:101CB0009601217033274427552729833A834B8384
:101CC0005C83C0FE07C080818F7040E1449E90011C
:101CD0001124822B808381E0AD81BE8113968C9389
:101CE00013975F964D915D916D917C919297C40190
:101CF000892F99278695480F591F611D711DCD01A8
:101D00000E946F0C5C01892BD1F4B1E09B22F101A0
:101D1000E80DF91D29813A814B815C81232B242B0D
:101D2000252B39F164E076946794579447946A952B
:101D3000D1F7408281E0AD81BE8113968C93C501BD
:101D400026960FB6F894DEBF0FBECDBFDF91CF91C0
:101D50001F910F91FF90EF90DF90CF90BF90AF90C9
:101D60009F908F907F906F905F904F903F902F90BB
:101D700008958081807F352D3F70432E482AD9CF2A
:101D800077276F2D5E2D4D2DED81FE81878D90A1E2
:101D9000A1A1B2A1480F591F6A1F7B1FCF010E944A
:101DA0006F0C5C01892B59F6ED81FE81BF96CC0C3E
:101DB000DD1CE894C0F821E0D222EC0DFD1D00836B
:101DC0005182B8CFED81FE81878D90A1A1A1B2A1F2
:101DD00037E076956795579547953A95D1F7480F2F
:101DE000591F6A1F7B1FCF010E946F0C5C01892B5A
:101DF00009F0A5CFFFE07F228D819E818F96CC0CCC
:101E0000DD1CCC0CDD1C2CEFC22221E0D222C80E3E
:101E1000D91EC6010E94FF09662777278827907F71
:101E2000462A572A682A792AD6014C9211965C9242
:101E3000119712966C92129713967C9281E0ED8125
:101E4000FE8183837CCF82E0A82EB12C78CF4F9285
:101E50005F926F927F928F929F92AF92BF92CF923A
:101E6000DF92EF92FF920F931F93CF93DF938C013A
:101E70002A013B01FC01C081D1814114510461045C
:101E8000710409F58B849C84AD84BE848114910413
:101E9000A104B10409F44DC08B899C89AD89BE8928
:101EA00088169906AA06BB0608F043C08F85988954
:101EB000A989BA89892B8A2B8B2B09F03FC0C12CA9
:101EC000D12C760116C0CE010E94B20C6B017C01B0
:101ED000F2E0CF16D104E104F10408F40CC12FEFB5
:101EE000C216D206E206F206B9F4CC24CA94DC2C5F
:101EF0007601C701B601DF91CF911F910F91FF903D
:101F0000EF90DF90CF90BF90AF909F908F907F9099
:101F10006F905F904F9008958B899C89AD89BE89A1
:101F200053014201C816D906EA06FB0608F0BECFE7
:101F3000E0CF812C912C54018394B8CF8414950464
:101F4000A604B70409F041C0750164018FEFC81AF7
:101F5000D80AE80AF80A8B899C89AD89BE89C81617
:101F6000D906EA06FB0628F022E0C22ED12CE12C8D
:101F7000F12CB701A601F801808191810E94B20C79
:101F8000613071058105910509F4B5C06F3FFFEF20
:101F90007F078F079F0709F4A8CF672B682B692B52
:101FA00009F44DC08B859C85AD85BE858230910539
:101FB000A105B10550F04B895C896D897E89841734
:101FC0009507A607B70708F478C0750164012FEFDD
:101FD000C21AD20AE20AF20A8B899C89AD89BE89AB
:101FE000C816D906EA06FB0660F082E0881691045E
:101FF000A104B10408F463CF92E0C92ED12CE12CE6
:10200000F12CB701A601F801808191810E94B20CE8
:102010006115710581059105B9F061307105810582
:10202000910509F468C06F3F7F4F8F4F9F4F09F4B0
:102030005CCFC814D904EA04FB0449F640CFC114AC
:10204000D104E104F10409F222E0C216D104E10452
:10205000F10408F450C08B899C89AD89BE89C816EB
:10206000D906EA06FB0608F046C00FEF1FEF9801FD
:10207000B701A601CE010E94070E0097C9F54114D1
:10208000510461047104E1F4CB86DC86ED86FE86A2
:102090008F859889A989BA894B895C896D897E89E0
:1020A0004250510961097109481759076A077B07AE
:1020B00038F58C8181608C831CCF4C015D0185CF0C
:1020C00082E04816510461047104A8F08B899C8950
:1020D000AD89BE89481659066A067B0660F49701E9
:1020E0008601B301A201CE010E94070E009761F2A2
:1020F000019709F4FACEC12CD12C7601C394F9CE04
:102100000197A109B1098F87988BA98BBA8BD1CF81
:102110004F925F926F927F928F929F92AF92BF92F7
:10212000CF92DF92EF92FF920F931F93CF93DF93A3
:1021300000D000D000D0CDB7DEB76B017C01CE015E
:1021400001960E9447048C01892B09F0F4C000918C
:10215000550410E00115110509F0EDC080915004FF
:1021600090915104A0915204B09153048C159D0597
:10217000AE05BF0530F42091540421FD02C06C016E
:102180007D01409056045090570460905804709020
:102190005904109256041092570410925804109249
:1021A0005904C114D104E104F10439F480E090E051
:1021B000DC01C12CD12C760180C0E981FA818184B7
:1021C0009284B12CA12C39E0880C991CAA1CBB1C50
:1021D0003A95D1F7411451046104710409F48AC09D
:1021E00081E0481A510861087108C701B6016150C1
:1021F000710981099109A50194010E94FC382B8382
:102200003C834D835E83C301B201A50194010E940A
:10221000FC388B819C81AD81BE8182179307A40716
:10222000B50708F467C088279927DC018819990940
:10223000AA09BB0984219521A621B72180935604C0
:1022400090935704A0935804B0935904C81AD90A1C
:10225000EA0AFB0A40915A0450915B0460915C04C5
:1022600070915D04411551056105710509F0E4C0E7
:10227000C12CD12C76018091560490915704A091E5
:102280005804B09159044091500450915104609108
:10229000520470915304481759076A077B0768F482
:1022A0008093500490935104A0935204B09353042C
:1022B000209154042064209354049170AA27BB27D2
:1022C000892B8A2B8B2BB9F180915E0490915F044E
:1022D000A0916004B09161048C159D05AE05BF0509
:1022E00051F1C0925E04D0925F04E0926004F092DB
:1022F000610421C040914C0450914D0460914E0402
:1023000070914F04411551056105710509F03FC0F9
:1023100040E050E0BA0186E494E00E94270FAB0150
:10232000BC014130510561057105E9F482E08093FB
:10233000550402E010E0C80126960FB6F894DEBFFF
:102340000FBECDBFDF91CF911F910F91FF90EF9006
:10235000DF90CF90BF90AF909F908F907F906F90C5
:102360005F904F9008954F3F9FEF59076907790796
:1023700031F481E08093550401E010E0DCCF40931C
:102380004C0450934D0460934E0470934F0440935B
:102390005A0450935B0460935C0470935D0462CFB5
:1023A000C818D908EA08FB08880D991DAA1DBB1D8D
:1023B0008093560490935704A0935804B093590403
:1023C0008091540481FF0FC086E494E00E94270F9F
:1023D000AB01BC01411551056105710561F4C12CCA
:1023E000D12C760137C080914604909147040E9419
:1023F000B20CAB01BC014F3FAFEF5A076A077A0737
:1024000009F4B7CF423051056105710508F48ECF4C
:10241000E981FA8183899489A589B6894817590782
:102420006A077B0708F082CF40935A0450935B04FD
:1024300060935C0470935D048091560490915704FE
:10244000A0915804B09159048C149D04AE04BF04AB
:1024500008F4A6CF8091560490915704A091580497
:10246000B09159048C0D9D1DAE1DBF1D8093560467
:1024700090935704A0935804B0935904D701C60110
:102480009170AA27BB27892B8A2B8B2B09F4F0CEBE
:1024900089819A810E94D70961157105810591058D
:1024A00009F444CF29E0F694E794D794C7942A9589
:1024B000D1F7C60ED71EE81EF91EDDCE2F923F9231
:1024C0004F925F926F927F928F929F92AF92BF9244
:1024D000CF92DF92EF92FF920F931F93CF93DF93F0
:1024E00000D000D0CDB7DEB75C017C836B83FB01ED
:1024F00011821082CE0101960E9447046C01892B43
:1025000009F05FC1C0905504D12CC114D10409F069
:1025100058C18091540481FFC6C1809156049091A6
:102520005704A0915804B09159047C01E094F094B0
:1025300081159E4FAF4FBF4F08F0F2C0E12C92E0E3
:10254000F92EEEC040915A0450915B0460915C04F6
:1025500070915D0427C1613071058105910539F4E1
:1025600082E08093550462E0C62ED12C2AC16F3FD1
:102570003FEF73078307930739F481E08093550495
:10258000CC24C394D12C1DC160935A0470935B0476
:1025900080935C0490935D0400914C0410914D0471
:1025A00020914E0430914F04012B022B032B41F458
:1025B00060934C0470934D0480934E0490934F04A9
:1025C00089819A81FC0103A514A525A536A5409112
:1025D0005E0450915F04609160047091610404177F
:1025E00015072607370721F40E94670C892B29F667
:1025F00089809A8040915A0450915B0460915C04F8
:1026000070915D04C4010E94D709611571058105AF
:10261000910509F4A5CF2B013C01420C531C611C10
:10262000711C8701012F112706950115110509F469
:10263000E0C0F401818592859101200F311F82173E
:10264000930718F48C0102191309F4018181809316
:1026500045049801B301A201C5010E94870B892B93
:1026600009F08BCF89819A81FC0143A554A565A50A
:1026700076A544195509660977092801712C612C42
:10268000441555056605770588F4DC019F96FA0127
:10269000FE2FEE27FF0FEA0DFB1D20E032E0019038
:1026A0000D9221503040D9F7FC011382102F0027E2
:1026B000110FE01AF10AEB81FC8180819181800F7A
:1026C000911F91838083A00EB11E8091560490913A
:1026D0005704A0915804B0915904800F911FA11D77
:1026E000B11D8093560490935704A0935804B0935F
:1026F00059044091500450915104609152047091DA
:102700005304481759076A077B0710F4AC01BD0151
:1027100040935004509351046093520470935304B7
:10272000E114F10409F448C08091560490915704D3
:10273000A0915804B0915904AC01BD0151706627B5
:102740007727452B462B472B09F07CC0E981FA817E
:102750002184328421E0221A3108AC01BD01E9E074
:102760007695679557954795EA95D1F724223522B6
:102770002114310409F024CF892B8A2B8B2B09F0EB
:10278000E1CE60914C0470914D0480914E04909183
:102790004F04611571058105910509F0DCCE40E01B
:1027A00050E0BA0186E494E00E94270F611571059C
:1027B0008105910509F0CFCE809154048064809307
:1027C0005404C6010F900F900F900F90DF91CF919E
:1027D0001F910F91FF90EF90DF90CF90BF90AF903F
:1027E0009F908F907F906F905F904F903F902F9031
:1027F0000895409156045091570460915804709187
:1028000059048091500490915104A0915204B091C8
:102810005304481759076A077B0760F0C4010E94F8
:10282000670C892B09F0A9CEE981FA8143A654A649
:1028300065A676A640925E0450925F0460926004A2
:10284000709261048091560490915704917020E039
:1028500032E0281B390B87012E153F0508F489014A
:1028600040915E0450915F04609160047091610436
:1028700089819A810E946F0C892B09F07ECE298173
:102880003A81215D3F4F8091560490915704917099
:10289000A801B501820F931F0E944039E981FA8196
:1028A00031E0338306CF87E0C82ED12C8ACF2F9218
:1028B0003F924F925F926F927F928F929F92AF92D0
:1028C000BF92CF92DF92EF92FF920F931F93CF931D
:1028D000DF9300D000D0CDB7DEB74C016B015C8335
:1028E0004B83DA011D921C92CE0101960E9447048F
:1028F0007C01892B09F06BC0E0905504F12CE114A8
:10290000F10409F064C08091540480FF5EC180919D
:10291000500490915104A0915204B09153044091FD
:102920005604509157046091580470915904841BC7
:10293000950BA60BB70BA60170E060E08417950716
:10294000A607B70708F46C01C114D10409F43FC00D
:102950008091560490915704A0915804B091590465
:10296000AC01BD01517066277727452B462B472BBD
:1029700009F0FEC0E981FA81A184B284E1E0AE1AD7
:10298000B108AC01BD01E9E076956795579547958B
:10299000EA95D1F7A422B522A114B10409F053C0DD
:1029A000892B8A2B8B2B59F560914C0470914D0427
:1029B00080914E0490914F0462307105810591051C
:1029C00068F582E08093550452E0E52EF12CC701B2
:1029D0000F900F900F900F90DF91CF911F910F915B
:1029E000FF90EF90DF90CF90BF90AF909F908F902F
:1029F0007F906F905F904F903F902F9008954091FF
:102A00005A0450915B0460915C0470915D04809164
:102A10004604909147040E94B20CCECF6F3FFFEF67
:102A20007F078F079F0739F481E080935504EE24D8
:102A3000E394F12CCCCF60935A0470935B048093A1
:102A40005C0490935D0429803A8040915A0450912F
:102A50005B0460915C0470915D04C1010E94D70920
:102A6000611571058105910509F4ABCF2B013C017E
:102A70004A0C5B1C611C711C8601012F11270695F5
:102A80000115110509F46CC0D10119968D919C9125
:102A90009501200F311F8217930718F48C010A1932
:102AA0001B09D1011196EC91E09345040115110524
:102AB00009F4BACFF0E0ED5EFE4F808180FDB4CF27
:102AC0009801B301A201C4010E942C09892B09F0CD
:102AD000ABCFE981FA8183818823E9F083A594A5AE
:102AE000A5A5B6A584199509A609B709A80170E09E
:102AF00060E084179507A607B70768F4DC01BA2FD2
:102B0000AA27BB0FA80DB91DBF9680E092E00190E7
:102B10000D920197E1F7102F0027110FC01AD10A6B
:102B2000AB81BC818D919C911197800F911F8D93EA
:102B30009C93800E911E8091560490915704A09111
:102B40005804B0915904800F911FA11DB11D8093AD
:102B5000560490935704A0935804B0935904F4CEAC
:102B600040925E0450925F0460926004709261042F
:102B700080915604909157049170E0E0F2E0E81BD8
:102B8000F90B8601EC15FD0508F48F0140915E04F8
:102B900050915F04609160047091610489819A8111
:102BA0000E946F0C892B09F03FCF69817A81615DAA
:102BB0007F4F80915604909157049170680F791F50
:102BC000A801C4010E944039A9CF87E0E82EF12C6A
:102BD000FECECF92DF92EF92FF920F931F93CF938F
:102BE000DF9300D0CDB7DEB78C01C0905004D090F9
:102BF0005104E0905204F090530460E074E080E0EF
:102C000090E00E948810892BF1F5AE014F5F5F4F75
:102C100060E370E0C80180539E4F0E945714892BD7
:102C200091F589819A81C09771F5F801EC52FE4FB8
:102C3000208180EF2827203130F5EF5BF14090E0D4
:102C4000DF01A054BE4F8C91921750F530EE380F33
:102C50003B3530F581939F5F9F3091F7F801E75046
:102C6000FE4F80819181B0E0A0E029E0880F991F9C
:102C7000AA1FBB1F2A95D1F78C159D05AE05BF0570
:102C800010F46C017D01C701B6010F900F90DF9128
:102C9000CF911F910F91FF90EF90DF90CF9008950B
:102CA00080E2D8CF8F929F92AF92BF92EF92FF9225
:102CB0000F931F93CF93DF93CDB7DEB7A1970FB6D6
:102CC000F894DEBF0FBECDBF7C01FA01CB0119A283
:102CD000223008F42AE08E010F5D1F4F822E912CC6
:102CE000B12CA12CBF01A50194010E94FC38F9016F
:102CF000CA016A3074F5605DD8016E938D01232B93
:102D0000242B252B79F790E080E0109789F0FD01C6
:102D100001900020E9F73197AF014A1B5B0BD70107
:102D2000ED91FC910280F381E02DB801C701099576
:102D3000A1960FB6F894DEBF0FBECDBFDF91CF9145
:102D40001F910F91FF90EF90BF90AF909F908F9049
:102D50000895695CD1CF8F929F92AF92BF92CF922C
:102D6000DF92EF92FF920F931F93CF93DF937C013B
:102D7000EB016C0182E0C80ED11C4701E5E08E0E2C
:102D8000911C10E000E0F60141916F0150E070E00D
:102D900060E02AE0CE010E9452165C01E881F981D0
:102DA0000190F081E02D6EE2CE0109958A0D9B1D08
:102DB000080F191FC814D90431F7F701458150E0F5
:102DC00070E060E02AE0CE010E945216800F911F51
:102DD000DF91CF911F910F91FF90EF90DF90CF90F7
:102DE000BF90AF909F908F900895AF92BF92CF9277
:102DF000DF92EF92FF920F931F93CF93DF9300D058
:102E000000D0CDB7DEB78C016B017A0180917104DF
:102E10008333E9F45B016801C40ED51EC016D106E8
:102E2000A9F10E9449058FE00E945405812F0E945C
:102E30005405802F0E9454050F5F1F4F80E00E94B1
:102E40005405F50181935F010E943F05E7CF84336C
:102E500069F50E94490519830A838F2D8F778B832B
:102E6000EC8264E070E0CE0101960E942505A70186
:102E700070E060E0C6010E944939E114F10421F0DC
:102E8000B701C6010E9425050E943F05C7010F90AA
:102E90000F900F900F90DF91CF911F910F91FF90A6
:102EA000EF90DF90CF90BF90AF9008950E944905BA
:102EB0000F3F110509F030F419820A831B8263E089
:102EC00070E0D1CF17FD0BC019820A8333E016954D
:102ED00007953A95E1F7007E08600B83F0CFC801B3
:102EE00026E0969587952A95E1F7807E19830A83D7
:102EF0000115104C18F480618B83E1CF8861FCCF01
:102F0000CF93DF931F92CDB7DEB72091720430E0EC
:102F1000322F2227260F371F90E0982F882741E075
:102F200050E0BE016F5F7F4F820F931F0E94F51626
:102F300089810F90DF91CF910895CF93C82F462FAD
:102F400061E070E00E94670661E070E08C2F0E94F3
:102F500080178111F9CFCF910895CF93C82F80E5C5
:102F600091E00E94250468E070E08C2FCF910C94D2
:102F70009D17CF93C82F80E591E00E94250460E162
:102F800070E08C2FCF910C949D17CF93DF93EC01C1
:102F9000888D843020F40E94B91784E0888FDF91F7
:102FA000CF91089563E070E00C948017CF93C82F01
:102FB00080E591E00E9425048C2FCF910C94D217CC
:102FC000EF92FF920F931F93CF937C010DE314E0D8
:102FD000C0E0F801219131918F01F7018481958141
:102FE0002817390729F0CF5FC43099F780E006C071
:102FF0008C2F0E94D6178431B1F781E0CF911F91B9
:103000000F91FF90EF900895CF93DF93EC018C85A3
:103010008430D0F40E94D617843189F0882379F067
:10302000883169F021E08C3159F4E881F98100841C
:10303000F185E02DCE01099521E0892B09F420E0EE
:10304000822FDF91CF91089580E0FBCFCF92DF9266
:10305000EF92FF92CF93DF93EC018C85843068F47C
:103060000E94AD170E9419056B017C018C850E949E
:10307000D617811109C084E08C87DF91CF91FF9032
:10308000EF90DF90CF90089561E070E080E090E0F5
:103090000E94E7040E941905AB01BC014C195D09AF
:1030A0006E097F098D859E85B0E0A0E0481759071D
:1030B0006A077B07D8F28C850E94B917DCCFCF93C3
:1030C000FC01C08D80E591E00E94250460E270E083
:1030D0008C2F0E949D1762E070E08C2F0E94801759
:1030E00084FD16C062E070E08C2F0E94801783FF81
:1030F0000AC048E162E070E08C2F0E94670680E021
:1031000090E0CF91089580E591E00E942504E3CFFF
:1031100040E162E070E08C2F0E94670681E0F0CF12
:10312000CF93DF931F92CDB7DEB741E050E0BE01F1
:103130006F5F7F4F90E080E00E94F51689810F90CD
:10314000DF91CF910895CF93DF93C4E1D0E00E9447
:103150009018882361F061E070E080E090E00E94C8
:10316000E7042197A1F780E0DF91CF91089581E0F6
:10317000FBCFCF92DF92EF92FF920F931F93CF93EB
:10318000DF93CDB7DEB7C454D1090FB6F894DEBFD4
:103190000FBECDBFFC0182819381A481B5812396AE
:1031A0008CAF9DAFAEAFBFAF239721E023962FAF7B
:1031B000239723964CAD5DAD6EAD7FAD23974BABA2
:1031C0005CAB6DAB7EAB89AF9AAFABAFBCAF8DA73D
:1031D0009EA7AFA7B8AB28AB4DA55EA56FA578A9F4
:1031E0004FA358A769A77AA72EAB4BA95CA96DA9D5
:1031F0007EA949A35AA36BA37CA38B8F9C8FAD8F11
:10320000BE8F46E951E05C8B4B8B3FEF3D8B3E8B95
:103210003F8B188E5E874D872AA7CFA0D8A4E9A43C
:10322000FAA4CF86D88AE98AFA8A2CA309A11AA11E
:103230002BA13CA109871A872B873C875A83498396
:103240008B839C83AD83BE83809173048111ADC059
:1032500060E372E080E090E00E94E7041FB7F8941A
:1032600080917004811124C0E6EDF7E08491EAEECC
:10327000F7E09491E82FF0E0EE0FFF1FEE53F84FC8
:10328000A591B491EC91E92321F461E08AE00E94D8
:1032900076048AE00E9428048CB580618CBD8CB5D0
:1032A00080648CBD8DE00E9428048BE00E9428047D
:1032B000809170048F5F809370041FBF809118010C
:1032C000282F30E0F901E453F84FE491F0E0EE0FDD
:1032D000FF1FE854F84F4591549150936F04409369
:1032E0006E04F901E052F84FE491E0936D040E94FE
:1032F00028040E943F0580E591E00E94250484E3B4
:103300008093710480E80E940B060E94A318882312
:1033100009F481C088E00E940B060E949018883052
:1033200009F079C080E10E940B060E94901880315C
:1033300009F071C080E00E940B060E949018182FBF
:10334000811169C041E050E0BE016D5B7F4F8FE1AC
:1033500090E00E94F51624968FAD2497833009F0F3
:103360005AC080E48093720442E06EE170E0812FE5
:103370000E94670642E06FE170E0812F0E946706BD
:103380001F5F143089F740E06EE170E0812F0E94EA
:10339000670640E06FE170E0812F0E9467061F5FC3
:1033A000183089F781E08093730480E591E00E94F2
:1033B000250446E050E069E171E089E090E00E9478
:1033C0005B0544E050E0BE016D5F7F4F8FE090E011
:1033D0000E945B0544E050E0BE01615F7F4F81E0E9
:1033E00090E00E945B0544E050E0BE016B5E7F4FC1
:1033F00085E090E00E945B0581E08C8789859A8555
:10340000AB85BC858093940490939504A093960417
:10341000B09397046FC087E38093710480E80E94A3
:103420000B060E94A318882339F188E00E940B063E
:103430000E949018883001F580E10E940B060E94DE
:103440009018182F8031C1F480E00E940B060E9472
:103450009018811111C041E050E0BE016D5B7F4FBB
:1034600089E390E00E94F51624968FAD249784306E
:1034700019F41093720496CF83E38093710480E86B
:103480000E940B060E94A318882391F180E10E94FC
:103490000B060E949018803159F582E10E940B06BC
:1034A0000E949018823121F580E00E940B060E9454
:1034B000901881111DC084E08093720415E5259653
:1034C0001FAF259741E050E0BE016C5B7F4F8BE161
:1034D00090E00E945B0524961FAF249741E050E0E6
:1034E000BE016D5B7F4F8AE190E00E945B055ACF81
:1034F00010927104CC5BDF4F0FB6F894DEBF0FBEA5
:10350000CDBFDF91CF911F910F91FF90EF90DF9092
:10351000CF9008951F93CF93DF931F92CDB7DEB75F
:10352000182F80E591E00E942504812F0E941E063D
:1035300027E0129FF0011124EF5DFB4F22813381C0
:10354000377041E050E0BE016F5F7F4F820F931FE5
:103550000E94F51689810F90DF91CF911F910895F8
:10356000FC01808D843040F4218D328D232B21F09D
:103570000E948A1A90E008958FEF9FEF0895CF93ED
:10358000DF93FC012485243028F08FEF9FEFDF913B
:10359000CF910895EC010190F081E02D0084F18538
:1035A000E02D0995892B89F38C850E948A1A90E079
:1035B000EECFDA01E0917204F0E0FE2FEE27E60F85
:1035C000F71F90E0982F8827A901BD018E0F9F1F3C
:1035D0000C94F5168F929F92AF92BF92CF92DF928A
:1035E000EF92FF921F93CF93DF93CDB7DEB72C9767
:1035F0000FB6F894DEBF0FBECDBF2091710414E06A
:10360000222329F16B017C0180E591E00E942504D1
:103610005E0127E0A20EB11C450110E0812F0E943F
:10362000D217F40181934F01882349F11F5F1430B1
:10363000A9F710E0F50181915F018D31D9F0883152
:10364000C9F08A518230B0F01F5F143099F7812F92
:103650002C960FB6F894DEBF0FBECDBFDF91CF9191
:103660001F91FF90EF90DF90CF90BF90AF909F9011
:103670008F90089560E170E0812F0E949D17A12E28
:10368000B12CF501EE0FFF1FE35CFB4F118210829E
:1036900083EE93E00197F1F742E870E060E0812F5C
:1036A0000E9467064FEF62E070E0812F0E9467067C
:1036B000B601C114D10491F48091110190911201CD
:1036C00001968115F0EC9F0708F45CC090931201FD
:1036D000809311016091110170911201812F0E945C
:1036E000520686E0EBE2F1E0DE01119601900D92C8
:1036F0008A95E1F7F70183818F778C8384818D83AD
:1037000085818E83A7014E5F5F4F24E030E06CE03F
:1037100070E0812F0E942C06B601812F0E943D0689
:1037200026E030E0AE014F5F5F4F66E070E0812F32
:103730000E942C0661E070E0812F0E949D1727E017
:103740002A9DC0012B9D900D11249C012F5D3B4FA4
:103750007901F9011182108222E030E0AE01455F6B
:103760005F4F68E270E0812F0E94D91A8B859C859B
:10377000982789279827F7019383828316821582D9
:10378000148265CF80E090ECA1CFCF92DF92EF92D0
:10379000FF920F931F93CF93DF9300D000D000D000
:1037A000CDB7DEB78C016B017A01FC01808D8430CE
:1037B00010F40E94B91786E991E09A838983F60193
:1037C00082819381A481B5818B839C83AD83BE83E9
:1037D000B701CE0101960E94EA1AF801808F843069
:1037E000A0F4F586E486128E118E81E026960FB63F
:1037F000F894DEBF0FBECDBFDF91CF911F910F9127
:10380000FF90EF90DF90CF90089580E0EFCFAF92E0
:10381000BF92CF92DF92EF92FF920F931F93CF93BD
:10382000DF9300D000D000D0CDB7DEB7082F6B01FA
:1038300080E591E00E9425049E012F5F3F4F7901B2
:10384000590110E0812F0E94D217F50181935F0189
:10385000882341F11F5F1430A9F710E0F70181912F
:103860007F018D31D1F08831C1F08A518230A8F0CA
:103870001F5F143099F7812F26960FB6F894DEBF9C
:103880000FBECDBFDF91CF911F910F91FF90EF90B1
:10389000DF90CF90BF90AF90089560E170E0812FEE
:1038A0000E949D17E12EF12CF701EE0FFF1FE35C44
:1038B000FB4F1182108283EE93E00197F1F7402FC6
:1038C00070E060E0812F0E9467064FEF62E070E0D9
:1038D000812F0E946706B601CD2889F480911101DD
:1038E0009091120101968115F0EC9F0798F1909349
:1038F0001201809311016091110170911201812FC9
:103900000E94520661E070E0812F0E949D1727E01F
:103910002E9DC0012F9D900D11249C012F5D3B4FCA
:103920007901F9011182108222E030E0AE014B5F93
:103930005F4F68E270E0812F0E94D91A8D819E81CD
:10394000982789279827F701938382831682158207
:10395000148291CF80E090ECCACFCF92DF92EF92A9
:10396000FF921F93CF93DF93EC017B016A018C855B
:10397000843048F40E94D617882319F08C850E9461
:10398000AD1784E08C87F70182819381A481B58192
:103990000097A105B10551F490E080E0DF91CF914F
:1039A0001F91FF90EF90DF90CF9008958F3F9F4F32
:1039B000AF4FBF4F89F380917104811103C084E040
:1039C0008C87EACF70E060E081E20E94071C182F2C
:1039D0008C87843008F780E591E00E942504A701D8
:1039E0004E5F5F4F24E030E06CE070E0812F0E947A
:1039F0002C06B601812F0E943D0664E070E0812F05
:103A00000E949D170E9419056B017C018C850E9404
:103A1000D617873109F18C31F9F0882309F4BCCF2E
:103A20000E941905AB01BC014C195D096E097F09A3
:103A30008D859E85B0E0A0E084179507A607B7079F
:103A400038F061E070E080E090E00E94E704DECFB3
:103A50008C850E94B917B3CF81E090E09FCF0F9380
:103A60001F93CF93DF93EC018B01888D843010F48A
:103A70000E94B91780917104811107C094E0988F5A
:103A8000DF91CF911F910F910895B80182E00E94BC
:103A9000071C888F843030F41D870C871A8E198E8E
:103AA00081E0EECF80E0ECCF0F931F93CF93209176
:103AB0007104222349F18C01FC016481758181E24A
:103AC0000E94071CC82F8430F8F480E591E00E9422
:103AD00025048C2F0E94D217833131F08C2FCF9187
:103AE0001F910F910C94AD1762E070E08C2F0E9433
:103AF0009D17F80184819581EC2FF0E0EE0FFF1FF8
:103B0000E35CFB4F91838083CF911F910F910895C8
:103B1000BF92CF92DF92EF92FF920F931F93CF93BA
:103B2000DF93EC016B018091710481111FC01B8236
:103B30001A8288EE93E0A0E0B0E08C839D83AE8390
:103B4000BF8384E691E09983888384E08C8788EE44
:103B500093E09E878D87CE01DF91CF911F910F91CA
:103B6000FF90EF90DF90CF90BF9008958DE3E82E07
:103B700084E0F82EB12C04E010E0F701219131919E
:103B80007F01F601848195812817390771F4812F0F
:103B90000E94D617043009F5873111F08C31E9F411
:103BA000F701329711821082012F1F5F143029F71D
:103BB000B11003C0C6010E94541D1B821A8288EEF8
:103BC00093E0A0E0B0E08C839D83AE83BF8384E666
:103BD00091E0998388830C87BACF843139F08111C1
:103BE000E4CFF701329711821082DFCFBB24B39468
:103BF000DCCFCF92DF92EF92FF921F93CF93DF93B0
:103C0000CDB7DEB72F970FB6F894DEBF0FBECDBF8E
:103C1000182F98EBC92E9BE0D92E882319F08AE043
:103C2000C82ED12CF12CE12C6AED74E0CE01019666
:103C30000E94881D8B819C819093BF048093BE0459
:103C40008D819E81AF81B8858093C0049093C1041B
:103C5000A093C204B093C30489859A85AB85BC85C3
:103C60008093C4049093C504A093C604B093C70482
:103C70008D858093C8048E859F859093CA04809318
:103C8000C9048CEB94E00E9404188823E9F0112306
:103C900099F08CEB94E00E942618812F2F960FB696
:103CA000F894DEBF0FBECDBFDF91CF911F91FF9083
:103CB000EF90DF90CF90089588E893E19093CA0445
:103CC0008093C90411E0E9CF61E070E080E090E00A
:103CD0000E94E7048FEFE81AF80ACE14DF0409F017
:103CE000A3CF10E0DACF7F928F929F92AF92BF92D4
:103CF000CF92DF92EF92FF920F931F93CF93DF93B8
:103D000000D0CDB7DEB7782E8B014A01590122E0F1
:103D100030E0AE014F5F5F4F64E270E00E94D91A5D
:103D2000E980FA80FE24EF24FE24E00EF11E9701C4
:103D3000377040917104072D10E0433309F042C001
:103D4000085F1F4F102F0027110F110F110FC9010E
:103D5000800F911F4733C9F1A9014A0D5B1D413006
:103D6000584098F160E078E06B01C21AD30AA601CE
:103D7000B4010E945B05A5014C195D09B4016C0DED
:103D80007D1DC8010E945B05EA0CFB1CF982EA82DA
:103D900022E030E0AE014F5F5F4F64E270E0872DBC
:103DA0000E942C060F900F90DF91CF911F910F91E1
:103DB000FF90EF90DF90CF90BF90AF909F908F904B
:103DC0007F900895005F1F4FBDCFA501B401DACFEA
:103DD000EF92FF921F93CF93DF9300D0CDB7DEB762
:103DE000182F22E030E0AE014F5F5F4F60E270E0DD
:103DF0000E94D91AE980FA80FE24EF24FE2422E0F2
:103E000030E0AE014F5F5F4F60E270E0812F0E94B3
:103E1000D91A89819A81982789279827E816F9065F
:103E200089F487E0189FF0011124EF5DFB4FF582C4
:103E3000E482C7010F900F90DF91CF911F91FF9007
:103E4000EF9008957C01DBCF1F93CF93DF93182F62
:103E500080E591E00E942504812F0E94E81EEC017C
:103E6000812F0E94D217873121F08C3111F0D0E0E0
:103E7000C0E0CE01DF91CF911F910895CF93DF93E2
:103E8000EC018C85843060F40E94D617873111F0E4
:103E90008C3131F48C850E94241F8115984088F361
:103EA000DF91CF910895FC018485843010F40C9447
:103EB000241F90E080E00895CF92DF92EF92FF926E
:103EC0001F93CF93DF93182F7B01EA0141305840B5
:103ED00010F0C0E0D8E080E591E00E942504812F39
:103EE0000E94E81E6C01812F0E94D217873111F0C9
:103EF0008C3121F5CC16DD0670F380E591E00E944F
:103F000025049E01A70170E060E0812F0E94731ECE
:103F100060E270E0812F0E949D1762E070E0812FC7
:103F20000E94801784FD0DC0812F0E94D217882324
:103F3000B9F080E591E00E942504EFCFD0E0C0E029
:103F4000DCCF40E162E070E0812F0E946706CE0185
:103F5000DF91CF911F91FF90EF90DF90CF90089568
:103F6000D0E0C0E0F4CF0F931F93CF93DF938C0189
:103F7000EA01FC018485843048F40E945C1F892B8F
:103F800039F481E090E0F80193838283D0E0C0E0CF
:103F9000CE01DF91CF911F910F9108950C94B31F23
:103FA000FC01E60FF71F2DE020832AE02183AB01FF
:103FB0004E5F5F4FBC018BEC94E00C94CE1FCF9210
:103FC000DF92EF920F931F93CF93DF936C01EB017E
:103FD000AB0170E060E080E3E82E04E610E020E052
:103FE00030E0C6010E94110A80E2F601838362EA92
:103FF00076E0CD3DD10529F190F463ED76E0C73D43
:10400000D105F9F067EA76E0CC3DD105D1F06BE659
:1040100076E0C039D140A8F468E676E012C06FE7D8
:1040200076E0C832F2E0DF0761F062E776E0C9329D
:1040300082E0D80731F0C632E2E0DE0741F76EE8F1
:1040400076E0C60104960E947A0A8C5F682F70E0C1
:10405000C601DF91CF911F910F91EF90DF90CF902C
:104060000C94D01F9F92AF92BF92CF92DF92EF92AB
:10407000FF920F931F93CF93DF938C015B01942EDC
:10408000E52EFC01C688D788F08C80E591E00E947F
:1040900025048F2D0E94E81EC92DDE2D8C179D074B
:1040A00008F4EC019E01A501B6018F2D0E94731E3C
:1040B000F801868997898C0F9D1F978B868BCE017F
:1040C000DF91CF911F910F91FF90EF90DF90CF90F4
:1040D000BF90AF909F900895FF920F931F93CF933F
:1040E000DF9300D0CDB7DEB7F82E22E030E0AE018E
:1040F0004F5F5F4F66E270E00E94D91A09811A8112
:1041000010270127102722E030E0AE014F5F5F4FFC
:1041100066E270E08F2D0E94D91A89819A819827D2
:10412000892798270817190749F4C8010F900F909D
:10413000DF91CF911F910F91FF9008958C01E3CFF4
:104140001F93CF93DF93182F87E0189FE00111246E
:10415000CF5DDB4F88819981009761F480E591E024
:104160000E942504812F0E946C202E81821B9109C0
:1041700099838883DF91CF911F9108957F928F92C9
:104180009F92AF92BF92CF92DF92EF92FF920F93E6
:104190001F93CF93DF938C015B017A0180917104AF
:1041A000882309F465C08DE3C82E84E0D82E46012B
:1041B000712CC0E0D4012D913D914D01F801848115
:1041C00095812817390799F48C2F0E94D617D82F7C
:1041D000873119F08C3109F03FC08C2F0E94A0204C
:1041E000892B29F4DC3119F48C2F0E94AD17CF5F95
:1041F000C43001F7711008C0D801ED91FC91008422
:10420000F185E02DC8010995C0E0F60121913191B9
:104210006F01D80114968D919C912817390751F49C
:104220008C2F0E94D617873129F4A701B5018C2F56
:104230000E945C1FCF5FC43041F7C701DF91CF916F
:104240001F910F91FF90EF90DF90CF90BF90AF90B4
:104250009F908F907F900895843139F08111C7CF5E
:10426000F401329711821082C2CF77247394BFCFAA
:10427000F12CE12CE2CFFC018485843010F40C9405
:10428000A02090E080E008954F925F927F928F92FD
:104290009F92AF92BF92CF92DF92EF92FF920F93D5
:1042A0001F93CF93DF9300D0CDB7DEB7782E6B018D
:1042B0004A01A82EB12C27E0829FC0011124FC01E5
:1042C000EF5DFB4F7F010081118180E591E00E944D
:1042D00025040815190554F4872D0E946C20F70158
:1042E00026818C01021B1109118300830115110520
:1042F00019F5872D0E94D217843159F0882349F08F
:1043000001E010E08C3111F410E000E0119501950E
:104310001109C8010F900F90DF91CF911F910F915C
:10432000FF90EF90DF90CF90BF90AF909F908F90D5
:104330007F905F904F900895801691060CF4840151
:1043400087E08A9DF0018B9DF00D1124EF5DFB4FFE
:10435000E280F380C114D10451F12701F7E05F221C
:10436000872D0E941E06840D951D20917104273310
:1043700009F453C09801240D351D2130384008F44C
:104380004CC020E038E0490184189508A401B6012A
:104390000E94F5162601480C591C6801C818D90856
:1043A000872D0E941E06A601B2010E94F516E00E9E
:1043B000F11E87E08A9DF0018B9DF00D1124EF5DC9
:1043C000FB4FF382E28220813181201B310B31834C
:1043D00020838681800F912F911D8A3F910510F4D3
:1043E000232BF1F487E08A9DF0018B9DF00D1124C1
:1043F000EF5DFB4F1682F982EA8222E030E0AE01E7
:104400004F5F5F4F68E270E0872D0E942C0660E4EA
:1044100070E0872D0E949D177CCFA801B601C5CF03
:10442000868377CFCF93DF93FC01218D328D2115C9
:10443000310529F48FEF9FEFDF91CF910895EC01C3
:10444000808D4217530708F0A9010E9444211816D5
:10445000190684F7298D3A8D281B390B3A8F298F3D
:10446000EBCF0F931F93CF93DF931F92CDB7DEB7A0
:10447000FC01218D328D232B41F48FEF9FEF0F90A4
:10448000DF91CF911F910F9108958C0141E050E091
:10449000BE016F5F7F4FFC01808D0E944421181682
:1044A00019065CF7F801818D928D0197928F818FAB
:1044B000898190E0E4CF0F931F93CF93DF93CDB723
:1044C000DEB728970FB6F894DEBF0FBECDBF8C01C4
:1044D000D80159964D915C915A974115510551F06B
:1044E000ED91FC91048CF58DE02D70E060E0C80149
:1044F0000995EECFF801808D0E94A020892BB1F1A3
:1045000048E050E0BE016F5F7F4FD80158968C9114
:104510000E94442118161906F4F4D801509684E03C
:10452000FE01319601900D928A95E1F78D8190E020
:10453000982F88272E81820F911DF801958B848BEF
:104540008F81282F30E0322F22278885820F932FEA
:10455000911D928F818F28960FB6F894DEBF0FBE03
:10456000CDBFDF91CF911F910F91089590E080E032
:10457000F2CF4F925F926F927F928F929F92AF9203
:10458000BF92CF92DF92EF92FF920F931F93CF9340
:10459000DF93CDB7DEB763970FB6F894DEBF0FBEDB
:1045A000CDBF7C016B013A01FB0120E090E080E08F
:1045B0006AE03191332309F461C040ED430F4A3082
:1045C00008F04DC0689FA001699F500D1124CA01D9
:1045D000C097830F911D37FD9A958F3F910549F341
:1045E00040F3F70142815381648175818091A00479
:1045F0009091A104A091A204B091A3044817590777
:104600006A077B0709F40DC28701085F1F4F0E94EC
:1046100019056F7077277C5FC8010E942F1D8130BC
:1046200009F004C286E991E09A838983F7018281C7
:104630009381A481B5818B839C83AD83BE8345E345
:1046400050E0BE016F5F7F4FC8010E94D206892BE8
:10465000A9F5D12CC12CC8010E94C51717C03E3244
:1046600009F0BFCF233009F4BCCFD301A20FB11D95
:1046700012968C932F5F90E080E09BCF233009F05F
:10468000B0CFF3018583CC24C394D12CC6016396AB
:104690000FB6F894DEBF0FBECDBFDF91CF911F9153
:1046A0000F91FF90EF90DF90CF90BF90AF909F90D1
:1046B0008F907F906F905F904F9008950E941905A2
:1046C000F7017783668342E050E0B7016A5F7F4F6E
:1046D000C8010E94322081E090E09A83898342E001
:1046E00050E0BE016F5F7F4FC8010E94322080E022
:1046F00091E09A83898342E050E0BE016F5F7F4F73
:10470000C8010E9432201A82198242E050E0BE01A4
:104710006F5F7F4FC8010E94322042E050E0BE012F
:104720006F5F7F4FC8010E94322042E050E0BE011F
:104730006F5F7F4FC8010E9432205601F6018081D1
:10474000882301F16501F60181912F01882311F081
:104750008E32B1F446018A189B081814190474F4B7
:104760008D8641E050E0BE01635F7F4FC8010E942B
:104770003220A401B501C8010E9432205201DECFCF
:104780006201E1CF1D8641E050E0BE01635F7F4FD3
:10479000C8010E943220C12CDD24D394DA82C98260
:1047A00042E050E0BE016F5F7F4FC8010E9432209F
:1047B000DA82C98242E050E0BE016F5F7F4FC801DC
:1047C0000E943220C8010E945F18892B09F441CF52
:1047D000F3E0AF2EB12C230122E0420E511CD4C0D5
:1047E000F7014281538164817581808D918DA28D05
:1047F000B38D481759076A077B0709F008C1848DF4
:10480000958DC59709F003C181A192A15DEFC52ED9
:10481000DD24DA940C970CF4ADC04CE050E0BE01FE
:104820006F5F7F4FC8010E9412228B819C81982765
:10483000892798279A8B898BF7014681578129818F
:104840003A814217530709F0E7C097FFE5C08F7020
:1048500092703BEFC32EDD24DA94892B09F08AC0D5
:104860006F8078847624672476242AEFC22EDD2494
:10487000DA946114710409F47DC0D12CC12C8D81AE
:104880009E81982789279827C816D906F8F441E011
:1048900050E0BE01635F7F4FC8010E9412224D8528
:1048A000442331F050E070E060E0C8010E94122221
:1048B0008D858111ECCF44E050E070E060E0C801EC
:1048C0000E941222FFEFCF1ADF0AD9CF912C812C40
:1048D00041E050E0BE016D5E7F4FC8010E94122290
:1048E0004B89842F807C09F06CC0442331F050E068
:1048F00070E060E0C8010E9412228B898111E8CF2C
:1049000042E050E0BE01615F7F4FC8010E94122269
:1049100042E050E0BE01635F7F4FC8010E94122257
:1049200044E050E070E060E0C8010E94122242E0E2
:1049300050E0BE016F5E7F4FC8010E9412228F853A
:10494000988949895A898115914009F043C0CD84DD
:10495000DE84DC24CD24DC2481E0C816D104D1F52A
:104960004115544009F04AC044E050E0B201C8018A
:104970000E94122221E0A21AB10809F46CCEFFEFC6
:10498000CF16DF0609F067CE0E9419053B014C01E6
:10499000C8010E945B22181619060CF421CF0E9450
:1049A00019056619770988099909693873418105DC
:1049B000910548F562E370E080E090E00E94E70432
:1049C000E7CF41E050E070E060E0C8010E941222B1
:1049D0001B8A93CF54274527542770E060E0C80115
:1049E0000E941222FFEF8F1A9F0A6814790409F0BF
:1049F0006FCF96EFC92EDD24DA94BCCFE7EFCE2E31
:104A0000DD24DA94B7CFCC24CA94DC2CB3CF6EEF7C
:104A1000C62EDD24DA94AECF4CEFC42EDD24DA941A
:104A2000A9CF8EEFC82EDD24DA9430CED12CC12C44
:104A30002DCECF92DF92EF92FF920F931F93CF93E1
:104A4000DF93CDB7DEB7AF970FB6F894DEBF0FBEDA
:104A5000CDBF7C016A0106E911E01A8309831C8637
:104A60001B8688EE93E0A0E0B0E08D879E87AF873D
:104A7000B88B8AE391E09A878987188F0F8B198EFC
:104A80001A8E1B8E1C8E84E089A31BA70AA71CA666
:104A90001DA61EA61FA68091940490919504A09136
:104AA0009604B09197048EA39FA3A8A7B9A78B8360
:104AB0009C83AD83BE8318861F82AE01465D5F4F27
:104AC000CE0101960E94B92281309105B1F4D7013F
:104AD000ED91FC910488F589E02D1DA30CA38CA514
:104AE0009DA5AEA5BFA58EA39FA3A8A7B9A7A60104
:104AF000BE016C5D7F4FC7010995AF960FB6F89464
:104B0000DEBF0FBECDBFDF91CF911F910F91FF9000
:104B1000EF90DF90CF900895CF92DF92EF92FF92C7
:104B20000F931F93CF93DF93CDB7DEB7AF970FB639
:104B3000F894DEBF0FBECDBF8C016B017A0186E910
:104B400091E09A8389831B821C821D821E821C86AF
:104B50001B8648EE53E060E070E04D875E876F870C
:104B6000788B2AE331E03A872987988F8F8B198ECB
:104B70001A8E1B8E1C8E24E029A39BA78AA71CA635
:104B80001DA61EA61FA6D8011C968C91843060F429
:104B90000E94D617882321F0F80184850E94AD1762
:104BA00084E0D8011C968C93809194049091950494
:104BB000A0919604B09197048EA39FA3A8A7B9A72C
:104BC0008B839C83AD83BE8318861F82AE01465DB6
:104BD0005F4FB601CE0101960E94B9220097C1F045
:104BE000D801ED91FC910684F785E02D86E991E0EE
:104BF0009DA38CA38CA59DA5AEA5BFA58EA39FA3A9
:104C0000A8A7B9A7A701BE016C5D7F4FC801099590
:104C1000AF960FB6F894DEBF0FBECDBFDF91CF9138
:104C20001F910F91FF90EF90DF90CF900895CF9359
:104C3000DF931F92CDB7DEB741E050E0BE016F5F5A
:104C40007F4FFC0184850E9444211816190634F414
:104C5000898190E00F90DF91CF9108958FEF9FEFC2
:104C6000F9CFFC018485843010F40C94442190E049
:104C700080E008950F931F93CF93DF9300D0CDB7BB
:104C8000DEB7FC0124852430E0F48C0180E591E05E
:104C90000E94250422E030E0AE014F5F5F4F60E1EB
:104CA00070E0F80184850E94D91A89819A81982739
:104CB000892798270F900F90DF91CF911F910F9127
:104CC000089590E080E0F6CFEF92FF920F931F934C
:104CD000CF93DF9300D000D0CDB7DEB78C017B013E
:104CE000FB0184858430A8F086E991E0F801918386
:104CF00080831282138214821582C8010F900F9054
:104D00000F900F90DF91CF911F910F91FF90EF9037
:104D1000089580E591E00E94250424E030E0AE0192
:104D20004F5F5F4F6CE070E0F70184850E94D91AF5
:104D300086E991E0F8019183808389819A81AB8132
:104D4000BC8182839383A483B583D7CF0F931F93B2
:104D5000CF93DF9300D0CDB7DEB7FC01248524309C
:104D6000E0F48C0180E591E00E94250422E030E02F
:104D7000AE014F5F5F4F64E070E0F80184850E94F0
:104D8000D91A89819A819827892798270F900F909F
:104D9000DF91CF911F910F91089590E080E0F6CFC1
:104DA0002F923F924F925F926F927F928F929F923B
:104DB000AF92BF92CF92DF92EF92FF920F931F9329
:104DC000CF93DF9300D000D0CDB7DEB7FC012081B8
:104DD00031813C832B83C684D784E088F18830E21C
:104DE000C30ED11CE11CF11CC114D10480E2E80601
:104DF000F10420F0168A178A108E118E8689978901
:104E0000A08DB18D0097A105B105B1F13B018F01D6
:104E1000B701A601517066277727452B462B472BF4
:104E200009F0DEC00196A11DB11D868B978BA08F66
:104E3000B18F4289538964897589EB81FC81411561
:104E4000510561057105D9F487819085B0E0A0E036
:104E5000B701A60135E076956795579547953A9540
:104E6000D1F7481759076A077B0708F4B9C0F8015A
:104E7000168A178A108E118E84E090E024C08185F6
:104E800092850197B0E0A0E04601570129E0B69471
:104E9000A794979487942A95D1F788219921AA21DC
:104EA000BB21892B8A2B8B2B09F09AC0CF010E9442
:104EB000B20C4B015C01F2E08F169104A104B10425
:104EC000C8F482E090E00F900F900F900F90DF9168
:104ED000CF911F910F91FF90EF90DF90CF90BF90F7
:104EE000AF909F908F907F906F905F904F903F908A
:104EF0002F9008952FEF82169206A206B20619F49B
:104F000081E090E0E0CFEB81FC8183899489A589E1
:104F1000B68988169906AA06BB0608F451C0672808
:104F200009F4A5CFF8014289538964897589C801BC
:104F30000E94270F4B015C0187E090E081149104EF
:104F4000A104B10409F4BFCFF1E08F169104A104CC
:104F5000B10409F4B6CF2FEF82169206A206B2066C
:104F600079F28B819C810E94670C892B49F6B501EF
:104F7000A4018B819C810E94D7092B013C01EB810C
:104F8000FC8143A654A665A676A6BF96FA83E9835C
:104F900080E092E09C01119221503040E1F7312CE9
:104FA000212CEB81FC81818592852816390648F1F8
:104FB000EB81FC81818592852816390609F0A0CF06
:104FC000F801828A938AA48AB58AB501A4018B81EB
:104FD0009C810E94D709F801668B778B808F918F17
:104FE000F801C686D786E08AF18A8B819C818F96EC
:104FF00096013170280F391F338F228F90E080E0A7
:1050000062CFEB81FC8181818093450421E030E017
:10501000B301A201420D531D611D711D89819A8149
:105020000E94870B892B21F63FEF231A330AB9CF51
:105030000F931F93CF93DF93EC01FC01E35DFD4FD2
:10504000008111819FA59B3E21F0985E923008F06F
:105050004DC005352AEA120761F448E050E068EADD
:1050600071E0CE018F579F4F0E943339892B09F48D
:1050700047C08AAD9BAD9C012150310928233923BB
:10508000232BA1F58115924089F58CAD882371F110
:1050900090E09C012150310982239323892B31F523
:1050A0008DAD9EAD892B11F18FAD8150990B02977B
:1050B000E8F4FE01E05CFF4F80819181892BB1F023
:1050C0003296808191818038910550F4CE01815BC8
:1050D0009F4F0E94FF09611571058140910530F0D5
:1050E000CB5BDF4F88819981892B51F405351A4AB2
:1050F00051F083E090E0DF91CF911F910F910895DF
:1051000090E080E0F8CF82E090E0F5CF0C94DB38BF
:105110000C9452382F923F924F925F926F927F92EF
:105120008F929F92AF92BF92CF92DF92EF92FF92B7
:105130000F931F93CF93DF93CDB7DEB7EA970FB6E8
:10514000F894DEBF0FBECDBF90910E01981709F401
:10515000B4C4282E923008F0F2C0CE0101960E940D
:105160004704892B09F0E0C08091540486FFD2C027
:1051700040916204509163046091640470916504ED
:1051800089819A810E946F0C892B09F0CDC0E09132
:105190006604F091670483858062838740914C04A4
:1051A00050914D0460914E0470914F04209146043B
:1051B00030914704428F538FD9012C91233029F429
:1051C000CB01AA27BB27848B958B3091500420916B
:1051D00051049091520480915304348F258F968FFF
:1051E000878F168A178A81E2808F80E5818F128AE5
:1051F000138A09811A8181E0F8018383C8010E9422
:105200000E0C7C01892B09F07EC0D8018C91833073
:1052100009F05EC014968C911497813009F058C043
:105220001196AC9120E032E0C8018F96FC01A901F3
:10523000119241505040E1F725E5F801E35DFD4F43
:1052400020832AEA3196208322E5F80127A720ABA4
:1052500021E621AB31E432AB42E7ED5EFD4F408306
:10526000319640833196308331962083F8015785FB
:10527000408931892289E95EFD4F50833196408310
:105280003196308331962083F801538544853585E6
:105290002685E55EFD4F50833196408331963083FD
:1052A00031962083F801438D548D658D768D4F5F47
:1052B0005F4F6F4F7F4F43A754A765A776A7A09373
:1052C000450421E030E00E94870BD80114961C921F
:1052D000D8011196EC91E0934504F0E0ED5EFE4FAD
:1052E0008081EE24E394F12C80FD0DC080E58CBD1F
:1052F0000E94C40831E020E0892B09F030E0E32E61
:10530000F22E0E94BE08809154048F7B8093540437
:10531000EF2851F4CE0101960E944704892B21F415
:10532000109247041092460480910E01811162C0D0
:1053300080E38093150190E080E00E94540B8FEF92
:1053400080930E01B1E0B21508F4B5C380E32110DB
:1053500081E38093150186ED91E00E94540B892B27
:1053600009F046C080E3820D8093000180910E0415
:10537000211080910D04282F30E054E035952795B9
:105380005A95E1F72A30C0F5205D209308018F700F
:105390008A30A0F5805D8093090180E091E09AA7B2
:1053A00089A7CE0189960E94AA0997FD19C0FC0120
:1053B000EE0FFF1FE859FB4F40805180411451040C
:1053C00079F0F20120812223D9F0E181E0934504B4
:1053D000F0E0ED5EFE4F208120FD12C022FFE9C209
:1053E000109247041092460490E080E00E94540B13
:1053F00080E064C381E39DCF295CC7CF895CCBCFBC
:10540000D2011C9211968C93809345049927FC013C
:10541000ED5EFE4F808180FD62C08081857001F766
:10542000D20113961C928FEF9FEFDC01F20183A74C
:1054300094A7A5A7B6A740E050E0BA01C2010E9418
:105440006F0C892B69F6C2010E94182882309105E1
:1054500009F014C15201FBE0AF1AFEEFBF0A8E0142
:105460000F5F1F4F62012BECC21A2DEFD20A780199
:10547000C5010E94FF09D7016D937D938D939D9384
:105480007D01B0E1AB0EB11CCA14DB0489F77801D1
:10549000E0E1EE0EF11C88248A94982C5401D80186
:1054A0004D915D916D917D918D0141155105610584
:1054B000710589F0F201138283A694A6A5A6B6A66B
:1054C000C2010E946F0C892B31F4C2010E9418287E
:1054D000029708F4D6C00E151F0509F781CF808109
:1054E00081FD9BCFF89497E095B984B1876084B92A
:1054F00095B980E58CBD81E08DBD84B18F6284B9A2
:105500008FE385B978948CB583608CBD1AE08FEFFA
:105510000E9466081150D9F705E040E050E0BA015A
:1055200080E00E94E108182F811104C00150A9F702
:10553000F12C85C08130E1F70E9419053B016B0118
:105540004AEA51E060E070E088E00E94E1088130C2
:1055500009F048C0FE0131967F015E01F5E0AF0E13
:10556000B11C87018FEF0E946608D8018D938D01D1
:10557000AA15BB05B9F78B818130D1F68C818A3AA7
:10558000B9F60E9419056C197D09683E73404CF408
:1055900040E050E060E070E489EA0E94E108811197
:1055A000F0CF0E94190566197709683E73400CF028
:1055B000BFCF40E050E0BA018AE30E94E1088111C8
:1055C000B7CF8FEF0E946608D7018D937D01A0179A
:1055D000B107B9F7898138E1F32E86FD30C098E034
:1055E000F92E2DC040E050E0BA0189EA0E94E1089E
:1055F000FF24F394823018F424E0F22E19EA0E947A
:1056000019056C197D09683E734044F440E050E090
:10561000BA01812F0E94E1088111F1CF0E94190582
:1056200066197709683E73400CF082CF40E052E083
:1056300060E070E080E10E94E108811179CFE091A3
:1056400045040E2F10E0F801E55FFB4FF0820E9449
:10565000BE08F801ED5EFE4F8081FF2061F08E7F75
:1056600080838CB58C7F8CBD2C98E0914504F0E054
:10567000ED5EFE4FD2CE81608083F6CF029708F0B8
:10568000AFCEF20182AD93AD8115924009F0A8CE64
:10569000F201EB5BFF4F80809180B12CA12C811433
:1056A000910439F4C2018D5A9F4F0E94FF094B01AA
:1056B0005C01D2019B962D913D914D915C919E97FD
:1056C0002BA73CA74DA75EA7F201878A908EA18EDB
:1056D000B28E07AD02838FEF800F823008F080CE4C
:1056E00014AD812F90E092878187009709F478CEDE
:1056F0009C012150310982239323892B09F070CE1C
:10570000E05CFF4F6080718018967C926E921797D4
:10571000C3018F709927892B09F062CE3296C08021
:10572000D180F12CE12CC114D10439F4C201815B88
:105730009F4F0E94FF096B017C01D201DD96ED9124
:10574000FC91309709F44CCEA02FB0E0A501940154
:105750000E94F1386BAB7CAB8DAB9EAB9F0150E0F0
:1057600040E02FAB38AF49AF5AAFC301B4E09695D4
:105770008795BA95E1F7280F391F411D511DDA01B0
:10578000C9012BA93CA94DA95EA9280F391F4A1FA1
:105790005B1F2FA738AB49AB5AABC216D306E40642
:1057A000F50608F41DCEC701B601621B730B840B0E
:1057B000950B212F30E050E040E00E94FC3821158D
:1057C00031054105510509F40BCE263F8FEF38070F
:1057D00048078FE0580708F003CE03E010E0263FAB
:1057E000BFEF3B074105510550F402E010E0263FB2
:1057F000BFE03B074105510510F401E010E06901ED
:105800007A0192E0C90ED11CE11CF11CD201539621
:10581000CD92DD92ED92FC9256972BA53CA54DA51D
:105820005EA55B962D933D934D935C935E978FA9F8
:1058300098ADA9ADBAAD280F391F4A1F5B1F2FAB1A
:1058400038AF49AF5AAFD2015F962D933D934D9338
:105850005C9392974BA55CA56DA57EA58FA598A995
:10586000A9A9BAA9480F591F6A1F7B1FD201979691
:105870004D935D936D937C939A970330110509F0D6
:1058800036C1F201E75AFF4F80819181892B09F0DF
:10589000A7CD672809F0A4CDC201855A9F4F0E9469
:1058A000FF09F20163A374A385A396A3A2E0CC0C25
:1058B000DD1CEE1CFF1CAA95D1F72FEFC20E21E0D4
:1058C000D21EE11CF11C59E0F694E794D794C794DA
:1058D0005A95D1F78C149D04AE04BF0408F480CD12
:1058E0008FEF9FEFDC01F2018787908BA18BB28B4A
:1058F00083879487A587B68780E884830330110562
:1059000009F048C0E15AFF4F80819181019709F069
:1059100041C04BA55CA56DA57EA54F5F5F4F6F4F46
:105920007F4FC2010E946F0C892BA1F5D201149602
:105930001C92F201E35DFD4F8081918185359A4A89
:1059400049F5C2018F960E94FF0962357245814672
:10595000914401F5C2018D5E9D4F0E94FF0962379F
:10596000724781449146B1F4C201895E9D4F0E9405
:10597000FF09D2011F966D937D938D939C9352974F
:10598000C201855E9D4F0E94FF09F2016387748703
:1059900085879687D2010C938091D4019091D5018F
:1059A00001969093D5018093D40116969C938E9383
:1059B00015975A824982E9A5FAA58F0181918F3204
:1059C000E1F38C35D1F31F82188619861A86F80107
:1059D00080814201FFE28F0E911C803208F008C1E5
:1059E00080E888A7CE0101960E94700D892B09F0EE
:1059F000F7CC88A587FDF4CC8D81817109F0F0CCBE
:105A0000F20183A594A5A5A5B6A580936204909301
:105A10006304A0936404B0936504EB8DFC8DF09354
:105A20006704E0936604428D538D70E060E0D2011C
:105A30008C91833059F40489158930E020E0980175
:105A400011270027402B512B622B732B40934C04C2
:105A500050934D0460934E0470934F04CF014C96C5
:105A60000E94FF0960935004709351048093520484
:105A7000909353045092470440924604D2011596E5
:105A80008D919C91909349048093480483E0809386
:105A900054041092550410925E0410925F04109208
:105AA00060041092610410925604109257041092F0
:105AB00058041092590420920E0181E0EA960FB624
:105AC000F894DEBF0FBECDBFDF91CF911F910F9134
:105AD000FF90EF90DF90CF90BF90AF909F908F900E
