:020000040000FA
:100000000C94AC030C94D4030C94D4030C94D4033C
:100010000C94D4030C94D4030C94D4030C94D40304
:100020000C94D4030C94D4030C94D4030C94D403F4
:100030000C94D4030C94D4030C94D4030C94D403E4
:100040000C9408310C94D4030C94D4030C94D40372
:100050000C94D4030C94D4030C94D4030C94D403C4
:100060000C94D4030C94D403EA8D0EC0A92085F01F
:10007000A96085F3A5434A4A4A4A290709C085F27F
:10008000A00084F188B1F185F1A90285F9E646E680
:1000900045E64520F000900620E2FB4CBAFAC6F98E
:1000A000D0EBA90085FC2093FE2089FE20C40B2004
:1000B000B608200109A5F58546A5F6854720AB0BB6
:1000C0004CE60C20D408206C08A5F78546A5F885D9
:1000D000474CAF0BA90085FBA90485252022FCA570
:1000E000FB05FC85460980854720AF0BA90020420F
:1000F0000AA9FF8532A54309808543A5FB098085B0
:10010000FBA91420420AA9FF85324A25438543E60C
:1001100025E6FBA5FB297F85FBC91090BF60A5F7ED
:1001200085F5A5F885F660A0008424A00384252029
:1001300022FC20830BA01484244C7E0BA5FA48A932
:100140001520620B208B0BA914852420870BA90195
:1001500085FA20140AC6FA10F96885FA6020C00CE6
:1001600020B6086868184CE60C20020A20BF08A5D3
:10017000F5297085FCA90085FA205B0820DA0BA917
:1001800040209E0A20140A200CFD48A901209E0A46
:10019000A6FAB5F5298FA868C98DD01FA900209EA1
:1001A0000AA5FA490185FAD00160AAB5F52970C5FA
:1001B000FCF0CC85FC205B084C1709C99BF09EC95C
:1001C000A1D005A9FF85F560C9ACF004C98BD01397
:1001D000980A0838E902291E286A298F05FC95F536
:1001E0004C1709C9A0F004C98AD004C898D0EBC93B
:1001F00088D01E984980A805FC95F510E3A9F01851
:1002000065FC297085FC9848205B08A6FA684C724A
:1002100009C995D00E984980A805FC95F530C1A96B
:1002200010D0DCC9E1900338E920C9C19009C9C7E1
:10023000B00538E907D008C9B09011C9BAB00D2986
:100240000F85F998298005F9A84C7209C9C9F002EF
:10025000D08E20020A20DA0B200C0C4C0109C9FFB9
:10026000F0034CDAFDA9A14CEDFD2058FCA93F207C
:100270006B0BA91720620BA9234C6B0BA20BA5FAE1
:10028000F002A21F8624A01584252022FCA4FAB91E
:10029000F500483004A001D002A0029820E3FDE65A
:1002A0002468297F20F609C624608524A5FB05FC67
:1002B00048297F20DAFDA9BA20EDFDE62468C5F5BE
:1002C000F004C5F6D004A93F8532209E0BB032ADB4
:1002D0000510302DAD0410AA29F0C9F0D0238A29C9
:1002E0000FF01E85F9A200BD0510098020EDFDE884
:1002F000E4F9D0F3E00FD00160A9A020EDFDE8D033
:10030000F3A2004C920BA6FAC901D00AA980A4F569
:10031000C4F6D002A90085F9B5F53004A004D002D6
:10032000A0188424297F45FCC910B01769048525CD
:100330002022FCA424A20FB128293F05F99128C846
:10034000CAD0F460ADADADA0A0A0A0A0A0A0A0A018
:10035000A0A0A000C4D2C9D6C5A0B1BAA0D3C4BFC2
:10036000AF00D3C4B1BA0020200110100C05200941
:100370000920060F120516051221202016332E34EF
:100380002E310004010E20090920160F0C150D0551
:100390002013050C0503140F1200A0CFCBA100C53C
:1003A000D2D2CFD2A187878700C6D4D0AFC9D0BA66
:1003B000A000CEC5D7A0C9D0BAA0A0A0A0AEA0A0D2
:1003C000A0AEA0A0A0AEA0A0A0008525A900852475
:1003D0004C22FC48A226A92020EDFDCA10F868AAEC
:1003E000A9088524D014A9B28DFC0AA21ED00BA99D
:1003F000B2D002A9B18DF20AA210BDDC0AF006202B
:10040000EDFDE8D0F560A0008447C88442C884466A
:100410004CB90BA907D002A9068542A5474980859A
:1004200047A9008544A91085454CF000A9058542DF
:1004300020B90BAD001085F7AD0110498085F84C4F
:10044000B608A92120B10BB0BCAD1010F0B7A901BE
:1004500020620BA2098624A26520920BAD06102013
:10046000B40CAD071020B40CAD081020B40CAD09CD
:10047000104C130DA54348A90A20620BA26E2092CE
:100480000BA908852420540CB0ED8544E6242054A3
:100490000CB0E48545E62420540CB0DB8546E62408
:1004A00020540CB0D285478543A920854220F00016
:1004B00018AA688543CAF001384CD00CA90085F908
:1004C000A2038A4820930CB017C9FFF017A8208414
:1004D0000CB00D9865F985F9B00668AACAD0E34852
:1004E00068A5F96068186524852490F5A20AA9001A
:1004F0001865F9B005CAD0F985F960200CFDC9A0CE
:10050000D004A9FF1860C98DF0F8C9AEF0F4C9B0E5
:1005100030E9C9BAB0E520EDFD290F6020130DA91F
:10052000AE4CEDFDA900F002A980A20186FA482098
:100530009E0A68C6FA10F760A2569002A25B20924B
:100540000BA206A9FF20A8FCCAD0F84C58FC082032
:10055000D40820BC0CA91620620BA91185242820E0
:10056000D00CA908488545A900488544854685479B
:10057000A2018144A90A85426CF100C90A901EA219
:100580006486F920380DE000F006488A20E3FD6813
:10059000A20A86F920380D488A20E3FD684CE3FD65
:1005A000A200C5F99006E838E5F9B0F6604F6B0097
:1005B0004661696C6564004261642066696C656EC1
:1005C000616D650046696C6520746F6F206C6172A7
:1005D0006765004E6F20737563682066696C6500FF
:1005E00055736520706173762066747000556E7364
:1005F0007570706F7274656400492F4F2065727258
:100600006F72004279652E0057656C636F6D6520CF
:10061000746F2044414E5D5B2C2076332E342E3196
:100620002E204170706C65205D5B20466F72657690
:100630006572210044414E5D5B002D72772D2D2D9A
:100640002D2D2D2D203120766F6C756D653A202D66
:100650002D2D20202020202020202020202020316F
:1006600032333435363738204A756E2031302031F8
:1006700039373720564F4C30312E504F0D0A006419
:100680007277782D2D2D2D2D2D20312044414E5D5A
:100690005B204641542031204A756E203130203194
:1006A000393737205344310D0A0032353720222F95
:1006B000534431220032323720456E746572696EC0
:1006C000672050617373697665204D6F64652028DB
:1006D0000055534552504153535359535443574473
:1006E000205459504551554954504153564C495343
:1006F00054434455505245545253544F52504F5204
:10070000545057440000000000080002010000039C
:1007100004070000000000000000000000002500A9
:1007200028002B0000000000240027002A000404F9
:100730000404040404040202020202020303030389
:100740000303010204081020408001020408102065
:10075000010204081020523111241FBECFEFD8E04F
:10076000DEBFCDBF11E0A0E0B1E0EEE5F8E602C0EB
:1007700005900D92A03AB107D9F724E0A0EAB1E0C4
:1007800001C01D92A838B207E1F713E0CCEAD3E02C
:1007900004C02197FE010E94E533CB3AD107C9F787
:1007A0000E94A3310C942D340C94000090E0FC01C5
:1007B000EE5BF84F2491825D984FFC018491882371
:1007C00099F090E0880F991FFC01EC5DF84FA5911E
:1007D000B491FC01E65EF84F859194918FB7F8943F
:1007E000EC91E22BEC938FBF08958CBD9DBD0895D5
:1007F00090E0FC01EA5FF84F2491FC01EE5BF84FBA
:100800003491FC01E25DF84FE491EE23C9F022231C
:1008100039F0233001F1A8F4213019F1223029F107
:10082000F0E0EE0FFF1FE65EF84FA591B4918FB791
:10083000F894EC91611126C030953E233C938FBF14
:1008400008952730A9F02830C9F0243049F7809165
:1008500080008F7D03C0809180008F77809380001F
:10086000DFCF84B58F7784BDDBCF84B58F7DFBCFA1
:100870008091B0008F778093B000D2CF8091B0008C
:100880008F7DF9CF3E2BDACF3FB7F8948091FA03F2
:100890009091FB03A091FC03B091FD0326B5A89BAA
:1008A00005C02F3F19F00196A11DB11D3FBFBA2F02
:1008B000A92F982F8827BC01CD01620F711D811DC2
:1008C000911D42E0660F771F881F991F4A95D1F747
:1008D00008958F929F92AF92BF92CF92DF92EF9244
:1008E000FF924B015C010E9444046B017C010E9459
:1008F00044046C197D098E099F09683E7340810587
:100900009105A8F321E0821A9108A108B10888EEA8
:10091000C80E83E0D81EE11CF11C81149104A104CF
:10092000B10429F7FF90EF90DF90CF90BF90AF9088
:100930009F908F9008952FB7F8946091F60370916F
:10094000F7038091F8039091F9032FBF08958EBDAE
:100950000DB407FEFDCF0895FF920F931F93CF9321
:10096000DF93082FF62E142FCDE7D4E060E08881C6
:100970000E94F80380E00E94A7048F2D0E94A70424
:10098000802F84600E94A704812F0E94A70461E049
:100990008881DF91CF911F910F91FF900C94F80304
:1009A0001F93CF93DF93EC01162F472FBC0188E0F4
:1009B0000E94AC04BE016F5F7F4F412F88E0DF9142
:1009C000CF911F910C94AC04DF92EF92FF920F93A2
:1009D0001F93CF93DF93F82EE62ED72EEA018901DD
:1009E00060E080917D040E94F8038D2D0E94A70491
:1009F0008E2D0E94A7048F2D84600E94A70420974B
:100A000049F00C0F1D1FC017D107B1F089910E944A
:100A1000A704F9CFD0E0C0E0C017D10769F033993F
:100A2000FECF4298429842984298429889B1429AA1
:100A30000E94A7042196F0CF61E080917D04DF91B0
:100A4000CF911F910F91FF90EF90DF900C94F803DE
:100A50001EBC0DB407FEFDCF8EB508950F931F93F6
:100A6000CF93DF93182F062FCDE7D4E060E0888185
:100A70000E94F80380E00E94A704802F0E94A70430
:100A8000812F0E94A7040E942805182F61E0888109
:100A90000E94F803812FDF91CF911F910F9108954C
:100AA0000F931F93CF938C01BC0188E00E942E0509
:100AB000C82FB8016F5F7F4F88E00E942E052C2F52
:100AC00030E0322F2227820F932F911DCF911F915B
:100AD0000F910895482F61E070E088E00E94AC0417
:100AE00061E070E088E00E942E058111F9CF089541
:100AF000CF92DF92EF92FF920F931F93CF93DF93EA
:100B0000EC018B0188E290E00E9450057C0160E0DE
:100B100080917D040E94F8038F2D0E94A7048E2DE2
:100B20000E94A70488E10E94A7046E01C00ED11E96
:100B3000209759F58FEF8AB9D0E0C0E0C017D107F0
:100B400071F00E9428053199FECF8BB98BB940987E
:100B50004098409840984098409A2196EFCF1BB813
:100B60001AB861E080917D040E94F803B8016E0D0F
:100B70007F1D88E290E0DF91CF911F910F91FF9050
:100B8000EF90DF90CF900C94D004CC16DD0649F3A3
:100B90000E9428058993F9CF2FEF2AB93199FECF0A
:100BA0008BB98BB940984098409840984098409AAB
:100BB0003199FECF9BB99BB9409840984098409896
:100BC0004098409A1BB81AB808958EBD0DB407FE20
:100BD000FDCF8EB508958FEF0C94E5050F931F930D
:100BE000CF930E949B048C010E94EB05C82F8F3F7E
:100BF00039F00E949B04801B910B843F9140A0F32D
:100C000081E0CF3F09F480E080934C0481E090E0E4
:100C1000CF3F11F090E080E0CF911F910F910895A8
:100C2000CF939C013E5FFC0140814EBD0DB407FE99
:100C3000FDCFFC0141814EBD0DB407FEFDCF0296F4
:100C40008217930781F70E94EB050E94EB050E9433
:100C5000EB05C82F0E94EB0591E08F3F09F490E06F
:100C600090934C04CF7181E090E0C53011F090E09A
:100C700080E0CF910895EF92FF920F931F93CF934F
:100C8000DF938C01EB010E949B047C010E94EB0529
:100C90008F3F81F40E949B048E199F09883C910527
:100CA000ACF390E080E0DF91CF911F910F91FF9026
:100CB000EF9008958E3FA9F7F8018FEF8EBD0DB428
:100CC00007FEFDCF9EB590838EBD0DB407FEFDCF10
:100CD0009EB5918322973296209781F70E94EB056B
:100CE0000E94EB0581E090E0DECF85B1876085B999
:100CF0000C94EB05CF93DF9385B19091290491116A
:100D000010C09BEF892385B90E94EB050E94EE0578
:100D1000EC01892B41F40E947506CE01DF91CF9141
:100D200008959DEFEFCFC1E0D0E0F7CFFF920F9392
:100D30001F93CF93DF93C82FD42F152F062FF72E95
:100D400087FF09C040E050E0BA0187E30E949606A1
:100D5000823038F5CF77CC3051F58C2F80640E94EB
:100D6000E5058F2D0E94E505802F0E94E505812F66
:100D70000E94E5058D2F0E94E50585E9CC2321F031
:100D800087E8C83009F081E00E94E505CC3011F415
:100D90000E94EB05CAE00E94EB0587FF02C0C1502C
:100DA000D1F7DF91CF911F910F91FF9008950E948D
:100DB00075060E947A06892B81F68FEFF2CFFF929B
:100DC0000F931F93CF93DF938C01E901209709F4D0
:100DD00045C0E0912904F0E0EF5DFE4F808180FD89
:100DE00040C080E58CBDE0912904F0E0E95DFB4F57
:100DF000808184FD07C029E0440F551F661F771FBF
:100E00002A95D1F791E1F92EC130D10511F082E197
:100E1000F82E8F2D0E949606811113C060E072E0BB
:100E2000C8010E943B06892B19F01E5F2197B1F77C
:100E300082E1F81206C040E050E0BA018CE00E9466
:100E400096060E94750681E090E0CD2B09F480E0C3
:100E5000DF91CF911F910F91FF90089584E090E072
:100E6000F7CF83E0FCCF80914C04882331F00E94BF
:100E70007A06892B11F00C9475060895CF93DF93B1
:100E8000EC01E881F981309779F0DF019D012F5F56
:100E90003F4F8C918132E0F0D9018A33B9F720813C
:100EA00080ED820F8A3018F08FEF9FEF0EC03296E0
:100EB000AE17BF07C9F7022E000C330BC901C0974C
:100EC000823091058CF7B983A883DF91CF91089583
:100ED00090E080E0FACF0F931F93FC019A01AB01E1
:100EE000225031094109510983899489A589B6891C
:100EF0000297A109B109281739074A075B0778F457
:100F0000A185B2850E94EB3307A110A521A532A5CA
:100F1000600F711F821F931F1F910F91089560E052
:100F200070E0CB01F9CFFC016281738190E080E039
:100F3000982F872F762F66272181622B982F872F56
:100F4000762F66272081622B0895CF93C82F80913A
:100F500029048C130E943307C0932904CF9108956C
:100F6000CF93DF93EC01E0912A04F0912B043097AA
:100F700049F489E090E030E020E039832883DF9174
:100F8000CF91089580818823A1F320912C04309182
:100F90002D04858196812817390759F781810E9490
:100FA000A507E0912904F0E0EF5DFE4F808180FD10
:100FB000E0CF20912A0430912B0490E080E0DDCF37
:100FC000FC0120812EBD9B012150310941F051814E
:100FD0000DB407FEFDCF4EB55EBD4193F5CF615018
:100FE0007109860F971F0DB407FEFDCF2EB5FC01CA
:100FF000208308952F923F924F925F926F927F923B
:101000008F929F92AF92BF92CF92DF92EF92FF9218
:101010000F931F93CF93DF936C01D42FF52E762E71
:10102000672E4801590110E0C0E08AE0282E312CDB
:10103000412C512C6D2F7F2D872D962DA5019401CC
:101040000E94C333F601EC0FF11D211133C01111C1
:1010500006C031E083169104A104B10479F5CF5F95
:10106000205D2083D62FF72E782E692E11E0C50142
:10107000B401A20191010E94C33349015A018114B4
:101080009104A104B104B1F6C6018C0F911DDF914A
:10109000CF911F910F91FF90EF90DF90CF90BF9075
:1010A000AF909F908F907F906F905F904F903F9008
:1010B0002F9008952A3098F229E0D1CFEE20B9F28E
:1010C000CF5FE082D4CFDC012A2F281BFB01949153
:1010D0009D936F5F7F4F9111F7CF822F0895DC01B1
:1010E000FB012D919191222321F02917D1F380E06A
:1010F0000895911102C081E0089582E00895FC01F5
:101100009485FB018485981303C081E0943008F036
:1011100080E00895CF93DF931F92CDB7DEB7698348
:10112000DC01ED91FC910280F381E02D41E050E083
:10113000BE016F5F7F4F09950F90DF91CF910895AA
:1011400090E080E00895CF93DF931F92CDB7DEB794
:101150006983DC01ED91FC910280F381E02D41E097
:1011600050E0BE016F5F7F4F09950F90DF91CF91E7
:101170000895E091A501F091A60180819091A401CC
:10118000892B80830895E091A501F091A6019081BB
:101190008091A4018095892380830895CF92DF9266
:1011A000EF92FF920F931F93CF93DF93CDB7DEB7EC
:1011B00028970FB6F894DEBF0FBECDBF8C017B0120
:1011C0006A010E94C3080F3F110509F028F4198233
:1011D0000A8384E08B830CC017FD1AC019820A832E
:1011E00033E0169507953A95E1F7007E0C600B8386
:1011F00087010C0D1D1D86E0C816D10490F5F7017E
:10120000DE0114960E171F0799F081918D93FACF86
:10121000C80126E0969587952A95E1F7807E198387
:101220000A830115104C10F48461D4CF8C61D2CFA5
:10123000B6016D5F7F4FCE0101960E94E0070E94CC
:10124000B908C60128960FB6F894DEBF0FBECDBF11
:10125000DF91CF911F910F91FF90EF90DF90CF9092
:10126000089563E070E0CE0101960E94E007F70167
:1012700081918EBD00000DB407FEFDCF8EB5E01745
:10128000F107B1F7DCCF90E02091FE03233339F46E
:101290000C96982F990F990F990F80E00895489612
:1012A000F8CFDA01E091A701F0E0FE2FEE27E60F7C
:1012B000F71F90E0982F8827A901BD018E0F9F1F6F
:1012C0000C94CE08CF93DF931F92CDB7DEB769831E
:1012D00041E050E0BE016F5F7F4F0E94CE080F904B
:1012E000DF91CF9108952091A70130E0322F22277E
:1012F000260F371F90E0982F8827642F820F931FA7
:101300000C9462090895FC01768765870895DC01D5
:10131000ED91FC9102A0F3A1E02D099591E08927C0
:101320000895862F089581E08627089521E0FC0125
:101330008485843008F020E0822F089508952FEFEF
:101340002AB93199FECF1BB81BB8409840984098F5
:1013500040984098409A0197A1F71BB81AB8089591
:101360008091A20190E0BC01660F672F661F770B8A
:10137000462F613069F42091ED0320583091EC0341
:10138000321306C08FEF8093F0038093F10308952A
:10139000FB01E451FC4F2081322F331F3327331FD1
:1013A00036273093F0032F772093F10324E09595AF
:1013B00087952A95E1F787709091EB03981739F399
:1013C0002091EC039091ED0330E8390F2317D1F20F
:1013D0009095411101C0922F9078892B4130C9F02E
:1013E0008093F1038091F103281711F0381303C0A3
:1013F00088788093F1038091F103281719F2381748
:1014000009F2982F991F9927991F9093F0038F70D5
:10141000BCCF922F932797FDE3CF8860E1CF33991C
:10142000FECF4298429842984298429889B1429A97
:101430000895CF930E940F0A8093A2010E940F0A81
:10144000C82F0E940F0A982F8C2F9093A101809390
:10145000A0010E940F0AC82F0E940F0A982F8C2FFC
:101460009093F3038093F203CF9108953199FECFC7
:101470009FEF9AB98BB98BB94098409840984098A3
:101480004098409A1BB81AB80895089590E080E0FB
:101490000895CF92DF92EF92FF920F931F93CF9315
:1014A000DF9300D000D0CDB7DEB78C016B017A019D
:1014B0000E94C3080F3F110509F030F519820A8315
:1014C0001B8263E070E0CE0101960E94E007A70155
:1014D00070E060E0C6010E941B34E114F10421F0C9
:1014E000B701C6010E94E0070E94B908C7010F902A
:1014F0000F900F900F90DF91CF911F910F91FF9060
:10150000EF90DF90CF90089517FD0BC019820A83EA
:1015100033E0169507953A95E1F7007E08600B8356
:10152000D0CFC80126E0969587952A95E1F7807E71
:1015300019830A830115104C18F480618B83C1CF85
:101540008861FCCFCF93DF931F92CDB7DEB7209198
:10155000A70130E0322F2227260F371F90E0982F67
:10156000882741E050E0BE016F5F7F4F820F931FDD
:101570000E94490A89810F90DF91CF910895CF93FE
:10158000C82F80E591E00E94F50363E070E08C2FA6
:10159000CF910C94A20ACF93DF93EC018C85843019
:1015A000D0F40E94BF0A843189F0882379F0883111
:1015B00069F021E08C3159F4E881F9810084F185EA
:1015C000E02DCE01099521E0892B09F420E0822F3E
:1015D000DF91CF91089580E0FBCFEF92FF920F93C0
:1015E0001F93CF937C010BE114E0C0E0F80121913F
:1015F00031918F01F701848195812817390729F0EE
:10160000CF5FC43099F780E006C08C2F0E94BF0ADC
:101610008431B1F781E0CF911F910F91FF90EF904E
:101620000895CF93C82F462F61E070E00E947309A0
:1016300061E070E08C2F0E94A20A8111F9CFCF9156
:101640000895CF93C82F80E591E00E94F50368E0EC
:1016500070E08C2FCF910C94110BCF93C82F80E5A5
:1016600091E00E94F50360E170E08C2FCF910C9423
:10167000110BCF92DF92EF92FF92CF93DF93EC01A9
:101680008C85843068F40E94210B0E949B046B01BE
:101690007C018C850E94BF0A811109C084E08C877F
:1016A000DF91CF91FF90EF90DF90CF90089561E0B0
:1016B00070E080E090E00E9469040E949B04AB010E
:1016C000BC014C195D096E097F098D859E85B0E0CE
:1016D000A0E0481759076A077B07D8F28C850E945B
:1016E0002D0BDCCF0F931F93CF93DF931F92CDB7BA
:1016F000DEB7DC011C962C91243040F08FEF9FEF79
:101700000F90DF91CF911F910F9108958C01DC0113
:10171000ED91FC910084F185E02D0995892B71F301
:10172000F801148580E591E00E94F503812F0E9465
:10173000430927E0129FF0011124E150FC4F228160
:101740003381377041E050E0BE016F5F7F4F820F01
:10175000931F0E94490A898190E0D2CFDA01E0917B
:10176000A701F0E0FE2FEE27E60FF71F90E0982F7D
:101770008827A901BD018E0F9F1F0C94490AAF92C3
:10178000BF92CF92DF92EF92FF921F93CF93DF939E
:1017900000D000D000D0CDB7DEB77C0180E591E06D
:1017A0000E94F5039E012F5F3F4F6901590110E030
:1017B00063E070E0812F0E94A20AF50181935F012E
:1017C000882339F11F5F143099F710E0F6018191F9
:1017D0006F018D31C9F08831B9F08A518230A0F0A3
:1017E0001F5F143099F7812F26960FB6F894DEBF4D
:1017F0000FBECDBFDF91CF911F91FF90EF90DF9093
:10180000CF90BF90AF90089560E170E0812F0E946B
:10181000110BC12ED12CF601EE0FFF1FE55EFB4F21
:101820001182108283EE93E00197F1F741E270E0BC
:1018300060E0812F0E9473094FEF62E070E0812F1A
:101840000E947309E114F104A1F1FD82EE8222E00D
:1018500030E0AE014B5F5F4F64E070E0812F0E948B
:10186000510961E070E0812F0E94110B27E02C9D4F
:10187000C0012D9D900D11249C0121503C4F7901F8
:10188000F9011182108222E030E0AE014B5F5F4F20
:1018900068E270E0812F0E94AE0B8D819E819827B7
:1018A00089279827F70193838283168215821482F1
:1018B0009ACF809111019091120101968115F0EC5F
:1018C0009F0758F0909312018093110180911101AC
:1018D000909112019D838E83BACF80E090ECF2CF7D
:1018E000BF92CF92DF92EF92FF920F931F93CF930D
:1018F000DF9300D0CDB7DEB78C016B01E42EB52E9F
:10190000FC018485843058F40E94BF0A882321F0AA
:10191000F80184850E94210B84E0F8018487F60198
:1019200082819381A481B5810097A105B10571F4ED
:1019300090E080E00F900F90DF91CF911F910F9179
:10194000FF90EF90DF90CF90BF9008958F3F9F4F13
:10195000AF4FBF4F69F38091FE03811104C084E053
:10196000F8018487E5CF90E080E00E94BF0BF82E5D
:10197000F8018487F3E0F817D8F280E591E00E943F
:10198000F503A6014E5F5F4F24E030E06CE070E0AD
:101990008F2D0E945109B982EA8222E030E0AE0127
:1019A0004F5F5F4F60E170E08F2D0E94510964E04E
:1019B00070E08F2D0E94110B0E949B046B017C0133
:1019C000F80184850E94BF0A873111F18C3101F141
:1019D000882309F4ADCF0E949B04AB01BC014C19D4
:1019E0005D096E097F09F80185859685B0E0A0E064
:1019F00084179507A607B70738F061E070E080E02C
:101A000090E00E946904DCCF84850E942D0BA7CF53
:101A100081E090E08FCF0F931F93CF932091FE032F
:101A2000222351F18C01FC01848195810E94BF0B1E
:101A3000C82F843008F580E591E00E94F50363E04B
:101A400070E08C2F0E94A20A833131F08C2FCF914D
:101A50001F910F910C94210B62E070E08C2F0E947B
:101A6000110BF80184819581EC2FF0E0EE0FFF1F40
:101A7000E55EFB4F91838083CF911F910F91089575
:101A8000BF92CF92DF92EF92FF920F931F93CF936B
:101A9000DF93EC016B018091FE0381111FC01B825B
:101AA0001A8288EE93E0A0E0B0E08C839D83AE8341
:101AB000BF8382E391E09983888384E08C8788EEFA
:101AC00093E09E878D87CE01DF91CF911F910F917B
:101AD000FF90EF90DF90CF90BF9008958BE1E82EBC
:101AE00084E0F82EB12C04E010E0F701219131914F
:101AF0007F01F601848195812817390771F4812FC0
:101B00000E94BF0A043009F5873111F08C31E9F4E5
:101B1000F701329711821082012F1F5F143029F7CD
:101B2000B11003C0C6010E940B0D1B821A8288EE01
:101B300093E0A0E0B0E08C839D83AE83BF8382E31B
:101B400091E0998388830C87BACF843139F0811171
:101B5000E4CFF701329711821082DFCFBB24B39418
:101B6000DCCFCF92DF92EF92FF921F93CF93DF9360
:101B7000CDB7DEB72F970FB6F894DEBF0FBECDBF3F
:101B8000182F98EBC92E9BE0D92E882319F08AE0F4
:101B9000C82ED12CF12CE12C6BE674E0CE0101961D
:101BA0000E94400D8B819C819093500480934F0440
:101BB0008D819E81AF81B8858093510490935204AA
:101BC000A0935304B093540489859A85AB85BC8552
:101BD0008093550490935604A0935704B0935804EF
:101BE0008D85809359048E859F8590935B048093A7
:101BF0005A048DE494E00E94CB0A8823E9F0112373
:101C000099F08DE494E00E94390B812F2F960FB646
:101C1000F894DEBF0FBECDBFDF91CF911F91FF9033
:101C2000EF90DF90CF90089588E893E190935B0464
:101C300080935A0411E0E9CF61E070E080E090E029
:101C40000E9469048FEFE81AF80ACE14DF0409F045
:101C5000A3CF10E0DACFEF92FF921F93CF93DF93E1
:101C600000D0CDB7DEB7182F22E030E0AE014F5FD5
:101C70005F4F60E270E00E94AE0BE980FA80FE24C4
:101C8000EF24FE2422E030E0AE014F5F5F4F60E2C0
:101C900070E0812F0E94AE0B89819A819827892755
:101CA0009827E816F90689F487E0189FF0011124B7
:101CB000E150FC4FF582E482C7010F900F90DF9155
:101CC000CF911F91FF90EF9008957C01DBCF1F9380
:101CD000CF93DF93182F80E591E00E94F503812FC9
:101CE0000E942B0EEC0163E070E0812F0E94A20A9B
:101CF000873121F08C3111F0D0E0C0E0CE01DF91CE
:101D0000CF911F910895CF93DF93EC018C858430A0
:101D100060F40E94BF0A873111F08C3131F48C8558
:101D20000E94670E8115984088F3DF91CF91089546
:101D3000FC018485843010F40C94670E90E080E000
:101D400008957F928F929F92AF92BF92CF92DF922F
:101D5000EF92FF920F931F93CF93DF9300D0CDB7F5
:101D6000DEB7782E4B018A014130584010F000E078
:101D700018E080E591E00E94F503872D0E942B0E6C
:101D80007C0163E070E0872D0E94A20A873119F080
:101D90008C3109F06CC0E016F10658F380E591E053
:101DA0000E94F50322E030E0AE014F5F5F4F64E236
:101DB00070E0872D0E94AE0BC980DA80DC24CD2430
:101DC000DC24960137704091FE03E72CF12C43335D
:101DD00009F050C088E0E80EF11CFE2CEE24FF0C48
:101DE000FF0CFF0CC9018E0D9F1D473309F446C03F
:101DF000A801420F531F4130584008F43FC060E033
:101E000078E05B01A21AB30AA501B4010E94CE08D2
:101E1000A8014A195B09B4016A0D7B1DC7010E9424
:101E2000CE08C00ED11ED982CA8222E030E0AE01B7
:101E30004F5F5F4F64E270E0872D0E94510960E2BE
:101E400070E0872D0E94110B62E070E0872D0E94E8
:101E5000A20A84FD16C063E070E0872D0E94A20AEA
:101E6000882331F180E591E00E94F503EDCF10E089
:101E700000E094CF60E1E60EF11CAFCFA801B40101
:101E8000CECF40E162E070E0872D0E947309C80167
:101E90000F900F90DF91CF911F910F91FF90EF90D6
:101EA000DF90CF90BF90AF909F908F907F900895DC
:101EB00010E000E0ECCF0F931F93CF93DF938C01E2
:101EC000EA01FC018485843048F40E94A10E892B2C
:101ED00039F481E090E0F80193838283D0E0C0E0A0
:101EE000CE01DF91CF911F910F910895FC01E60F74
:101EF000F71F2DE020832AE02183AB014E5F5F4F67
:101F0000BC018CE594E00C945B0FCF92DF92EF92D2
:101F10000F931F93CF93DF936C01EB01AB0170E044
:101F200060E080E3E82E04E610E020E030E0C60147
:101F30000E94FA0780E2F60183836DEE75E0C63FEA
:101F4000F1E0DF07F9F078F568E076E0CC3DD10507
:101F5000C9F068F464E376E0C73DD10599F060EB21
:101F600075E0C039D14070F46DEA75E00BC063E0F4
:101F700076E0CD3DD10531F069EF75E0C33CE1E09D
:101F8000DE0769F7C60104960E9463088C5F682F1C
:101F900070E0C601DF91CF911F910F91EF90DF901C
:101FA000CF900C94760F63ED75E0C632F2E0DF0758
:101FB00049F338F460EE75E0C930E2E0DE0711F372
:101FC000CECF64EC75E0C832F2E0DF07D9F267EB00
:101FD00075E0C93282E0D807A9F2C1CFFF920F9312
:101FE0001F93CF93DF9300D0CDB7DEB7F82E22E05A
:101FF00030E0AE014F5F5F4F66E270E00E94AE0BD3
:1020000009811A8110270127102722E030E0AE0154
:102010004F5F5F4F66E270E08F2D0E94AE0B8981AB
:102020009A819827892798270817190749F4C80122
:102030000F900F90DF91CF911F910F91FF90089516
:102040008C01E3CF1F93CF93DF93182F87E0189F66
:10205000E0011124C150DC4F88819981009761F41F
:1020600080E591E00E94F503812F0E94EE0F2E8102
:10207000821B910999838883DF91CF911F910895E5
:10208000FC018485843010F40C94221090E080E0F0
:1020900008957F928F929F92AF92BF92CF92DF92DC
:1020A000EF92FF920F931F93CF93DF938C015B010D
:1020B0007A018091FE03882309F465C08BE1C82E64
:1020C00084E0D82E4601712CC0E0D4012D913D91C1
:1020D0004D01F801848195812817390799F48C2FD7
:1020E0000E94BF0AD82F873119F08C3109F03FC008
:1020F0008C2F0E942210892B29F4DC3119F48C2FAB
:102100000E94210BCF5FC43001F7711008C0D801C5
:10211000ED91FC910084F185E02DC8010995C0E0A6
:10212000F601219131916F01D80114968D919C9106
:102130002817390751F48C2F0E94BF0A873129F4E0
:10214000A701B5018C2F0E94A10ECF5FC43041F7CB
:10215000C701DF91CF911F910F91FF90EF90DF901A
:10216000CF90BF90AF909F908F907F9008958431D3
:1021700039F08111C7CFF401329711821082C2CF9A
:1021800077247394BFCFF12CE12CE2CF4F925F9272
:102190007F928F929F92AF92BF92CF92DF92EF92F7
:1021A000FF920F931F93CF93DF9300D0CDB7DEB78D
:1021B000782E6B014A01A82EB12C27E0829FC00126
:1021C0001124FC01E150FC4F7F010081118180E569
:1021D00091E00E94F5030815190554F4872D0E941B
:1021E000EE0FF70126818C01021B11091183008378
:1021F0000115110529F563E070E0872D0E94A20A00
:10220000843159F0882349F001E010E08C3111F459
:1022100010E000E0119501951109C8010F900F9091
:10222000DF91CF911F910F91FF90EF90DF90CF90B2
:10223000BF90AF909F908F907F905F904F90089548
:10224000801691060CF4840187E08A9DF0018B9D35
:10225000F00D1124E150FC4FE280F380C114D10451
:1022600051F12701F7E05F22872D0E944309840D79
:10227000951D2091FE03273309F453C09801240DC6
:10228000351D2130384008F44CC020E038E04901C9
:1022900084189508A401B6010E94490A2601480C39
:1022A000591C6801C818D908872D0E944309A60146
:1022B000B2010E94490AE00EF11E87E08A9DF001FA
:1022C0008B9DF00D1124E150FC4FF382E2822081BE
:1022D0003181201B310B318320838681800F912F28
:1022E000911D8A3F910510F4232BF1F487E08A9D1C
:1022F000F0018B9DF00D1124E150FC4F1682F98204
:10230000EA8222E030E0AE014F5F5F4F68E270E0AA
:10231000872D0E94510960E470E0872D0E94110B07
:102320007CCFA801B601C5CF868377CFCF93DF934B
:102330001F92CDB7DEB741E050E0BE016F5F7F4F27
:10234000FC0184850E94C6101816190634F4898190
:1023500090E00F90DF91CF9108958FEF9FEFF9CF2D
:10236000FC018485843010F40C94C61090E080E069
:1023700008950F931F93CF93DF9300D0CDB7DEB7AF
:10238000FC0124852430E0F48C0180E591E00E947A
:10239000F50322E030E0AE014F5F5F4F60E170E097
:1023A000F80184850E94AE0B89819A81982789273C
:1023B00098270F900F90DF91CF911F910F91089563
:1023C00090E080E0F6CF0F931F93CF93DF9300D080
:1023D000CDB7DEB7FC0124852430E0F48C0180E524
:1023E00091E00E94F50322E030E0AE014F5F5F4FC5
:1023F00064E070E0F80184850E94AE0B89819A81C7
:102400009827892798270F900F90DF91CF911F91E0
:102410000F91089590E080E0F6CFCF93DF931F9265
:10242000CDB7DEB741E050E0BE016F5F7F4F90E077
:1024300080E00E94490A89810F90DF91CF91089531
:10244000CF92DF92EF92FF920F931F93CF93DF9380
:102450008C016A017B01E901209709F471C0E091C8
:102460002904F0E0EF5DFE4F808180FD6CC080812B
:1024700082FD6BC080E58CBDE0912904F0E0E95D50
:10248000FB4F808184FD07C099E0CC0CDD1CEE1C65
:10249000FF1C9A95D1F7C130D10559F5B701A601B6
:1024A00088E10E949606882391F0C1E0D0E00E9466
:1024B000750681E090E0CD2B09F480E0DF91CF91AB
:1024C0001F910F91FF90EF90DF90CF9008950E94A1
:1024D000EE05892B51F38EEF0E94E505C8010E949D
:1024E000100631E020E0892B09F030E0C32FD22F15
:1024F000DECF8C7031F0AE0170E060E087E90E94C1
:102500009606B701A60189E10E9496068111CFCFF8
:102510000E94EE05892B59F08CEF0E94E505C80159
:102520000E941006892B19F01E5F219789F70E94DF
:10253000EE05892B09F4B9CF8DEF0E94E505B7CFE1
:1025400084E090E0BBCF83E0FCCF82E0FACF8F92B3
:102550009F92AF92BF92CF92DF92EF92FF920F9332
:102560001F93CF93DF93EC01CBA4DCA4EDA4FEA4D6
:102570008C01015D1F4F89810E94A50721E030E099
:10258000B701A601C8010E942012892B71F51B8298
:102590008BA59CA5ADA5BEA5CF88D88CE98CFA8C5F
:1025A0004F8D58A169A17AA14C015D01841A950A49
:1025B000A60AB70AB501A4014C155D056E057F0595
:1025C00088F42A81223071F4C80ED91EEA1EFB1E3F
:1025D00089810E94A50721E030E0B701A601C8016A
:1025E0000E94201290E080E002C081E090E0DF9144
:1025F000CF911F910F91FF90EF90DF90CF90BF9000
:10260000AF909F908F900895FC01238121110C942D
:10261000A71290E080E00895CF92DF92EF92FF92B0
:102620000F931F93CF93DF93EC016A017B018BA57E
:102630009CA5ADA5BEA510E000E08C159D05AE05DE
:10264000BF05E9F0CE010E9404138C01892BB9F477
:1026500089810E94A50721E030E0B701A601CE01E3
:102660008F960E94DF06892B31F001E010E0CC2428
:10267000CA94DC2C7601CBA6DCA6EDA6FEA6C8018A
:10268000DF91CF911F910F91FF90EF90DF90CF904E
:102690000895AF92BF92CF92DF92EF92FF920F9385
:1026A0001F93CF93DF93423051056105710508F404
:1026B000A9C0FC010389148925893689401751076F
:1026C0006207730708F09EC06A017B01EC018081FC
:1026D000823009F457C0833009F471C0813009F0A9
:1026E00091C08A0116950795040F151FC801892FFF
:1026F00099278695478D50A161A172A1480F591F56
:10270000611D711DCF010E940C13892B71F06FEFB9
:102710007FEFCB01DF91CF911F910F91FF90EF9051
:10272000DF90CF90BF90AF9008955801FFEFAF1AA0
:10273000BF0A1170FE01E00FF11F17A5C501892F17
:10274000992786954F8D58A169A17AA1480F591FE5
:10275000611D711DCE010E940C13892BC1F681E011
:10276000B822CA0DDB1D6FA5762F612FC0FE08C0F1
:10277000E4E076956795EA95E1F790E080E0CACFCE
:102780007F70FBCF77276F2D5E2D4D2D878D90A10C
:10279000A1A1B2A1480F591F6A1F7B1FCF010E9440
:1027A0000C13892B09F0B3CFCC0CDD1CE894C0F8D6
:1027B000E1E0DE22CC0DDD1D6FA578A9DECF878D8F
:1027C00090A1A1A1B2A137E076956795579547955D
:1027D0003A95D1F7480F591F6A1F7B1FCF010E94FE
:1027E0000C13892B09F093CFAF96C601880F991F60
:1027F000880F991F8C7F91708C0F9D1F0E949307EB
:102800009F7088CF61E070E080E090E083CF8F928E
:102810009F92AF92BF92CF92DF92EF92FF920F936F
:102820001F93CF93DF938C01FC01C081D181168669
:102830001786108A118AC680D780E084F184C1147B
:10284000D104E104F104D1F58881833040F08BA1FB
:102850009CA1ADA1BEA10097A105B10589F58F810D
:102860009885892B79F482E090E0DF91CF911F91D8
:102870000F91FF90EF90DF90CF90BF90AF909F901F
:102880008F9008958BA19CA1ADA1BEA1F801868B6C
:10289000978BA08FB18FF801C28AD38AE48AF58A18
:1028A00086899789A08DB18D892B8A2B8B2BD9F2A4
:1028B000AF96D38FC28F90E080E0D7CFD701C6010B
:1028C00089849A84B12CA12C29E0880C991CAA1C1B
:1028D000BB1C2A95D1F76C017D01B701A6018114BB
:1028E0009104A104B10449F0CE010E946B07F801E4
:1028F000668B778B808F918FCECFF801808191810D
:102900000E9449136B017C01FFEFCF16DF06EF0633
:10291000FF0689F082E0C816D104E104F10408F44E
:10292000A2CF8B899C89AD89BE89C816D906EA06D3
:10293000FB0698F298CF81E090E097CF2F923F92DC
:102940004F925F926F927F928F929F92AF92BF92BF
:10295000CF92DF92EF92FF920F931F93CF93DF936B
:1029600000D000D000D0CDB7DEB79E838D836A0142
:102970007B0128013901DC018C91823009F497C078
:10298000833009F4B6C0813009F0F4C08A0116958D
:102990000795040F151FC801892F992786955F9603
:1029A0004D915D916D917C919297480F591F611DDA
:1029B000711DCD010E940C135C01892B09F056C0DA
:1029C0002D803E80BFE22B0E311C4801EFEF8E1AA6
:1029D0009E0A1170F101E00FF11F842DA7019601ED
:1029E000217033274427552729833A834B835C83FF
:1029F000C0FE07C080818F7040E1449E9001112489
:102A0000822B808381E0AD81BE8113968C931397D6
:102A10005F964D915D916D917C919297C401892F44
:102A200099278695480F591F611D711DCD010E9480
:102A30000C135C01892BD1F4B1E09B22F101E80D6C
:102A4000F91D29813A814B815C81232B242B252B75
:102A500039F164E076946794579447946A95D1F776
:102A6000408281E0AD81BE8113968C93C50126968C
:102A70000FB6F894DEBF0FBECDBFDF91CF911F918F
:102A80000F91FF90EF90DF90CF90BF90AF909F900D
:102A90008F907F906F905F904F903F902F90089510
:102AA0008081807F352D3F70432E482AD9CF7727EC
:102AB0006F2D5E2D4D2DED81FE81878D90A1A1A101
:102AC000B2A1480F591F6A1F7B1FCF010E940C1330
:102AD0005C01892B59F6ED81FE81BF96CC0CDD1C83
:102AE000E894C0F821E0D222EC0DFD1D0083518254
:102AF000B8CFED81FE81878D90A1A1A1B2A137E071
:102B000076956795579547953A95D1F7480F591F90
:102B10006A1F7B1FCF010E940C135C01892B09F0F7
:102B2000A5CFFFE07F228D819E818F96CC0CDD1C8E
:102B3000CC0CDD1C2CEFC22221E0D222C80ED91E03
:102B4000C6010E949307662777278827907F462A29
:102B5000572A682A792AD6014C9211965C921197CD
:102B600012966C92129713967C9281E0ED81FE8111
:102B700083837CCF82E0A82EB12C78CF4F925F92D6
:102B80006F927F928F929F92AF92BF92CF92DF927D
:102B9000EF92FF920F931F93CF93DF938C012A0143
:102BA0003B01FC01C081D1814114510461047104D5
:102BB00009F58B849C84AD84BE8481149104A104A6
:102BC000B10409F44DC08B899C89AD89BE898816F2
:102BD0009906AA06BB0608F043C08F859889A98983
:102BE000BA89892B8A2B8B2B09F03FC0C12CD12CA1
:102BF000760116C0CE010E9449136B017C01F2E000
:102C0000CF16D104E104F10408F40CC12FEFC21671
:102C1000D206E206F206B9F4CC24CA94DC2C760182
:102C2000C701B601DF91CF911F910F91FF90EF90F7
:102C3000DF90CF90BF90AF909F908F907F906F90DC
:102C40005F904F9008958B899C89AD89BE8953010F
:102C50004201C816D906EA06FB0608F0BECFE0CF4F
:102C6000812C912C54018394B8CF84149504A6042C
:102C7000B70409F041C0750164018FEFC81AD80A82
:102C8000E80AF80A8B899C89AD89BE89C816D906DD
:102C9000EA06FB0628F022E0C22ED12CE12CF12C12
:102CA000B701A601F801808191810E94491361302A
:102CB00071058105910509F4B5C06F3FFFEF7F07EE
:102CC0008F079F0709F4A8CF672B682B692B09F49E
:102CD0004DC08B859C85AD85BE8582309105A10553
:102CE000B10550F04B895C896D897E898417950701
:102CF000A607B70708F478C0750164012FEFC21A60
:102D0000D20AE20AF20A8B899C89AD89BE89C8166B
:102D1000D906EA06FB0660F082E088169104A10459
:102D2000B10408F463CF92E0C92ED12CE12CF12C30
:102D3000B701A601F801808191810E9449136115B4
:102D4000710581059105B9F0613071058105910525
:102D500009F468C06F3F7F4F8F4F9F4F09F45CCFDE
:102D6000C814D904EA04FB0449F640CFC114D104C5
:102D7000E104F10409F222E0C216D104E104F104F5
:102D800008F450C08B899C89AD89BE89C816D906C4
:102D9000EA06FB0608F046C00FEF1FEF9801B701E7
:102DA000A601CE010E949E140097C9F5411451045A
:102DB00061047104E1F4CB86DC86ED86FE868F85A6
:102DC0009889A989BA894B895C896D897E89425025
:102DD000510961097109481759076A077B0738F5D6
:102DE0008C8181608C831CCF4C015D0185CF82E09A
:102DF0004816510461047104A8F08B899C89AD893F
:102E0000BE89481659066A067B0660F4970186015A
:102E1000B301A201CE010E949E14009761F20197B6
:102E200009F4FACEC12CD12C7601C394F9CE0197C6
:102E3000A109B1098F87988BA98BBA8BD1CF4F92FB
:102E40005F926F927F928F929F92AF92BF92CF923A
:102E5000DF92EF92FF920F931F93CF93DF9300D0F7
:102E600000D000D0CDB7DEB76B017C01CE0101965A
:102E70000E94B0078C01892B09F0F4C0009139043D
:102E800010E00115110509F0EDC080913404909116
:102E90003504A0913604B09137048C159D05AE051C
:102EA000BF0530F42091380421FD02C06C017D0182
:102EB00040903A0450903B0460903C0470903D0474
:102EC00010923A0410923B0410923C0410923D047C
:102ED000C114D104E104F10439F480E090E0DC0194
:102EE000C12CD12C760180C0E981FA818184928441
:102EF000B12CA12C39E0880C991CAA1CBB1C3A955A
:102F0000D1F7411451046104710409F48AC081E0CD
:102F1000481A510861087108C701B601615071096A
:102F200081099109A50194010E94C3332B833C833D
:102F30004D835E83C301B201A50194010E94C33396
:102F40008B819C81AD81BE8182179307A407B50751
:102F500008F467C088279927DC0188199909AA090C
:102F6000BB0984219521A621B72180933A0490932F
:102F70003B04A0933C04B0933D04C81AD90AEA0A62
:102F8000FB0A40913E0450913F04609140047091CF
:102F90004104411551056105710509F0E4C0C12CDA
:102FA000D12C760180913A0490913B04A0913C048D
:102FB000B0913D0440913404509135046091360441
:102FC00070913704481759076A077B0768F48093A4
:102FD000340490933504A0933604B09337042091C1
:102FE00038042064209338049170AA27BB27892BCA
:102FF0008A2B8B2BB9F18091420490914304A091CC
:103000004404B09145048C159D05AE05BF0551F1F2
:10301000C0924204D0924304E0924404F0924504EA
:1030200021C040913004509131046091320470917C
:103030003304411551056105710509F03FC040E0B9
:1030400050E0BA018AE294E00E94BE15AB01BC01D7
:103050004130510561057105E9F482E0809339043E
:1030600002E010E0C80126960FB6F894DEBF0FBE4E
:10307000CDBFDF91CF911F910F91FF90EF90DF9027
:10308000CF90BF90AF909F908F907F906F905F9008
:103090004F9008954F3F9FEF59076907790731F423
:1030A00081E08093390401E010E0DCCF40933004EC
:1030B00050933104609332047093330440933E0480
:1030C00050933F04609340047093410462CFC8184A
:1030D000D908EA08FB08880D991DAA1DBB1D80931D
:1030E0003A0490933B04A0933C04B0933D04809138
:1030F000380481FF0FC08AE294E00E94BE15AB0144
:10310000BC01411551056105710561F4C12CD12C3B
:10311000760137C080912A0490912B040E944913B4
:10312000AB01BC014F3FAFEF5A076A077A0709F4BA
:10313000B7CF423051056105710508F48ECFE981A2
:10314000FA8183899489A589B689481759076A073E
:103150007B0708F082CF40933E0450933F04609376
:1031600040047093410480913A0490913B04A091F3
:103170003C04B0913D048C149D04AE04BF0408F4DB
:10318000A6CF80913A0490913B04A0913C04B09169
:103190003D048C0D9D1DAE1DBF1D80933A04909380
:1031A0003B04A0933C04B0933D04D701C601917049
:1031B000AA27BB27892B8A2B8B2B09F4F0CE898178
:1031C0009A810E946B07611571058105910509F4CB
:1031D00044CF29E0F694E794D794C7942A95D1F781
:1031E000C60ED71EE81EF91EDDCE8F929F92AF92BB
:1031F000BF92EF92FF920F931F93CF93DF9300D074
:10320000CDB7DEB7CE0101960E94B0077C01892BB5
:1032100009F0F6C08091380486FFE7C0409146046B
:1032200050914704609148047091490489819A81C2
:103230000E940C137C01892B09F0E2C0E0914A0442
:10324000F0914B04838580628387409130045091D4
:103250003104609132047091330420912A0430913A
:103260002B04428F538FD9012C91233029F4CB01A9
:10327000AA27BB27848B958B309134042091350489
:103280009091360480913704348F258F968F878FE5
:10329000168A178A81E2808F80E5818F128A138ACD
:1032A00009811A8181E0F8018383C8010E94A71275
:1032B0007C01892B09F091C0D8018C91833009F0F1
:1032C00072C014968C911497813009F06CC01196DD
:1032D0008C9120E032E07801BFE2EB0EF11CF701A7
:1032E000A901119241505040E1F795E5F801E35DE5
:1032F000FD4F90839AEA3196908392E5D8019F968C
:103300009C939F97D0969C93D09791E6D1969C934F
:10331000D19721E4D2962C93D29732E77B973083D2
:10332000319630833196208331969083F80147851A
:10333000308921899289E95EFD4F4083319630833F
:1033400031962083319690831B964C911B971C9647
:103350003C911C971D962C911D971E969C911E9733
:103360003196408331963083319620833196908315
:10337000F801838C948CA58CB68CFFEF8F1A9F0A72
:10338000AF0ABF0A9B968D929D92AD92BC929E977A
:103390000E94A50721E030E0B501A401C7010E9409
:1033A0002012F8011482D80111968C910E94A50771
:1033B000E0912904F0E0EF5DFE4F808180FD2EC09A
:1033C00080E58CBD0E947A0631E020E0892B09F06F
:1033D00030E0E32EF22E0E947506809138048F7B38
:1033E00080933804E114F10459F4CE0101960E944F
:1033F000B0077C01892B21F410922B0410922A042F
:10340000C7010F900F90DF91CF911F910F91FF9007
:10341000EF90BF90AF909F908F900895EE24E3942B
:10342000F12CDBCF2F923F924F925F926F927F925F
:103430008F929F92AF92BF92CF92DF92EF92FF92C4
:103440000F931F93CF93DF9300D000D0CDB7DEB79B
:10345000FC01208131813C832B83C684D784E088A2
:10346000F18830E2C30ED11CE11CF11CC114D1045F
:1034700080E2E806F10420F0168A178A108E118E79
:1034800086899789A08DB18D0097A105B105B1F10D
:103490003B018F01B701A601517066277727452BA5
:1034A000462B472B09F0DEC00196A11DB11D868B6E
:1034B000978BA08FB18F4289538964897589EB817D
:1034C000FC814115510561057105D9F4878190850D
:1034D000B0E0A0E0B701A60135E076956795579575
:1034E00047953A95D1F7481759076A077B0708F4BB
:1034F000B9C0F801168A178A108E118E84E090E008
:1035000024C0818592850197B0E0A0E04601570173
:1035100029E0B694A794979487942A95D1F78821A7
:103520009921AA21BB21892B8A2B8B2B09F09AC0C8
:10353000CF010E9449134B015C01F2E08F16910408
:10354000A104B104C8F482E090E00F900F900F90B6
:103550000F90DF91CF911F910F91FF90EF90DF902F
:10356000CF90BF90AF909F908F907F906F905F9023
:103570004F903F902F9008952FEF82169206A2064B
:10358000B20619F481E090E0E0CFEB81FC81838901
:103590009489A589B68988169906AA06BB0608F4F7
:1035A00051C0672809F4A5CFF8014289538964897D
:1035B0007589C8010E94BE154B015C0187E090E04F
:1035C00081149104A104B10409F4BFCFF1E08F1676
:1035D0009104A104B10409F4B6CF2FEF821692062C
:1035E000A206B20679F28B819C810E940413892B7A
:1035F00049F6B501A4018B819C810E946B072B01C8
:103600003C01EB81FC8143A654A665A676A6BF9635
:10361000FA83E98380E092E09C01119221503040CE
:10362000E1F7312C212CEB81FC81818592852816D4
:10363000390648F1EB81FC8181859285281639068F
:1036400009F0A0CFF801828A938AA48AB58AB501CD
:10365000A4018B819C810E946B07F801668B778B9C
:10366000808F918FF801C686D786E08AF18A8B8198
:103670009C818F9696013170280F391F338F228FCE
:1036800090E080E062CFEB81FC8181810E94A50700
:1036900021E030E0B301A201420D531D611D711DF7
:1036A00089819A810E942012892B21F63FEF231AEB
:1036B000330AB9CF8F929F92AF92BF92EF92FF924F
:1036C0000F931F93CF93DF93CDB7DEB7A1970FB6BC
:1036D000F894DEBF0FBECDBF7C01FA01CB0119A269
:1036E000223008F42AE08E010F5D1F4F822E912CAC
:1036F000B12CA12CBF01A50194010E94C333F90193
:10370000CA016A3074F5605DD8016E938D01232B78
:10371000242B252B79F790E080E0109789F0FD01AC
:1037200001900020E9F73197AF014A1B5B0BD701ED
:10373000ED91FC910280F381E02DB801C70109955C
:10374000A1960FB6F894DEBF0FBECDBFDF91CF912B
:103750001F910F91FF90EF90BF90AF909F908F902F
:103760000895695CD1CF8F929F92AF92BF92CF9212
:10377000DF92EF92FF920F931F93CF93DF937C0121
:10378000EB016C0182E0C80ED11C4701E5E08E0E12
:10379000911C10E000E0F60141916F0150E070E0F3
:1037A00060E02AE0CE010E945A1B5C01E881F981A9
:1037B0000190F081E02D6EE2CE0109958A0D9B1DEE
:1037C000080F191FC814D90431F7F701458150E0DB
:1037D00070E060E02AE0CE010E945A1B800F911F2A
:1037E000DF91CF911F910F91FF90EF90DF90CF90DD
:1037F000BF90AF909F908F9008950F931F93CF939A
:10380000DF93EC01FC01E35DFD4F008111819FA579
:103810009B3E21F0985E923008F04DC005352AEAB3
:10382000120761F448E050E066E771E0CE018F577F
:103830009F4F0E940534892B09F447C08AAD9BAD88
:103840009C012150310928233923232BA1F581150F
:10385000924089F58CAD882371F190E09C01215054
:10386000310982239323892B31F58DAD9EAD892BB0
:1038700011F18FAD8150990B0297E8F4FE01E05CE5
:10388000FF4F80819181892BB1F0329680819181A7
:103890008038910550F4CE01815B9F4F0E949307C1
:1038A000611571058140910530F0CB5BDF4F888158
:1038B0009981892B51F405351A4A51F083E090E043
:1038C000DF91CF911F910F91089590E080E0F8CFA4
:1038D00082E090E0F5CF2F923F924F925F926F92ED
:1038E0007F928F929F92AF92BF92CF92DF92EF9290
:1038F000FF920F931F93CF93DF93CDB7DEB7A097BF
:103900000FB6F894DEBF0FBECDBF6B01742EDB0186
:103910001D921C920E943E077C013BE0232E312C1D
:1039200097FD2AC0FC01EE0FFF1FED5DFB4F0081EC
:1039300011812CE0222E312C01151105E9F0F60140
:1039400011830083E89470F8D8018C91882371F179
:1039500011968C910E94A507E0912904F0E0EF5D9B
:10396000FE4F808180FD22C0772009F447C382FF8B
:1039700045C35AE0252E312CC101A0960FB6F8940C
:10398000DEBF0FBECDBFDF91CF911F910F91FF9092
:10399000EF90DF90CF90BF90AF909F908F907F90EF
:1039A0006F905F904F903F902F900895F801108294
:1039B000E1828E2D0E94A507E0912904F0E0EF5DE1
:1039C000FE4F808180FD29C1808193E0292E312C1A
:1039D00080FDD2CF772011F082FDCBCFD801139696
:1039E0001C928FEF9FEFDC01F80183A794A7A5A796
:1039F000B6A740E050E0BA01C8010E940C131C01B8
:103A0000892B09F0E7C1C8010E94FD1B8230910596
:103A100009F0E4C16801FBE0CF1AFEEFDF0A9E0166
:103A20002F5F3F4F790148013BEC831A3DEF930A2A
:103A30005701C6010E949307D5016D937D938D9325
:103A40009D935D01B0E1CB0ED11CC814D90489F758
:103A50006701E0E1CE0ED11C88248A94982C540191
:103A6000D7014D915D916D917D917D0183E090E055
:103A7000411551056105710509F4A6C1F8011382CC
:103A800083A694A6A5A6B6A6C8010E940C13892BEE
:103A900009F098C1C8010E94FD1B8230910508F011
:103AA00093C1F80182AD93AD8115924009F09CC19C
:103AB000F801EB5BFF4F80809180B12CA12C811429
:103AC000910439F4C8018D5A9F4F0E9493074B010E
:103AD0005C01D8019B962D913D914D915C919E97F3
:103AE0002D8B3E8B4F8B588FF801878A908EA18E3D
:103AF000B28E77AC72828FEF870D823008F074C17E
:103B0000F4ADF98B8F2F90E01A969C938E931997B2
:103B1000009709F469C19C01215031098223932344
:103B2000892B09F061C1F801E05CFF4F20813181F0
:103B30003C8B2B8B18963C932E931797C9018F7053
:103B40009927892B09F050C13296C080D180F12C81
:103B5000E12CC114D10439F4C801815B9F4F0E944C
:103B600093076B017C01D801DD96ED91FC913097B4
:103B700009F43AC1A72DB0E0A50194010E94EB33EE
:103B80006D8F7E8F8F8F98A39F0150E040E0298F2B
:103B90003A8F4B8F5C8F8B899C89E4E09695879553
:103BA000EA95E1F729013A01480E591E611C711C82
:103BB0008D8D9E8DAF8DB8A1480E591E6A1E7B1E3D
:103BC000C414D504E604F70408F40EC1C701B60115
:103BD0006419750986099709A9892A2F30E050E0F0
:103BE00040E00E94C333211531054105510509F418
:103BF000FBC0263FBFEF3B074B07BFE05B0708F06A
:103C0000F3C0263F9FEF39074105510508F4F9C17C
:103C1000A3E0B0E0BA8BA98BEFC0808181FDD4CE48
:103C2000F89485B1876085B984B1876084B980E5EF
:103C30008CBD81E08DBD84B18F6284B9249885B13B
:103C40008F6285B92C9A78948CB583608CBD4AE0DC
:103C5000F42E0E94EB05FA94F110FBCF35E0F32E21
:103C600040E050E0BA0180E00E949606C82E811123
:103C700005C0FA94F110F4CFD12C85C0F1E08F1378
:103C8000FBCF0E949B047C014AEA51E060E070E0B7
:103C900088E00E949606813009F047C09E012F5FA0
:103CA0003F4F59014E0135E0830E911C65010E9482
:103CB000EB05D6018D936D01A815B905C1F78B8170
:103CC0008130D1F68C818A3AB9F60E949B048E1914
:103CD0009F09883E93404CF440E050E060E070E47F
:103CE00089EA0E9496068111F0CF0E949B048E19EA
:103CF0009F09883E93400CF0BFCF40E050E0BA01EE
:103D00008AE30E9496068111B7CF0E94EB05D50188
:103D10008D935D01AC15BD05C1F7898128E0D22ED8
:103D200086FF31C0B8E1DB2E2EC040E050E0BA0182
:103D300089EA0E949606DD24D394823020F484E040
:103D4000D82E99EAC92E0E949B048E199F09883E9D
:103D5000934044F440E050E0BA018C2D0E94960656
:103D60008111F1CF0E949B048E199F09883E9340D8
:103D70000CF082CF40E052E060E070E080E10E9411
:103D80009606811179CFE0912904EE2EF12CF701EE
:103D9000E95DFB4FD0820E947506F701EF5DFE4F93
:103DA0008081DD2061F08E7F80838CB58C7F8CBD1F
:103DB0002C98E0912904F0E0EF5DFE4F05CE816084
:103DC0008083F6CF84E090E0EC14FD0409F048CE47
:103DD000049751F422242394312CCECD84309105C4
:103DE000C9F3029708F45DCEFDE02F2E312CC4CD2F
:103DF000E1E0F0E0FA8BE98B69017A01F2E0CF0EA5
:103E0000D11CE11CF11CD8015396CD92DD92ED92AC
:103E1000FC9256972D893E894F89588D5B962D933C
:103E20003D934D935C935E97898D9A8DAB8DBC8D40
:103E3000820F931FA41FB51FF801878F90A3A1A322
:103E4000B2A3420E531E641E751E47A250A661A661
:103E500072A629893A892330310509F09FC0E75AB3
:103E6000FF4F80819181892B09F0BECF4B895C89FE
:103E7000452B09F0B9CFC801855A9F4F0E9493077F
:103E8000D80193966D937D938D939C93969772E052
:103E9000CC0CDD1CEE1CFF1C7A95D1F74FEFC40E45
:103EA00041E0D41EE11CF11C49E0F694E794D7945C
:103EB000C7944A95D1F78C149D04AE04BF0408F44E
:103EC00093CF8FEF9FEFDC01F8018787908BA18B59
:103ED000B28B83879487A587B68780E884832989F6
:103EE0003A892330310509F048C0E15AFF4F8081FB
:103EF0009181019709F041C04D895E896F89788D64
:103F00004F5F5F4F6F4F7F4FC8010E940C13892B8B
:103F1000A1F5D80114961C92F801E35DFD4F808154
:103F2000918185359A4A49F5C8018F960E94930779
:103F3000623572458146914401F5C8018D5E9D4F01
:103F40000E9493076237724781449146B1F4C801D9
:103F5000895E9D4F0E949307D8011F966D937D93B4
:103F60008D939C935297C801855E9D4F0E94930745
:103F7000F8016387748785879687E989D801EC9370
:103F80008091E7039091E80301969093E803809372
:103F9000E70316969C938E931597EECCEB89FC89DC
:103FA000EF2B09F421CF2D8D3E8D4F8D58A1820F1F
:103FB000931FA41FB51FF80183A394A3A5A3B6A3C1
:103FC00029893A892230310529F4CC0CDD1CEE1CFC
:103FD000FF1C64CFA3E0B0E0A70196010E94EB3381
:103FE000969587957795679531E0C322DD24EE2479
:103FF000FF24C60ED71EE81EF91E50CF312C212CEF
:10400000BBCC263FFFE03F074105510508F4F0CE49
:1040100082E090E09A8B898BEFCE1F93CF93DF9352
:1040200000D000D000D0CDB7DEB79E838D83162F91
:1040300083E191E09C838B839A838983CE010196EF
:104040000E943E0797FD2BC0880F991FFC01ED5D74
:10405000FB4F0190F081E02D309709F01082ED8147
:10406000FE81309709F010828D5D9B4FDC01ED934E
:10407000FC9390E080E0112341F040E0BE016B5FD3
:104080007F4FCE0103960E946B1C26960FB6F894C4
:10409000DEBF0FBECDBFDF91CF911F9108958BE0A2
:1040A00090E0F3CFCF93C091F003C05D80911301F6
:1040B0008C1303C081E0CF910895883569F0809119
:1040C0002A0490912B04892B11F00E94F51860E0CE
:1040D00090E080E00E940D208EEF80930401C09359
:1040E000130161E086EB91E00E940D20892B11F312
:1040F00088E58093130180E0DECFEF92FF920F936B
:104100001F93CF93DF9300D000D0CDB7DEB78C01E3
:104110007B01FB0184858430A8F084E691E0F801FE
:10412000918380831282138214821582C8010F90BA
:104130000F900F900F90DF91CF911F910F91FF90F3
:10414000EF90089580E591E00E94F50324E030E0CF
:10415000AE014F5F5F4F6CE070E0F70184850E9415
:10416000AE0B84E691E0F8019183808389819A8186
:10417000AB81BC8182839383A483B583D7CF2F92F5
:104180003F924F925F926F927F928F929F92AF92E7
:10419000BF92CF92DF92EF92FF920F931F93CF9334
:1041A000DF93CDB7DEB7AE970FB6F894DEBF0FBE84
:1041B000CDBF8091F003823010F0512C11C090E0FF
:1041C000FC01E251FC4F2081223021F58B519C4FA4
:1041D000552453942091F103DC018C91281768F742
:1041E000852DAE960FB6F894DEBF0FBECDBFDF9122
:1041F000CF911F910F91FF90EF90DF90CF90BF90E4
:10420000AF909F908F907F906F905F904F903F9076
:104210002F90089512168CF60E945220582E882353
:1042200061F21091F103809104011817C9F2809195
:104230002A0490912B04892B29F00E94F5188EEF07
:1042400080930401812F90E064E0959587956A95AD
:10425000E1F78A3008F042C0805D60900301712C64
:10426000F301ED5EFE4F80831F701A30C8F5105DBC
:10427000118383E191E09AA789A743E0BE01655DC0
:104280007F4FCE0189960E946B1C892B11F58BA460
:104290009CA49A828982E9A5FAA58F0181918F3227
:1042A000E1F38C35D1F31F82188619861A86F8013E
:1042B00080811401FFE22F0E311C803208F05BC0B8
:1042C00080E888A7CE0101960E940714892B09F483
:1042D000D3C010922B0410922A046FCF895CBDCFFB
:1042E000195CC6CF8EE2481609F42EC1EA14FB040D
:1042F00080F7642D70E08FE791E00E942234892BD3
:1043000041F78FE9840D8A3110F490EE490EEDE10A
:10431000F0E0EC0FFD1FEE0DFF1D4082D70111965E
:104320007D013AC084E068C044E0E42EF12C88A509
:10433000EF2879F682FDA0C08D8184FFCACFEF857A
:10434000F889F170E20DF31D428D538D70E060E04D
:10435000D4018C91833059F484899589B0E0A0E030
:10436000DC0199278827482B592B6A2B7B2B4F83FD
:10437000588769877A874BE050E060E270E0CE01B1
:104380004D960E941B341EA70DA7F12CE12CD12CB9
:10439000C12C58E0A52EB12C8FEFC81AD80AADA5B4
:1043A000BEA58D91BEA7ADA7482EB0E2B81788F480
:1043B000EFE28E1719F0FCE58F1394CFF801EC0DA6
:1043C000FD1D6F01C01AD10A91919F32D1F39C3526
:1043D000C1F3EF2809F47DCF9D8D953E11F4B5E032
:1043E000BD8F0C0D1D1D813208F49CCFF80180811A
:1043F00081320CF497CF80E088A7A980BA80CE01E3
:1044000001960E9407147C01892B09F090CF4F89F7
:10441000588D698D7A8DC5010E940C137C01892B02
:1044200009F085CFCB8CDC8CD6018C91882309F4E4
:104430007BCF1B968C91982F9F739D8383FD15C016
:10444000A301BE01635E7F4FC6010E940534892B24
:1044500061F443E050E0BE016B5D7F4FC6010896FA
:104460000E940534892B09F462CF70E060E0CE0130
:1044700001960E94121AC7CF88A587FD2ACF8D8189
:10448000817109F026CF0BA51CA5F80183A594A581
:10449000A5A5B6A58093460490934704A09348042D
:1044A000B0934904EB8DFC8DF0934B04E0934A04E8
:1044B000428D538D70E060E0D8018C91833059F4C7
:1044C000C488D588F12CE12C7601DD24CC244C293C
:1044D0005D296E297F294093300450933104609305
:1044E000320470933304CF014C960E94930760937B
:1044F00034047093350480933604909337041093FA
:104500002B0400932A04F8018581968190932D0451
:1045100080932C0483E08093380410923904109225
:1045200042041092430410924404109245041092E5
:104530003A0410923B0410923C0410923D04809186
:10454000F103809304014CCEBBE0AB16B10409F437
:10455000C0CE88E0E82EF12C9BE0A92EB12C1CCF18
:104560002F923F924F925F926F927F928F929F9283
:10457000AF92BF92CF92DF92EF92FF920F931F9371
:10458000CF93DF9300D0CDB7DEB75C010E94BF2090
:10459000882309F418C28091F003C090F203D090F0
:1045A000F303F12CE12CE82FF0E0E251FC4F3081D5
:1045B000323089F43091F103E32A0E94A50721E00B
:1045C00030E0B701A601C5010E942012892B09F431
:1045D0008AC187E289C1C701B601F9E0660F771F7A
:1045E000881F991FFA95D1F76B017C0122E0D20E4A
:1045F000E11CF11C00913404109135042091360423
:10460000309137040C151D052E053F0510F3009160
:104610003A0410913B0420913C0430913D04601712
:1046200071078207930721F5CE0101960E94B0071A
:10463000892B79F6809139048111CBCF8091380490
:1046400081FFC7CF80913A0490913B04A0913C0434
:10465000B0913D047C01E094F09481159E4FAF4FE2
:10466000BF4F18F4E12C82E0F82E312C212CE5C04C
:104670000E941F17892BC1F2ACCF40913E0450918C
:104680003F04609140047091410419C1613071058B
:104690008105910521F482E0809339049ACF6F3F20
:1046A0002FEF72078207920711F481E0F5CF609334
:1046B0003E0470933F048093400490934104009122
:1046C0003004109131042091320430913304012BD5
:1046D000022B032B41F460933004709331048093D8
:1046E00032049093330489819A81FC0103A514A5B7
:1046F00025A536A54091420450914304609144049D
:1047000070914504041715072607370721F40E9406
:104710000413892B51F689809A8040913E04509170
:104720003F046091400470914104C4010E946B07F2
:10473000611571058105910509F4ADCF2B013C018F
:104740004C0C5D1C611C711C8701012F1127069503
:104750000115110509F4DDC0F401818592859601EA
:10476000200F311F8217930718F48C010C191D09B3
:10477000F40181810E94A5079801B301A201C5013E
:104780000E942012892B09F090CF89819A81FC0127
:1047900043A554A565A576A5441955096609770969
:1047A0002801712C612C441555056605770588F4A0
:1047B000DC019F96FA01FE2FEE27FF0FEA0DFB1D8D
:1047C00020E032E001900D9221503040D9F7FC01F9
:1047D0001382102F0027110FE01AF10A200E311E4C
:1047E000A00EB11E80913A0490913B04A0913C042C
:1047F000B0913D04800F911FA11DB11D80933A041B
:1048000090933B04A0933C04B0933D044091340446
:104810005091350460913604709137044817590758
:104820006A077B0710F4AC01BD0140933404509338
:1048300035046093360470933704E114F10409F4ED
:1048400048C080913A0490913B04A0913C04B091FF
:104850003D04AC01BD01517066277727452B462BDF
:10486000472B09F07FC0E981FA81C184D284E1E05D
:10487000CE1AD108AC01BD01E9E076956795579550
:104880004795EA95D1F7C422D522C114D10409F085
:104890002ACF892B8A2B8B2B09F0EFCE6091300425
:1048A0007091310480913204909133046115710547
:1048B0008105910509F0EACE40E050E0BA018AE2B4
:1048C00094E00E94BE15611571058105910509F0FE
:1048D000DDCE809138048064809338042114F2E0A6
:1048E0003F0609F076CE80E00F900F90DF91CF91D8
:1048F0001F910F91FF90EF90DF90CF90BF90AF90FE
:104900009F908F907F906F905F904F903F902F90EF
:10491000089540913A0450913B0460913C04709199
:104920003D048091340490913504A0913604B091F7
:104930003704481759076A077B0760F0C4010E94D3
:104940000413892B09F0B1CEE981FA8143A654A65C
:1049500065A676A6409242045092430460924404B5
:104960007092450480913A0490913B04917020E04C
:1049700032E0281B390B87012E153F0508F4890109
:104980004091420450914304609144047091450465
:1049900089819A810E940C13892B09F086CE298186
:1049A0003A81215D3F4F80913A0490913B04917090
:1049B000A801B501820F931F0E941234E981FA8188
:1049C00031E0338309CF88E28FCF0F931F93CF93CA
:1049D000DF93CDB7DEB7D2500FB6F894DEBF0FBE6F
:1049E000CDBFFE013196CE018F5F9D4F8F01339970
:1049F000FECF4298429842984298429829B121931A
:104A0000429AE817F90799F70E94B009C8010E9475
:104A1000B022DE5F0FB6F894DEBF0FBECDBFDF91D0
:104A2000CF911F910F9108952F923F924F925F92D5
:104A30006F927F928F929F92AF92BF92CF92DF92AE
:104A4000EF92FF920F931F93CF93DF9300D0CDB7D8
:104A5000DEB75C010E94BF20882309F494C18091D5
:104A6000F003C090F203D090F303F12CE12CE82F77
:104A7000F0E0E251FC4F3081323029F53091F10302
:104A8000E32A0E94A50721E030E0B701A601C50195
:104A90000E94DF06892B09F43AC187E20F900F903C
:104AA000DF91CF911F910F91FF90EF90DF90CF900A
:104AB000BF90AF909F908F907F906F905F904F903E
:104AC0003F902F900895C701B60149E0660F771F08
:104AD000881F991F4A95D1F700913A0410913B0421
:104AE00020913C0430913D046017710782079307C1
:104AF00069F5CE0101960E94B007892B71F680916D
:104B000039048111CACF8091380480FFC6CF8091CB
:104B1000340490913504A0913604B091370440914B
:104B20003A0450913B0460913C0470913D04841B15
:104B3000950BA60BB70B811522E09207A105B105D5
:104B400008F01CC17C01912C812CD8C00E941F1739
:104B5000892B79F2A2CF80913A0490913B04A091E5
:104B60003C04B0913D04AC01BD015170662777272C
:104B7000452B462B472B09F0D4C0E981FA81C1842B
:104B8000D28431E0C31AD108AC01BD0139E0769579
:104B90006795579547953A95D1F7C422D522C11408
:104BA000D104A1F5892B8A2B8B2B89F460913004D9
:104BB0007091310480913204909133046230710518
:104BC0008105910598F482E08093390466CF409185
:104BD0003E0450913F0460914004709141048091E3
:104BE0002A0490912B040E944913E8CF6F3FEFEF06
:104BF0007E078E079E0711F481E0E6CF60933E04A6
:104C000070933F04809340049093410429803A803C
:104C100040913E0450913F046091400470914104E2
:104C2000C1010E946B07611571058105910559F25B
:104C30002B013C014C0C5D1C611C711C8701012F78
:104C4000112706950115110509F463C0F10181854D
:104C500092859601200F311F8217930718F48C015B
:104C60000C191D09F10181810E94A5079801B3016A
:104C7000A201C5010E94DF06892B09F0BDCFE981A1
:104C8000FA8183818823E9F083A594A5A5A5B6A51B
:104C900084199509A609B709A80170E060E0841796
:104CA0009507A607B70768F4DC01BA2FAA27BB0F40
:104CB000AA0DBB1DBF9680E092E001900D92019776
:104CC000E1F7102F0027110FE01AF10A800E911E54
:104CD000A00EB11E80913A0490913B04A0913C0437
:104CE000B0913D04800F911FA11DB11D80933A0426
:104CF00090933B04A0933C04B0933D04E114F10471
:104D000009F029CF811432E0930609F0C6CE80E085
:104D1000C5CE409242045092430460924404709283
:104D2000450480913A0490913B04917020E032E078
:104D3000281B390B87012E153F0508F48901409186
:104D40004204509143046091440470914504898168
:104D50009A810E940C13892B09F04ECF69817A81C8
:104D6000615D7F4F80913A0490913B049170680F90
:104D7000791FA801C5010E941234A6CF80E092E0FD
:104D8000A0E0B0E0DFCE88E289CE0F931F93CF93EF
:104D9000DF93CDB7DEB7D2500FB6F894DEBF0FBEAB
:104DA000CDBF082F0E94190A0230C0F09091EE0387
:104DB000913009F046C081E0913009F480E08093A1
:104DC000F00383EA033009F082EA8093F103CE0115
:104DD00001960E941425811139C00BC00E94B009B0
:104DE000CE0101960E941425182F013019F481116B
:104DF000DDCF10E0812F0E94360A111117C08FEF0E
:104E00008AB9FE0131969E012F5F3D4F3199FECF49
:104E100081918BB98BB940984098409840984098C0
:104E2000409AE217F30791F71BB81AB8DE5F0FB686
:104E3000F894DEBF0FBECDBFDF91CF911F910F91D0
:104E400008958091EF03813009F4B5CF033011F458
:104E500018E2D0CF8091A20190E024E0959587954B
:104E60002A95E1F787708093EB032091F20380E0AD
:104E7000922F990FB0E0A0E09E012F5F3F4FAE014F
:104E80004F5F5D4F6FEF853475E09707A105B10562
:104E900078F4FC01E859FF4F7491F9017083019691
:104EA000A11DB11D2F5F3F4F2417350761F7A1CF1B
:104EB000F9016083F4CFBF92CF92DF92EF92FF921D
:104EC0000F931F93CF93DF93CDB7DEB760970FB6E5
:104ED000F894DEBF0FBECDBFB090F0030B2D10E0F5
:104EE00002511C4FF8018081811131C00E94522073
:104EF0008823E9F181E0F8018083909103019B30E0
:104F000031F598E0909303018093F1030E94BF2054
:104F100081111DC086E59FE4ACE4B8E580931501DE
:104F200090931601A0931701B093180188E59EE2B3
:104F3000A0E5BFE48093190190931A01A0931B018F
:104F4000B0931C0110921D0185E0809303016096CF
:104F50000FB6F894DEBF0FBECDBFDF91CF911F918A
:104F60000F91FF90EF90DF90CF90BF9008958FEF5B
:104F7000F80180838FEF9FEFDC018093E101909334
:104F8000E201A093E301B093E4018B2D0E94A507F9
:104F900021E030E042E050E060E070E085EE91E03A
:104FA0000E94DF06892B99F68091E901813F38F450
:104FB000809108029091090287329D4041F68B2D25
:104FC0000E94A507E0912904F0E0EF5DFE4F80818B
:104FD00080FD24C080E58CBD40E050E0BA0189E04E
:104FE0000E949606882311F101E010E00E947506E8
:104FF000E091F003F0E0012B89F4EB51FC4F6701E5
:10500000EE24FF2481E8C816D104E104F10428F05D
:1050100080E8C82ED12CE12CF12CC082E091F00365
:10502000F0E0E251FC4F82E0808391CF60E170E0DC
:10503000CE0101960E943B06892BB1F24A85298553
:1050400088859981929596959695937050E09130C8
:1050500011F590E0B0E0A0E0DC01992788278827CF
:105060009927AF73BB270196A11DB11D30E0322FE8
:105070002227240F351F820F931FA11DB11D6C0124
:105080007D01AAE0CC0CDD1CEE1CFF1CAA95D1F71B
:1050900010E000E0ABCF229526952695237034E0F2
:1050A000839FC0011124820F911D01962F8130E052
:1050B000322F2227330F330F22273C70820F931F8A
:1050C000B0E0A0E02E812F703B85331F3327331FC4
:1050D000230F32E0320F440F551F242F2670230F69
:1050E0002950330B6C017D0104C0CC0CDD1CEE1C7F
:1050F000FF1C2A95D2F7CCCF0F931F93CF93C0916B
:10510000AC01C23029F480E0CF911F910F91089536
:105110008B01C093F0038093F1030E94BF2088238A
:1051200091F3EC2FF0E0E251FC4F90819230A9F026
:1051300040913404509135046091360470913704E5
:1051400099E076956795579547959A95D1F74130AF
:10515000510591E06907710520F040E050E061E001
:1051600070E0F8014083518362837383CDCF2F9227
:105170003F924F925F926F927F928F929F92AF92E7
:10518000BF92CF92DF92EF92FF920F931F93CF9334
:10519000DF93CDB7DEB767970FB6F894DEBF0FBECB
:1051A000CDBF6C01F62E8A012CE02617A0F0E62F69
:1051B000660FFF0BE252F74D0C94E533AE2BEB2854
:1051C000AB2BF228A82BA52B20296C2900296C29B0
:1051D0006C29A22B8B2B06EF11E0B801C6010E94AF
:1051E000850F5EC0BA018EE891E00E946F088130A1
:1051F00039F0B80181E991E00E946F08813011F423
:1052000082E01BC0D8018C918F3211F40F5F1F4FC9
:10521000B80183E991E00E946F08813029F410926F
:10522000AC010AEF10E0D9CFB80187E991E00E9404
:105230006F0806E212E0813081F68093AC01F1CF75
:1052400081E00E94B10D8111FBCF65EB76E0C601D4
:105250000E9463088C0D9D2D911D4BE0A42E41E012
:10526000B42EF12C5CE2952EF50141915F0150E0E6
:1052700070E060E0E12C04E610E020E030E00E9405
:10528000FA07FC01F394BC016F5F7F4F26E0F21236
:1052900020C089E280836C197D09C6010E94760FC7
:1052A00067960FB6F894DEBF0FBECDBFDF91CF91EA
:1052B0001F910F91FF90EF90DF90CF90BF90AF9034
:1052C0009F908F907F906F905F904F903F902F9026
:1052D0000895CB019082C8CF66E970E00E94850FE7
:1052E00080E00E94B10D882309F43BC287E0F812E8
:1052F000EAC08091AC01823009F03FC06FE776E0F0
:10530000C6010E9463086FE776E0C6018A960E9494
:1053100063088091EE0340E018161CF4823001F11E
:105320004AE28091EF03181694F4823049F482E542
:10533000F601E40FF11D838B81E4848B87E5858B77
:10534000465DF601E40FF11D339782E3808350E060
:10535000B6018DE494E00E945B0F02EE10E02BC1D9
:1053600082E5D60153968C93539781E454968C939F
:10537000549787E555968C93D3CFB12CA12C4E0131
:10538000B1E18B0E911CF6017596FF8BEE8B360109
:10539000F5E26F0E711CAD8A20E8A216B104E9F2A5
:1053A000B4018A2D0E947C28882309F484C08E01D0
:1053B0000F5F1F4FF801780180E281938E169F06E0
:1053C000D9F729883A884B885C88A2E0B0E0B0938E
:1053D000F303A093F2031982C6010E9414258111E0
:1053E0002AC0F60123A134A127323D4021F5D60180
:1053F00014962C91B0EF2B272031E8F4F601359666
:105400009191821708F05BC030EE390F3B3508F000
:1054100056C0D8019D938D018F5F8F3089F7F601BB
:1054200081A592A5B0E0A0E082159305A405B5057D
:1054300010F41C012D01298A3A8A4B8A5C8A8981E1
:105440008823C9F16AE376E0C6010E946308C501BA
:1054500034E0959587953A95E1F7805DD601DD9624
:105460008C938D898F708A3060F5805DF60186AFF0
:105470008FE0F701AE89BF8901900D928A95E1F71F
:1054800049895A896B897C8999E0440F551F661FA9
:10549000771F9A95D1F720E2E22E00E816E928E975
:1054A00030E0C3010E94FA0744E450E0B6018DE405
:1054B00094E00E945B0FFFEFAF1ABF0A6CCF90E23F
:1054C000A8CF895CD3CFB8018BE991E00E946F0827
:1054D000823009F01DC1D80113969C9180ED890F8F
:1054E0008A3038F08FEB890F863008F011C189ECD3
:1054F000890FF80124818295807F90ED920F9A3078
:1055000038F09FEB920F963008F002C199EC920FA1
:10551000BE016F5F7F4F892B0E947C2806E212E05C
:10552000882309F446C0F9E0FF1262C089809A809E
:10553000AB80BC8082E090E09093F3038093F20311
:10554000C6010E941425811118C0D60193968D9131
:105550009C9187329D4089F4F601848190EF8927E0
:10556000803158F481A592A5B0E0A0E08815990596
:10557000AA05BB0510F44C015D0189829A82AB82B9
:10558000BC82812C912C540189819A81AB81BC8190
:1055900088169906AA06BB0608F076C09092F30317
:1055A0008092F203C6010E941425882379F003EC4F
:1055B00011E00E9433076AE070E080E090E00E9412
:1055C00069048DE494E00E94390B07CEFFEF8F1A37
:1055D0009F0AAF0ABF0A40E052E0B6018DE494E0B2
:1055E0000E945B0F8115924079F20AEA11E0E1CF47
:1055F00010E000E0812C912C5401412C512C3201FF
:10560000E12C82E0F82E0E9433078DE494E00E94A2
:1056100040101C01892B09F04DC08DE494E00E94DC
:10562000CB0A8823E1F0411451046104710479F438
:105630000E949B042B013C01F8E84F0EF3E15F1E32
:10564000611C711C4114510461047104E1F20E9457
:105650009B04641975098609970997FDD4CF012B1E
:1056600099F089819A81AB81BC8188169906AA0636
:10567000BB0608F046C09092F3038092F203C60185
:105680000E94B022811193CF02EE10E092CF90924F
:10569000F3038092F203C6010E94B022811187CFEA
:1056A000EFEF8E1A9E0AAE0ABE0A10E000E0211447
:1056B000310451F10E943307C101800F911FA701EE
:1056C000401B510B8130924008F4A101B601600FDC
:1056D000711F8DE494E00E94B0111816190654F75A
:1056E000080F191F281A390A0115B2E01B07F8F232
:1056F00089819A81AB81BC8188169906AA06BB066E
:1057000030F208E212E055CF412C512C32018BCF00
:1057100009E212E050CF6AEA76E00E9463088091C5
:10572000AC01823039F482E2D60116968C9367E0A0
:1057300070E0B3CD813019F482E3F60180876AE02E
:1057400070E0ABCD09E012E048CD0DED10E045CDA5
:1057500008EC10E042CD07ED10E03FCD06EE10E082
:105760003CCD09EA11E039CD4F925F926F927F9262
:105770008F929F92AF92BF92FF920F931F93CF93FE
:10578000DF93CDB7DEB7C651D2400FB6F894DEBF77
:105790000FBECDBF0E9433078091B501811107C0B4
:1057A00080910B01811181C08FEF8093B501FF249F
:1057B000F39402E08091B501813009F04FC161E7B7
:1057C00074E0CE018F5F9D4F0E94400DCD5FDD4F95
:1057D00088819981C350D24090935F0480935E0486
:1057E000CB5FDD4F88819981AA81BB81C550D240B2
:1057F0008093600490936104A0936204B093630467
:10580000C75FDD4F88819981AA81BB81C950D24091
:105810008093640490936504A0936604B093670436
:10582000C35FDD4F8881CD50D24080936804C25F52
:10583000DD4F88819981CE50D24090936A04809345
:1058400069048CE594E00E94CB0A882361F0009300
:10585000B5016CED70E0CE0101960E94850F1092AB
:10586000A9010093AC018091B501823009F4A2CF67
:105870000E949B046C597F4F709302016093010159
:10588000CA5EDD4F0FB6F894DEBF0FBECDBFDF910D
:10589000CF911F910F91FF90BF90AF909F908F90ED
:1058A0007F906F905F904F90089598E090930001E3
:1058B00060910E0140910D0150910C0124E631E000
:1058C000C05FDD4F39832883C051D2409FEFCE5E49
:1058D000DD4F9883C251D240CD5EDD4F9883C351D6
:1058E000D240CC5EDD4F9883C451D240CB5EDD4FB9
:1058F0001882C551D240CF5FDD4F39832883C15014
:10590000D240CD5FDD4F8883C350D240CC5FDD4FA6
:105910005883C450D240CB5FDD4F4883C550D2403E
:1059200091E0CA5FDD4F9883C650D2403A83298305
:105930008B835C834D836E838091A80181116FC13D
:105940001FB7F8948091A301811124C0E8E3F7E028
:105950008491ECE4F7E09491E82FF0E0EE0FFF1F64
:10596000EC5DF84FA591B491EC91E92321F461E04D
:105970008AE00E94F8038AE00E94D6038CB5806119
:105980008CBD8CB580648CBD8DE00E94D6038BE00D
:105990000E94D6038091A3018F5F8093A3011FBF54
:1059A00080910001282F30E0F901E25DF84FE49189
:1059B000F0E0EE0FFF1FE65EF84F459154915093D3
:1059C000A6014093A501F901EE5BF84FE491E09345
:1059D000A4010E94D6030E94B90880E591E00E94CC
:1059E000F50387E38093FE0360E890E080E00E9487
:1059F000620904E110E041E050E0BE016A5E7D4FC3
:105A000090E080E00E94490ACA5EDD4F8881C6515D
:105A1000D240882309F4BFC061E070E080E090E0EC
:105A20000E9469040150110931F71092FE03E091C0
:105A3000FE03E353E53008F0B7CEF0E0E75DFE4F3C
:105A40008081882309F4B0CE81E794E00E940B0D99
:105A50008BE694E00E940B0D81E0A7CE823009F026
:105A600007CF8CE594E00E94CB0A81110DC06AE05B
:105A700070E080E090E00E9469048CE594E00E9470
:105A8000390BF092B501EFCE8CE594E00E94401006
:105A9000892B09F4E8CE8CE594E00E9496119FE9E9
:105AA000980F10EE180F9A3120F0182F8D3009F44E
:105AB000DACEE091A901E43008F051C0912F1A30FC
:105AC00009F490E081E08E0F8093A901F0E0E755A2
:105AD000FE4F9483E82FF0E0E755FE4F14821A3012
