:10FC000001C0B7C0112484B790E8909361001092AE
:10FC10006100882361F0982F9A70923041F081FF43
:10FC200002C097EF94BF282E80E0CDD0E9C197E0C5
:10FC300095B984B1876084B995B988B18C6C88B95D
:10FC400087B1846487B987B1877787B988B18C6CAD
:10FC500088B98091C10087748093C1001BB81AB81D
:10FC60008CE0B1D0A6D08C3A09F4FFCF813461F496
:10FC7000A0D0C82FAED0C238E9F0C13811F488E066
:10FC800001C083E086D072C0823411F484E103C0E5
:10FC9000853419F485E0A5D069C0853539F489D05B
:10FCA000082F87D0182F000F111F5FC0863521F451
:10FCB00084E097D080E0E6CF843609F036C079D072
:10FCC000C82FD0E0DC2FCC2774D0C82B72D0B82E30
:10FCD0007E01C12CDD24D3946CD0F60181936F0199
:10FCE000F1E0EF1AF108C1F774D085E4B81201C051
:10FCF000FFCF40E050E063E0C8013BD07801C12C69
:10FD0000DD24D394F601419151916F0161E0C70167
:10FD100030D02297F2E0EF0EF11C209799F740E0E7
:10FD200050E065E0C80125D021C0843789F441D076
:10FD3000C82FD0E0DC2FCC273CD0C82B3AD049D0FC
:10FD40007801F70185917F0124D02197D1F70EC06A
:10FD5000853739F43ED08EE11CD086E91AD08AE08E
:10FD600091CF813511F488E02ED033D080E111D0CD
:10FD700079CFFC010A0167BFE895112407B600FCA2
:10FD8000FDCF667029F0452B19F481E187BFE89516
:10FD900008953799FECF9FEF9AB98BB98BB94698E2
:10FDA0004698469846984698469A1BB81AB8A89519
:10FDB00008953399FECF42984298429842984298CB
:10FDC00089B1429A0895E0E6F0E098E1908380835B
:10FDD0000895EFDF803219F088E0F5DFFFCF84E18E
:10FDE000D8CFCF93C82FE5DFC150E9F7CF91F1CF3E
:02FFFE000008F9
:040000030000FC00FD
:00000001FF
